:0400000007EF00F016
:100008005F827BED37F05FEF36F068C068F169C05A
:1000180069F16AC06AF16BC06BF16CC084F16DC0A4
:1000280085F16EC086F16FC087F1FF0E010168157A
:10003800AC6FFF0E6915AD6FFF0E6A15AE6F7F0EC0
:100048006B15AF6FFF0E8415946FFF0E8515956FB6
:10005800FF0E8615966F7F0E8715976F9451951131
:1000680096119711D8A43BEF00F03DEF00F048EF50
:1000780000F0000E0001686F000E696F800E6A6F55
:100088003F0E6B6F63EF12F0800E6A1909E13F0EA5
:100098006B1968116911D8A454EF00F056EF00F0FD
:1000A80061EF00F0000E0001686F000E696F800EAE
:1000B8006A6F3F0E6B6F63EF12F0AFBF72EF00F025
:1000C800AC05000EAD59800EAE597F0EAF59D8B0B1
:1000D80070EF00F072EF00F083EF00F097BF81EF50
:1000E80000F09405000E9559800E96597F0E975989
:1000F800D8A081EF00F083EF00F09FEF00F068C018
:1001080041F069C042F06AC043F06BC044F06CC073
:1001180045F06DC046F06EC047F06FC048F00BEC7C
:100128001EF041C068F042C069F043C06AF044C0A4
:100138006BF063EF12F0000E546F000E556F000E57
:10014800566F000E576F6BBFAEEF00F0ACEF00F0CC
:100158007AEF01F097BFBAEF00F0800E965D4B0E74
:100168009759D8A0BAEF00F0BCEF00F0C6EF00F046
:10017800020E546F000E556F000E566F000E576F2B
:100188007AEF01F097BFD2EF00F0800E965D3F0E38
:100198009759D8A0D2EF00F0D4EF00F07AEF01F031
:1001A800170E0001706F94C171F095C172F096C17D
:1001B80073F097C174F07067E4EF00F0ECEF00F0B3
:1001C80074357433733372337133702FDFEF00F08B
:1001D800810E000171250101A46FFF0E000172213B
:1001E8000101A56FFF0E000173210101A66FFF0E2B
:1001F800000174210101A76FA45117080001706F55
:1002080094C171F095C172F096C173F097C174F002
:10021800706711EF01F019EF01F07435743373331F
:1002280072337133702F0CEF01F071C0A8F172C0F6
:10023800A9F173C0AAF174C0ABF10101A451170868
:100248000001706FA8C171F0A9C172F0AAC173F062
:10025800ABC174F0702B36EF01F0D890713772375C
:1002680073377437702F31EF01F001019451000199
:10027800711913E101019551000172190EE1010193
:1002880096510001731909E1010197510001741990
:10029800D8A451EF01F053EF01F07AEF01F0010E0D
:1002A8000101A8150001706F000E0101A9150001D8
:1002B800716F000E0101AA150001726F000E010195
:1002C800AB150001736F705102080101546F000EE5
:1002D800000171550101556F000E000172550101B1
:1002E800566F000E000173550101576F800E010112
:1002F800961909E17F0E971994119511D8A487EFE3
:1003080001F089EF01F0F5EF01F0800EAE1909E177
:100318003F0EAF19AC11AD11D8A495EF01F097EFCE
:1003280001F0A2EF01F0000E0001686F000E696F86
:10033800800E6A6F3F0E6B6F63EF12F0AFBFB1EFC5
:1003480001F0AC05000EAD59800EAE593F0EAF5905
:10035800D8A0B1EF01F0B3EF01F0CFEF01F087BF04
:10036800BAEF01F0B8EF01F0C5EF01F0000E00019F
:10037800686F000E696F000E6A6F000E6B6F63EF97
:1003880012F06CC068F06DC069F06EC06AF06FC0A2
:100398006BF063EF12F087BFD6EF01F0D4EF01F0F6
:1003A800EAEF01F06CC001F06DC002F06EC003F01E
:1003B8006FC004F045EC37F001C068F002C069F086
:1003C80003C06AF004C06BF063EF12F0000E000186
:1003D800686F000E696F000E6A6F000E6B6F63EF37
:1003E80012F0800E961909E13F0E97199411951194
:1003F800D8A401EF02F003EF02F030EF02F087BF5C
:100408000AEF02F008EF02F026EF02F0000E286E65
:10041800000E296E800E2A6E3F0E2B6E68C02CF0DF
:1004280069C02DF06AC02EF06BC02FF068EC24F084
:1004380028C068F029C069F02AC06AF02BC06BF0A8
:1004480063EF12F068C068F069C069F06AC06AF0CA
:100458006BC06BF063EF12F0400E871984118511A1
:100468008611D8A43AEF02F03CEF02F058EF02F000
:1004780068C00FF069C010F06AC011F06BC012F0CC
:1004880068C013F069C014F06AC015F06BC016F0AC
:1004980066EC20F00FC068F010C069F011C06AF077
:1004A80012C06BF063EF12F03F0E871984118511AB
:1004B8008611D8A462EF02F064EF02F07FEF02F039
:1004C8006BBF69EF02F06BEF02F07FEF02F068C0DC
:1004D80001F069C002F06AC003F06BC004F079EC67
:1004E80022F001C068F002C069F003C06AF004C0DD
:1004F8006BF063EF12F0ACC178F1ADC179F1AEC128
:100508007AF1AFC17BF1800EAE190BE17F0EAF1906
:10051800AC11AD11D8B493EF02F095EF02F0AEEF45
:1005280002F0AC51AD11AE11AF11D8B49EEF02F08C
:10053800A0EF02F0AEEF02F0800EAE1909E13F0E17
:10054800AF19AC11AD11D8A4ACEF02F0AEEF02F0C8
:1005580049EF03F078C1B4F179C1B5F17AC1B6F1C8
:100568007BC1B7F187BFBDEF02F0BBEF02F0D7EF59
:1005780002F0000E286E000E296E800E2A6E3F0EC5
:100588002B6EB4C12CF0B5C12DF0B6C12EF0B7C199
:100598002FF068EC24F028C0B4F129C0B5F12AC0C6
:1005A800B6F12BC0B7F101016BBFDFEF02F0DDEF51
:1005B80002F03FEF03F0000EAC250001706F000E53
:1005C8000101AD210001716F800E0101AE21000112
:1005D800726FC00E0101AF210001736F0101545108
:1005E80000017011746F0101555100017111756F8F
:1005F8000101565100017211766F01015751000136
:100608007311776F7451751176117711D8A40FEFA4
:1006180003F011EF03F021EF03F0000E0301696FFF
:10062800210E686FFF0E0101B46FFF0EB56FFF0E4C
:10063800B66F7F0EB76F3FEF03F0010154055511F8
:1006480056115711D8A42BEF03F02DEF03F03FEF0D
:1006580003F0B4C101F0B5C102F0B6C103F0B7C1EF
:1006680004F045EC37F001C0B4F102C0B5F103C0A5
:10067800B6F104C0B7F1B4C168F0B5C169F0B6C14C
:100688006AF0B7C16BF063EF12F0000E646F000EF2
:10069800656F000E666F000E676F6BBF58EF03F053
:1006A80056EF03F078EF03F05451551156115711D6
:1006B800D8A461EF03F063EF03F065EF03F011EFE7
:1006C80003F05405551156115711D8A46EEF03F0D5
:1006D80070EF03F078EF03F0000E646F000E656FA3
:1006E800000E666F800E676F97BF87EF03F0940563
:1006F800000E9559000E96594D0E9759D8A087EFC0
:1007080003F089EF03F04DEF05F0AFBF9BEF03F067
:10071800F80EAC5DFF0EAD597F0EAE593F0EAF59C6
:10072800D8B099EF03F09BEF03F0BCEF03F087BF5D
:10073800A2EF03F0A0EF03F0B1EF03F0000E010108
:100748006411B46F000E6511B56F800E6611B66F37
:100758007F0E6711B76F3FEF03F0000E0001686F5F
:10076800000E696F000E6A6F000E6B6F63EF12F078
:10077800AFBFCCEF03F0080EAC5D000EAD59800E94
:10078800AE593F0EAF59D8A0CCEF03F0CEEF03F02F
:10079800EAEF03F087BFDBEF03F08751861185117D
:1007A80008E18405D8A0DBEF03F0DDEF03F0DFEF0D
:1007B80003F0A2EF03F0000E0001686F000E696FEE
:1007C800000E6A6F000E6B6F63EF12F078C141F094
:1007D80079C142F07AC143F07BC144F0000E456E06
:1007E800000E466E800E476EBF0E486E0BEC1EF074
:1007F80041C0B0F142C0B1F143C0B2F144C0B3F15D
:10080800000E136E000E146E800E156E3E0E166EE0
:10081800B0C10FF0B1C110F0B2C111F0B3C112F004
:1008280066EC20F00FC055F010C056F011C057F01C
:1008380012C058F0AB0E516EAA0E526EAA0E536E2D
:100848003E0E546EA8EC36F051C048F152C049F142
:1008580053C04AF154C04BF1B0C113F0B1C114F008
:10086800B2C115F0B3C116F0B0C10FF0B1C110F0AC
:10087800B2C111F0B3C112F066EC20F00FC058F10C
:1008880010C059F111C05AF112C05BF1B0C113F098
:10089800B1C114F0B2C115F0B3C116F048C10FF0E0
:1008A80049C110F04AC111F04BC112F066EC20F0BA
:1008B8000FC055F010C056F011C057F012C058F0D4
:1008C800000E516E000E526E000E536E3F0E546EA7
:1008D800A8EC36F051C04CF152C04DF153C04EF166
:1008E80054C04FF158C10FF059C110F05AC111F05E
:1008F8005BC112F04CC113F04DC114F04EC115F09C
:100908004FC116F066EC20F00FC044F110C045F15D
:1009180011C046F112C047F1B0C10FF0B1C110F0DB
:10092800B2C111F0B3C112F0000E136EAA0E146E0C
:10093800B80E156E3F0E166E66EC20F00FC07CF1F7
:1009480010C07DF111C07EF112C07FF1700E136EE0
:10095800A50E146EEC0E156E360E166EB0C10FF0A5
:10096800B1C110F0B2C111F0B3C112F066EC20F0C1
:100978000FC051F010C052F011C053F012C054F023
:100988003B0E136EAA0E146EB80E156E3F0E166E41
:1009980044C10FF045C110F046C111F047C112F033
:1009A80066EC20F00FC055F010C056F011C057F09B
:1009B80012C058F0A8EC36F051C080F152C081F155
:1009C80053C082F154C083F17CC141F07DC142F033
:1009D8007EC143F07FC144F080C145F081C146F03B
:1009E80082C147F083C148F00BEC1EF041C08CF186
:1009F80042C08DF143C08EF144C08FF18CC198F193
:100A08008DC199F18EC19AF18FC19BF1000E010140
:100A180098158C6FF00E99158D6FFF0E9A158E6FC5
:100A2800FF0E9B158F6F7CC155F07DC156F07EC1BE
:100A380057F07FC158F08CC151F08DC152F08EC172
:100A480053F08FC154F0A8EC36F051C09CF152C05D
:100A58009DF153C09EF154C09FF180C151F081C1F6
:100A680052F082C153F083C154F09CC155F09DC12E
:100A780056F09EC157F09FC158F0A8EC36F051C00F
:100A88001CF152C01DF153C01EF154C01FF15BEFA1
:100A98000CF0000E886F000E896F000E8A6F000E32
:100AA8008B6FAFBF63EF05F0AF5107E1800EAE5D0E
:100AB800D8B061EF05F063EF05F08EEF05F078C16F
:100AC8000FF079C110F07AC111F07BC112F0000E5D
:100AD800136E000E146E800E156E4B0E166E66ECBD
:100AE80020F00FC078F110C079F111C07AF112C06E
:100AF8007BF1E80E01018827FF0E8923FF0E8A2368
:100B0800FF0E8B2378C1ACF179C1ADF17AC1AEF19A
:100B18007BC1AFF1170E0001706FACC171F0ADC1B0
:100B280072F0AEC173F0AFC174F070679EEF05F05C
:100B3800A6EF05F074357433733372337133702F45
:100B480099EF05F0810E00017125756FFF0E722176
:100B5800766FFF0E7321776FFF0E7421786F7551D2
:100B6800010188270001765101018923000177518D
:100B780001018A230001785101018B23FF0EAC1576
:100B8800A86FFF0EAD15A96F7F0EAE15AA6F000EE8
:100B9800AF15AB6F000EA46F000EA56F000EA66F09
:100BA800000EA76F000EA811AC6F000EA911AD6F53
:100BB800800EAA11AE6F3F0EAB11AF6FABBFF4EF53
:100BC80005F0AB510BE1720EA85DC40EA9591C0EBD
:100BD800AA59D8B0F2EF05F0F4EF05F0F6EF05F0FA
:100BE80020EF06F0ABBF08EF06F0AB510BE1D70ED4
:100BF800A85DB30EA9595D0EAA59D8B006EF06F044
:100C080008EF06F012EF06F0010EA46F000EA56FB4
:100C1800000EA66F000EA76F20EF06F0010E8827C2
:100C2800000E89238A238B23000EAC27000EAD23E8
:100C3800800EAE23FF0EAF23ACC178F1ADC179F1C0
:100C4800AEC17AF1AFC17BF178C151F079C152F0F0
:100C58007AC153F07BC154F0A4C170F0A5C171F002
:100C68000001D89070377137D890703771376D0E92
:100C78007025F66E7E0E7121F76E0900F5CF55F0DE
:100C88000900F5CF56F00900F5CF57F00A00F5CF67
:100C980058F0A8EC36F051C07CF152C07DF153C039
:100CA8007EF154C07FF1000E286E000E296E800E72
:100CB8002A6E3F0E2B6E78C145F079C146F07AC195
:100CC80047F07BC148F0A4C170F0A5C171F00001E4
:100CD800D89070377137D890703771376D0E70258E
:100CE800F66E7E0E7121F76E0900F5CF41F009000E
:100CF800F5CF42F00900F5CF43F00A00F5CF44F0F4
:100D08000BEC1EF041C02CF042C02DF043C02EF079
:100D180044C02FF068EC24F028C080F129C081F18C
:100D28002AC082F12BC083F17CC10FF07DC110F085
:100D38007EC111F07FC112F080C113F081C114F09F
:100D480082C115F083C116F066EC20F00FC060F187
:100D580010C061F111C062F112C063F160C174F199
:100D680061C175F162C176F163C177F174C198F11F
:100D780075C199F176C19AF177C19BF1000E010115
:100D88009815746FF00E9915756FFF0E9A15766F9A
:100D9800FF0E9B15776FACC170F0ADC171F0AEC19D
:100DA80072F0AFC173F0000173357333723371336E
:100DB8007033000E7015746FF00E7115756FFF0E9D
:100DC8007215766FFF0E7315776F000E741101019F
:100DD800986F000E000175110101996F000E000156
:100DE800761101019A6F200E0001771101019B6FA6
:100DF800A4C170F0A5C171F0A6C172F0A7C173F0CB
:100E0800150ED89000017037713772377337E82E96
:100E180005EF07F00101985100017025746F010179
:100E2800995100017121756F01019A5100017221D8
:100E3800766F01019B5100017321776F000E7425B5
:100E48000101706F000E000175210101716F400EE4
:100E5800000176210101726F000E00017721010166
:100E6800736FA4C170F0A5C171F00001D8907037FC
:100E78007137D890703771376D0E7025F66E7E0E0B
:100E88007121F76E0900F5CF55F00900F5CF56F03E
:100E98000900F5CF57F00A00F5CF58F070C151F0AE
:100EA80071C152F072C153F073C154F0A8EC36F01E
:100EB80051C09CF152C09DF153C09EF154C09FF1A6
:100EC80078C151F079C152F07AC153F07BC154F026
:100ED8009CC155F09DC156F09EC157F09FC158F076
:100EE800A8EC36F051C034F152C035F153C036F198
:100EF80054C037F170C113F071C114F072C115F00C
:100F080073C116F074C10FF075C110F076C111F0FD
:100F180077C112F066EC20F00FC055F010C056F003
:100F280011C057F012C058F07CC151F07DC152F089
:100F38007EC153F07FC154F0A8EC36F051C09CF14B
:100F480052C09DF153C09EF154C09FF134C113F0BB
:100F580035C114F036C115F037C116F074C10FF061
:100F680075C110F076C111F077C112F066EC20F06F
:100F78000FC055F010C056F011C057F012C058F00D
:100F88009CC151F09DC152F09EC153F09FC154F0D5
:100F9800A8EC36F051C058F152C059F153C05AF17B
:100FA80054C05BF158C10FF059C110F05AC111F08B
:100FB8005BC112F080C113F081C114F082C115F039
:100FC80083C116F066EC20F00FC030F110C031F18B
:100FD80011C032F112C033F160C10FF061C110F0DD
:100FE80062C111F063C112F060C113F061C114F065
:100FF80062C115F063C116F066EC20F00FC090F1E5
:1010080010C091F111C092F112C093F1550E456EC6
:10101800320E466E6C0E476E3E0E486E420E136ED2
:10102800F10E146E530E156E3E0E166E90C10FF033
:1010380091C110F092C111F093C112F066EC20F04A
:101048000FC041F010C042F011C043F012C044F08C
:101058000BEC1EF041C048F142C049F143C04AF1CF
:1010680044C04BF1050E456EA30E466E8B0E476EBF
:101078003E0E486E90C113F091C114F092C115F064
:1010880093C116F048C10FF049C110F04AC111F0E0
:101098004BC112F066EC20F00FC041F010C042F0D6
:1010A80011C043F012C044F00BEC1EF041C058F1DF
:1010B80042C059F143C05AF144C05BF1AB0E456ED2
:1010C800AA0E466EAA0E476E3E0E486E90C113F0E9
:1010D80091C114F092C115F093C116F058C10FF0E8
:1010E80059C110F05AC111F05BC112F066EC20F042
:1010F8000FC041F010C042F011C043F012C044F0DC
:101108000BEC1EF041C04CF142C04DF143C04EF112
:1011180044C04FF1B70E456E6D0E466EDB0E476E3E
:101128003E0E486E90C113F091C114F092C115F0B3
:1011380093C116F04CC10FF04DC110F04EC111F023
:101148004FC112F066EC20F00FC041F010C042F021
:1011580011C043F012C044F00BEC1EF041C038F14E
:1011680042C039F143C03AF144C03BF19A0E456E92
:10117800990E466E190E476E3F0E486E90C113F0D9
:1011880091C114F092C115F093C116F038C10FF057
:1011980039C110F03AC111F03BC112F066EC20F0F1
:1011A8000FC041F010C042F011C043F012C044F02B
:1011B8000BEC1EF041C000F142C001F143C002F146
:1011C80044C003F190C113F091C114F092C115F01D
:1011D80093C116F090C10FF091C110F092C111F0B7
:1011E80093C112F066EC20F00FC004F110C005F1B5
:1011F80011C006F112C007F100C10FF001C110F0D3
:1012080002C111F003C112F004C113F005C114F0BA
:1012180006C115F007C116F066EC20F00FC050F1BA
:1012280010C051F111C052F112C053F130C113F086
:1012380031C114F032C115F033C116F060C145F068
:1012480061C146F062C147F063C148F074C141F022
:1012580075C142F076C143F077C144F00BEC1EF043
:1012680041C00FF042C010F043C011F044C012F06A
:1012780066EC20F00FC05CF110C05DF111C05EF1AA
:1012880012C05FF150C141F051C142F052C143F068
:1012980053C144F05CC145F05DC146F05EC147F002
:1012A8005FC148F00BEC1EF041C050F142C051F153
:1012B80043C052F144C053F174C10FF075C110F02E
:1012C80076C111F077C112F074C113F075C114F032
:1012D80076C115F077C116F066EC20F00FC090F1DA
:1012E80010C091F111C092F112C093F1000E456E39
:1012F800000E466E400E476E400E486E90C141F09B
:1013080091C142F092C143F093C144F00BEC1EF03E
:1013180041C05CF142C05DF143C05EF144C05FF181
:101328005CC141F05DC142F05EC143F05FC144F071
:1013380050C145F051C146F052C147F053C148F081
:101348000BEC1EF041C070F142C071F143C072F164
:1013580044C073F170C198F171C199F172C19AF1E9
:1013680073C19BF1000E01019815706FF00E99156D
:10137800716FFF0E9A15726FFF0E9B15736F000E3B
:10138800456E000E466E400E476EC00E486E70C128
:1013980041F071C142F072C143F073C144F00BECEB
:1013A8001EF041C03CF142C03DF143C03EF144C093
:1013B8003FF190C155F091C156F092C157F093C1D9
:1013C80058F03CC151F03DC152F03EC153F03FC10D
:1013D80054F0A8EC36F051C040F152C041F153C06E
:1013E80042F154C043F150C151F051C152F052C1C1
:1013F80053F053C154F040C155F041C156F042C1B9
:1014080057F043C158F0A8EC36F051C034F152C03F
:1014180035F153C036F154C037F174C10FF075C1BE
:1014280010F076C111F077C112F070C113F071C1DC
:1014380014F072C115F073C116F066EC20F00FC0FD
:101448007CF110C07DF111C07EF112C07FF130C176
:1014580013F031C114F032C115F033C116F070C168
:101468000FF071C110F072C111F073C112F066EC87
:1014780020F00FC041F010C042F011C043F012C07C
:1014880044F060C113F061C114F062C115F063C18A
:1014980016F034C10FF035C110F036C111F037C164
:1014A80012F066EC20F00FC045F010C046F011C0F5
:1014B80047F012C048F00BEC1EF041C080F142C06A
:1014C80081F143C082F144C083F17CC141F07DC108
:1014D80042F07EC143F07FC144F080C145F081C134
:1014E80046F082C147F083C148F00BEC1EF041C0C2
:1014F800A0F142C0A1F143C0A2F144C0A3F1A0C130
:1015080098F1A1C199F1A2C19AF1A3C19BF1000E72
:1015180001019815A06FF00E9915A16FFF0E9A158D
:10152800A26FFF0E9B15A36F7CC155F07DC156F0CD
:101538007EC157F07FC158F0A0C151F0A1C152F04F
:10154800A2C153F0A3C154F0A8EC36F051C09CF1ED
:1015580052C09DF153C09EF154C09FF180C151F01B
:1015680081C152F082C153F083C154F09CC155F03F
:101578009DC156F09EC157F09FC158F0A8EC36F0B7
:1015880051C06CF152C06DF153C06EF154C06FF18F
:10159800A0C10FF0A1C110F0A2C111F0A3C112F0B7
:1015A800000E136E400E146E760E156E3F0E166EFC
:1015B80066EC20F00FC020F110C021F111C022F11B
:1015C80012C023F14F0E136E380E146E760E156E80
:1015D8003F0E166E6CC10FF06DC110F06EC111F0A8
:1015E8006FC112F066EC20F00FC045F010C046F055
:1015F80011C047F012C048F0C60E136E230E146EC9
:10160800F60E156EB80E166EA0C10FF0A1C110F03F
:10161800A2C111F0A3C112F066EC20F00FC041F096
:1016280010C042F011C043F012C044F00BEC1EF0A1
:1016380041C05CF142C05DF143C05EF144C05FF15E
:101648005CC141F05DC142F05EC143F05FC144F04E
:10165800A4C170F0A5C171F00001D890703771373E
:10166800D890703771375D0E7025F66E7E0E712139
:10167800F76E0900F5CF45F00900F5CF46F00900EF
:10168800F5CF47F00A00F5CF48F00BEC1EF041C04B
:1016980024F142C025F143C026F144C027F188C196
:1016A80001F089C102F08AC103F08BC104F0010E78
:1016B8005BEC2BF001C0B0F102C0B1F103C0B2F194
:1016C80004C0B3F124C145F025C146F026C147F056
:1016D80027C148F020C141F021C142F022C143F0A6
:1016E80023C144F00BEC1EF041C05CF142C05DF137
:1016F80043C05EF144C05FF1A4C170F0A5C171F0B0
:101708000001D89070377137D89070377137650EEF
:101718007025F66E7E0E7121F76E0900F5CF45F043
:101728000900F5CF46F00900F5CF47F00A00F5CFDC
:1017380048F05CC141F05DC142F05EC143F05FC159
:1017480044F00BEC1EF041C008F142C009F143C05F
:101758000AF144C00BF108C141F009C142F00AC1C5
:1017680043F00BC144F0B0C145F0B1C146F0B2C17D
:1017780047F0B3C148F00BEC1EF041C08CF142C0F9
:101788008DF143C08EF144C08FF18CC198F18DC1A9
:1017980099F18EC19AF18FC19BF1000E0101981544
:1017A8008C6FF00E99158D6FFF0E9A158E6FFF0EC8
:1017B8009B158F6FB0C155F0B1C156F0B2C157F04B
:1017C800B3C158F08CC151F08DC152F08EC153F0A5
:1017D8008FC154F0A8EC36F051C09CF152C09DF175
:1017E80053C09EF154C09FF1A4C170F0A5C171F01F
:1017F8000001D89070377137D89070377137650EFF
:101808007025F66E7E0E7121F76E0900F5CF55F042
:101818000900F5CF56F00900F5CF57F00A00F5CFCB
:1018280058F09CC151F09DC152F09EC153F09FC128
:1018380054F0A8EC36F051C040F152C041F153C009
:1018480042F154C043F120C155F021C156F022C1E4
:1018580057F023C158F040C151F041C152F042C184
:1018680053F043C154F0A8EC36F051C00CF152C00B
:101878000DF153C00EF154C00FF124C151F025C130
:1018880052F026C153F027C154F00CC155F00DC1D8
:1018980056F00EC157F00FC158F0A8EC36F051C001
:1018A8001CF152C01DF153C01EF154C01FF16CC091
:1018B80098F16DC099F16EC09AF16FC09BF1000E5E
:1018C800010198152C6FF00E99152D6FFF0E9A15C2
:1018D8002E6FFF0E9B152F6F8CC113F08DC114F066
:1018E8008EC115F08FC116F02CC155F02DC156F0E0
:1018F8002EC157F02FC158F06CC051F06DC052F096
:101908006EC053F06FC054F0A8EC36F051C00FF021
:1019180052C010F053C011F054C012F066EC20F021
:101928000FC010F110C011F111C012F112C013F163
:1019380010C141F011C142F012C143F013C144F08B
:101948001CC113F01DC114F01EC115F01FC116F003
:101958006CC00FF06DC010F06EC011F06FC012F0C7
:1019680066EC20F00FC045F010C046F011C047F0FB
:1019780012C048F00BEC1EF041C06CF142C06DF192
:1019880043C06EF144C06FF12CC10FF02DC110F0AF
:101998002EC111F02FC112F08CC113F08DC114F0BB
:1019A8008EC115F08FC116F066EC20F00FC0A0F1C3
:1019B80010C0A1F111C0A2F112C0A3F1A0C141F061
:1019C800A1C142F0A2C143F0A3C144F06CC145F0EB
:1019D8006DC146F06EC147F06FC148F00BEC1EF0C8
:1019E80041C0B4F142C0B5F143C0B6F144C0B7F14B
:1019F800B4C1A8F1B5C1A9F1B6C1AAF1B7C1ABF19B
:101A08000101ABBF14EF0DF0A805000EA959000E97
:101A1800AA59430EAB59D8A014EF0DF016EF0DF0EC
:101A280018EF0DF0A2EF03F0430EAB19A811A9119E
:101A3800AA11D8A422EF0DF024EF0DF064EF0DF0F9
:101A4800A0C155F0A1C156F0A2C157F0A3C158F0EA
:101A5800B4C151F0B5C152F0B6C153F0B7C154F09A
:101A6800A8EC36F051C060F052C061F053C062F08B
:101A780054C063F03C0E456EAA0E466E380E476E93
:101A8800330E486E6CC141F06DC142F06EC143F037
:101A98006FC144F00BEC1EF041C064F042C065F029
:101AA80043C066F044C067F0FEEC2FF00001D8B0E8
:101AB80060EF0DF062EF0DF0D7EF0DF0A2EF03F03D
:101AC800FF0EA8150001706FFF0E0101A915000196
:101AD800716FFF0E0101AA150001726F7F0E0101DF
:101AE800AB150001736F73BF86EF0DF07005000E24
:101AF8007159160E7259430E7359D8A086EF0DF01E
:101B080088EF0DF092EF0DF0000E686F000E696F10
:101B1800000E6A6F000E6B6F63EF12F0160E010174
:101B2800AA1909E1C30EAB19A811A911D8A49FEFEE
:101B38000DF0A1EF0DF0D7EF0DF0A0C155F0A1C148
:101B480056F0A2C157F0A3C158F0B4C151F0B5C1C5
:101B580052F0B6C153F0B7C154F0A8EC36F051C0FA
:101B680060F052C061F053C062F054C063F06CC1C1
:101B780064F06DC165F06EC166F06FC167F0FEEC90
:101B88002FF00001D8A0CBEF0DF0CDEF0DF0D7EF7F
:101B98000DF0000E686F000E696F000E6A6F000E80
:101BA8006B6F63EF12F0FF0E0101A815286FFF0E8F
:101BB800A915296FFF0EAA152A6F7F0EAB152B6F7B
:101BC800170E0001706F28C171F029C172F02AC187
:101BD80073F02BC174F07067F4EF0DF0FCEF0DF0AB
:101BE80074357433733372337133702FEFEF0DF034
:101BF800810E000171250101A46FFF0E0001722101
:101C08000101A56FFF0E000173210101A66FFF0EF0
:101C1800000174210101A76F000E886F000E896F03
:101C2800000E8A6F000E8B6F2BBF27EF0EF0280572
:101C3800000E2959000E2A593F0E2B59D8A027EF1C
:101C48000EF029EF0EF025EF0FF0A4C170F0010E91
:101C580000017027000E716F000E726F800E736F97
:101C6800000E746F70673BEF0EF043EF0EF07435A3
:101C78007433733372337133702F36EF0EF0010102
:101C8800A851000171250101886FA9510001722135
:101C98000101896FAA510001732101018A6FAB51BB
:101CA8000001742101018B6F810E0001706FFF0E1E
:101CB800716FFF0E726FFF0E736F170E746F88C10E
:101CC80075F089C176F08AC177F08BC178F07467B6
:101CD80070EF0EF078EF0EF078357833773376338F
:101CE8007533742F6BEF0EF00001755170250101EB
:101CF800A46F000E000171210101A56F000E000103
:101D080072210101A66F000E000173210101A76F66
:101D1800A4C170F0FF0E0001716FFF0E726F7F0E8D
:101D2800736F000E746F70679CEF0EF0A4EF0EF0E7
:101D380074357433733372337133702F97EF0EF039
:101D48000001711D756F721D766F731D776F741D9D
:101D5800786F01018851000175150101B06F895133
:101D6800000176150101B16F8A5100017715010153
:101D7800B26F8B51000178150101B36FA451170898
:101D88000001706FFF0E010188150001716FFF0ED1
:101D9800010189150001726F7F0E01018A1500018A
:101DA800736F000E01018B150001746F000E711125
:101DB800756F000E7211766F800E7311776F000EBB
:101DC8007411786F7067EBEF0EF0F3EF0EF0783563
:101DD8007833773376337533702FE6EF0EF075C0AE
:101DE80088F176C089F177C08AF178C08BF101015A
:101DF800ABBF03EF0FF001EF0FF00BEF0FF08B1FEE
:101E08008A1F891F886D000E89238A238B23A0C10E
:101E180051F0A1C152F0A2C153F0A3C154F0B0C116
:101E280055F0B1C156F0B2C157F0B3C158F0A8ECA3
:101E380036F051C0A0F152C0A1F153C0A2F154C074
:101E4800A3F1A0C141F0A1C142F0A2C143F0A3C1D6
:101E580044F06CC145F06DC146F06EC147F06FC1EA
:101E680048F00BEC1EF041C0B0F142C0B1F143C0E4
:101E7800B2F144C0B3F1B0C198F1B1C199F1B2C1A6
:101E88009AF1B3C19BF1000E01019815B06F800E55
:101E98009915B16FFF0E9A15B26FFF0E9B15B36FB0
:101EA800B0C10FF0B1C110F0B2C111F0B3C112F05E
:101EB800000E136E720E146E310E156E3F0E166EF6
:101EC80066EC20F00FC07CF110C07DF111C07EF1EE
:101ED80012C07FF1A0C155F0A1C156F0A2C157F0C0
:101EE800A3C158F0B0C151F0B1C152F0B2C153F022
:101EF800B3C154F0A8EC36F051C09CF152C09DF12A
:101F080053C09EF154C09FF1180E136E720E146EDA
:101F1800310E156E3F0E166E9CC155F09DC156F0E0
:101F28009EC157F09FC158F06CC151F06DC152F07D
:101F38006EC153F06FC154F0A8EC36F051C00FF0E9
:101F480052C010F053C011F054C012F066EC20F0EB
:101F58000FC014F110C015F111C016F112C017F11D
:101F680014C141F015C142F016C143F017C144F045
:101F78008C0E136EBE0E146EBF0E156E350E166ED9
:101F8800B0C10FF0B1C110F0B2C111F0B3C112F07D
:101F980066EC20F00FC045F010C046F011C047F0C5
:101FA80012C048F00BEC1EF041C080F142C081F134
:101FB80043C082F144C083F17CC141F07DC142F04D
:101FC8007EC143F07FC144F080C145F081C146F035
:101FD80082C147F083C148F00BEC1EF041C0B4F158
:101FE80042C0B5F143C0B6F144C0B7F17CC155F069
:101FF8007DC156F07EC157F07FC158F0B4C151F091
:10200800B5C152F0B6C153F0B7C154F0A8EC36F0E0
:1020180051C09CF152C09DF153C09EF154C09FF134
:1020280080C151F081C152F082C153F083C154F094
:102038009CC155F09DC156F09EC157F09FC158F004
:10204800A8EC36F051C044F152C045F153C046F1F6
:1020580054C047F1B4C10FF0B5C110F0B6C111F0CA
:10206800B7C112F0B4C113F0B5C114F0B6C115F080
:10207800B7C116F066EC20F00FC0B0F110C0B1F196
:1020880011C0B2F112C0B3F10E0E456EEA0E466EE3
:10209800DD0E476EB50E486E4C0E136EBB0E146EF9
:1020A800310E156E330E166EB0C10FF0B1C110F0BF
:1020B800B2C111F0B3C112F066EC20F00FC041F0CC
:1020C80010C042F011C043F012C044F00BEC1EF0F7
:1020D80041C048F142C049F143C04AF144C04BF104
:1020E800550E456EB30E466E8A0E476E380E486E14
:1020F800B0C113F0B1C114F0B2C115F0B3C116F0FC
:1021080048C10FF049C110F04AC111F04BC112F09B
:1021180066EC20F00FC041F010C042F011C043F04F
:1021280012C044F00BEC1EF041C058F142C059F106
:1021380043C05AF144C05BF1610E456E0B0E466E0A
:10214800360E476EBB0E486EB0C113F0B1C114F025
:10215800B2C115F0B3C116F058C10FF059C110F053
:102168005AC111F05BC112F066EC20F00FC041F0CB
:1021780010C042F011C043F012C044F00BEC1EF046
:1021880041C04CF142C04DF143C04EF144C04FF143
:10219800AB0E456EAA0E466E2A0E476E3E0E486E70
:1021A800B0C113F0B1C114F0B2C115F0B3C116F04B
:1021B8004CC10FF04DC110F04EC111F04FC112F0DB
:1021C80066EC20F00FC041F010C042F011C043F09F
:1021D80012C044F00BEC1EF041C038F142C039F196
:1021E80043C03AF144C03BF1B4C151F0B5C152F01B
:1021F800B6C153F0B7C154F0B0C113F0B1C114F077
:10220800B2C115F0B3C116F038C10FF039C110F0E2
:102218003AC111F03BC112F066EC20F00FC055F046
:1022280010C056F011C057F012C058F0A8EC36F0A4
:1022380051C08CF152C08DF153C08EF154C08FF152
:10224800000E456E000E466E000E476EC00E486EBC
:102258008CC141F08DC142F08EC143F08FC144F072
:102268000BEC1EF041C02CF042C02DF043C02EF004
:1022780044C02FF08CC113F08DC114F08EC115F03D
:102288008FC116F0B4C10FF0B5C110F0B6C111F08E
:10229800B7C112F066EC20F00FC028F010C029F08A
:1022A80011C02AF012C02BF068EC24F028C03CF1D1
:1022B80029C03DF12AC03EF12BC03FF144C145F091
:1022C80045C146F046C147F047C148F044C113F044
:1022D80045C114F046C115F047C116F0B4C10FF05E
:1022E800B5C110F0B6C111F0B7C112F066EC20F01C
:1022F8000FC041F010C042F011C043F012C044F0CA
:102308000BEC1EF041C018F142C019F143C01AF19C
:1023180044C01BF13CC151F03DC152F03EC153F0E5
:102328003FC154F018C155F019C156F01AC157F001
:102338001BC158F0A8EC36F051C050F152C051F111
:1023480053C052F154C053F1B4C155F0B5C156F061
:10235800B6C157F0B7C158F050C151F051C152F051
:1023680052C153F053C154F0A8EC36F051C09CF15F
:1023780052C09DF153C09EF154C09FF1000E516EA2
:10238800000E526E800E536E3F0E546E9CC155F077
:102398009DC156F09EC157F09FC158F0A8EC36F089
:1023A80051C0B4F152C0B5F153C0B6F154C0B7F141
:1023B800B4C1A8F1B5C1A9F1B6C1AAF1B7C1ABF1D1
:1023C80088C170F089C171F08AC172F08BC173F055
:1023D800170ED89000017037713772377337E82EAF
:1023E800EDEF11F070510101A827000171510101B1
:1023F800A923000172510101AA23000173510101AF
:10240800AB23170E0001706FA8C171F0A9C172F05B
:10241800AAC173F0ABC174F0706715EF12F01DEF2D
:1024280012F074357433733372337133702F10EFC5
:1024380012F0000174BF2DEF12F074517311721174
:1024480006E17105D8B02BEF12F02DEF12F045EF31
:1024580012F0B4C128F0B5C129F0B6C12AF0B7C14D
:102468002BF088C12CF089C12DF038EC29F028C058
:10247800B4F129C0B5F12AC0B6F12BC0B7F14DEFC0
:1024880012F0A8C1B4F1A9C1B5F1AAC1B6F1ABC1A6
:10249800B7F10101B451B511B611B711D8B457EF5E
:1024A80012F059EF12F03FEF03F06451B41B65517D
:1024B800B51B6651B61B6751B71B3FEF03F01200FF
:1024C8000001916B69C092F06AC093F06BC094F000
:1024D8006CC095F095BF75EF12F073EF12F089EFAD
:1024E80012F0010E916F92C001F093C002F094C0F7
:1024F80003F095C004F045EC37F001C092F002C03B
:1025080093F003C094F004C095F0000E0001976F9B
:10251800000E966F6AC381F06BC382F09151D8B4F4
:1025280098EF12F09AEF12F0AEEF12F09151D8A492
:10253800A0EF12F0A2EF12F0A8EF12F0000E776FE2
:102548002B0E766FACEF12F0000E776F2D0E766FB4
:1025580076C091F092C001F093C002F094C003F0ED
:1025680095C004F083EC31F001040210D8A4BFEF49
:1025780012F0C1EF12F0F2EF12F000019151D8B44D
:10258800C8EF12F0CAEF12F0D3EF12F091C07AF34D
:102598008107D8A08207000E976F010E966F7A0EFA
:1025A8009625016E030E9721026EF70E036E7F0EBD
:1025B800046E29EC37F00001FD0E8127FF0E8223FF
:1025C80068C00FF07A0E106E030E116E81C012F003
:1025D80082C013F0D9EC35F05BEF17F092C001F030
:1025E80093C002F094C003F095C004F083EC31F07E
:1025F80001500210D8A403EF13F005EF13F025EFF4
:1026080013F000019151D8B40CEF13F00EEF13F052
:1026180017EF13F091C07AF38107D8A08207000E54
:10262800976F010E966F7A0E9625016E030E97210D
:10263800026EFB0E036E7F0E046E29EC37F0DFEF9F
:1026480012F0000E0001986F000E996F800E9A6FBD
:102658003F0E9B6F000E806F000E7F6F92C001F0DF
:1026680093C002F094C003F095C004F0000E056E0C
:10267800000E066E000E076E000E086E69EC34F050
:10268800D8B049EF13F04BEF13F02BEF14F058EFDD
:1026980013F083C098F084C099F085C09AF086C082
:1026A8009BF000017F4B802B98C00FF099C010F071
:1026B8009AC011F09BC012F0000E136E000E146E3B
:1026C800200E156E410E166E66EC20F00FC083F0DA
:1026D80010C084F011C085F012C086F0000183514B
:1026E800925D016E84519359026E85519459036E1F
:1026F80086519559046E0CEC36F004BE8FEF13F03A
:1027080004500310021009E1020E015CD8A08FEFFB
:1027180013F091EF13F04DEF13F083C060F084C015
:1027280061F085C062F086C063F092C064F093C027
:1027380065F094C066F095C067F0FEEC2FF00001DC
:10274800D8A0A9EF13F0ABEF13F04DEF13F09851A9
:10275800925D016E99519359026E9A519459036E84
:102768009B519559046E0CEC36F004BEC9EF13F07A
:1027780004500310021007E1020E015CD8B0C7EF45
:1027880013F0C9EF13F011EF14F098C092F099C04C
:1027980093F09AC094F09BC095F02BEF14F098C07A
:1027A80028F099C029F09AC02AF09BC02BF0000E9F
:1027B8002C6E000E2D6E200E2E6E410E2F6E68ECC4
:1027C80024F028C098F029C099F02AC09AF02BC0AC
:1027D8009BF000017F07D8A080079851925D016E99
:1027E80099519359026E9A519459036E9B51955978
:1027F800046E0CEC36F004BE0FEF14F00450031016
:10280800021007E1020E015CD8B00DEF14F00FEFD3
:1028180014F011EF14F0C9EF13F092C060F093C0F8
:1028280061F094C062F095C063F098C064F099C0FC
:1028380065F09AC066F09BC067F0FEEC2FF00001CF
:10284800D8A029EF14F02BEF14F0D3EF13F06DC0DC
:1028580079F079C07AF00201FFBF35EF14F037EF55
:1028680014F03DEF14F0FEC272F0FFC273F042EFB5
:1028780014F0000E0001736F060E726F72C07DF0C7
:1028880073C07EF000017D4B7E2B660E7A19D8A4AA
:1028980050EF14F052EF14F072EF14F080BF59EFBC
:1028A80014F057EF14F065EF14F0000E986F000E57
:1028B800996F800E9A6F3F0E9B6F000E806F000E0F
:1028C8007F6F670E7919D8B46CEF14F06EEF14F0BF
:1028D80072EF14F07F517D2780517E23000E886FA0
:1028E800000E876F92C089F093C08AF094C08BF075
:1028F80095C08CF098C083F099C084F09AC085F098
:102908009BC086F003EF15F089C028F08AC029F033
:102918008BC02AF08CC02BF098C02CF099C02DF0F9
:102928009AC02EF09BC02FF068EC24F028C041F02C
:1029380029C042F02AC043F02BC044F052EC2AF0E0
:1029480041C08DF042C08EF043C08FF044C090F07B
:102958008DC001F08EC002F08FC003F090C004F06B
:102968007BEC2FF001C07BF002C07CF089C051F0F5
:102978008AC052F08BC053F08CC054F08DC013F055
:102988008EC014F08FC015F090C016F098C00FF0EC
:1029980099C010F09AC011F09BC012F066EC20F0BC
:1029A8000FC055F010C056F011C057F012C058F0C3
:1029B800A8EC36F051C089F052C08AF053C08BF0B1
:1029C80054C08CF098C028F099C029F09AC02AF019
:1029D8009BC02BF0000E2C6E000E2D6E200E2E6E5E
:1029E800410E2F6E68EC24F028C098F029C099F0A9
:1029F8002AC09AF02BC09BF00001874B882B7D5191
:102A0800875D8851800A6E6F7E51800A6E59D8A002
:102A180010EF15F012EF15F088EF14F098C00FF0D2
:102A280099C010F09AC011F09BC012F0000E136EFE
:102A3800000E146EA00E156E400E166E66EC20F099
:102A48000FC08DF010C08EF011C08FF012C090F042
:102A580089C060F08AC061F08BC062F08CC063F0FE
:102A68008DC064F08EC065F08FC066F090C067F0CE
:102A7800FEEC2FF00001D8B044EF15F046EF15F04A
:102A880050EF15F0000E8D6F000E8E6F000E8F6FD9
:102A9800000E906F79EF15F089C001F08AC002F03E
:102AA8008BC003F08CC004F08DC005F08EC006F01A
:102AB8008FC007F090C008F069EC34F0D8A067EF39
:102AC80015F069EF15F079EF15F000017BB16FEFA4
:102AD80015F071EF15F079EF15F0000E8D6F000EFF
:102AE8008E6F000E8F6F000E906F92C041F093C0F2
:102AF80042F094C043F095C044F08DC045F08EC0BC
:102B080046F08FC047F090C048F00BEC1EF041C073
:102B180089F042C08AF043C08BF044C08CF089C071
:102B280060F08AC061F08BC062F08CC063F0000E68
:102B3800136E000E146E200E156E410E166E83C0B5
:102B48000FF084C010F085C011F086C012F066EC5A
:102B580020F00FC064F010C065F011C066F012C01C
:102B680067F0FEEC2FF00001D8A0BDEF15F0BFEF25
:102B780015F0E7EF15F07F4B802B83C00FF084C072
:102B880010F085C011F086C012F0000E136E000E12
:102B9800146E200E156E410E166E66EC20F00FC0F6
:102BA80083F010C084F011C085F012C086F0660E64
:102BB80000017A19D8A4E3EF15F0E5EF15F0E7EF77
:102BC80015F07D4B7E2B83C098F084C099F085C0AA
:102BD8009AF086C09BF07FC070F080C071F0786B6F
:102BE800000E756F000E746F000E886F000E876FF1
:102BF800E3EF16F089C028F08AC029F08BC02AF0CC
:102C08008CC02BF098C02CF099C02DF09AC02EF0F3
:102C18009BC02FF068EC24F028C041F029C042F096
:102C28002AC043F02BC044F052EC2AF041C08DF08A
:102C380042C08EF043C08FF044C090F08DC001F0C8
:102C48008EC002F08FC003F090C004F07BEC2FF030
:102C580002BE3AEF16F0025007E10A0E015CD8B046
:102C680038EF16F03AEF16F04AEF16F08DC001F083
:102C78008EC002F08FC003F090C004F07BEC2FF000
:102C880001C07BF002C07CF04FEF16F0000E00018F
:102C98007C6F090E7B6F00017851D8A456EF16F0AF
:102CA80058EF16F080EF16F071BF5FEF16F05DEF8A
:102CB80016F080EF16F07A0E9625D96E030E97213E
:102CC800DA6E2E0EDF6E964B972B8107D8A08207FF
:102CD800010E786F80EF16F07A0E9625D96E030EE6
:102CE8009721DA6E300EDF6E964B972B8107D8A0AE
:102CF80082077407D8A0750774517511D8A487EF97
:102D080016F089EF16F070EF16F07A0E9625D96E48
:102D1800030E9721DA6E7B51300FDF6E964B972B9F
:102D28008107D8A0820789C051F08AC052F08BC0B1
:102D380053F08CC054F08DC013F08EC014F08FC0C7
:102D480015F090C016F098C00FF099C010F09AC016
:102D580011F09BC012F066EC20F00FC055F010C0C7
:102D680056F011C057F012C058F0A8EC36F051C018
:102D780089F052C08AF053C08BF054C08CF098C0D0
:102D880028F099C029F09AC02AF09BC02BF0000EB9
:102D98002C6E000E2D6E200E2E6E410E2F6E68ECDE
:102DA80024F028C098F029C099F02AC09AF02BC0C6
:102DB8009BF000017007D8A07107874B882B7D51C5
:102DC800875D8851800A6E6F7E51800A6E59D8B02F
:102DD800F0EF16F0F2EF16F000EF17F097BFFEEFE6
:102DE80016F0975109E14B0E965DD8A0FEEF16F04C
:102DF80000EF17F0FEEF15F0000E886F4F0E876F8B
:102E08007A0E8725D96E030E8821DA6EDF6A7A0E6C
:102E18006E6F030E6F6F96516E5F97516F5B8751A0
:102E28006E25016E88516F21026E7A0E036E030EB5
:102E3800046E96C005F097C006F037EC36F0000136
:102E48009651875D966F97518859976F9151D8A47D
:102E580030EF17F033EF17F0010E34EF17F0000ED4
:102E6800876F886B9151D8B43CEF17F03EEF17F09D
:102E780049EF17F09607D8A097077A0E9625D96ECE
:102E8800030E9721DA6E91C0DFFF8751815F885169
:102E9800825B68C00FF07A0E9625106E030E97219C
:102EA800116E81C012F082C013F0D9EC35F0120017
:102EB800000E0DEC37F001C095F002C096F0000E40
:102EC8002C6E000E2D6E800E2E6E440E2F6E000E90
:102ED800136E000E146EA00E156E400E166E95C081
:102EE80001F096C002F0036A046A000E5BEC2BF056
:102EF80001C00FF002C010F003C011F004C012F0BE
:102F080066EC20F00FC028F010C029F011C02AF09C
:102F180012C02BF068EC24F028C089F029C08AF090
:102F28002AC08BF02BC08CF089C028F08AC029F009
:102F38008BC02AF08CC02BF00A0E2C6ED70E2D6E8B
:102F4800230E2E6E3C0E2F6E68EC24F028C07DF008
:102F580029C07EF02AC07FF02BC080F07DC051F0E0
:102F68007EC052F07FC053F080C054F0E20E556E20
:102F7800030E566EEBEC32F051C064F352C065F3A9
:102F880053C066F354C067F3010E0DEC37F001C06F
:102F980097F002C098F0000E136E000E146EA00E8B
:102FA800156E400E166E97C001F098C002F0036AC5
:102FB800046A000E5BEC2BF001C00FF002C010F0A9
:102FC80003C011F004C012F066EC20F00FC028F026
:102FD80010C029F011C02AF012C02BF0000E2C6E80
:102FE800000E2D6E800E2E6E440E2F6E68EC24F0AF
:102FF80028C081F029C082F02AC083F02BC084F059
:10300800000E136E000E146EC80E156E420E166E6C
:1030180081C055F082C056F083C057F084C058F084
:103028005CC351F05DC352F05EC353F05FC354F00C
:10303800A8EC36F051C00FF052C010F053C011F098
:1030480054C012F066EC20F00FC028F010C029F030
:1030580011C02AF012C02BF05CC32CF05DC32DF018
:103068005EC32EF05FC32FF068EC24F028C060F335
:1030780029C061F32AC062F32BC063F3030163BF65
:103088004AEF18F048EF18F052EF18F0000E606F92
:10309800000E616F000E626F000E636F000E00017C
:1030A800606F000E616FC80E626F420E636F60C37F
:1030B80064F061C365F062C366F063C367F0FEEC59
:1030C8002FF00001D8B06BEF18F06DEF18F076EF25
:1030D80018F0000E0301606F000E616FC80E626F7A
:1030E800420E636F03017951D8A47DEF18F07FEF8A
:1030F80018F09FEF18F060C360F061C361F062C31D
:1031080062F063C363F0000E0001646F000E656F28
:10311800700E666F410E676FFEEC2FF00001D8A0AD
:1031280098EF18F09AEF18F09FEF18F0010E0301CE
:10313800796FC5EF18F003017951D8B4A6EF18F0EC
:10314800A8EF18F0C5EF18F0000E0001606F000E30
:10315800616F400E626F410E636F60C364F061C3BC
:1031680065F062C366F063C367F0FEEC2FF0000100
:10317800D8A0C1EF18F0C3EF18F0C5EF18F003019D
:10318800796B020E0DEC37F001C099F002C09AF08D
:10319800000E136E000E146EA00E156E400E166E05
:1031A80099C001F09AC002F0036A046A000E5BEC51
:1031B8002BF001C00FF002C010F003C011F004C0E2
:1031C80012F066EC20F00FC028F010C029F011C0F2
:1031D8002AF012C02BF0000E2C6E000E2D6E800E01
:1031E8002E6E440E2F6E68EC24F028C09BF029C088
:1031F8009CF02AC09DF02BC09EF09BC055F09CC04F
:1032080056F09DC057F09EC058F0000E516E000E4B
:10321800526EA00E536E400E546EA8EC36F051C09C
:1032280028F052C029F053C02AF054C02BF09BC09C
:103238002CF09CC02DF09DC02EF09EC02FF068ECA5
:1032480024F028C0A7F029C0A8F02AC0A9F02BC0F4
:10325800AAF00A0E136ED70E146EA30E156E3C0E4E
:10326800166E000E456E000E466EC80E476EC10EF5
:10327800486E64C341F065C342F066C343F067C358
:1032880044F00BEC1EF041C00FF042C010F043C0F8
:1032980011F044C012F066EC20F00FC08DF010C0A1
:1032A8008EF011C08FF012C090F08DC041F08EC02A
:1032B80042F08FC043F090C044F0000E456E000EFF
:1032C800466E800E476E3F0E486E0BEC1EF041C0F6
:1032D80085F042C086F043C087F044C088F0A7C09C
:1032E80028F0A8C029F0A9C02AF0AAC02BF085C0F0
:1032F8002CF086C02DF087C02EF088C02FF068EC27
:1033080024F028C0A7F029C0A8F02AC0A9F02BC033
:10331800AAF0A7C028F0A8C029F0A9C02AF0AAC01E
:103328002BF0DEC32CF0DFC32DF0E0C32EF0E1C399
:103338002FF068EC24F028C09FF029C0A0F02AC024
:10334800A1F02BC0A2F0000E0001AB6F000EAC6F15
:10335800000EAD6F000EAE6FCD0E606FCC0E616FBC
:10336800CC0E626F3D0E636F9FC064F0A0C065F025
:10337800A1C066F0A2C067F0FEEC2FF00001D8B043
:10338800C8EF19F0CAEF19F0FEEF19F0000E6C6FD4
:10339800000E6D6FC00E6E6FBF0E6F6F9FC068F02E
:1033A800A0C069F0A1C06AF0A2C06BF009EC00F0FF
:1033B80068C091F069C092F06AC093F06BC094F055
:1033C80091C00FF092C010F093C011F094C012F0A9
:1033D800000E136E000E146E700E156E410E166EF2
:1033E80066EC20F00FC0ABF010C0ACF011C0ADF02F
:1033F80012C0AEF00001AEBF06EF1AF004EF1AF0EB
:103408000EEF1AF0000EAB6F000EAC6F000EAD6F32
:10341800000EAE6F000E606F000E616F7A0E626F65
:10342800440E636FABC064F0ACC065F0ADC066F02D
:10343800AEC067F0FEEC2FF00001D8B026EF1AF00E
:1034480028EF1AF030EF1AF0000EAB6F000EAC6FD9
:103458007A0EAD6F440EAE6F9A0E136E990E146EFF
:10346800990E156E3E0E166EABC00FF0ACC010F084
:10347800ADC011F0AEC012F066EC20F00FC041F004
:1034880010C042F011C043F012C044F0330E136E66
:10349800330E146E330E156E3F0E166E2CC30FF0DE
:1034A8002DC310F02EC311F02FC312F066EC20F0DC
:1034B8000FC045F010C046F011C047F012C048F0E8
:1034C8000BEC1EF041C058F342C059F343C05AF305
:1034D80044C05BF358C32CF359C32DF35AC32EF3DE
:1034E8005BC32FF3030128510201FA5D0001796FD4
:1034F800030129510201FB5900017A6F03012A5186
:103508000201FC5900017B6F03012B510201FD5997
:1035180000017C6F7C517B110BE1E80E795D030E95
:103528007A59D8A09AEF1AF09CEF1AF083EF1BF0A3
:103538006EC3A3F06FC3A4F003016C510001A35D37
:10354800A56F03016D510001A459A66FA551A611DD
:10355800D8A4B1EF1AF0B3EF1AF00DEF1BF0000E7C
:103568000301546F000E556F000E566F000E576F13
:103578002451251126112711D8A4C5EF1AF0C7EF39
:103588001AF0D1EF1AF0FAC224F3FBC225F3FCC2F9
:1035980026F3FDC227F377EF1BF024510201FA5DF1
:1035A8000001796F030125510201FB5900017A6F6F
:1035B800030126510201FC5900017B6F03012751C9
:1035C8000201FD5900017C6F7C517B110BE1880ED3
:1035D800795D130E7A59D8A0F4EF1AF0F6EF1AF0C5
:1035E80077EF1BF0000E0301506F000E516F000EB5
:1035F800526F000E536F000E6F6F000E6E6F000E4D
:10360800246F000E256F000E266F000E276F77EFD0
:103618001BF0000E2C6E000E2D6EE10E2E6E430E6A
:103628002F6EA5C001F0A6C002F0036A046A000E5E
:103638005BEC2BF001C028F002C029F003C02AF08F
:1036480004C02BF068EC24F028C00FF029C010F05B
:103658002AC011F02BC012F0000E136E000E146E6B
:10366800700E156E420E166E66EC20F00FC054F305
:1036780010C055F311C056F312C057F350C341F0B0
:1036880051C342F052C343F053C344F0000E2C6EB2
:10369800000E2D6E700E2E6E420E2F6E54C328F043
:1036A80055C329F056C32AF057C32BF068EC24F011
:1036B80028C045F029C046F02AC047F02BC048F082
:1036C8000BEC1EF041C050F342C051F343C052F31B
:1036D80044C053F3000E0301206F000E216F000E4B
:1036E800226F000E236FA3C06CF3A4C06DF3FAC25F
:1036F80028F3FBC229F3FCC22AF3FDC22BF3120004
:1037080000019D51D96EDA6ADECFF6FFDDCFF7FFF3
:103718000800F550250AD8A494EF1BF096EF1BF08B
:10372800F9EF1DF09D51D96EDA6ADE2A000EDD220E
:10373800000E03016B6F000E6A6F6AC370F302011B
:10374800FE69FF6900019D51D96EDA6ADECFF6FF86
:10375800DDCFF7FF0800F5502E0AD8A4B6EF1BF00E
:10376800B8EF1BF0C8EF1BF09D51D96EDA6ADE2A5C
:10377800000EDD229DC001F09EC002F013EC34F073
:1037880001C0FEF202C0FFF200019D51D96EDA6A53
:10379800DECFA8F0DDCFA9F0A8C0F6FFA9C0F7FFDB
:1037A8000800F5CFA7F0E4EF1BF0A84BA92BF7EF23
:1037B8001BF0690EA76FF7EF1BF0A76BF7EF1BF075
:1037C800A751640AD8B4DDEF1BF00D0AD8B4DDEFB9
:1037D8001BF0050AD8B4D9EF1BF0190AD8B4DDEFED
:1037E8001BF0E1EF1BF0A8C0F6FFA9C0F7FF080027
:1037F800F550640AD8B403EF1CF005EF1CF03CEF59
:103808001CF0A8C0F6FFA9C0F7FF0800F550690A28
:10381800D8A411EF1CF013EF1CF062EF1CF03CEF82
:103828001CF09EC0D9FF9FC0DAFFDF50DF2ADF2AD5
:10383800D96EDA6ADECFA3F0DDCFA4F0000EA4BF04
:10384800FF0EA56FA66F47EF1CF09EC0D9FF9FC063
:10385800DAFF040EDF26DF5CD96EDA6ADECFA3F06A
:10386800DECFA4F0DECFA5F0DECFA6F047EF1CF048
:10387800A751690AD8B415EF1CF0050AD8B429EF86
:103888001CF047EF1CF0010EA825A06F000EA9211F
:10389800A16F9D51D96EDA6AA0C0DEFFA1C0DDFF1D
:1038A8009CC017F0A3C018F0A4C019F0A5C01AF066
:1038B800A6C01BF035EC2CF00AEF1EF0A8C0F6FFEE
:1038C800A9C0F7FF0800F550750AD8A46EEF1CF0E0
:1038D80070EF1CF0CEEF1CF09AEF1CF09EC0D9FFE1
:1038E8009FC0DAFFDF50DF2ADF2AD96EDA6ADECF1F
:1038F800A0F0DDCFA1F0A0C0A3F0A1C0A4F0A56BFB
:10390800A66BA5EF1CF09EC0D9FF9FC0DAFF040E7E
:10391800DF26DF5CD96EDA6ADECFA3F0DECFA4F053
:10392800DECFA5F0DECFA6F0A5EF1CF0A751690AFF
:10393800D8B472EF1CF0050AD8B487EF1CF0A5EFD5
:103948001CF0010EA825A06F000EA921A16F9D51A2
:10395800D96EDA6AA0C0DEFFA1C0DDFFC2EF1CF09D
:103968009CC017F0A3C018F0A4C019F0A5C01AF0A5
:10397800A6C01BF06AEC2EF00AEF1EF0A8C0F6FFF6
:10398800A9C0F7FF0800F550750AD8B4B4EF1CF0C9
:10399800CEEF1CF0A26B9D51D96EDA6ADECFF6FF2E
:1039A800DDCFF7FF0800F550730AD8A4DEEF1CF04E
:1039B800E0EF1CF0EAEF1CF09D51D96EDA6ADE2ABE
:1039C800000EDD22010EA26F36EF1DF09D51D96E5B
:1039D800DA6ADECFF6FFDDCFF7FF0800F5506C0A94
:1039E800D8A4F9EF1CF0FBEF1CF036EF1DF09D5149
:1039F800D96EDA6ADECFA0F0DDCFA1F0010EA027E4
:103A0800000EA123A0C0F6FFA1C0F7FF0800F550E3
:103A18006C0AD8A412EF1DF014EF1DF036EF1DF05C
:103A28009D51D96EDA6ADECFA0F0DDCFA1F0020E8B
:103A3800A027000EA123A0C0F6FFA1C0F7FF080031
:103A4800F550730AD8A42BEF1DF02DEF1DF036EFBB
:103A58001DF09D51D96EDA6A030EDE26000EDD22B6
:103A6800E6EF1CF0A251D8B43CEF1DF03EEF1DF07C
:103A780051EF1DF09CC009F09EC0D9FF9FC0DAFF2E
:103A8800020EDF26DF5CD96EDA6ADECF0AF0DECFFF
:103A98000BF003EC31F00AEF1EF09D51D96EDA6A93
:103AA800DECFA8F0DDCFA9F0A8C0F6FFA9C0F7FFC8
:103AB8000800F5CFA7F06CEF1DF0A84BA92B7BEF02
:103AC8001DF06C0EA76F7BEF1DF0A76B7BEF1DF051
:103AD800A7514C0AD8B461EF1DF02A0AD8B465EF93
:103AE8001DF00A0AD8B461EF1DF069EF1DF0A8C0F7
:103AF800F6FFA9C0F7FF0800F550660AD8A487EFBB
:103B08001DF089EF1DF0F0EF1DF0B5EF1DF09EC020
:103B1800D9FF9FC0DAFFDFCFA0F0040EDF26A05147
:103B2800D96EDA6ADECFA3F0DECFA4F0DECFA5F03F
:103B3800DECFA6F0C0EF1DF09EC0D9FF9FC0DAFF10
:103B4800DFCFA0F0040EDF26A051D96EDA6ADECFEF
:103B5800A3F0DECFA4F0DECFA5F0DECFA6F0C0EF55
:103B68001DF0A7514C0AD8B4A0EF1DF0200AD8B414
:103B78008BEF1DF0C0EF1DF0010EA825A06F000E01
:103B8800A921A16F9D51D96EDA6AA0C0DEFFA1C03C
:103B9800DDFFE4EF1DF09CC068F0A3C069F0A4C08D
:103BA8006AF0A5C06BF0A6C06CF0A8C0F6FFA9C06B
:103BB800F7FF0800F5CF6DF064EC12F00AEF1EF085
:103BC800A8C0F6FFA9C0F7FF0800F550660AD8B4E8
:103BD800CFEF1DF0F0EF1DF000019D51D96EDA6AAC
:103BE800DE2A000EDD220AEF1EF09D51D96EDA6A38
:103BF800DECFF6FFDDCFF7FF0800F550016E026A51
:103C08009CC003F05FEC33F0F0EF1DF0120044505D
:103C1800800B4D6E445044244F6E43AE16EF1EF099
:103C280018EF1EF019EF1EF04F804F50D8B41FEF59
:103C38001EF021EF1EF035EF1EF04F28D8A427EF15
:103C48001EF029EF1EF031EF1EF0000E416E000E3F
:103C5800426E000E436E000E446E438E446A3DEF82
:103C68001EF0000E416E000E426E000E436E000EF6
:103C7800446E4850800B4E6E4D504E18D8B447EFE6
:103C88001EF049EF1EF04AEF1EF04D8C48504824B4
:103C98004E6E47AE52EF1EF054EF1EF055EF1EF079
:103CA8004E804E50D8B45BEF1EF05DEF1EF071EF02
:103CB8001EF04E28D8A463EF1EF065EF1EF06DEFDE
:103CC8001EF0000E456E000E466E000E476E000E8A
:103CD800486E478E486A79EF1EF0000E456E000E5A
:103CE800466E000E476E000E486E4F504E5CD8B0C0
:103CF80080EF1EF082EF1EF0A9EF1EF04DAC87EFAB
:103D08001EF089EF1EF08BEF1EF0800E4D1A4FC08B
:103D180050F04EC04FF050C04EF041C050F045C07A
:103D280041F050C045F042C050F046C042F050C08B
:103D380046F043C050F047C043F050C047F044C07D
:103D480050F048C044F050C048F0506A4F504EC040
:103D580049F04A6A495E000E4A5A4ABEBDEF1EF053
:103D68004A5009E11A0E495CD8A0BDEF1EF0BFEF1A
:103D78001EF0F6EF1EF04150421043104410D8A434
:103D8800C8EF1EF0CBEF1EF0010ECCEF1EF0000EB8
:103D9800506E000E416E000E426E000E436E000E15
:103DA800446E4EC04FF0FFEF1EF050A0DEEF1EF045
:103DB800E0EF1EF0E6EF1EF0D89050300109506E8B
:103DC800E8EF1EF0D890503241A0EDEF1EF0EFEF73
:103DD8001EF0F0EF1EF0508E44344432433242322B
:103DE80041324F2A4E504F5CD8A0FDEF1EF0FFEF36
:103DF8001EF0D9EF1EF04DBC04EF1FF006EF1FF0C8
:103E080046EF1FF04F50D8A40CEF1FF00EEF1FF035
:103E180018EF1FF0000E416E000E426E000E436E4A
:103E2800000E446E65EF20F0455041264650422270
:103E3800475043224850442244A025EF1FF027EF63
:103E48001FF0D3EF1FF050A02CEF1FF02EEF1FF044
:103E580034EF1FF0D89050300109506E36EF1FF044
:103E6800D890503241A03BEF1FF03DEF1FF03EEFDE
:103E78001FF0508E443444324332423241324F2A8A
:103E8800D3EF1FF04550415C4650425847504358C5
:103E98004450800A496E4850800A4958D8B057EFB4
:103EA8001FF059EF1FF084EF1FF04150455C496E39
:103EB800425046584A6E435047584B6E44504858F3
:103EC8004C6EFF0E4924416EFF0E4A20426EFF0ED3
:103ED8004B20436EFF0E4C20446E800E4D1A506CE2
:103EE8005050D8A47AEF1FF07CEF1FF08CEF1FF032
:103EF800010E4126000E4222432244228CEF1FF07D
:103F08004550415E4650425A4750435A4850445AD9
:103F18004150421043104410D8A495EF1FF097EF7A
:103F28001FF0CCEF1FF05050D8A49DEF1FF09FEF6B
:103F38001FF0CCEF1FF0000E416E000E426E000E17
:103F4800436E000E446E65EF20F0D890413642363D
:103F58004336443650AEB3EF1FF0B5EF1FF0B6EF5F
:103F68001FF0418050A0BBEF1FF0BDEF1FF0C1EF65
:103F78001FF0D8805036C3EF1FF0D89050364F50FE
:103F8800D8B4C9EF1FF0CBEF1FF0CCEF1FF04F06EE
:103F980043AED1EF1FF0D3EF1FF0A9EF1FF04E6A29
:103FA80050AED9EF1FF0DBEF1FF0F3EF1FF050C05A
:103FB80049F07F0E4916D8B4E4EF1FF0E6EF1FF082
:103FC800EAEF1FF0010E4E6EF3EF1FF041A0EFEF86
:103FD8001FF0F1EF1FF0F3EF1FF0E6EF1FF04E5068
:103FE800D8B4F9EF1FF0FBEF1FF026EF20F0010E19
:103FF8004126000E42224322442244A006EF20F02C
:1040080008EF20F026EF20F041C049F042C04AF006
:1040180043C04BF044C04CF04C344C324B324A3223
:10402800493249C041F04AC042F04BC043F04CC04D
:1040380044F04F28D8B423EF20F025EF20F026EFE6
:1040480020F04F2A4F28D8B42CEF20F02EEF20F084
:1040580036EF20F04F50D8A434EF20F036EF20F0A0
:1040680047EF20F0000E416E000E426E000E436EC8
:10407800000E446E4F50D8A444EF20F046EF20F0D5
:1040880047EF20F04D6A4FA04CEF20F04EEF20F0A4
:1040980051EF20F0438E52EF20F0439ED8904F30DE
:1040A800446E4DAE5AEF20F05CEF20F05DEF20F04B
:1040B800448E41C041F042C042F043C043F044C086
:1040C80044F012001250800B1B6E12501224216E05
:1040D80011AE71EF20F073EF20F074EF20F0218023
:1040E8002150D8B47AEF20F07CEF20F08FEF20F049
:1040F8002128D8A482EF20F084EF20F08CEF20F064
:10410800000E0F6E000E106E000E116E000E126E75
:10411800118E97EF20F0000E0F6E000E106E000E3D
:10412800116E000E126E1650800B1B1A16501624B4
:104138001C6E15AEA2EF20F0A4EF20F0A5EF20F042
:104148001C801C50D8B4ABEF20F0ADEF20F0C0EFCE
:1041580020F01C28D8A4B3EF20F0B5EF20F0BDEF75
:1041680020F0000E136E000E146E000E156E000E79
:10417800166E158EC8EF20F0000E136E000E146E2A
:10418800000E156E000E166E1C50D8B4CEEF20F03F
:10419800D0EF20F0D8EF20F02150D8A4D6EF20F0AF
:1041A800D8EF20F0E2EF20F0000E0F6E000E106E38
:1041B800000E116E000E126E78EF22F015500F02ED
:1041C800F3CF26F0F4CF27F026501D6E1E6A1F6A23
:1041D800206A2750226E236A246A256A1450100226
:1041E800F3CF26F0F4CF27F026501D26000E1E220E
:1041F8001F22202227502226000E23222422252295
:1042080013501102F3CF26F0F4CF27F026501D26C5
:10421800000E1E221F22202227502226000E2322B3
:10422800242225221FC020F01EC01FF01DC01EF032
:104238001D6A13501002F3CF26F0F4CF27F0265052
:104248001D2627501E22000E1F22000E2022145069
:104258000F02F3CF26F0F4CF27F026501D26275063
:104268001E22000E1F22000E20221FC020F01EC09A
:104278001FF01DC01EF01D6A13500F02F3CF26F069
:10428800F4CF27F026501D2627501E22000E1F228D
:10429800000E202215501002F3CF26F0F4CF27F09D
:1042A8002650222627502322000E2422000E2522E3
:1042B80014501102F3CF26F0F4CF27F0265022260F
:1042C80027502322000E2422000E25221550110209
:1042D800F3CF26F0F4CF27F02650176E2750186E2C
:1042E800196A1A6A19C01AF018C019F017C018F01C
:1042F800176A1750222618502322195024221A50C0
:1043080025221DC017F01EC018F01FC019F020C0CC
:104318001AF0190E95EF21F0D8901A321932183286
:104328001732E82E90EF21F017502226185023223A
:10433800195024221A5025221FC020F01EC01FF039
:104348001DC01EF01D6A1C5021C017F0186A1726E0
:10435800000E1822820E1724266EFF0E1820276ED4
:10436800CBEF21F0D890223623362436253620AEDE
:10437800C0EF21F0C2EF21F0C3EF21F02280D890E6
:104388001D361E361F3620362606D8A0270624AE30
:10439800D0EF21F0D2EF21F0B6EF21F01C6A20AE69
:1043A800D8EF21F0DAEF21F0FEEF21F0FF0E1D1417
:1043B800176EFF0E1E14186EFF0E1F14196E7F0E57
:1043C80020141A6E1750181019101A10D8B4EFEFDD
:1043D80021F0F1EF21F0F5EF21F0010E1C6EFEEF58
:1043E80021F022A0FAEF21F0FCEF21F0FEEF21F0FE
:1043F800F1EF21F01C50D8B404EF22F006EF22F0C0
:104408002AEF22F0010E2226000E23222422252242
:1044180025A011EF22F013EF22F02AEF22F022C09C
:1044280017F023C018F024C019F025C01AF01A3468
:104438001A3219321832173217C022F018C023F076
:1044480019C024F01AC025F0264A272A27BE35EFBE
:1044580022F0275008E12628D8A035EF22F037EFC0
:1044680022F041EF22F0000E226E000E236E800E25
:10447800246E7F0E256E6EEF22F027BE4EEF22F0DF
:10448800275006E12604D8B04CEF22F04EEF22F078
:1044980059EF22F0000E226E000E236E000E246EDD
:1044A800000E256E1B6A6EEF22F026C021F0FF0E6B
:1044B8002216FF0E23167F0E2416000E251621A0A5
:1044C80068EF22F06AEF22F06BEF22F0248ED8908A
:1044D8002130256E1B50251222C00FF023C010F08A
:1044E80024C011F025C012F0120001C022F002C051
:1044F80023F003C024F004C025F0000E2214056E3A
:10450800000E2314066E800E2414076E7F0E2514E9
:10451800086E800E071809E17F0E081805100610AE
:10452800D8A499EF22F09BEF22F0CBEF22F0FF0EF8
:104538002214056EFF0E2314066E7F0E2414076ED8
:10454800000E2514086E0550061007100810D8A490
:10455800B0EF22F0B2EF22F0B9EF22F025BEB9EFAA
:1045680022F0B7EF22F0C1EF22F0FF0E2212FF0E69
:1045780023127F0E2412000E251222C001F023C040
:1045880002F024C003F025C004F067EF24F025BE34
:10459800DAEF22F025502410231006E12204D8B0C7
:1045A800D8EF22F0DAEF22F011EF23F0FF0E2214F9
:1045B800056EFF0E2314066EFF0E2414076E7F0E81
:1045C8002514086E0550061007100810D8A4EFEF40
:1045D80022F0F1EF22F0FBEF22F0000E016E000E48
:1045E800026E000E036E000E046E67EF24F025BE07
:1045F80002EF23F000EF23F011EF23F0000E030188
:10460800696F210E686FFF0E226EFF0E236EFF0E7C
:10461800246E7F0E256EC1EF22F0170E056E22C0A4
:1046280006F023C007F024C008F025C009F005668D
:1046380020EF23F028EF23F009340932083207323B
:104648000632052E1BEF23F006C01AF007C01BF038
:1046580008C01CF009C01DF01A501B101C101D10BA
:10466800D8A439EF23F03BEF23F06BEF23F0000ED3
:104678000E6E000E0F6E000E106E000E116E50EFD3
:1046880023F0D8902236233624362536010E0E26FE
:10469800000E0F221022112224AE55EF23F057EFFF
:1046A80023F045EF23F0FF0E0E24056EFF0E0F20BA
:1046B800066EFF0E1020076EFF0E1120086E0550C3
:1046C8001A5E06501B5A07501C5A08501D5A810E74
:1046D8001A26FF0E1B22FF0E1C22FF0E1D22FF0EA4
:1046E8002214056EFF0E2314066E7F0E2414076E27
:1046F800000E2514086E000E0510226E000E06101E
:10470800236E800E0710246E000E0810256E1AA066
:1047180090EF23F092EF23F09AEF23F02250222615
:104728002350232224502422255025221D341D32B3
:104738001C321B321A3222502226235023222450A4
:10474800242225502522000E0A6E000E0B6E000E44
:104758000C6E000E0D6E0AC012F00BC013F00CC0E8
:1047680014F00DC015F0000E1E6E000E1F6E000E28
:10477800206E010E216E09EF24F00A501E24166ED9
:104788000B501F20176E0C502020186E0D50212042
:10479800196E1650225C175023581850245825506B
:1047A800800A056E1950800A0558D8A0DEEF23F05C
:1047B800E0EF23F0FCEF23F016501E240A6E17508A
:1047C8001F200B6E185020200C6E195021200D6EE2
:1047D8001650225E1750235A1850245A1950255A39
:1047E8001E5012261F501322205014222150152229
:1047F80022502226235023222450242225502522C9
:10480800D890213220321F321E321E501F10201025
:104818002110D8A412EF24F014EF24F0C1EF23F0F4
:104828002250231024102510D8B41DEF24F01FEFB8
:1048380024F033EF24F0010E1214056E000E131449
:10484800066E000E1414076E000E1514086E05503F
:10485800122606501322075014220850152212C09F
:1048680005F013C006F014C007F015C008F00834AE
:104878000832073206320532000E0524226E000E79
:104888000620236E000E0720246E3F0E0820256E9A
:104898001AC005F01BC006F01CC007F01DC008F0C8
:1048A800170ED8900536063607360836E82E55EF27
:1048B80024F00550222606502322075024220850AF
:1048C8002522C1EF22F012002B50800B386E2B509E
:1048D8002B243F6E2AAE73EF24F075EF24F076EFA9
:1048E80024F03F803F50D8B47CEF24F07EEF24F0D2
:1048F80092EF24F03F28D8A484EF24F086EF24F028
:104908008EEF24F0000E286E000E296E000E2A6E1F
:10491800000E2B6E2A8E2B6A9AEF24F0000E286E5A
:10492800000E296E000E2A6E000E2B6E2F50800B83
:10493800381A2F502F24406E2EAEA5EF24F0A7EF83
:1049480024F0A8EF24F040804050D8B4AEEF24F013
:10495800B0EF24F0C4EF24F04028D8A4B6EF24F038
:10496800B8EF24F0C0EF24F0000E2C6E000E2D6E70
:10497800000E2E6E000E2F6E2E8E2F6ACCEF24F0B6
:10498800000E2C6E000E2D6E000E2E6E000E2F6E79
:104998002C502D102E102F10D8A4D5EF24F0D7EFBF
:1049A80024F0EFEF24F0000E286E000E296E000EA2
:1049B8002A6E000E2B6E800E2A127F0E2B12385094
:1049C8002B1228C028F029C029F02AC02AF02BC0B1
:1049D8002BF02FEF26F03F50D8A4F5EF24F0F7EF97
:1049E80024F001EF25F0000E286E000E296E000E4F
:1049F8002A6E000E2B6E2FEF26F040503FC030F08D
:104A0800316A305E000E315A7F0E3024396E000E46
:104A180031203A6E28C034F029C035F02AC036F06B
:104A28002BC037F0000E286E000E296E000E2A6E7D
:104A3800000E2B6E000E3B6E000E3C6E000E3D6E9F
:104A4800000E3E6E406A61EF25F04050D8B42FEF5B
:104A580025F031EF25F048EF25F0D890343635367B
:104A680036363736D890283629362A362B363EAE93
:104A780040EF25F042EF25F043EF25F02880D8904D
:104A88003B363C363D363E362C50345C2D5035583E
:104A98002E5036582F503758D8A055EF25F057EFDD
:104AA80025F060EF25F03E8C2C50345E2D50355AA1
:104AB8002E50365A2F50375A402A190E406467EF45
:104AC80025F069EF25F029EF25F034503510361020
:104AD8003710D8B472EF25F074EF25F08CEF25F07D
:104AE8003B808CEF25F0D890283629362A362B368D
:104AF8003EAE81EF25F083EF25F084EF25F0288086
:104B0800D8903B363C363D363E363906D8A03A0674
:104B18002AAE91EF25F093EF25F077EF25F0406A64
:104B28003EAE99EF25F09BEF25F0BFEF25F0FF0E85
:104B38003B14306EFF0E3C14316EFF0E3D14326E86
:104B48007F0E3E14336E3050311032103310D8B40B
:104B5800B0EF25F0B2EF25F0B6EF25F0010E406E6C
:104B6800BFEF25F028A0BBEF25F0BDEF25F0BFEF84
:104B780025F0B2EF25F04050D8B4C5EF25F0C7EFC7
:104B880025F0EBEF25F0010E2826000E29222A2217
:104B98002B222BA0D2EF25F0D4EF25F0EBEF25F058
:104BA80028C030F029C031F02AC032F02BC033F0D1
:104BB8003334333232323132303230C028F031C0FF
:104BC80029F032C02AF033C02BF0394A3A2A3ABECB
:104BD800F6EF25F03A5008E13928D8A0F6EF25F08D
:104BE800F8EF25F003EF26F0000E3A6E3968000E54
:104BF800286E000E296E000E2A6E000E2B6E3ABE2D
:104C080010EF26F03A5006E13904D8B00EEF26F03E
:104C180010EF26F01DEF26F0000E3A6E000E396EEA
:104C2800000E286E000E296E000E2A6E000E2B6EE6
:104C3800386A39C03FF03FA024EF26F026EF26F06F
:104C480029EF26F02A8E2AEF26F02A9ED8903F30A8
:104C58002B6EE3EF24F01200700ED36E020E936EEB
:104C6800816A818A8190150E0001EF6F4B0EEE6FFD
:104C7800BE0EE82EFED7EE2FFCD7EF2FFAD7000096
:104C880095EC37F09FEC37F0A8EC37F0000E0401F4
:104C98000F6F000E0E6F010E0DEC37F001C004F41B
:104CA80002C005F45CC341F05DC342F05EC343F04B
:104CB8005FC344F0000E2C6E000E2D6E800E2E6E1B
:104CC800440E2F6E000E136E000E146EA00E156E9D
:104CD800400E166E04C401F005C402F0036A046AAB
:104CE800000E5BEC2BF001C00FF002C010F003C007
:104CF80011F004C012F066EC20F00FC028F010C0CC
:104D080029F011C02AF012C02BF068EC24F028C05A
:104D180045F029C046F02AC047F02BC048F00BECFC
:104D28001EF041C05CF342C05DF343C05EF344C073
:104D38005FF3020E0001EF6F040EEE6FBA0EE82E5D
:104D4800FED7EE2FFCD7EF2FFAD7000004010E4B49
:104D58000F2B0FBFB9EF26F00F5109E1320E0E5D90
:104D6800D8A0B9EF26F0BBEF26F04FEF26F05CC3D2
:104D780028F05DC329F05EC32AF05FC32BF0000E54
:104D88002C6E000E2D6E480E2E6E420E2F6E68ECA5
:104D980024F028C05CF329C05DF32AC05EF32BC061
:104DA8005FF3000E0401116F000E106F020E0DEC80
:104DB80037F001C006F402C007F4000E136E000EAF
:104DC800146EA00E156E400E166E06C401F007C4D0
:104DD80002F0036A046A000E5BEC2BF001C00FF0CE
:104DE80002C010F003C011F004C012F066EC20F00D
:104DF8000FC028F010C029F011C02AF012C02BF003
:104E0800000E2C6E000E2D6E800E2E6E440E2F6E30
:104E180068EC24F028C00AF429C00BF42AC00CF46A
:104E28002BC00DF40AC42CF00BC42DF00CC42EF0CA
:104E38000DC42FF00AC455F00BC456F00CC457F03B
:104E48000DC458F0000E516E000E526EA00E536E37
:104E5800400E546EA8EC36F051C028F052C029F02C
:104E680053C02AF054C02BF068EC24F028C000F49A
:104E780029C001F42AC002F42BC003F4DEC341F0B8
:104E8800DFC342F0E0C343F0E1C344F000C445F09F
:104E980001C446F002C447F003C448F00BEC1EF00E
:104EA80041C0DEF342C0DFF343C0E0F344C0E1F3A6
:104EB800020E0001EF6F040EEE6FBA0EE82EFED759
:104EC800EE2FFCD7EF2FFAD700000401104B112B5F
:104ED80011BF78EF27F0115109E1320E105DD8A00B
:104EE80078EF27F07AEF27F0DAEF26F0DEC328F024
:104EF800DFC329F0E0C32AF0E1C32BF0000E2C6ECB
:104F0800000E2D6E480E2E6E420E2F6E68EC24F0A9
:104F180028C0DEF329C0DFF32AC0E0F32BC0E1F399
:104F2800000E0401096F000E086F7D0E0201FA27BA
:104F3800000EFB23FC23FD2307EC2DF00301735126
:104F4800D8A4A9EF27F0ABEF27F0B7EF27F05CEC78
:104F580017F05E50D8A4B3EF27F0B5EF27F0B7EFFE
:104F680027F0D2EC2DF0F3EC27F081EC30F09EEC3A
:104F780035F00401095109E1020E085DD8A0C7EF18
:104F880027F0C9EF27F0D0EF27F077EC32F0000ECA
:104F98000401096F000E086F084B092B010E03016D
:104FA8007425016E026A000E0222000E046E050EC0
:104FB800036EBCEC33F001500301746F020E000164
:104FC800EF6F450EEE6FA90EE82EFED7EE2FFCD739
:104FD800EF2FFAD700D099EF27F007EF00F0030181
:104FE8007651D8B4FAEF27F0FCEF27F0A5EF28F0B8
:104FF8007551D8A402EF28F004EF28F0A5EF28F0A7
:10500800FAC248F3FBC249F3FCC24AF3FDC24BF3B0
:1050180064C344F365C345F366C346F367C347F304
:1050280060C340F361C341F362C342F363C343F314
:1050380058C33CF359C33DF35AC33EF35BC33FF334
:1050480050C338F351C339F352C33AF353C33BF354
:105058007951D8B432EF28F034EF28F040EF28F037
:10506800CA0E016E030E026EA10E036E7F0E046E51
:1050780029EC37F08BEF28F064C360F065C361F06A
:1050880066C362F067C363F0000E0001646F000E30
:10509800656F200E666F420E676FFEEC2FF0000101
:1050A800D8A059EF28F05BEF28F067EF28F0CA0E78
:1050B800016E030E026E7F0E036E7F0E046E29ECE6
:1050C80037F08BEF28F058C360F059C361F05AC32A
:1050D80062F05BC363F0000E646F000E656F480EEC
:1050E800666F420E676FFEEC2FF00001D8A07FEFCD
:1050F80028F081EF28F08BEF28F0CA0E016E030E1E
:10510800026EC40E036E7F0E046E29EC37F0960E05
:105118000001B06F020EB16F920EB26F7F0EB36FC7
:10512800CA0EB46F030EB56FCBEC36F0AE0E0001AD
:10513800E06F7F0EE16F960EE26F020EE36F10ECE8
:1051480035F003017651D8A4ACEF28F0AEEF28F083
:1051580035EF29F07551D8B4B4EF28F0B6EF28F040
:1051680035EF29F048510201FA5D016E03014951FA
:105178000201FB59026E03014A510201FC59036EF8
:1051880003014B510201FD59046EE80E056E030E32
:10519800066E000E076E000E086EBEEC34F001C0FD
:1051A800E6F002C0E7F003C0E8F004C0E9F050C33D
:1051B80051F051C352F052C353F053C354F038C3A3
:1051C80055F039C356F03AC357F03BC358F0A8EC32
:1051D80036F051C0EAF052C0EBF053C0ECF054C0C6
:1051E800EDF0000E0001B06F020EB16F620EB26FEB
:1051F8007F0EB36FE6C0B4F0E7C0B5F0E8C0B6F014
:10520800E9C0B7F0EAC0B8F0EBC0B9F0ECC0BAF04A
:10521800EDC0BBF0CBEC36F0CE0E0001E06F7F0E98
:10522800E16F000EE26F020EE36F10EC35F0330E03
:105238000001E56FBB0EE46FDF0EE82EFED7E42F0A
:10524800FCD7E52FFAD700D0000E0301506F000EEF
:10525800516F000E526F000E536F000E6F6F000EED
:105268006E6F76C375F3120028C036F029C037F088
:105278002AC038F02BC039F02DBE4CEF29F02D5044
:1052880009E1800E2C5CD8A04CEF29F04EEF29F0F4
:10529800ACEF29F036C00FF037C010F038C011F06D
:1052A80039C012F0000E136E000E146E000E156E4B
:1052B8007F0E166E66EC20F00FC036F010C037F087
:1052C80011C038F012C039F0810E2C26FF0E2D22A5
:1052D8002DBE78EF29F02D5009E1800E2C5CD8A066
:1052E80078EF29F07AEF29F016EF2AF036C00FF0A0
:1052F80037C010F038C011F039C012F0000E136E2C
:10530800000E146E000E156E7F0E166E66EC20F001
:105318000FC036F010C037F011C038F012C039F0A5
:10532800810E2C26FF0E2D222DBEA4EF29F02D5024
:1053380009E1800E2C5CD8A0A4EF29F0A6EF29F093
:1053480016EF2AF0000E2D6E7F0E2C6E16EF2AF047
:105358002DAEB8EF29F0820E2C5CFF0E2D58D8B078
:10536800B8EF29F0BAEF29F016EF2AF036C00FF09F
:1053780037C010F038C011F039C012F0000E136EAB
:10538800000E146E800E156E0C0E166E66EC20F074
:105398000FC036F010C037F011C038F012C039F025
:1053A800660E2C26000E2D222DAEE4EF29F0820E7B
:1053B8002C5CFF0E2D58D8B0E4EF29F0E6EF29F069
:1053C80016EF2AF036C00FF037C010F038C011F0D1
:1053D80039C012F0000E136E000E146E800E156E9A
:1053E8000C0E166E66EC20F00FC036F010C037F0C9
:1053F80011C038F012C039F0660E2C26000E2D228E
:105408002DAE10EF2AF0820E2C5CFF0E2D58D8B06E
:1054180010EF2AF012EF2AF016EF2AF0FF0E2D6E89
:10542800820E2C6E7F0E2C242E6E000E2D202F6ED9
:10543800306A316A170ED8902E362F36303631360C
:10544800E82E1FEF2AF02EC032F02FC033F030C004
:1054580034F031C035F032C00FF033C010F034C032
:1054680011F035C012F036C013F037C014F038C050
:1054780015F039C016F066EC20F00FC028F010C007
:1054880029F011C02AF012C02BF028C028F029C03A
:1054980029F02AC02AF02BC02BF0120014C351F0B7
:1054A80015C352F016C353F017C354F041C051F05E
:1054B80042C052F043C053F044C054F0810E456ED0
:1054C800FF0E466E51C047F052C048F053C049F035
:1054D80054C04AF0180E76EF2AF0D8904A32493272
:1054E80048324732E82E71EF2AF0475045244F6E74
:1054F800000E4620506E50BE8BEF2AF0505009E146
:10550800170E4F5CD8A08BEF2AF08DEF2AF097EF9B
:105518002AF041C041F042C042F043C043F044C0C9
:1055280044F05AEF2BF050BE9CEF2AF09EEF2AF081
:105538000EEF2BF04FC045F0FF0E466EFF0E476E84
:105548007F0E486E000E496E4566ADEF2AF0B5EF46
:105558002AF049344932483247324632452EA8EFBC
:105568002AF046C04BF047C04CF048C04DF049C047
:105578004EF04B505114456E4C505214466E4D50DF
:105588005314476E4E505414486E455046104710F9
:105598004810D8A4D2EF2AF0D4EF2AF0D6EF2AF098
:1055A8008DEF2AF051C045F052C046F053C047F085
:1055B80054C048F0200EE6EF2AF0D890483247321F
:1055C80046324532E82EE1EF2AF0455046104710A2
:1055D8004810D8B4F2EF2AF0F4EF2AF0FCEF2AF0E2
:1055E8004B5051264C5052224D5053224E5054226B
:1055F8004B1C456E4C1C466E4D1C476E4E1C486E2F
:105608004550511646505216475053164850541696
:1056180052EF2BF051C045F052C046F053C047F04E
:1056280054C048F0200E1EEF2BF0D8904832473275
:1056380046324532E82E19EF2BF0455046104710F8
:105648004810D8A42AEF2BF02CEF2BF036EF2BF0D4
:10565800000E516E000E526E000E536E000E546E08
:1056680052EF2BF0D8905134456E5234466E533475
:10567800476E5434486E4550461047104810D8B409
:1056880048EF2BF04AEF2BF052EF2BF0000E516E43
:10569800000E526E800E536EBF0E546E51C041F014
:1056A80052C042F053C043F054C044F01200096E97
:1056B8000950D8B462EF2BF064EF2BF086EF2BF093
:1056C80004BE6BEF2BF069EF2BF086EF2BF001C0D7
:1056D80005F002C006F003C007F004C008F0051E7C
:1056E800061E071E081E052A000E0622072208228B
:1056F80005C00BF006C00CF007C00DF008C00EF096
:105708008EEF2BF001C00BF002C00CF003C00DF0BF
:1057180004C00EF00150021003100410D8A497EF33
:105728002BF099EF2BF0A3EF2BF0000E016E000E7B
:10573800026E000E036E000E046E34EF2CF0960E0F
:105748000A6EADEF2BF00A2AD8900E320D320C32C9
:105758000B32000E0B14056E000E0C14066E000EB4
:105768000D14076EFE0E0E14086E05500610071075
:105778000810D8A4C2EF2BF0C4EF2BF0A7EF2BF042
:10578800D2EF2BF00A2A010E0B26000E0C220D2256
:105798000E22D8900E320D320C320B32000E0B1442
:1057A800056E000E0C14066E000E0D14076EFF0E2B
:1057B8000E14086E0550061007100810D8A4E7EF5D
:1057C8002BF0E9EF2BF0C6EF2BF0F1EF2BF00A06E8
:1057D800D8900B360C360D360E360DBEF6EF2BF084
:1057E800F8EF2BF000EF2CF0020E0A60FEEF2BF022
:1057F80000EF2CF0EBEF2BF00AB005EF2CF007EFE1
:105808002CF008EF2CF00D9ED8900A320AC005F053
:10581800066A076A086A05C008F0076A066A056A20
:1058280005500B1206500C1207500D1208500E129C
:105838000950D8B422EF2CF024EF2CF02CEF2CF0E8
:1058480004BE2BEF2CF029EF2CF02CEF2CF00E8E51
:105858000BC001F00CC002F00DC003F00EC004F044
:1058680012001BBE3AEF2CF03DEF2CF0010E3EEF7C
:105878002CF0000E226E0201FFBF47EF2CF045EF1F
:105888002CF04DEF2CF0000E216E010E206E51EF22
:105898002CF0FEC220F0FFC221F06AC31EF06BC3D9
:1058A8001FF02250D8B45BEF2CF05DEF2CF074EFB2
:1058B8002CF01E06D8A01F062250D8A466EF2CF0A4
:1058C80068EF2CF06EEF2CF0000E1D6E2B0E1C6E88
:1058D80072EF2CF0000E1D6E2D0E1C6E1CC022F0F7
:1058E800000E246E4F0E236E0301C96BC0EF2CF01F
:1058F8002306D8A024067A0E2324D96E030E24206A
:10590800DA6E18C001F019C002F01AC003F01BC00B
:1059180004F00A0E056E000E066E000E076E000EED
:10592800086E02EC32F001C00BF002C00CF061EC22
:1059380037F00B50300FDF6E2006D8A021061E0668
:10594800D8A01F0618C001F019C002F01AC003F051
:105958001BC004F00A0E056E000E066E000E076EE0
:10596800000E086EF6EC2EF001C018F002C019F017
:1059780003C01AF004C01BF024BECBEF2CF0245057
:1059880008E12304D8A0CBEF2CF0CDEF2CF0E5EF05
:105998002CF0185019101A101B10D8A4D6EF2CF0A0
:1059A800D8EF2CF07CEF2CF021BEE5EF2CF0215045
:1059B80006E12004D8B0E3EF2CF0E5EF2CF07CEF03
:1059C8002CF02250D8B4EBEF2CF0EDEF2CF0F8EFE0
:1059D8002CF02306D8A024067A0E2324D96E030EB1
:1059E8002420DA6E22C0DFFF17C00FF07A0E2324BE
:1059F800106E030E2420116E1EC012F01FC013F08B
:105A0800D9EC35F012009EAA0CEF2DF00EEF2DF018
:105A180061EF2DF0AECF05F04EEF2DF05E50D8A41B
:105A280018EF2DF01AEF2DF061EF2DF0010E5E6EDC
:105A3800FAC24CF3FBC24DF3FCC24EF3FDC24FF366
:105A480050C334F351C335F352C336F353C337F35A
:105A580061EF2DF0010E0301736F61EF2DF003016B
:105A6800736B61EF2DF0000E0301506F000E516F44
:105A7800000E526F000E536F000E6F6F000E6E6FA8
:105A8800000E546F000E556F000E566F000E576FC4
:105A980061EF2DF00550460AD8B437EF2DF0140AFF
:105AA800D8B433EF2DF0010AD8B42EEF2DF0070A41
:105AB800D8B412EF2DF061EF2DF05E50D8B467EF37
:105AC8002DF069EF2DF0D1EF2DF08180010E03014B
:105AD800786F30510201FA5D016E03013151020104
