:0400000007EF00F016
:100008005F8207ED37F0EBEF35F068C068F169C043
:1000180069F16AC06AF16BC06BF16CC084F16DC0A4
:1000280085F16EC086F16FC087F1FF0E010168157A
:10003800AC6FFF0E6915AD6FFF0E6A15AE6F7F0EC0
:100048006B15AF6FFF0E8415946FFF0E8515956FB6
:10005800FF0E8615966F7F0E8715976F9451951131
:1000680096119711D8A43BEF00F03DEF00F048EF50
:1000780000F0000E0001686F000E696F800E6A6F55
:100088003F0E6B6F63EF12F0800E6A1909E13F0EA5
:100098006B1968116911D8A454EF00F056EF00F0FD
:1000A80061EF00F0000E0001686F000E696F800EAE
:1000B8006A6F3F0E6B6F63EF12F0AFBF72EF00F025
:1000C800AC05000EAD59800EAE597F0EAF59D8B0B1
:1000D80070EF00F072EF00F083EF00F097BF81EF50
:1000E80000F09405000E9559800E96597F0E975989
:1000F800D8A081EF00F083EF00F09FEF00F068C018
:1001080041F069C042F06AC043F06BC044F06CC073
:1001180045F06DC046F06EC047F06FC048F0B3ECD4
:100128001DF041C068F042C069F043C06AF044C0A5
:100138006BF063EF12F0000E546F000E556F000E57
:10014800566F000E576F6BBFAEEF00F0ACEF00F0CC
:100158007AEF01F097BFBAEF00F0800E965D4B0E74
:100168009759D8A0BAEF00F0BCEF00F0C6EF00F046
:10017800020E546F000E556F000E566F000E576F2B
:100188007AEF01F097BFD2EF00F0800E965D3F0E38
:100198009759D8A0D2EF00F0D4EF00F07AEF01F031
:1001A800170E0001706F94C171F095C172F096C17D
:1001B80073F097C174F07067E4EF00F0ECEF00F0B3
:1001C80074357433733372337133702FDFEF00F08B
:1001D800810E000171250101A46FFF0E000172213B
:1001E8000101A56FFF0E000173210101A66FFF0E2B
:1001F800000174210101A76FA45117080001706F55
:1002080094C171F095C172F096C173F097C174F002
:10021800706711EF01F019EF01F07435743373331F
:1002280072337133702F0CEF01F071C0A8F172C0F6
:10023800A9F173C0AAF174C0ABF10101A451170868
:100248000001706FA8C171F0A9C172F0AAC173F062
:10025800ABC174F0702B36EF01F0D890713772375C
:1002680073377437702F31EF01F001019451000199
:10027800711913E101019551000172190EE1010193
:1002880096510001731909E1010197510001741990
:10029800D8A451EF01F053EF01F07AEF01F0010E0D
:1002A8000101A8150001706F000E0101A9150001D8
:1002B800716F000E0101AA150001726F000E010195
:1002C800AB150001736F705102080101546F000EE5
:1002D800000171550101556F000E000172550101B1
:1002E800566F000E000173550101576F800E010112
:1002F800961909E17F0E971994119511D8A487EFE3
:1003080001F089EF01F0F5EF01F0800EAE1909E177
:100318003F0EAF19AC11AD11D8A495EF01F097EFCE
:1003280001F0A2EF01F0000E0001686F000E696F86
:10033800800E6A6F3F0E6B6F63EF12F0AFBFB1EFC5
:1003480001F0AC05000EAD59800EAE593F0EAF5905
:10035800D8A0B1EF01F0B3EF01F0CFEF01F087BF04
:10036800BAEF01F0B8EF01F0C5EF01F0000E00019F
:10037800686F000E696F000E6A6F000E6B6F63EF97
:1003880012F06CC068F06DC069F06EC06AF06FC0A2
:100398006BF063EF12F087BFD6EF01F0D4EF01F0F6
:1003A800EAEF01F06CC001F06DC002F06EC003F01E
:1003B8006FC004F0D1EC36F001C068F002C069F0FB
:1003C80003C06AF004C06BF063EF12F0000E000186
:1003D800686F000E696F000E6A6F000E6B6F63EF37
:1003E80012F0800E961909E13F0E97199411951194
:1003F800D8A401EF02F003EF02F030EF02F087BF5C
:100408000AEF02F008EF02F026EF02F0000E286E65
:10041800000E296E800E2A6E3F0E2B6E68C02CF0DF
:1004280069C02DF06AC02EF06BC02FF010EC24F0DC
:1004380028C068F029C069F02AC06AF02BC06BF0A8
:1004480063EF12F068C068F069C069F06AC06AF0CA
:100458006BC06BF063EF12F0400E871984118511A1
:100468008611D8A43AEF02F03CEF02F058EF02F000
:1004780068C00FF069C010F06AC011F06BC012F0CC
:1004880068C013F069C014F06AC015F06BC016F0AC
:100498000EEC20F00FC068F010C069F011C06AF0CF
:1004A80012C06BF063EF12F03F0E871984118511AB
:1004B8008611D8A462EF02F064EF02F07FEF02F039
:1004C8006BBF69EF02F06BEF02F07FEF02F068C0DC
:1004D80001F069C002F06AC003F06BC004F021ECBF
:1004E80022F001C068F002C069F003C06AF004C0DD
:1004F8006BF063EF12F0ACC178F1ADC179F1AEC128
:100508007AF1AFC17BF1800EAE190BE17F0EAF1906
:10051800AC11AD11D8B493EF02F095EF02F0AEEF45
:1005280002F0AC51AD11AE11AF11D8B49EEF02F08C
:10053800A0EF02F0AEEF02F0800EAE1909E13F0E17
:10054800AF19AC11AD11D8A4ACEF02F0AEEF02F0C8
:1005580049EF03F078C1B4F179C1B5F17AC1B6F1C8
:100568007BC1B7F187BFBDEF02F0BBEF02F0D7EF59
:1005780002F0000E286E000E296E800E2A6E3F0EC5
:100588002B6EB4C12CF0B5C12DF0B6C12EF0B7C199
:100598002FF010EC24F028C0B4F129C0B5F12AC01E
:1005A800B6F12BC0B7F101016BBFDFEF02F0DDEF51
:1005B80002F03FEF03F0000EAC250001706F000E53
:1005C8000101AD210001716F800E0101AE21000112
:1005D800726FC00E0101AF210001736F0101545108
:1005E80000017011746F0101555100017111756F8F
:1005F8000101565100017211766F01015751000136
:100608007311776F7451751176117711D8A40FEFA4
:1006180003F011EF03F021EF03F0000E0301616F07
:10062800210E606FFF0E0101B46FFF0EB56FFF0E54
:10063800B66F7F0EB76F3FEF03F0010154055511F8
:1006480056115711D8A42BEF03F02DEF03F03FEF0D
:1006580003F0B4C101F0B5C102F0B6C103F0B7C1EF
:1006680004F0D1EC36F001C0B4F102C0B5F103C01A
:10067800B6F104C0B7F1B4C168F0B5C169F0B6C14C
:100688006AF0B7C16BF063EF12F0000E646F000EF2
:10069800656F000E666F000E676F6BBF58EF03F053
:1006A80056EF03F078EF03F05451551156115711D6
:1006B800D8A461EF03F063EF03F065EF03F011EFE7
:1006C80003F05405551156115711D8A46EEF03F0D5
:1006D80070EF03F078EF03F0000E646F000E656FA3
:1006E800000E666F800E676F97BF87EF03F0940563
:1006F800000E9559000E96594D0E9759D8A087EFC0
:1007080003F089EF03F04DEF05F0AFBF9BEF03F067
:10071800F80EAC5DFF0EAD597F0EAE593F0EAF59C6
:10072800D8B099EF03F09BEF03F0BCEF03F087BF5D
:10073800A2EF03F0A0EF03F0B1EF03F0000E010108
:100748006411B46F000E6511B56F800E6611B66F37
:100758007F0E6711B76F3FEF03F0000E0001686F5F
:10076800000E696F000E6A6F000E6B6F63EF12F078
:10077800AFBFCCEF03F0080EAC5D000EAD59800E94
:10078800AE593F0EAF59D8A0CCEF03F0CEEF03F02F
:10079800EAEF03F087BFDBEF03F08751861185117D
:1007A80008E18405D8A0DBEF03F0DDEF03F0DFEF0D
:1007B80003F0A2EF03F0000E0001686F000E696FEE
:1007C800000E6A6F000E6B6F63EF12F078C141F094
:1007D80079C142F07AC143F07BC144F0000E456E06
:1007E800000E466E800E476EBF0E486EB3EC1DF0CD
:1007F80041C0B0F142C0B1F143C0B2F144C0B3F15D
:10080800000E136E000E146E800E156E3E0E166EE0
:10081800B0C10FF0B1C110F0B2C111F0B3C112F004
:100828000EEC20F00FC055F010C056F011C057F074
:1008380012C058F0AB0E516EAA0E526EAA0E536E2D
:100848003E0E546E34EC36F051C048F152C049F1B6
:1008580053C04AF154C04BF1B0C113F0B1C114F008
:10086800B2C115F0B3C116F0B0C10FF0B1C110F0AC
:10087800B2C111F0B3C112F00EEC20F00FC058F164
:1008880010C059F111C05AF112C05BF1B0C113F098
:10089800B1C114F0B2C115F0B3C116F048C10FF0E0
:1008A80049C110F04AC111F04BC112F00EEC20F012
:1008B8000FC055F010C056F011C057F012C058F0D4
:1008C800000E516E000E526E000E536E3F0E546EA7
:1008D80034EC36F051C04CF152C04DF153C04EF1DA
:1008E80054C04FF158C10FF059C110F05AC111F05E
:1008F8005BC112F04CC113F04DC114F04EC115F09C
:100908004FC116F00EEC20F00FC044F110C045F1B5
:1009180011C046F112C047F1B0C10FF0B1C110F0DB
:10092800B2C111F0B3C112F0000E136EAA0E146E0C
:10093800B80E156E3F0E166E0EEC20F00FC07CF14F
:1009480010C07DF111C07EF112C07FF1700E136EE0
:10095800A50E146EEC0E156E360E166EB0C10FF0A5
:10096800B1C110F0B2C111F0B3C112F00EEC20F019
:100978000FC051F010C052F011C053F012C054F023
:100988003B0E136EAA0E146EB80E156E3F0E166E41
:1009980044C10FF045C110F046C111F047C112F033
:1009A8000EEC20F00FC055F010C056F011C057F0F3
:1009B80012C058F034EC36F051C080F152C081F1C9
:1009C80053C082F154C083F17CC141F07DC142F033
:1009D8007EC143F07FC144F080C145F081C146F03B
:1009E80082C147F083C148F0B3EC1DF041C08CF1DF
:1009F80042C08DF143C08EF144C08FF18CC198F193
:100A08008DC199F18EC19AF18FC19BF1000E010140
:100A180098158C6FF00E99158D6FFF0E9A158E6FC5
:100A2800FF0E9B158F6F7CC155F07DC156F07EC1BE
:100A380057F07FC158F08CC151F08DC152F08EC172
:100A480053F08FC154F034EC36F051C09CF152C0D1
:100A58009DF153C09EF154C09FF180C151F081C1F6
:100A680052F082C153F083C154F09CC155F09DC12E
:100A780056F09EC157F09FC158F034EC36F051C083
:100A88001CF152C01DF153C01EF154C01FF15BEFA1
:100A98000CF0000E886F000E896F000E8A6F000E32
:100AA8008B6FAFBF63EF05F0AF5107E1800EAE5D0E
:100AB800D8B061EF05F063EF05F08EEF05F078C16F
:100AC8000FF079C110F07AC111F07BC112F0000E5D
:100AD800136E000E146E800E156E4B0E166E0EEC15
:100AE80020F00FC078F110C079F111C07AF112C06E
:100AF8007BF1E80E01018827FF0E8923FF0E8A2368
:100B0800FF0E8B2378C1ACF179C1ADF17AC1AEF19A
:100B18007BC1AFF1170E0001706FACC171F0ADC1B0
:100B280072F0AEC173F0AFC174F070679EEF05F05C
:100B3800A6EF05F074357433733372337133702F45
:100B480099EF05F0810E00017125756FFF0E722176
:100B5800766FFF0E7321776FFF0E7421786F7551D2
:100B6800010188270001765101018923000177518D
:100B780001018A230001785101018B23FF0EAC1576
:100B8800A86FFF0EAD15A96F7F0EAE15AA6F000EE8
:100B9800AF15AB6F000EA46F000EA56F000EA66F09
:100BA800000EA76F000EA811AC6F000EA911AD6F53
:100BB800800EAA11AE6F3F0EAB11AF6FABBFF4EF53
:100BC80005F0AB510BE1720EA85DC40EA9591C0EBD
:100BD800AA59D8B0F2EF05F0F4EF05F0F6EF05F0FA
:100BE80020EF06F0ABBF08EF06F0AB510BE1D70ED4
:100BF800A85DB30EA9595D0EAA59D8B006EF06F044
:100C080008EF06F012EF06F0010EA46F000EA56FB4
:100C1800000EA66F000EA76F20EF06F0010E8827C2
:100C2800000E89238A238B23000EAC27000EAD23E8
:100C3800800EAE23FF0EAF23ACC178F1ADC179F1C0
:100C4800AEC17AF1AFC17BF178C151F079C152F0F0
:100C58007AC153F07BC154F0A4C170F0A5C171F002
:100C68000001D89070377137D890703771376D0E92
:100C78007025F66E7E0E7121F76E0900F5CF55F0DE
:100C88000900F5CF56F00900F5CF57F00A00F5CF67
:100C980058F034EC36F051C07CF152C07DF153C0AD
:100CA8007EF154C07FF1000E286E000E296E800E72
:100CB8002A6E3F0E2B6E78C145F079C146F07AC195
:100CC80047F07BC148F0A4C170F0A5C171F00001E4
:100CD800D89070377137D890703771376D0E70258E
:100CE800F66E7E0E7121F76E0900F5CF41F009000E
:100CF800F5CF42F00900F5CF43F00A00F5CF44F0F4
:100D0800B3EC1DF041C02CF042C02DF043C02EF0D2
:100D180044C02FF010EC24F028C080F129C081F1E4
:100D28002AC082F12BC083F17CC10FF07DC110F085
:100D38007EC111F07FC112F080C113F081C114F09F
:100D480082C115F083C116F00EEC20F00FC060F1DF
:100D580010C061F111C062F112C063F160C174F199
:100D680061C175F162C176F163C177F174C198F11F
:100D780075C199F176C19AF177C19BF1000E010115
:100D88009815746FF00E9915756FFF0E9A15766F9A
:100D9800FF0E9B15776FACC170F0ADC171F0AEC19D
:100DA80072F0AFC173F0000173357333723371336E
:100DB8007033000E7015746FF00E7115756FFF0E9D
:100DC8007215766FFF0E7315776F000E741101019F
:100DD800986F000E000175110101996F000E000156
:100DE800761101019A6F200E0001771101019B6FA6
:100DF800A4C170F0A5C171F0A6C172F0A7C173F0CB
:100E0800150ED89000017037713772377337E82E96
:100E180005EF07F00101985100017025746F010179
:100E2800995100017121756F01019A5100017221D8
:100E3800766F01019B5100017321776F000E7425B5
:100E48000101706F000E000175210101716F400EE4
:100E5800000176210101726F000E00017721010166
:100E6800736FA4C170F0A5C171F00001D8907037FC
:100E78007137D890703771376D0E7025F66E7E0E0B
:100E88007121F76E0900F5CF55F00900F5CF56F03E
:100E98000900F5CF57F00A00F5CF58F070C151F0AE
:100EA80071C152F072C153F073C154F034EC36F092
:100EB80051C09CF152C09DF153C09EF154C09FF1A6
:100EC80078C151F079C152F07AC153F07BC154F026
:100ED8009CC155F09DC156F09EC157F09FC158F076
:100EE80034EC36F051C034F152C035F153C036F10C
:100EF80054C037F170C113F071C114F072C115F00C
:100F080073C116F074C10FF075C110F076C111F0FD
:100F180077C112F00EEC20F00FC055F010C056F05B
:100F280011C057F012C058F07CC151F07DC152F089
:100F38007EC153F07FC154F034EC36F051C09CF1BF
:100F480052C09DF153C09EF154C09FF134C113F0BB
:100F580035C114F036C115F037C116F074C10FF061
:100F680075C110F076C111F077C112F00EEC20F0C7
:100F78000FC055F010C056F011C057F012C058F00D
:100F88009CC151F09DC152F09EC153F09FC154F0D5
:100F980034EC36F051C058F152C059F153C05AF1EF
:100FA80054C05BF158C10FF059C110F05AC111F08B
:100FB8005BC112F080C113F081C114F082C115F039
:100FC80083C116F00EEC20F00FC030F110C031F1E3
:100FD80011C032F112C033F160C10FF061C110F0DD
:100FE80062C111F063C112F060C113F061C114F065
:100FF80062C115F063C116F00EEC20F00FC090F13D
:1010080010C091F111C092F112C093F1550E456EC6
:10101800320E466E6C0E476E3E0E486E420E136ED2
:10102800F10E146E530E156E3E0E166E90C10FF033
:1010380091C110F092C111F093C112F00EEC20F0A2
:101048000FC041F010C042F011C043F012C044F08C
:10105800B3EC1DF041C048F142C049F143C04AF128
:1010680044C04BF1050E456EA30E466E8B0E476EBF
:101078003E0E486E90C113F091C114F092C115F064
:1010880093C116F048C10FF049C110F04AC111F0E0
:101098004BC112F00EEC20F00FC041F010C042F02E
:1010A80011C043F012C044F0B3EC1DF041C058F138
:1010B80042C059F143C05AF144C05BF1AB0E456ED2
:1010C800AA0E466EAA0E476E3E0E486E90C113F0E9
:1010D80091C114F092C115F093C116F058C10FF0E8
:1010E80059C110F05AC111F05BC112F00EEC20F09A
:1010F8000FC041F010C042F011C043F012C044F0DC
:10110800B3EC1DF041C04CF142C04DF143C04EF16B
:1011180044C04FF1B70E456E6D0E466EDB0E476E3E
:101128003E0E486E90C113F091C114F092C115F0B3
:1011380093C116F04CC10FF04DC110F04EC111F023
:101148004FC112F00EEC20F00FC041F010C042F079
:1011580011C043F012C044F0B3EC1DF041C038F1A7
:1011680042C039F143C03AF144C03BF19A0E456E92
:10117800990E466E190E476E3F0E486E90C113F0D9
:1011880091C114F092C115F093C116F038C10FF057
:1011980039C110F03AC111F03BC112F00EEC20F049
:1011A8000FC041F010C042F011C043F012C044F02B
:1011B800B3EC1DF041C000F142C001F143C002F19F
:1011C80044C003F190C113F091C114F092C115F01D
:1011D80093C116F090C10FF091C110F092C111F0B7
:1011E80093C112F00EEC20F00FC004F110C005F10D
:1011F80011C006F112C007F100C10FF001C110F0D3
:1012080002C111F003C112F004C113F005C114F0BA
:1012180006C115F007C116F00EEC20F00FC050F112
:1012280010C051F111C052F112C053F130C113F086
:1012380031C114F032C115F033C116F060C145F068
:1012480061C146F062C147F063C148F074C141F022
:1012580075C142F076C143F077C144F0B3EC1DF09C
:1012680041C00FF042C010F043C011F044C012F06A
:101278000EEC20F00FC05CF110C05DF111C05EF102
:1012880012C05FF150C141F051C142F052C143F068
:1012980053C144F05CC145F05DC146F05EC147F002
:1012A8005FC148F0B3EC1DF041C050F142C051F1AC
:1012B80043C052F144C053F174C10FF075C110F02E
:1012C80076C111F077C112F074C113F075C114F032
:1012D80076C115F077C116F00EEC20F00FC090F132
:1012E80010C091F111C092F112C093F1000E456E39
:1012F800000E466E400E476E400E486E90C141F09B
:1013080091C142F092C143F093C144F0B3EC1DF097
:1013180041C05CF142C05DF143C05EF144C05FF181
:101328005CC141F05DC142F05EC143F05FC144F071
:1013380050C145F051C146F052C147F053C148F081
:10134800B3EC1DF041C070F142C071F143C072F1BD
:1013580044C073F170C198F171C199F172C19AF1E9
:1013680073C19BF1000E01019815706FF00E99156D
:10137800716FFF0E9A15726FFF0E9B15736F000E3B
:10138800456E000E466E400E476EC00E486E70C128
:1013980041F071C142F072C143F073C144F0B3EC43
:1013A8001DF041C03CF142C03DF143C03EF144C094
:1013B8003FF190C155F091C156F092C157F093C1D9
:1013C80058F03CC151F03DC152F03EC153F03FC10D
:1013D80054F034EC36F051C040F152C041F153C0E2
:1013E80042F154C043F150C151F051C152F052C1C1
:1013F80053F053C154F040C155F041C156F042C1B9
:1014080057F043C158F034EC36F051C034F152C0B3
:1014180035F153C036F154C037F174C10FF075C1BE
:1014280010F076C111F077C112F070C113F071C1DC
:1014380014F072C115F073C116F00EEC20F00FC055
:101448007CF110C07DF111C07EF112C07FF130C176
:1014580013F031C114F032C115F033C116F070C168
:101468000FF071C110F072C111F073C112F00EECDF
:1014780020F00FC041F010C042F011C043F012C07C
:1014880044F060C113F061C114F062C115F063C18A
:1014980016F034C10FF035C110F036C111F037C164
:1014A80012F00EEC20F00FC045F010C046F011C04D
:1014B80047F012C048F0B3EC1DF041C080F142C0C3
:1014C80081F143C082F144C083F17CC141F07DC108
:1014D80042F07EC143F07FC144F080C145F081C134
:1014E80046F082C147F083C148F0B3EC1DF041C01B
:1014F800A0F142C0A1F143C0A2F144C0A3F1A0C130
:1015080098F1A1C199F1A2C19AF1A3C19BF1000E72
:1015180001019815A06FF00E9915A16FFF0E9A158D
:10152800A26FFF0E9B15A36F7CC155F07DC156F0CD
:101538007EC157F07FC158F0A0C151F0A1C152F04F
:10154800A2C153F0A3C154F034EC36F051C09CF161
:1015580052C09DF153C09EF154C09FF180C151F01B
:1015680081C152F082C153F083C154F09CC155F03F
:101578009DC156F09EC157F09FC158F034EC36F02B
:1015880051C06CF152C06DF153C06EF154C06FF18F
:10159800A0C10FF0A1C110F0A2C111F0A3C112F0B7
:1015A800000E136E400E146E760E156E3F0E166EFC
:1015B8000EEC20F00FC020F110C021F111C022F173
:1015C80012C023F14F0E136E380E146E760E156E80
:1015D8003F0E166E6CC10FF06DC110F06EC111F0A8
:1015E8006FC112F00EEC20F00FC045F010C046F0AD
:1015F80011C047F012C048F0C60E136E230E146EC9
:10160800F60E156EB80E166EA0C10FF0A1C110F03F
:10161800A2C111F0A3C112F00EEC20F00FC041F0EE
:1016280010C042F011C043F012C044F0B3EC1DF0FA
:1016380041C05CF142C05DF143C05EF144C05FF15E
:101648005CC141F05DC142F05EC143F05FC144F04E
:10165800A4C170F0A5C171F00001D890703771373E
:10166800D890703771375D0E7025F66E7E0E712139
:10167800F76E0900F5CF45F00900F5CF46F00900EF
:10168800F5CF47F00A00F5CF48F0B3EC1DF041C0A4
:1016980024F142C025F143C026F144C027F188C196
:1016A80001F089C102F08AC103F08BC104F0010E78
:1016B80002EC2BF001C0B0F102C0B1F103C0B2F1ED
:1016C80004C0B3F124C145F025C146F026C147F056
:1016D80027C148F020C141F021C142F022C143F0A6
:1016E80023C144F0B3EC1DF041C05CF142C05DF190
:1016F80043C05EF144C05FF1A4C170F0A5C171F0B0
:101708000001D89070377137D89070377137650EEF
:101718007025F66E7E0E7121F76E0900F5CF45F043
:101728000900F5CF46F00900F5CF47F00A00F5CFDC
:1017380048F05CC141F05DC142F05EC143F05FC159
:1017480044F0B3EC1DF041C008F142C009F143C0B8
:101758000AF144C00BF108C141F009C142F00AC1C5
:1017680043F00BC144F0B0C145F0B1C146F0B2C17D
:1017780047F0B3C148F0B3EC1DF041C08CF142C052
:101788008DF143C08EF144C08FF18CC198F18DC1A9
:1017980099F18EC19AF18FC19BF1000E0101981544
:1017A8008C6FF00E99158D6FFF0E9A158E6FFF0EC8
:1017B8009B158F6FB0C155F0B1C156F0B2C157F04B
:1017C800B3C158F08CC151F08DC152F08EC153F0A5
:1017D8008FC154F034EC36F051C09CF152C09DF1E9
:1017E80053C09EF154C09FF1A4C170F0A5C171F01F
:1017F8000001D89070377137D89070377137650EFF
:101808007025F66E7E0E7121F76E0900F5CF55F042
:101818000900F5CF56F00900F5CF57F00A00F5CFCB
:1018280058F09CC151F09DC152F09EC153F09FC128
:1018380054F034EC36F051C040F152C041F153C07D
:1018480042F154C043F120C155F021C156F022C1E4
:1018580057F023C158F040C151F041C152F042C184
:1018680053F043C154F034EC36F051C00CF152C07F
:101878000DF153C00EF154C00FF124C151F025C130
:1018880052F026C153F027C154F00CC155F00DC1D8
:1018980056F00EC157F00FC158F034EC36F051C075
:1018A8001CF152C01DF153C01EF154C01FF16CC091
:1018B80098F16DC099F16EC09AF16FC09BF1000E5E
:1018C800010198152C6FF00E99152D6FFF0E9A15C2
:1018D8002E6FFF0E9B152F6F8CC113F08DC114F066
:1018E8008EC115F08FC116F02CC155F02DC156F0E0
:1018F8002EC157F02FC158F06CC051F06DC052F096
:101908006EC053F06FC054F034EC36F051C00FF095
:1019180052C010F053C011F054C012F00EEC20F079
:101928000FC010F110C011F111C012F112C013F163
:1019380010C141F011C142F012C143F013C144F08B
:101948001CC113F01DC114F01EC115F01FC116F003
:101958006CC00FF06DC010F06EC011F06FC012F0C7
:101968000EEC20F00FC045F010C046F011C047F053
:1019780012C048F0B3EC1DF041C06CF142C06DF1EB
:1019880043C06EF144C06FF12CC10FF02DC110F0AF
:101998002EC111F02FC112F08CC113F08DC114F0BB
:1019A8008EC115F08FC116F00EEC20F00FC0A0F11B
:1019B80010C0A1F111C0A2F112C0A3F1A0C141F061
:1019C800A1C142F0A2C143F0A3C144F06CC145F0EB
:1019D8006DC146F06EC147F06FC148F0B3EC1DF021
:1019E80041C0B4F142C0B5F143C0B6F144C0B7F14B
:1019F800B4C1A8F1B5C1A9F1B6C1AAF1B7C1ABF19B
:101A08000101ABBF14EF0DF0A805000EA959000E97
:101A1800AA59430EAB59D8A014EF0DF016EF0DF0EC
:101A280018EF0DF0A2EF03F0430EAB19A811A9119E
:101A3800AA11D8A422EF0DF024EF0DF064EF0DF0F9
:101A4800A0C155F0A1C156F0A2C157F0A3C158F0EA
:101A5800B4C151F0B5C152F0B6C153F0B7C154F09A
:101A680034EC36F051C060F052C061F053C062F0FF
:101A780054C063F03C0E456EAA0E466E380E476E93
:101A8800330E486E6CC141F06DC142F06EC143F037
:101A98006FC144F0B3EC1DF041C064F042C065F082
:101AA80043C066F044C067F08AEC2FF00001D8B05C
:101AB80060EF0DF062EF0DF0D7EF0DF0A2EF03F03D
:101AC800FF0EA8150001706FFF0E0101A915000196
:101AD800716FFF0E0101AA150001726F7F0E0101DF
:101AE800AB150001736F73BF86EF0DF07005000E24
:101AF8007159160E7259430E7359D8A086EF0DF01E
:101B080088EF0DF092EF0DF0000E686F000E696F10
:101B1800000E6A6F000E6B6F63EF12F0160E010174
:101B2800AA1909E1C30EAB19A811A911D8A49FEFEE
:101B38000DF0A1EF0DF0D7EF0DF0A0C155F0A1C148
:101B480056F0A2C157F0A3C158F0B4C151F0B5C1C5
:101B580052F0B6C153F0B7C154F034EC36F051C06E
:101B680060F052C061F053C062F054C063F06CC1C1
:101B780064F06DC165F06EC166F06FC167F08AEC04
:101B88002FF00001D8A0CBEF0DF0CDEF0DF0D7EF7F
:101B98000DF0000E686F000E696F000E6A6F000E80
:101BA8006B6F63EF12F0FF0E0101A815286FFF0E8F
:101BB800A915296FFF0EAA152A6F7F0EAB152B6F7B
:101BC800170E0001706F28C171F029C172F02AC187
:101BD80073F02BC174F07067F4EF0DF0FCEF0DF0AB
:101BE80074357433733372337133702FEFEF0DF034
:101BF800810E000171250101A46FFF0E0001722101
:101C08000101A56FFF0E000173210101A66FFF0EF0
:101C1800000174210101A76F000E886F000E896F03
:101C2800000E8A6F000E8B6F2BBF27EF0EF0280572
:101C3800000E2959000E2A593F0E2B59D8A027EF1C
:101C48000EF029EF0EF025EF0FF0A4C170F0010E91
:101C580000017027000E716F000E726F800E736F97
:101C6800000E746F70673BEF0EF043EF0EF07435A3
:101C78007433733372337133702F36EF0EF0010102
:101C8800A851000171250101886FA9510001722135
:101C98000101896FAA510001732101018A6FAB51BB
:101CA8000001742101018B6F810E0001706FFF0E1E
:101CB800716FFF0E726FFF0E736F170E746F88C10E
:101CC80075F089C176F08AC177F08BC178F07467B6
:101CD80070EF0EF078EF0EF078357833773376338F
:101CE8007533742F6BEF0EF00001755170250101EB
:101CF800A46F000E000171210101A56F000E000103
:101D080072210101A66F000E000173210101A76F66
:101D1800A4C170F0FF0E0001716FFF0E726F7F0E8D
:101D2800736F000E746F70679CEF0EF0A4EF0EF0E7
:101D380074357433733372337133702F97EF0EF039
:101D48000001711D756F721D766F731D776F741D9D
:101D5800786F01018851000175150101B06F895133
:101D6800000176150101B16F8A5100017715010153
:101D7800B26F8B51000178150101B36FA451170898
:101D88000001706FFF0E010188150001716FFF0ED1
:101D9800010189150001726F7F0E01018A1500018A
:101DA800736F000E01018B150001746F000E711125
:101DB800756F000E7211766F800E7311776F000EBB
:101DC8007411786F7067EBEF0EF0F3EF0EF0783563
:101DD8007833773376337533702FE6EF0EF075C0AE
:101DE80088F176C089F177C08AF178C08BF101015A
:101DF800ABBF03EF0FF001EF0FF00BEF0FF08B1FEE
:101E08008A1F891F886D000E89238A238B23A0C10E
:101E180051F0A1C152F0A2C153F0A3C154F0B0C116
:101E280055F0B1C156F0B2C157F0B3C158F034EC17
:101E380036F051C0A0F152C0A1F153C0A2F154C074
:101E4800A3F1A0C141F0A1C142F0A2C143F0A3C1D6
:101E580044F06CC145F06DC146F06EC147F06FC1EA
:101E680048F0B3EC1DF041C0B0F142C0B1F143C03D
:101E7800B2F144C0B3F1B0C198F1B1C199F1B2C1A6
:101E88009AF1B3C19BF1000E01019815B06F800E55
:101E98009915B16FFF0E9A15B26FFF0E9B15B36FB0
:101EA800B0C10FF0B1C110F0B2C111F0B3C112F05E
:101EB800000E136E720E146E310E156E3F0E166EF6
:101EC8000EEC20F00FC07CF110C07DF111C07EF146
:101ED80012C07FF1A0C155F0A1C156F0A2C157F0C0
:101EE800A3C158F0B0C151F0B1C152F0B2C153F022
:101EF800B3C154F034EC36F051C09CF152C09DF19E
:101F080053C09EF154C09FF1180E136E720E146EDA
:101F1800310E156E3F0E166E9CC155F09DC156F0E0
:101F28009EC157F09FC158F06CC151F06DC152F07D
:101F38006EC153F06FC154F034EC36F051C00FF05D
:101F480052C010F053C011F054C012F00EEC20F043
:101F58000FC014F110C015F111C016F112C017F11D
:101F680014C141F015C142F016C143F017C144F045
:101F78008C0E136EBE0E146EBF0E156E350E166ED9
:101F8800B0C10FF0B1C110F0B2C111F0B3C112F07D
:101F98000EEC20F00FC045F010C046F011C047F01D
:101FA80012C048F0B3EC1DF041C080F142C081F18D
:101FB80043C082F144C083F17CC141F07DC142F04D
:101FC8007EC143F07FC144F080C145F081C146F035
:101FD80082C147F083C148F0B3EC1DF041C0B4F1B1
:101FE80042C0B5F143C0B6F144C0B7F17CC155F069
:101FF8007DC156F07EC157F07FC158F0B4C151F091
:10200800B5C152F0B6C153F0B7C154F034EC36F054
:1020180051C09CF152C09DF153C09EF154C09FF134
:1020280080C151F081C152F082C153F083C154F094
:102038009CC155F09DC156F09EC157F09FC158F004
:1020480034EC36F051C044F152C045F153C046F16A
:1020580054C047F1B4C10FF0B5C110F0B6C111F0CA
:10206800B7C112F0B4C113F0B5C114F0B6C115F080
:10207800B7C116F00EEC20F00FC0B0F110C0B1F1EE
:1020880011C0B2F112C0B3F10E0E456EEA0E466EE3
:10209800DD0E476EB50E486E4C0E136EBB0E146EF9
:1020A800310E156E330E166EB0C10FF0B1C110F0BF
:1020B800B2C111F0B3C112F00EEC20F00FC041F024
:1020C80010C042F011C043F012C044F0B3EC1DF050
:1020D80041C048F142C049F143C04AF144C04BF104
:1020E800550E456EB30E466E8A0E476E380E486E14
:1020F800B0C113F0B1C114F0B2C115F0B3C116F0FC
:1021080048C10FF049C110F04AC111F04BC112F09B
:102118000EEC20F00FC041F010C042F011C043F0A7
:1021280012C044F0B3EC1DF041C058F142C059F15F
:1021380043C05AF144C05BF1610E456E0B0E466E0A
:10214800360E476EBB0E486EB0C113F0B1C114F025
:10215800B2C115F0B3C116F058C10FF059C110F053
:102168005AC111F05BC112F00EEC20F00FC041F023
:1021780010C042F011C043F012C044F0B3EC1DF09F
:1021880041C04CF142C04DF143C04EF144C04FF143
:10219800AB0E456EAA0E466E2A0E476E3E0E486E70
:1021A800B0C113F0B1C114F0B2C115F0B3C116F04B
:1021B8004CC10FF04DC110F04EC111F04FC112F0DB
:1021C8000EEC20F00FC041F010C042F011C043F0F7
:1021D80012C044F0B3EC1DF041C038F142C039F1EF
:1021E80043C03AF144C03BF1B4C151F0B5C152F01B
:1021F800B6C153F0B7C154F0B0C113F0B1C114F077
:10220800B2C115F0B3C116F038C10FF039C110F0E2
:102218003AC111F03BC112F00EEC20F00FC055F09E
:1022280010C056F011C057F012C058F034EC36F018
:1022380051C08CF152C08DF153C08EF154C08FF152
:10224800000E456E000E466E000E476EC00E486EBC
:102258008CC141F08DC142F08EC143F08FC144F072
:10226800B3EC1DF041C02CF042C02DF043C02EF05D
:1022780044C02FF08CC113F08DC114F08EC115F03D
:102288008FC116F0B4C10FF0B5C110F0B6C111F08E
:10229800B7C112F00EEC20F00FC028F010C029F0E2
:1022A80011C02AF012C02BF010EC24F028C03CF129
:1022B80029C03DF12AC03EF12BC03FF144C145F091
:1022C80045C146F046C147F047C148F044C113F044
:1022D80045C114F046C115F047C116F0B4C10FF05E
:1022E800B5C110F0B6C111F0B7C112F00EEC20F074
:1022F8000FC041F010C042F011C043F012C044F0CA
:10230800B3EC1DF041C018F142C019F143C01AF1F5
:1023180044C01BF13CC151F03DC152F03EC153F0E5
:102328003FC154F018C155F019C156F01AC157F001
:102338001BC158F034EC36F051C050F152C051F185
:1023480053C052F154C053F1B4C155F0B5C156F061
:10235800B6C157F0B7C158F050C151F051C152F051
:1023680052C153F053C154F034EC36F051C09CF1D3
:1023780052C09DF153C09EF154C09FF1000E516EA2
:10238800000E526E800E536E3F0E546E9CC155F077
:102398009DC156F09EC157F09FC158F034EC36F0FD
:1023A80051C0B4F152C0B5F153C0B6F154C0B7F141
:1023B800B4C1A8F1B5C1A9F1B6C1AAF1B7C1ABF1D1
:1023C80088C170F089C171F08AC172F08BC173F055
:1023D800170ED89000017037713772377337E82EAF
:1023E800EDEF11F070510101A827000171510101B1
:1023F800A923000172510101AA23000173510101AF
:10240800AB23170E0001706FA8C171F0A9C172F05B
:10241800AAC173F0ABC174F0706715EF12F01DEF2D
:1024280012F074357433733372337133702F10EFC5
:1024380012F0000174BF2DEF12F074517311721174
:1024480006E17105D8B02BEF12F02DEF12F045EF31
:1024580012F0B4C128F0B5C129F0B6C12AF0B7C14D
:102468002BF088C12CF089C12DF0DFEC28F028C0B2
:10247800B4F129C0B5F12AC0B6F12BC0B7F14DEFC0
:1024880012F0A8C1B4F1A9C1B5F1AAC1B6F1ABC1A6
:10249800B7F10101B451B511B611B711D8B457EF5E
:1024A80012F059EF12F03FEF03F06451B41B65517D
:1024B800B51B6651B61B6751B71B3FEF03F01200FF
:1024C8000001916B69C092F06AC093F06BC094F000
:1024D8006CC095F095BF75EF12F073EF12F089EFAD
:1024E80012F0010E916F92C001F093C002F094C0F7
:1024F80003F095C004F0D1EC36F001C092F002C0B0
:1025080093F003C094F004C095F0000E0001976F9B
:10251800000E966F62C381F063C382F09151D8B404
:1025280098EF12F09AEF12F0AEEF12F09151D8A492
:10253800A0EF12F0A2EF12F0A8EF12F0000E776FE2
:102548002B0E766FACEF12F0000E776F2D0E766FB4
:1025580076C091F092C001F093C002F094C003F0ED
:1025680095C004F00FEC31F001040210D8A4BFEFBD
:1025780012F0C1EF12F0F2EF12F000019151D8B44D
:10258800C8EF12F0CAEF12F0D3EF12F091C072F355
:102598008107D8A08207000E976F010E966F720E02
:1025A8009625016E030E9721026EF70E036E7F0EBD
:1025B800046EB5EC36F00001FD0E8127FF0E822374
:1025C80068C00FF0720E106E030E116E81C012F00B
:1025D80082C013F065EC35F05BEF17F092C001F0A4
:1025E80093C002F094C003F095C004F00FEC31F0F2
:1025F80001500210D8A403EF13F005EF13F025EFF4
:1026080013F000019151D8B40CEF13F00EEF13F052
:1026180017EF13F091C072F38107D8A08207000E5C
:10262800976F010E966F720E9625016E030E972115
:10263800026EFB0E036E7F0E046EB5EC36F0DFEF14
:1026480012F0000E0001986F000E996F800E9A6FBD
:102658003F0E9B6F000E806F000E7F6F92C001F0DF
:1026680093C002F094C003F095C004F0000E056E0C
:10267800000E066E000E076E000E086EF5EC33F0C5
:10268800D8B049EF13F04BEF13F02BEF14F058EFDD
:1026980013F083C098F084C099F085C09AF086C082
:1026A8009BF000017F4B802B98C00FF099C010F071
:1026B8009AC011F09BC012F0000E136E000E146E3B
:1026C800200E156E410E166E0EEC20F00FC083F032
:1026D80010C084F011C085F012C086F0000183514B
:1026E800925D016E84519359026E85519459036E1F
:1026F80086519559046E98EC35F004BE8FEF13F0AF
:1027080004500310021009E1020E015CD8A08FEFFB
:1027180013F091EF13F04DEF13F083C060F084C015
:1027280061F085C062F086C063F092C064F093C027
:1027380065F094C066F095C067F08AEC2FF0000150
:10274800D8A0A9EF13F0ABEF13F04DEF13F09851A9
:10275800925D016E99519359026E9A519459036E84
:102768009B519559046E98EC35F004BEC9EF13F0EF
:1027780004500310021007E1020E015CD8B0C7EF45
:1027880013F0C9EF13F011EF14F098C092F099C04C
:1027980093F09AC094F09BC095F02BEF14F098C07A
:1027A80028F099C029F09AC02AF09BC02BF0000E9F
:1027B8002C6E000E2D6E200E2E6E410E2F6E10EC1C
:1027C80024F028C098F029C099F02AC09AF02BC0AC
:1027D8009BF000017F07D8A080079851925D016E99
:1027E80099519359026E9A519459036E9B51955978
:1027F800046E98EC35F004BE0FEF14F0045003108B
:10280800021007E1020E015CD8B00DEF14F00FEFD3
:1028180014F011EF14F0C9EF13F092C060F093C0F8
:1028280061F094C062F095C063F098C064F099C0FC
:1028380065F09AC066F09BC067F08AEC2FF0000143
:10284800D8A029EF14F02BEF14F0D3EF13F06DC0DC
:1028580079F079C07AF00201FFBF35EF14F037EF55
:1028680014F03DEF14F0FEC272F0FFC273F042EFB5
:1028780014F0000E0001736F060E726F72C07DF0C7
:1028880073C07EF000017D4B7E2B660E7A19D8A4AA
:1028980050EF14F052EF14F072EF14F080BF59EFBC
:1028A80014F057EF14F065EF14F0000E986F000E57
:1028B800996F800E9A6F3F0E9B6F000E806F000E0F
:1028C8007F6F670E7919D8B46CEF14F06EEF14F0BF
:1028D80072EF14F07F517D2780517E23000E886FA0
:1028E800000E876F92C089F093C08AF094C08BF075
:1028F80095C08CF098C083F099C084F09AC085F098
:102908009BC086F003EF15F089C028F08AC029F033
:102918008BC02AF08CC02BF098C02CF099C02DF0F9
:102928009AC02EF09BC02FF010EC24F028C041F084
:1029380029C042F02AC043F02BC044F0F9EC29F03A
:1029480041C08DF042C08EF043C08FF044C090F07B
:102958008DC001F08EC002F08FC003F090C004F06B
:1029680007EC2FF001C07BF002C07CF089C051F069
:102978008AC052F08BC053F08CC054F08DC013F055
:102988008EC014F08FC015F090C016F098C00FF0EC
:1029980099C010F09AC011F09BC012F00EEC20F014
:1029A8000FC055F010C056F011C057F012C058F0C3
:1029B80034EC36F051C089F052C08AF053C08BF025
:1029C80054C08CF098C028F099C029F09AC02AF019
:1029D8009BC02BF0000E2C6E000E2D6E200E2E6E5E
:1029E800410E2F6E10EC24F028C098F029C099F001
:1029F8002AC09AF02BC09BF00001874B882B7D5191
:102A0800875D8851800A6E6F7E51800A6E59D8A002
:102A180010EF15F012EF15F088EF14F098C00FF0D2
:102A280099C010F09AC011F09BC012F0000E136EFE
:102A3800000E146EA00E156E400E166E0EEC20F0F1
:102A48000FC08DF010C08EF011C08FF012C090F042
:102A580089C060F08AC061F08BC062F08CC063F0FE
:102A68008DC064F08EC065F08FC066F090C067F0CE
:102A78008AEC2FF00001D8B044EF15F046EF15F0BE
:102A880050EF15F0000E8D6F000E8E6F000E8F6FD9
:102A9800000E906F79EF15F089C001F08AC002F03E
:102AA8008BC003F08CC004F08DC005F08EC006F01A
:102AB8008FC007F090C008F0F5EC33F0D8A067EFAE
:102AC80015F069EF15F079EF15F000017BB16FEFA4
:102AD80015F071EF15F079EF15F0000E8D6F000EFF
:102AE8008E6F000E8F6F000E906F92C041F093C0F2
:102AF80042F094C043F095C044F08DC045F08EC0BC
:102B080046F08FC047F090C048F0B3EC1DF041C0CC
:102B180089F042C08AF043C08BF044C08CF089C071
:102B280060F08AC061F08BC062F08CC063F0000E68
:102B3800136E000E146E200E156E410E166E83C0B5
:102B48000FF084C010F085C011F086C012F00EECB2
:102B580020F00FC064F010C065F011C066F012C01C
:102B680067F08AEC2FF00001D8A0BDEF15F0BFEF99
:102B780015F0E7EF15F07F4B802B83C00FF084C072
:102B880010F085C011F086C012F0000E136E000E12
:102B9800146E200E156E410E166E0EEC20F00FC04E
:102BA80083F010C084F011C085F012C086F0660E64
:102BB80000017A19D8A4E3EF15F0E5EF15F0E7EF77
:102BC80015F07D4B7E2B83C098F084C099F085C0AA
:102BD8009AF086C09BF07FC070F080C071F0786B6F
:102BE800000E756F000E746F000E886F000E876FF1
:102BF800E3EF16F089C028F08AC029F08BC02AF0CC
:102C08008CC02BF098C02CF099C02DF09AC02EF0F3
:102C18009BC02FF010EC24F028C041F029C042F0EE
:102C28002AC043F02BC044F0F9EC29F041C08DF0E4
:102C380042C08EF043C08FF044C090F08DC001F0C8
:102C48008EC002F08FC003F090C004F007EC2FF0A4
:102C580002BE3AEF16F0025007E10A0E015CD8B046
:102C680038EF16F03AEF16F04AEF16F08DC001F083
:102C78008EC002F08FC003F090C004F007EC2FF074
:102C880001C07BF002C07CF04FEF16F0000E00018F
:102C98007C6F090E7B6F00017851D8A456EF16F0AF
:102CA80058EF16F080EF16F071BF5FEF16F05DEF8A
:102CB80016F080EF16F0720E9625D96E030E972146
:102CC800DA6E2E0EDF6E964B972B8107D8A08207FF
:102CD800010E786F80EF16F0720E9625D96E030EEE
:102CE8009721DA6E300EDF6E964B972B8107D8A0AE
:102CF80082077407D8A0750774517511D8A487EF97
:102D080016F089EF16F070EF16F0720E9625D96E50
:102D1800030E9721DA6E7B51300FDF6E964B972B9F
:102D28008107D8A0820789C051F08AC052F08BC0B1
:102D380053F08CC054F08DC013F08EC014F08FC0C7
:102D480015F090C016F098C00FF099C010F09AC016
:102D580011F09BC012F00EEC20F00FC055F010C01F
:102D680056F011C057F012C058F034EC36F051C08C
:102D780089F052C08AF053C08BF054C08CF098C0D0
:102D880028F099C029F09AC02AF09BC02BF0000EB9
:102D98002C6E000E2D6E200E2E6E410E2F6E10EC36
:102DA80024F028C098F029C099F02AC09AF02BC0C6
:102DB8009BF000017007D8A07107874B882B7D51C5
:102DC800875D8851800A6E6F7E51800A6E59D8B02F
:102DD800F0EF16F0F2EF16F000EF17F097BFFEEFE6
:102DE80016F0975109E14B0E965DD8A0FEEF16F04C
:102DF80000EF17F0FEEF15F0000E886F4F0E876F8B
:102E0800720E8725D96E030E8821DA6EDF6A720E7C
:102E18006E6F030E6F6F96516E5F97516F5B8751A0
:102E28006E25016E88516F21026E720E036E030EBD
:102E3800046E96C005F097C006F0C3EC35F00001AB
:102E48009651875D966F97518859976F9151D8A47D
:102E580030EF17F033EF17F0010E34EF17F0000ED4
:102E6800876F886B9151D8B43CEF17F03EEF17F09D
:102E780049EF17F09607D8A09707720E9625D96ED6
:102E8800030E9721DA6E91C0DFFF8751815F885169
:102E9800825B68C00FF0720E9625106E030E9721A4
:102EA800116E81C012F082C013F065EC35F012008B
:102EB800000E99EC36F001C095F002C096F0000EB5
:102EC8002C6E000E2D6E800E2E6E440E2F6E000E90
:102ED800136E000E146EA00E156E400E166E95C081
:102EE80001F096C002F0036A046A000E02EC2BF0AF
:102EF80001C00FF002C010F003C011F004C012F0BE
:102F08000EEC20F00FC028F010C029F011C02AF0F4
:102F180012C02BF010EC24F028C089F029C08AF0E8
:102F28002AC08BF02BC08CF089C028F08AC029F009
:102F38008BC02AF08CC02BF00A0E2C6ED70E2D6E8B
:102F4800230E2E6E3C0E2F6E10EC24F028C07DF060
:102F580029C07EF02AC07FF02BC080F07DC051F0E0
:102F68007EC052F07FC053F080C054F0DA0E556E28
:102F7800030E566E77EC32F051C05CF352C05DF32D
:102F880053C05EF354C05FF3010E99EC36F001C0F4
:102F980097F002C098F0000E136E000E146EA00E8B
:102FA800156E400E166E97C001F098C002F0036AC5
:102FB800046A000E02EC2BF001C00FF002C010F002
:102FC80003C011F004C012F00EEC20F00FC028F07E
:102FD80010C029F011C02AF012C02BF0000E2C6E80
:102FE800000E2D6E800E2E6E440E2F6E10EC24F007
:102FF80028C081F029C082F02AC083F02BC084F059
:10300800000E136E000E146EC80E156E420E166E6C
:1030180081C055F082C056F083C057F084C058F084
:1030280054C351F055C352F056C353F057C354F02C
:1030380034EC36F051C00FF052C010F053C011F00C
:1030480054C012F00EEC20F00FC028F010C029F088
:1030580011C02AF012C02BF054C32CF055C32DF028
:1030680056C32EF057C32FF010EC24F028C058F3A5
:1030780029C059F32AC05AF32BC05BF303015BBF85
:103088004AEF18F048EF18F052EF18F0000E586F9A
:10309800000E596F000E5A6F000E5B6F000E000194
:1030A800606F000E616FC80E626F420E636F58C387
:1030B80064F059C365F05AC366F05BC367F08AECE5
:1030C8002FF00001D8B06BEF18F06DEF18F076EF25
:1030D80018F0000E0301586F000E596FC80E5A6F92
:1030E800420E5B6F03017151D8A47DEF18F07FEF9A
:1030F80018F09FEF18F058C360F059C361F05AC335
:1031080062F05BC363F0000E0001646F000E656F30
:10311800700E666F410E676F8AEC2FF00001D8A021
:1031280098EF18F09AEF18F09FEF18F0010E0301CE
:10313800716FC5EF18F003017151D8B4A6EF18F0FC
:10314800A8EF18F0C5EF18F0000E0001606F000E30
:10315800616F400E626F410E636F58C364F059C3CC
:1031680065F05AC366F05BC367F08AEC2FF0000184
:10317800D8A0C1EF18F0C3EF18F0C5EF18F003019D
:10318800716B020E99EC36F001C099F002C09AF00A
:10319800000E136E000E146EA00E156E400E166E05
:1031A80099C001F09AC002F0036A046A000E02ECAA
:1031B8002BF001C00FF002C010F003C011F004C0E2
:1031C80012F00EEC20F00FC028F010C029F011C04A
:1031D8002AF012C02BF0000E2C6E000E2D6E800E01
:1031E8002E6E440E2F6E10EC24F028C09BF029C0E0
:1031F8009CF02AC09DF02BC09EF09BC055F09CC04F
:1032080056F09DC057F09EC058F0000E516E000E4B
:10321800526EA00E536E400E546E34EC36F051C010
:1032280028F052C029F053C02AF054C02BF09BC09C
:103238002CF09CC02DF09DC02EF09EC02FF010ECFD
:1032480024F028C0A7F029C0A8F02AC0A9F02BC0F4
:10325800AAF00A0E136ED70E146EA30E156E3C0E4E
:10326800166E000E456E000E466EC80E476EC10EF5
:10327800486E5CC341F05DC342F05EC343F05FC378
:1032880044F0B3EC1DF041C00FF042C010F043C051
:1032980011F044C012F00EEC20F00FC08DF010C0F9
:1032A8008EF011C08FF012C090F08DC041F08EC02A
:1032B80042F08FC043F090C044F0000E456E000EFF
:1032C800466E800E476E3F0E486EB3EC1DF041C04F
:1032D80085F042C086F043C087F044C088F0A7C09C
:1032E80028F0A8C029F0A9C02AF0AAC02BF085C0F0
:1032F8002CF086C02DF087C02EF088C02FF010EC7F
:1033080024F028C0A7F029C0A8F02AC0A9F02BC033
:10331800AAF0A7C028F0A8C029F0A9C02AF0AAC01E
:103328002BF0D6C32CF0D7C32DF0D8C32EF0D9C3B9
:103338002FF010EC24F028C09FF029C0A0F02AC07C
:10334800A1F02BC0A2F0000E0001AB6F000EAC6F15
:10335800000EAD6F000EAE6FCD0E606FCC0E616FBC
:10336800CC0E626F3D0E636F9FC064F0A0C065F025
:10337800A1C066F0A2C067F08AEC2FF00001D8B0B7
:10338800C8EF19F0CAEF19F0FEEF19F0000E6C6FD4
:10339800000E6D6FC00E6E6FBF0E6F6F9FC068F02E
:1033A800A0C069F0A1C06AF0A2C06BF009EC00F0FF
:1033B80068C091F069C092F06AC093F06BC094F055
:1033C80091C00FF092C010F093C011F094C012F0A9
:1033D800000E136E000E146E700E156E410E166EF2
:1033E8000EEC20F00FC0ABF010C0ACF011C0ADF087
:1033F80012C0AEF00001AEBF06EF1AF004EF1AF0EB
:103408000EEF1AF0000EAB6F000EAC6F000EAD6F32
:10341800000EAE6F000E606F000E616F7A0E626F65
:10342800440E636FABC064F0ACC065F0ADC066F02D
:10343800AEC067F08AEC2FF00001D8B026EF1AF082
:1034480028EF1AF030EF1AF0000EAB6F000EAC6FD9
:103458007A0EAD6F440EAE6F9A0E136E990E146EFF
:10346800990E156E3E0E166EABC00FF0ACC010F084
:10347800ADC011F0AEC012F00EEC20F00FC041F05C
:1034880010C042F011C043F012C044F0330E136E66
:10349800330E146E330E156E3F0E166E24C30FF0E6
:1034A80025C310F026C311F027C312F00EEC20F04C
:1034B8000FC045F010C046F011C047F012C048F0E8
:1034C800B3EC1DF041C050F342C051F343C052F376
:1034D80044C053F350C324F351C325F352C326F316
:1034E80053C327F3030120510201FA5D0001796FEC
:1034F800030121510201FB5900017A6F0301225196
:103508000201FC5900017B6F030123510201FD599F
:1035180000017C6F7C517B110BE1E80E795D030E95
:103528007A59D8A09AEF1AF09CEF1AF02BEF1BF0FB
:1035380066C3A3F067C3A4F0030164510001A35D4F
:10354800A56F030165510001A459A66FA551A611E5
:10355800D8A4B1EF1AF0B3EF1AF0BEEF1AF0000ECC
:1035680003014C6F000E4D6F000E4E6F000E4F6F33
:103578001FEF1BF0000E2C6E000E2D6EE10E2E6E4E
:10358800430E2F6EA5C001F0A6C002F0036A046ABC
:10359800000E02EC2BF001C028F002C029F003C095
:1035A8002AF004C02BF010EC24F028C00FF029C03A
:1035B80010F02AC011F02BC012F0000E136E000E8E
:1035C800146E700E156E420E166E0EEC20F00FC0C3
:1035D8004CF310C04DF311C04EF312C04FF348C363
:1035E80041F049C342F04AC343F04BC344F0000ED4
:1035F8002C6E000E2D6E700E2E6E420E2F6E4CC36A
:1036080028F04DC329F04EC32AF04FC32BF010EC1D
:1036180024F028C045F029C046F02AC047F02BC046
:1036280048F0B3EC1DF041C048F342C049F343C031
:103638004AF344C04BF3A3C064F3A4C065F3FAC2D1
:1036480020F3FBC221F3FCC222F3FDC223F31200D4
:1036580000019D51D96EDA6ADECFF6FFDDCFF7FFA4
:103668000800F550250AD8A43CEF1BF03EEF1BF0EC
:10367800A1EF1DF09D51D96EDA6ADE2A000EDD2217
:10368800000E0301636F000E626F62C368F30201EC
:10369800FE69FF6900019D51D96EDA6ADECFF6FF37
:1036A800DDCFF7FF0800F5502E0AD8A45EEF1BF017
:1036B80060EF1BF070EF1BF09D51D96EDA6ADE2ABD
:1036C800000EDD229DC001F09EC002F09FEC33F099
:1036D80001C0FEF202C0FFF200019D51D96EDA6A04
:1036E800DECFA8F0DDCFA9F0A8C0F6FFA9C0F7FF8C
:1036F8000800F5CFA7F08CEF1BF0A84BA92B9FEF84
:103708001BF0690EA76F9FEF1BF0A76B9FEF1BF0D5
:10371800A751640AD8B485EF1BF00D0AD8B485EF19
:103728001BF0050AD8B481EF1BF0190AD8B485EF4D
:103738001BF089EF1BF0A8C0F6FFA9C0F7FF08002F
:10374800F550640AD8B4ABEF1BF0ADEF1BF0E4EF13
:103758001BF0A8C0F6FFA9C0F7FF0800F550690ADA
:10376800D8A4B9EF1BF0BBEF1BF00AEF1CF0E4EF95
:103778001BF09EC0D9FF9FC0DAFFDF50DF2ADF2A87
:10378800D96EDA6ADECFA3F0DDCFA4F0000EA4BFB5
:10379800FF0EA56FA66FEFEF1BF09EC0D9FF9FC06D
:1037A800DAFF040EDF26DF5CD96EDA6ADECFA3F01B
:1037B800DECFA4F0DECFA5F0DECFA6F0EFEF1BF052
:1037C800A751690AD8B4BDEF1BF0050AD8B4D1EFE8
:1037D8001BF0EFEF1BF0010EA825A06F000EA9212A
:1037E800A16F9D51D96EDA6AA0C0DEFFA1C0DDFFCE
:1037F8009CC017F0A3C018F0A4C019F0A5C01AF017
:10380800A6C01BF0DCEC2BF0B2EF1DF0A8C0F6FF51
:10381800A9C0F7FF0800F550750AD8A416EF1CF0E8
:1038280018EF1CF076EF1CF042EF1CF09EC0D9FF99
:103838009FC0DAFFDF50DF2ADF2AD96EDA6ADECFCF
:10384800A0F0DDCFA1F0A0C0A3F0A1C0A4F0A56BAB
:10385800A66B4DEF1CF09EC0D9FF9FC0DAFF040E87
:10386800DF26DF5CD96EDA6ADECFA3F0DECFA4F004
:10387800DECFA5F0DECFA6F04DEF1CF0A751690A08
:10388800D8B41AEF1CF0050AD8B42FEF1CF04DEF8E
:103898001CF0010EA825A06F000EA921A16F9D5153
:1038A800D96EDA6AA0C0DEFFA1C0DDFF6AEF1CF0A6
:1038B8009CC017F0A3C018F0A4C019F0A5C01AF056
:1038C800A6C01BF0F6EC2DF0B2EF1DF0A8C0F6FF75
:1038D800A9C0F7FF0800F550750AD8B45CEF1CF0D2
:1038E80076EF1CF0A26B9D51D96EDA6ADECFF6FF37
:1038F800DDCFF7FF0800F550730AD8A486EF1CF057
:1039080088EF1CF092EF1CF09D51D96EDA6ADE2A1E
:10391800000EDD22010EA26FDEEF1CF09D51D96E64
:10392800DA6ADECFF6FFDDCFF7FF0800F5506C0A44
:10393800D8A4A1EF1CF0A3EF1CF0DEEF1CF09D5102
:10394800D96EDA6ADECFA0F0DDCFA1F0010EA02794
:10395800000EA123A0C0F6FFA1C0F7FF0800F55094
:103968006C0AD8A4BAEF1CF0BCEF1CF0DEEF1CF018
:103978009D51D96EDA6ADECFA0F0DDCFA1F0020E3C
:10398800A027000EA123A0C0F6FFA1C0F7FF0800E2
:10399800F550730AD8A4D3EF1CF0D5EF1CF0DEEF76
:1039A8001CF09D51D96EDA6A030EDE26000EDD2268
:1039B8008EEF1CF0A251D8B4E4EF1CF0E6EF1CF037
:1039C800F9EF1CF09CC009F09EC0D9FF9FC0DAFF38
:1039D800020EDF26DF5CD96EDA6ADECF0AF0DECFB0
:1039E8000BF08FEC30F0B2EF1DF09D51D96EDA6A12
:1039F800DECFA8F0DDCFA9F0A8C0F6FFA9C0F7FF79
:103A08000800F5CFA7F014EF1DF0A84BA92B23EF62
:103A18001DF06C0EA76F23EF1DF0A76B23EF1DF0B1
:103A2800A7514C0AD8B409EF1DF02A0AD8B40DEFF3
:103A38001DF00A0AD8B409EF1DF011EF1DF0A8C057
:103A4800F6FFA9C0F7FF0800F550660AD8A42FEFC3
:103A58001DF031EF1DF098EF1DF05DEF1DF09EC0D9
:103A6800D9FF9FC0DAFFDFCFA0F0040EDF26A051F8
:103A7800D96EDA6ADECFA3F0DECFA4F0DECFA5F0F0
:103A8800DECFA6F068EF1DF09EC0D9FF9FC0DAFF19
:103A9800DFCFA0F0040EDF26A051D96EDA6ADECFA0
:103AA800A3F0DECFA4F0DECFA5F0DECFA6F068EF5E
:103AB8001DF0A7514C0AD8B448EF1DF0200AD8B41D
:103AC80033EF1DF068EF1DF0010EA825A06F000E62
:103AD800A921A16F9D51D96EDA6AA0C0DEFFA1C0ED
:103AE800DDFF8CEF1DF09CC068F0A3C069F0A4C096
:103AF8006AF0A5C06BF0A6C06CF0A8C0F6FFA9C01C
:103B0800F7FF0800F5CF6DF064EC12F0B2EF1DF08E
:103B1800A8C0F6FFA9C0F7FF0800F550660AD8B498
:103B280077EF1DF098EF1DF000019D51D96EDA6A0C
:103B3800DE2A000EDD22B2EF1DF09D51D96EDA6A41
:103B4800DECFF6FFDDCFF7FF0800F550016E026A01
:103B58009CC003F0EBEC32F098EF1DF012004450DB
:103B6800800B4D6E445044244F6E43AEBEEF1DF0A3
:103B7800C0EF1DF0C1EF1DF04F804F50D8B4C7EF14
:103B88001DF0C9EF1DF0DDEF1DF04F28D8A4CFEFD1
:103B98001DF0D1EF1DF0D9EF1DF0000E416E000EA3
:103BA800426E000E436E000E446E438E446AE5EF8B
:103BB8001DF0000E416E000E426E000E436E000EA8
:103BC800446E4850800B4E6E4D504E18D8B4EFEFEF
:103BD8001DF0F1EF1DF0F2EF1DF04D8C4850482418
:103BE8004E6E47AEFAEF1DF0FCEF1DF0FDEF1DF035
:103BF8004E804E50D8B403EF1EF005EF1EF019EFBB
:103C08001EF04E28D8A40BEF1EF00DEF1EF015EF96
:103C18001EF0000E456E000E466E000E476E000E3A
:103C2800486E478E486A21EF1EF0000E456E000E62
:103C3800466E000E476E000E486E4F504E5CD8B070
:103C480028EF1EF02AEF1EF051EF1EF04DAC2FEFBB
:103C58001EF031EF1EF033EF1EF0800E4D1A4FC0EC
:103C680050F04EC04FF050C04EF041C050F045C02B
:103C780041F050C045F042C050F046C042F050C03C
:103C880046F043C050F047C043F050C047F044C02E
:103C980050F048C044F050C048F0506A4F504EC0F1
:103CA80049F04A6A495E000E4A5A4ABE65EF1EF05C
:103CB8004A5009E11A0E495CD8A065EF1EF067EF7B
:103CC8001EF09EEF1EF04150421043104410D8A43D
:103CD80070EF1EF073EF1EF0010E74EF1EF0000E71
:103CE800506E000E416E000E426E000E436E000EC6
:103CF800446E4EC04FF0A7EF1EF050A086EF1EF0A6
:103D080088EF1EF08EEF1EF0D89050300109506EEB
:103D180090EF1EF0D890503241A095EF1EF097EF2B
:103D28001EF098EF1EF0508E443444324332423233
:103D380041324F2A4E504F5CD8A0A5EF1EF0A7EF96
:103D48001EF081EF1EF04DBCACEF1EF0AEEF1EF082
:103D5800EEEF1EF04F50D8A4B4EF1EF0B6EF1EF0F1
:103D6800C0EF1EF0000E416E000E426E000E436E54
:103D7800000E446E0DEF20F0455041264650422279
:103D8800475043224850442244A0CDEF1EF0CFEFC5
:103D98001EF07BEF1FF050A0D4EF1EF0D6EF1EF000
:103DA800DCEF1EF0D89050300109506EDEEF1EF0A7
:103DB800D890503241A0E3EF1EF0E5EF1EF0E6EF99
:103DC8001EF0508E443444324332423241324F2A3C
:103DD8007BEF1FF04550415C4650425847504358CE
:103DE8004450800A496E4850800A4958D8B0FFEFBD
:103DF8001EF001EF1FF02CEF1FF04150455C496E9B
:103E0800425046584A6E435047584B6E44504858A3
:103E18004C6EFF0E4924416EFF0E4A20426EFF0E83
:103E28004B20436EFF0E4C20446E800E4D1A506C92
:103E38005050D8A422EF1FF024EF1FF034EF1FF0EA
:103E4800010E4126000E42224322442234EF1FF085
:103E58004550415E4650425A4750435A4850445A8A
:103E68004150421043104410D8A43DEF1FF03FEFDB
:103E78001FF074EF1FF05050D8A445EF1FF047EF24
:103E88001FF074EF1FF0000E416E000E426E000E20
:103E9800436E000E446E0DEF20F0D8904136423646
:103EA8004336443650AE5BEF1FF05DEF1FF05EEF18
:103EB8001FF0418050A063EF1FF065EF1FF069EF1E
:103EC8001FF0D88050366BEF1FF0D89050364F5007
:103ED800D8B471EF1FF073EF1FF074EF1FF04F06A7
:103EE80043AE79EF1FF07BEF1FF051EF1FF04E6AE2
:103EF80050AE81EF1FF083EF1FF09BEF1FF050C013
:103F080049F07F0E4916D8B48CEF1FF08EEF1FF0E2
:103F180092EF1FF0010E4E6E9BEF1FF041A097EF3E
:103F28001FF099EF1FF09BEF1FF08EEF1FF04E5020
:103F3800D8B4A1EF1FF0A3EF1FF0CEEF1FF0010ED2
:103F48004126000E42224322442244A0AEEF1FF035
:103F5800B0EF1FF0CEEF1FF041C049F042C04AF069
:103F680043C04BF044C04CF04C344C324B324A32D4
:103F7800493249C041F04AC042F04BC043F04CC0FE
:103F880044F04F28D8B4CBEF1FF0CDEF1FF0CEEFA1
:103F98001FF04F2A4F28D8B4D4EF1FF0D6EF1FF0E8
:103FA800DEEF1FF04F50D8A4DCEF1FF0DEEF1FF05C
:103FB800EFEF1FF0000E416E000E426E000E436ED2
:103FC800000E446E4F50D8A4ECEF1FF0EEEF1FF038
:103FD800EFEF1FF04D6A4FA0F4EF1FF0F6EF1FF060
:103FE800F9EF1FF0438EFAEF1FF0439ED8904F3041
:103FF800446E4DAE02EF20F004EF20F005EF20F004
:10400800448E41C041F042C042F043C043F044C036
:1040180044F012001250800B1B6E12501224216EB5
:1040280011AE19EF20F01BEF20F01CEF20F02180DB
:104038002150D8B422EF20F024EF20F037EF20F001
:104048002128D8A42AEF20F02CEF20F034EF20F01C
:10405800000E0F6E000E106E000E116E000E126E26
:10406800118E3FEF20F0000E0F6E000E106E000E46
:10407800116E000E126E1650800B1B1A1650162465
:104088001C6E15AE4AEF20F04CEF20F04DEF20F0FB
:104098001C801C50D8B453EF20F055EF20F068EF87
:1040A80020F01C28D8A45BEF20F05DEF20F065EF2E
:1040B80020F0000E136E000E146E000E156E000E2A
:1040C800166E158E70EF20F0000E136E000E146E33
:1040D800000E156E000E166E1C50D8B476EF20F048
:1040E80078EF20F080EF20F02150D8A47EEF20F068
:1040F80080EF20F08AEF20F0000E0F6E000E106E99
:10410800000E116E000E126E20EF22F015500F02F5
:10411800F3CF26F0F4CF27F026501D6E1E6A1F6AD3
:10412800206A2750226E236A246A256A14501002D6
:10413800F3CF26F0F4CF27F026501D26000E1E22BE
:104148001F22202227502226000E23222422252245
:1041580013501102F3CF26F0F4CF27F026501D2676
:10416800000E1E221F22202227502226000E232264
:10417800242225221FC020F01EC01FF01DC01EF0E3
:104188001D6A13501002F3CF26F0F4CF27F0265003
:104198001D2627501E22000E1F22000E202214501A
:1041A8000F02F3CF26F0F4CF27F026501D26275014
:1041B8001E22000E1F22000E20221FC020F01EC04B
:1041C8001FF01DC01EF01D6A13500F02F3CF26F01A
:1041D800F4CF27F026501D2627501E22000E1F223E
:1041E800000E202215501002F3CF26F0F4CF27F04E
:1041F8002650222627502322000E2422000E252294
:1042080014501102F3CF26F0F4CF27F026502226BF
:1042180027502322000E2422000E252215501102B9
:10422800F3CF26F0F4CF27F02650176E2750186EDC
:10423800196A1A6A19C01AF018C019F017C018F0CC
:10424800176A1750222618502322195024221A5070
:1042580025221DC017F01EC018F01FC019F020C07D
:104268001AF0190E3DEF21F0D8901A32193218328F
:104278001732E82E38EF21F0175022261850232243
:10428800195024221A5025221FC020F01EC01FF0EA
:104298001DC01EF01D6A1C5021C017F0186A172691
:1042A800000E1822820E1724266EFF0E1820276E85
:1042B80073EF21F0D890223623362436253620AEE7
:1042C80068EF21F06AEF21F06BEF21F02280D8909F
:1042D8001D361E361F3620362606D8A0270624AEE1
:1042E80078EF21F07AEF21F05EEF21F01C6A20AE22
:1042F80080EF21F082EF21F0A6EF21F0FF0E1D14D0
:10430800176EFF0E1E14186EFF0E1F14196E7F0E07
:1043180020141A6E1750181019101A10D8B497EFE5
:1043280021F099EF21F09DEF21F0010E1C6EA6EF10
:1043380021F022A0A2EF21F0A4EF21F0A6EF21F0B6
:1043480099EF21F01C50D8B4ACEF21F0AEEF21F07A
:10435800D2EF21F0010E2226000E2322242225224C
:1043680025A0B9EF21F0BBEF21F0D2EF21F022C058
:1043780017F023C018F024C019F025C01AF01A3419
:104388001A3219321832173217C022F018C023F027
:1043980019C024F01AC025F0264A272A27BEDDEFC7
:1043A80021F0275008E12628D8A0DDEF21F0DFEF23
:1043B80021F0E9EF21F0000E226E000E236E800E30
:1043C800246E7F0E256E16EF22F027BEF6EF21F041
:1043D800275006E12604D8B0F4EF21F0F6EF21F0DB
:1043E80001EF22F0000E226E000E236E000E246EE6
:1043F800000E256E1B6A16EF22F026C021F0FF0E74
:104408002216FF0E23167F0E2416000E251621A055
:1044180010EF22F012EF22F013EF22F0248ED89042
:104428002130256E1B50251222C00FF023C010F03A
:1044380024C011F025C012F0120001C022F002C001
:1044480023F003C024F004C025F0000E2214056EEA
:10445800000E2314066E800E2414076E7F0E25149A
:10446800086E800E071809E17F0E0818051006105F
:10447800D8A441EF22F043EF22F073EF22F0FF0EB1
:104488002214056EFF0E2314066E7F0E2414076E89
:10449800000E2514086E0550061007100810D8A441
:1044A80058EF22F05AEF22F061EF22F025BE61EFBB
:1044B80022F05FEF22F069EF22F0FF0E2212FF0ECA
:1044C80023127F0E2412000E251222C001F023C0F1
:1044D80002F024C003F025C004F00FEF24F025BE3D
:1044E80082EF22F025502410231006E12204D8B0D0
:1044F80080EF22F082EF22F0B9EF22F0FF0E2214B3
:10450800056EFF0E2314066EFF0E2414076E7F0E31
:104518002514086E0550061007100810D8A497EF48
:1045280022F099EF22F0A3EF22F0000E016E000EA8
:10453800026E000E036E000E046E0FEF24F025BE0F
:10454800AAEF22F0A8EF22F0B9EF22F0000E030143
:10455800616F210E606FFF0E226EFF0E236EFF0E3D
:10456800246E7F0E256E69EF22F0170E056E22C0AD
:1045780006F023C007F024C008F025C009F005663E
:10458800C8EF22F0D0EF22F009340932083207329E
:104598000632052EC3EF22F006C01AF007C01BF042
:1045A80008C01CF009C01DF01A501B101C101D106B
:1045B800D8A4E1EF22F0E3EF22F013EF23F0000E8E
:1045C8000E6E000E0F6E000E106E000E116EF8EFDC
:1045D80022F0D8902236233624362536010E0E26B0
:1045E800000E0F221022112224AEFDEF22F0FFEF61
:1045F80022F0EDEF22F0FF0E0E24056EFF0E0F20C5
:10460800066EFF0E1020076EFF0E1120086E055073
:104618001A5E06501B5A07501C5A08501D5A810E24
:104628001A26FF0E1B22FF0E1C22FF0E1D22FF0E54
:104638002214056EFF0E2314066E7F0E2414076ED7
:10464800000E2514086E000E0510226E000E0610CE
:10465800236E800E0710246E000E0810256E1AA017
:1046680038EF23F03AEF23F042EF23F022502226CE
:104678002350232224502422255025221D341D3264
:104688001C321B321A322250222623502322245055
:10469800242225502522000E0A6E000E0B6E000EF5
:1046A8000C6E000E0D6E0AC012F00BC013F00CC099
:1046B80014F00DC015F0000E1E6E000E1F6E000ED9
:1046C800206E010E216EB1EF23F00A501E24166EE3
:1046D8000B501F20176E0C502020186E0D502120F3
:1046E800196E1650225C175023581850245825501C
:1046F800800A056E1950800A0558D8A086EF23F065
:1047080088EF23F0A4EF23F016501E240A6E1750EA
:104718001F200B6E185020200C6E195021200D6E92
:104728001650225E1750235A1850245A1950255AE9
:104738001E5012261F5013222050142221501522D9
:104748002250222623502322245024222550252279
:10475800D890213220321F321E321E501F102010D6
:104768002110D8A4BAEF23F0BCEF23F069EF23F0AF
:104778002250231024102510D8B4C5EF23F0C7EF1A
:1047880023F0DBEF23F0010E1214056E000E131454
:10479800066E000E1414076E000E1514086E0550F0
:1047A800122606501322075014220850152212C050
:1047B80005F013C006F014C007F015C008F008345F
:1047C8000832073206320532000E0524226E000E2A
:1047D8000620236E000E0720246E3F0E0820256E4B
:1047E8001AC005F01BC006F01CC007F01DC008F079
:1047F800170ED8900536063607360836E82EFDEF30
:1048080023F0055022260650232207502422085060
:10481800252269EF22F012002B50800B386E2B50A6
:104828002B243F6E2AAE1BEF24F01DEF24F01EEF61
:1048380024F03F803F50D8B424EF24F026EF24F032
:104848003AEF24F03F28D8A42CEF24F02EEF24F0E0
:1048580036EF24F0000E286E000E296E000E2A6E28
:10486800000E2B6E2A8E2B6A42EF24F0000E286E63
:10487800000E296E000E2A6E000E2B6E2F50800B34
:10488800381A2F502F24406E2EAE4DEF24F04FEFE4
:1048980024F050EF24F040804050D8B456EF24F074
:1048A80058EF24F06CEF24F04028D8A45EEF24F0F1
:1048B80060EF24F068EF24F0000E2C6E000E2D6ED1
:1048C800000E2E6E000E2F6E2E8E2F6A74EF24F0BF
:1048D800000E2C6E000E2D6E000E2E6E000E2F6E2A
:1048E8002C502D102E102F10D8A47DEF24F07FEF20
:1048F80024F097EF24F0000E286E000E296E000EAB
:104908002A6E000E2B6E800E2A127F0E2B12385044
:104918002B1228C028F029C029F02AC02AF02BC061
:104928002BF0D7EF25F03F50D8A49DEF24F09FEF50
:1049380024F0A9EF24F0000E286E000E296E000E58
:104948002A6E000E2B6ED7EF25F040503FC030F096
:10495800316A305E000E315A7F0E3024396E000EF7
:1049680031203A6E28C034F029C035F02AC036F01C
:104978002BC037F0000E286E000E296E000E2A6E2E
:10498800000E2B6E000E3B6E000E3C6E000E3D6E50
:10499800000E3E6E406A09EF25F04050D8B4D7EFBC
:1049A80024F0D9EF24F0F0EF24F0D89034363536DF
:1049B80036363736D890283629362A362B363EAE44
:1049C800E8EF24F0EAEF24F0EBEF24F02880D89009
:1049D8003B363C363D363E362C50345C2D503558EF
:1049E8002E5036582F503758D8A0FDEF24F0FFEF3F
:1049F80024F008EF25F03E8C2C50345E2D50355AAB
:104A08002E50365A2F50375A402A190E40640FEF4D
:104A180025F011EF25F0D1EF24F034503510361081
:104A28003710D8B41AEF25F01CEF25F034EF25F035
:104A38003B8034EF25F0D890283629362A362B3695
:104A48003EAE29EF25F02BEF25F02CEF25F028803E
:104A5800D8903B363C363D363E363906D8A03A0625
:104A68002AAE39EF25F03BEF25F01FEF25F0406A1D
:104A78003EAE41EF25F043EF25F067EF25F0FF0E3E
:104A88003B14306EFF0E3C14316EFF0E3D14326E37
:104A98007F0E3E14336E3050311032103310D8B4BC
:104AA80058EF25F05AEF25F05EEF25F0010E406E25
:104AB80067EF25F028A063EF25F065EF25F067EF95
:104AC80025F05AEF25F04050D8B46DEF25F06FEF80
:104AD80025F093EF25F0010E2826000E29222A2220
:104AE8002B222BA07AEF25F07CEF25F093EF25F011
:104AF80028C030F029C031F02AC032F02BC033F082
:104B08003334333232323132303230C028F031C0AF
:104B180029F032C02AF033C02BF0394A3A2A3ABE7B
:104B28009EEF25F03A5008E13928D8A09EEF25F0ED
:104B3800A0EF25F0ABEF25F0000E3A6E3968000EB5
:104B4800286E000E296E000E2A6E000E2B6E3ABEDD
:104B5800B8EF25F03A5006E13904D8B0B6EF25F0A1
:104B6800B8EF25F0C5EF25F0000E3A6E000E396E4D
:104B7800000E286E000E296E000E2A6E000E2B6E97
:104B8800386A39C03FF03FA0CCEF25F0CEEF25F0D2
:104B9800D1EF25F02A8ED2EF25F02A9ED8903F300B
:104BA8002B6E8BEF24F01200700ED36E020E936EF4
:104BB800816A818A8190150E0001EF6F4B0EEE6FAE
:104BC800BE0EE82EFED7EE2FFCD7EF2FFAD7000047
:104BD80021EC37F02BEC37F034EC37F0000E030102
:104BE800FD6F000EFC6F010E99EC36F001C0F2F378
:104BF80002C0F3F354C341F055C342F056C343F027
:104C080057C344F0000E2C6E000E2D6E800E2E6ED3
:104C1800440E2F6E000E136E000E146EA00E156E4D
:104C2800400E166EF2C301F0F3C302F0036A046A81
:104C3800000E02EC2BF001C00FF002C010F003C010
:104C480011F004C012F00EEC20F00FC028F010C0D4
:104C580029F011C02AF012C02BF010EC24F028C063
:104C680045F029C046F02AC047F02BC048F0B3EC05
:104C78001DF041C054F342C055F343C056F344C03D
:104C880057F3020E0001EF6F040EEE6FBA0EE82E16
:104C9800FED7EE2FFCD7EF2FFAD700000301FC4B0D
:104CA800FD2BFDBF61EF26F0FD5109E1320EFC5DE1
:104CB800D8A061EF26F063EF26F0F7EF25F054C394
:104CC80028F055C329F056C32AF057C32BF0000E1D
:104CD8002C6E000E2D6E480E2E6E420E2F6E10ECAE
:104CE80024F028C054F329C055F32AC056F32BC02A
:104CF80057F3000E0301FF6F000EFE6F020E99ECD2
:104D080036F001C0F4F302C0F5F3000E136E000E86
:104D1800146EA00E156E400E166EF4C301F0F5C3A6
:104D280002F0036A046A000E02EC2BF001C00FF0D7
:104D380002C010F003C011F004C012F00EEC20F015
:104D48000FC028F010C029F011C02AF012C02BF0B3
:104D5800000E2C6E000E2D6E800E2E6E440E2F6EE1
:104D680010EC24F028C0F8F329C0F9F32AC0FAF3AC
:104D78002BC0FBF3F8C32CF0F9C32DF0FAC32EF0C7
:104D8800FBC32FF0F8C355F0F9C356F0FAC357F038
:104D9800FBC358F0000E516E000E526EA00E536EFB
:104DA800400E546E34EC36F051C028F052C029F051
:104DB80053C02AF054C02BF010EC24F028C0EEF3B6
:104DC80029C0EFF32AC0F0F32BC0F1F3D6C341F0AA
:104DD800D7C342F0D8C343F0D9C344F0EEC345F07B
:104DE800EFC346F0F0C347F0F1C348F0B3EC1DF051
:104DF80041C0D6F342C0D7F343C0D8F344C0D9F377
:104E0800020E0001EF6F040EEE6FBA0EE82EFED709
:104E1800EE2FFCD7EF2FFAD700000301FE4BFF2B34
:104E2800FFBF20EF27F0FF5109E1320EFE5DD8A049
:104E380020EF27F022EF27F082EF26F0D6C328F0E4
:104E4800D7C329F0D8C32AF0D9C32BF0000E2C6E93
:104E5800000E2D6E480E2E6E420E2F6E10EC24F0B2
:104E680028C0D6F329C0D7F32AC0D8F32BC0D9F36A
:104E7800000E0301F76F000EF66F7D0E0201FA2790
:104E8800000EFB23FC23FD23AEEC2CF003016B5139
:104E9800D8A451EF27F053EF27F05FEF27F05CEC31
:104EA80017F05E50D8A45BEF27F05DEF27F05FEFB7
:104EB80027F05EEC2DF09AEC27F00DEC30F02AECA0
:104EC80035F00301F75109E1020EF65DD8A06FEF46
:104ED80027F071EF27F078EF27F003EC32F0000E9F
:104EE8000301F76F000EF66FF64BF72B010E6C25DA
:104EF800016E026A000E0222000E046E050E036E99
:104F080048EC33F0015003016C6F020E0001EF6FA3
:104F1800450EEE6FA90EE82EFED7EE2FFCD7EF2F29
:104F2800FAD700D041EF27F007EF00F003016E51E8
:104F3800D8B4A1EF27F0A3EF27F04CEF28F06D517C
:104F4800D8A4A9EF27F0ABEF27F04CEF28F0FAC26E
:104F580040F3FBC241F3FCC242F3FDC243F35CC31E
:104F68003CF35DC33DF35EC33EF35FC33FF358C3F9
:104F780038F359C339F35AC33AF35BC33BF350C30D
:104F880034F351C335F352C336F353C337F348C32D
:104F980030F349C331F34AC332F34BC333F371518E
:104FA800D8B4D9EF27F0DBEF27F0E7EF27F0C20EF0
:104FB800016E030E026EA10E036E7F0E046EB5EC39
:104FC80036F032EF28F05CC360F05DC361F05EC379
:104FD80062F05FC363F0000E0001646F000E656F3E
:104FE800200E666F420E676F8AEC2FF00001D8A082
:104FF80000EF28F002EF28F00EEF28F0C20E016E45
:10500800030E026E7F0E036E7F0E046EB5EC36F053
:1050180032EF28F050C360F051C361F052C362F020
:1050280053C363F0000E646F000E656F480E666F21
:10503800420E676F8AEC2FF00001D8A026EF28F007
:1050480028EF28F032EF28F0C20E016E030E026E30
:10505800C40E036E7F0E046EB5EC36F0960E00019A
:10506800B06F020EB16F920EB26F7F0EB36FC20EA9
:10507800B46F030EB56F57EC36F0AE0E0001E06F5B
:105088007F0EE16F960EE26F020EE36F9CEC34F038
:1050980003016E51D8A453EF28F055EF28F0DCEF48
:1050A80028F06D51D8B45BEF28F05DEF28F0DCEF05
:1050B80028F040510201FA5D016E030141510201DD
:1050C800FB59026E030142510201FC59036E0301B0
:1050D80043510201FD59046EE80E056E030E066E7B
:1050E800000E076E000E086E4AEC34F001C0E6F0C0
:1050F80002C0E7F003C0E8F004C0E9F048C351F08B
:1051080049C352F04AC353F04BC354F030C355F06F
:1051180031C356F032C357F033C358F034EC36F08D
:1051280051C0EAF052C0EBF053C0ECF054C0EDF0BF
:10513800000E0001B06F020EB16F620EB26F7F0EEB
:10514800B36FE6C0B4F0E7C0B5F0E8C0B6F0E9C0A8
:10515800B7F0EAC0B8F0EBC0B9F0ECC0BAF0EDC0F7
:10516800BBF057EC36F0CE0E0001E06F7F0EE16F1A
:10517800000EE26F020EE36F9CEC34F0330E000178
:10518800E56FBB0EE46FDF0EE82EFED7E42FFCD7E9
:10519800E52FFAD700D0000E0301486F000E496FC3
:1051A800000E4A6F000E4B6F000E676F000E666FA1
:1051B8006EC36DF3120028C036F029C037F02AC03C
:1051C80038F02BC039F02DBEF3EF28F02D5009E14F
:1051D800800E2C5CD8A0F3EF28F0F5EF28F053EF01
:1051E80029F036C00FF037C010F038C011F039C0C0
:1051F80012F0000E136E000E146E000E156E7F0E68
:10520800166E0EEC20F00FC036F010C037F011C04B
:1052180038F012C039F0810E2C26FF0E2D222DBE3B
:105228001FEF29F02D5009E1800E2C5CD8A01FEF4C
:1052380029F021EF29F0BDEF29F036C00FF037C073
:1052480010F038C011F039C012F0000E136E000EC5
:10525800146E000E156E7F0E166E0EEC20F00FC049
:1052680036F010C037F011C038F012C039F0810E96
:105278002C26FF0E2D222DBE4BEF29F02D5009E1D3
:10528800800E2C5CD8A04BEF29F04DEF29F0BDEF34
:1052980029F0000E2D6E7F0E2C6EBDEF29F02DAE7D
:1052A8005FEF29F0820E2C5CFF0E2D58D8B05FEF0F
:1052B80029F061EF29F0BDEF29F036C00FF037C0B3
:1052C80010F038C011F039C012F0000E136E000E45
:1052D800146E800E156E0C0E166E0EEC20F00FC0BC
:1052E80036F010C037F011C038F012C039F0660E31
:1052F8002C26000E2D222DAE8BEF29F0820E2C5C71
:10530800FF0E2D58D8B08BEF29F08DEF29F0BDEFA7
:1053180029F036C00FF037C010F038C011F039C08E
:1053280012F0000E136E000E146E800E156E0C0E29
:10533800166E0EEC20F00FC036F010C037F011C01A
:1053480038F012C039F0660E2C26000E2D222DAE34
:10535800B7EF29F0820E2C5CFF0E2D58D8B0B7EFAE
:1053680029F0B9EF29F0BDEF29F0FF0E2D6E820E5E
:105378002C6E7F0E2C242E6E000E2D202F6E306A80
:10538800316A170ED8902E362F3630363136E82E41
:10539800C6EF29F02EC032F02FC033F030C034F001
:1053A80031C035F032C00FF033C010F034C011F006
:1053B80035C012F036C013F037C014F038C015F0FD
:1053C80039C016F00EEC20F00FC028F010C029F0FC
:1053D80011C02AF012C02BF028C028F029C029F0EB
:1053E8002AC02AF02BC02BF0120014C351F015C3A9
:1053F80052F016C353F017C354F041C051F042C0E5
:1054080052F043C053F044C054F0810E456EFF0E75
:10541800466E51C047F052C048F053C049F054C0DE
:105428004AF0180E1DEF2AF0D8904A324932483215
:105438004732E82E18EF2AF0475045244F6E000EE9
:105448004620506E50BE32EF2AF0505009E1170E38
:105458004F5CD8A032EF2AF034EF2AF03EEF2AF062
:1054680041C041F042C042F043C043F044C044F060
:1054780001EF2BF050BE43EF2AF045EF2AF0B5EFCD
:105488002AF04FC045F0FF0E466EFF0E476E7F0EA6
:10549800486E000E496E456654EF2AF05CEF2AF01C
:1054A80049344932483247324632452E4FEF2AF0C6
:1054B80046C04BF047C04CF048C04DF049C04EF0D4
:1054C8004B505114456E4C505214466E4D50531467
:1054D800476E4E505414486E4550461047104810B9
:1054E800D8A479EF2AF07BEF2AF07DEF2AF034EF89
:1054F8002AF051C045F052C046F053C047F054C09E
:1055080048F0200E8DEF2AF0D890483247324632C4
:105518004532E82E88EF2AF04550461047104810CB
:10552800D8B499EF2AF09BEF2AF0A3EF2AF04B505A
:1055380051264C5052224D5053224E5054224B1C4F
:10554800456E4C1C466E4D1C476E4E1C486E4550B1
:105558005116465052164750531648505416F9EFF4
:105568002AF051C045F052C046F053C047F054C02D
:1055780048F0200EC5EF2AF0D8904832473246321C
:105588004532E82EC0EF2AF0455046104710481023
:10559800D8A4D1EF2AF0D3EF2AF0DDEF2AF0000EDD
:1055A800516E000E526E000E536E000E546EF9EFDF
:1055B8002AF0D8905134456E5234466E5334476EB3
:1055C8005434486E4550461047104810D8B4EFEF91
:1055D8002AF0F1EF2AF0F9EF2AF0000E516E000ED2
:1055E800526E800E536EBF0E546E51C041F052C0C1
:1055F80042F053C043F054C044F01200096E095001
:10560800D8B409EF2BF00BEF2BF02DEF2BF004BEE5
:1056180012EF2BF010EF2BF02DEF2BF001C005F05F
:1056280002C006F003C007F004C008F0051E061EFD
:10563800071E081E052A000E06220722082205C09A
:105648000BF006C00CF007C00DF008C00EF035EFE7
:105658002BF001C00BF002C00CF003C00DF004C029
:105668000EF00150021003100410D8A43EEF2BF0E6
:1056780040EF2BF04AEF2BF0000E016E000E026E89
:10568800000E036E000E046EDBEF2BF0960E0A6E12
:1056980054EF2BF00A2AD8900E320D320C320B320E
:1056A800000E0B14056E000E0C14066E000E0D1481
:1056B800076EFE0E0E14086E05500610071008102F
:1056C800D8A469EF2BF06BEF2BF04EEF2BF079EFAE
:1056D8002BF00A2A010E0B26000E0C220D220E2298
:1056E800D8900E320D320C320B32000E0B14056EB0
:1056F800000E0C14066E000E0D14076EFF0E0E142D
:10570800086E0550061007100810D8A48EEF2BF06D
:1057180090EF2BF06DEF2BF098EF2BF00A06D89056
:105728000B360C360D360E360DBE9DEF2BF09FEF67
:105738002BF0A7EF2BF0020E0A60A5EF2BF0A7EFD6
:105748002BF092EF2BF00AB0ACEF2BF0AEEF2BF072
:10575800AFEF2BF00D9ED8900A320AC005F0066A0A
:10576800076A086A05C008F0076A066A056A0550EC
:105778000B1206500C1207500D1208500E12095049
:10578800D8B4C9EF2BF0CBEF2BF0D3EF2BF004BE3E
:10579800D2EF2BF0D0EF2BF0D3EF2BF00E8E0BC007
:1057A80001F00CC002F00DC003F00EC004F01200AE
:1057B8001BBEE1EF2BF0E4EF2BF0010EE5EF2BF031
:1057C800000E226E0201FFBFEEEF2BF0ECEF2BF084
:1057D800F4EF2BF0000E216E010E206EF8EF2BF087
:1057E800FEC220F0FFC221F062C31EF063C31FF0A7
:1057F8002250D8B402EF2CF004EF2CF01BEF2CF061
:105808001E06D8A01F062250D8A40DEF2CF00FEFCB
:105818002CF015EF2CF0000E1D6E2B0E1C6E19EFE0
:105828002CF0000E1D6E2D0E1C6E1CC022F0000EFA
:10583800246E4F0E236E0301C16B67EF2CF0230615
:10584800D8A02406720E2324D96E030E2420DA6E03
:1058580018C001F019C002F01AC003F01BC004F010
:105868000A0E056E000E066E000E076E000E086E1C
:105878008EEC31F001C00BF002C00CF0EDEC36F00C
:105888000B50300FDF6E2006D8A021061E06D8A0C8
:105898001F0618C001F019C002F01AC003F01BC09F
:1058A80004F00A0E056E000E066E000E076E000E5E
:1058B800086E82EC2EF001C018F002C019F003C087
:1058C8001AF004C01BF024BE72EF2CF0245008E13B
:1058D8002304D8A072EF2CF074EF2CF08CEF2CF08E
:1058E800185019101A101B10D8A47DEF2CF07FEF58
:1058F8002CF023EF2CF021BE8CEF2CF0215006E188
:105908002004D8B08AEF2CF08CEF2CF023EF2CF089
:105918002250D8B492EF2CF094EF2CF09FEF2CF09B
:105928002306D8A02406720E2324D96E030E242041
:10593800DA6E22C0DFFF17C00FF0720E2324106E3C
:10594800030E2420116E1EC012F01FC013F065EC68
:1059580035F012009EAAB3EF2CF0B5EF2CF0EDEF66
:105968002CF0AECF05F0DEEF2CF05E50D8A4BFEFE0
:105978002CF0C1EF2CF0EDEF2CF0010E5E6EFAC2A8
:1059880044F3FBC245F3FCC246F3FDC247F348C3E8
:105998002CF349C32DF34AC32EF34BC32FF3EDEF7A
:1059A8002CF0010E03016B6FEDEF2CF003016B6B14
:1059B800EDEF2CF00550520AD8B4DAEF2CF0010ABA
:1059C800D8B4D5EF2CF0070AD8B4B9EF2CF0EDEF26
:1059D8002CF05E50D8B4F3EF2CF0F5EF2CF05DEF1F
:1059E8002DF08180010E0301706F28510201FA5DCC
:1059F800016E030129510201FB59026E03012A516C
:105A08000201FC59036E03012B510201FD59046E7A
:105A1800045003100BE1F40E015C010E0258D8A0EB
:105A280018EF2DF01AEF2DF033EF2DF081AA1FEFAC
:105A38002DF023EF2DF0016A012A24EF2DF0016AE1
:105A4800013A014681500118DF0B0118816EFAC234
:105A580028F3FBC229F3FCC22AF3FDC22BF3010E83
:105A680003016F6F44510201FA5D016E0301455154
:105A78000201FB59026E030146510201FC59036EF3
:105A8800030147510201FD59046E045003100BE154
:105A9800050E015C0D0E0258D8A055EF2DF057EFFA
:105AA8002DF05DEF2DF05E6A8190818A0301706BA5
:105AB8006F6B1200010E5D6E03017151D8A467EF80
:105AC8002DF069EF2DF09FEF2DF05CC360F05DC302
:105AD80061F05EC362F05FC363F0000E0001646FA3
