:04000000FEEF3FF0E0
:101AB200120000002041928092829284C2800C0E19
:101AC200C16EBE0EC06E12009EBA6AEF0DF06DEFCF
:101AD2000DF0010E6EEF0DF0000E1200949C948E2C
:101AE200330EAF6EAC84AC98AC8AAB8EAB8812006E
:101AF200016EACA27FEF0DF081EF0DF07AEF0DF0E9
:101B020001C0ADFF12009EAA89EF0DF08BEF0DF020
:101B12008EEF0DF0AE508FEF0DF0000E120008BEEA
:101B220095EF0DF097EF0DF09DEF0DF007C007F068
:101B320008C008F0A9EF0DF007C009F008C00AF0CC
:101B4200091E0A1E094A0A2A09C007F00AC008F03B
:101B520012000150021003100410D8B4B3EF0DF0BC
:101B6200B5EF0DF0BDEF0DF0000E011A000E021AD6
:101B7200000E031A800E041A01C001F002C002F026
:101B820003C003F004C004F0120001C005F002C05B
:101B920006F003C0F6FF04C0F7FF034A042A05C09B
:101BA200D9FF06C0DAFF054A062A0800F5CFDFFF93
:101BB200DF50D8A4DFEF0DF0E1EF0DF0CAEF0DF02A
:101BC2001200000E0E6E000E0D6EF1EF0DF00CC045
:101BD20001F0026A0BC003F0BEEC11F00D4A0E2AAE
:101BE2000D500924D96E0E500A20DA6EDF500C6EA9
:101BF2000C50D8A4FFEF0DF001EF0EF0E8EF0DF05E
:101C02001200056E05C003F003460346C2500318D6
:101C1200C30B0318C26E0D0EE82EFED70000C2825F
:101C2200C2B216EF0EF018EF0EF011EF0EF0C35025
:101C3200C4CF03F0046A03C004F0036A0310016E08
:101C42000450026E1200B80E0001CA6FB4C0CBF08D
:101C5200B5C0CCF0000ECE6F000ECD6F000ED56F6A
:101C6200000ED46FCB0EAE6FB6C0AFF0B7C0B0F0FF
:101C7200CA0EB16F69EC0EF00001CD51B425D96ED8
:101C8200CE51B521DA6EDF6A1200000E3C1A000E48
:101C92003D1A000E3E1A800E3F1A38C00FF039C0AE
:101CA20010F03AC011F03BC012F03CC013F03DC03E
:101CB20014F03EC015F03FC016F0CFEC22F00FC07A
:101CC20038F010C039F011C03AF012C03BF01200E7
:101CD200AFC0B2F0B0C0B3F078EF0EF0AEC0A2F079
:101CE200B20E0001A36FB1C0A4F056EC1AF0B2C05C
:101CF200F6FFB3C0F7FF0800F5500009D8A484EF3F
:101D02000EF086EF0EF06FEF0EF0000E0001AF6FD7
:101D1200000EAE6F1200B40EF66E1A0EF76E000EC3
:101D2200F86E02EE91F010EE04F00900F5CFEEFF2E
:101D3200E550E150FAE102EE00F0860EEE6AE806A6
:101D4200FDE10101FE6BFD6BFC6BFB6BFA6B0001AD
:101D5200FF6BFE6BFD6B000EF86E000198EF1BF03F
:101D620003C00AF004C00BF001C008F002C009F081
:101D7200CBEF0EF00AC0D9FF0BC0DAFFDF50076EBF
:101D82000A4A0B2A08C0D9FF09C0DAFF07C0DFFFE1
:101D9200084A092A0506D8A00606052806E10628EB
:101DA200D8A4D6EF0EF0D8EF0EF0BBEF0EF0120073
:101DB20004BEDEEF0EF0E0EF0EF0EAEF0EF001C02F
:101DC20001F002C002F003C003F004C004F003EF0C
:101DD2000FF001C005F002C006F003C007F004C016
:101DE20008F0051E061E071E081E052A000E062202
:101DF2000722082205C001F006C002F007C003F066
:101E020008C004F012001AEF0FF002C0F6FF03C080
:101E1200F7FFF86A070EF76403D00800F55005D003
:101E2200F6CFE1FFF7CFE2FFE75079EC0DF0024A7F
:101E3200032A02C0F6FF03C0F7FFF86A070EF76431
:101E420003D00800F55005D0F6CFE1FFF7CFE2FF4F
:101E5200E7500009D8A430EF0FF032EF0FF006EF91
:101E62000FF0120013BE3AEF0FF038EF0FF03EEF13
:101E72000FF0000E136E000E126E000E166E000EA4
:101E8200156E4EEF0FF0000E026E200E016E0FC0A7
:101E920003F0BEEC11F0154A162A1250155C1650CA
:101EA200800A146E1350800A1458D8A05BEF0FF00A
:101EB2005DEF0FF044EF0FF010C009F011C00AF00F
:101EC2000FC00BF0E2EC0DF01200000E096E000ED6
:101ED2000A6E000E0B6E000E0C6E055006100710F7
:101EE2000810D8B477EF0FF079EF0FF0AFEF0FF0E3
:101EF200010E0D6E83EF0FF0D890053606360736C9
:101F020008360D2A08AE88EF0FF08AEF0FF07DEF4A
:101F12000FF0D89009360A360B360C360550015CA4
:101F2200065002580750035808500458D8A09CEF96
:101F32000FF09EEF0FF0A7EF0FF00550015E065075
:101F4200025A0750035A0850045A0980D89008329E
:101F52000732063205320D2E8AEF0FF009C001F06A
:101F62000AC002F00BC003F00CC004F01200000E15
:101F72000001B46F010EB56F630EB66F7E0EB76FC0
:101F82002CC2B8F02DC2B9F02EC2BAF02FC2BBF0EB
:101F92000101FD51D8A4D0EF0FF0D3EF0FF0010EE5
:101FA200D4EF0FF0000E0001BC6FBD6B28C2BEF073
:101FB20029C2BFF02AC2C0F02BC2C1F020C2C2F0B7
:101FC20021C2C3F022C2C4F023C2C5F002013551BE
:101FD200D8A4EEEF0FF0F1EF0FF0010EF2EF0FF0D9
:101FE200000E0001C66FC76B02013451D8A4FCEF8A
:101FF2000FF0FFEF0FF0010E00EF10F0000E0001E6
:10200200C86FC96B24EC0EF0000E026E010E036E57
:1020120004EC0FF01200000E0114096E000E0214FF
:102022000A6E800E03140B6E7F0E04140C6E0950A0
:102032000A100B100C10D8A421EF10F023EF10F0AF
:102042002BEF10F0000E016E000E026E000E036EFA
:10205200000E046E000E0514096E000E06140A6EC0
:10206200800E07140B6E7F0E08140C6E09500A10B6
:102072000B100C10D8A440EF10F042EF10F04AEF12
:1020820010F0000E056E000E066E000E076E000EBA
:10209200086E055001180FE1065002180CE10750B6
:1020A200031809E108500418D8B45AEF10F05CEF95
:1020B20010F05FEF10F0D89060EF10F0D8801200AF
:1020C200000E076E000E066E0150D96EDA6ADECF80
:1020D200F6FFDDCFF7FF0800F5502A0AD8A474EF07
:1020E20010F076EF10F09FEF10F00150D96EDA6A1F
:1020F200DE2A000EDD220250D96EDA6A020EDF26D7
:10210200DF5CD96EDA6ADECF06F0DECF07F0B2EF1F
:1021120010F00A0E0602F3CF03F0F4CF04F0070228
:10212200F350042605500324066E000E0420076EA9
:102132000150D96EDA6ADE2A000EDD220150D96E14
:10214200DA6ADECFF6FFDDCFF7FF0800F550D00FD9
:10215200056E090E0564B0EF10F0B2EF10F08AEFD1
:1021620010F006C001F007C002F01200166E000E59
:10217200176E000E186E000E196E000E1A6E1B6A94
:10218200F1EF10F016C010F010461046C2501018B1
:10219200C30B1018C26E0D0EE82EFED70000C282CD
:1021A200C2B2D6EF10F0D8EF10F0D1EF10F0C3505A
:1021B200C4CF10F0116A10C011F0106A1010126E24
:1021C2001150136E146A13BE14061450156E125079
:1021D2001726135018221450192215501A221B2A9E
:1021E2000E501B5CD8A0F8EF10F0FAEF10F0C3EF1E
:1021F20010F017C001F018C002F019C003F01AC0A5
:1022020004F00E50056E066A076A086A66EC0FF063
:1022120001C00EF002C00FF01200066A02BE16EFF5
:1022220011F014EF11F01CEF11F0016C021ED8B086
:10223200022A010E066E04BE23EF11F021EF11F007
:1022420027EF11F0036C041ED8B0042A03500410C7
:10225200D8B42EEF11F030EF11F054EF11F0010E5F
:10226200056E38EF11F0D89003360436052A04AE15
:102272003DEF11F03FEF11F034EF11F00350015C2C
:1022820004500258D8A048EF11F04AEF11F04EEF77
:1022920011F00350015E0450025AD8900432033206
:1022A200052E3FEF11F00650D8B45AEF11F05CEF53
:1022B20011F060EF11F0016C021ED8B0022A01C0C9
:1022C20001F002C002F01200050E0E6E000EB7EC15
:1022D20010F00EC05DF00FC05EF0000E446E000EF6
:1022E200456E800E466E440E476E000E236E000E43
:1022F200246EA00E256E400E266E5DC001F05EC0FB
:1023020002F0036A046A000E3AEC16F001C01FF0F4
:1023120002C020F003C021F004C022F0BCEC20F087
:102322001FC040F020C041F021C042F022C043F063
:1023320005EC1DF040C059F041C05AF042C05BF0BC
:1023420043C05CF059C040F05AC041F05BC042F05B
:102352005CC043F00A0E446ED70E456E230E466EE5
:102362003C0E476E05EC1DF040C02CF241C02DF230
:1023720042C02EF243C02FF212000350D8B4C4EF71
:1023820011F0C6EF11F0CEEF11F00350D8A4CCEF4C
:1023920011F0CEEF11F0D3EF11F0015059EC0DF026
:1023A2001AEF12F00350D96EDA6A090ED926DE50FE
:1023B200DE10D8B4DFEF11F0E1EF11F0FAEF11F017
:1023C2000350D96EDA6A090ED9260350E16EE26A29
:1023D200020EE126DE50E65CE650800A086EDE5010
:1023E200800A0858D8B0F8EF11F0FAEF11F01AEF9E
:1023F20012F00350D96EDA6A020ED926DECF04F04B
:10240200DDCF05F00350D96EDA6ADECF06F0DDCFFC
:1024120007F004500624D96E05500720DA6E01C079
:10242200DFFF0350D96EDA6A020ED926DE2A000EC9
:10243200DD221200066A04BE23EF12F021EF12F031
:1024420029EF12F0036C041ED8B0042A010E066EA6
:1024520002BE30EF12F02EEF12F036EF12F0016CE6
:10246200021ED8B0022A010E061A000E086E000ED5
:10247200076E03500410D8B441EF12F043EF12F08C
:102482006BEF12F0010E056E4BEF12F0D89003368F
:102492000436052A04AE50EF12F052EF12F047EF65
:1024A20012F0D890073608360350015C04500258E7
:1024B200D8A05EEF12F060EF12F065EF12F0035059
:1024C200015E0450025A0780D89004320332052E6E
:1024D20052EF12F00650D8B471EF12F073EF12F00F
:1024E20077EF12F0076C081ED8B0082A07C001F077
:1024F20008C002F0120018C20BF019C20CF01AC286
:102502000DF01BC20EF001C00BF002C00CF003C0B4
:102512000DF004C00EF00BC005F00CC006F00DC0AB
:1025220007F00EC008F0180E9CEF12F0D890083297
:10253200073206320532E82E97EF12F00550096E87
:102542000A6A09500A10D8A4A9EF12F0ABEF12F0F0
:10255200CBEF12F0D8900B34056E0C34066E0D34AE
:10256200076E0E34086E0550061007100810D8A426
:10257200BDEF12F0BFEF12F0C5EF12F0000E026EC7
:10258200020E016EFAEF12F0000E026E030E016EE1
:10259200FAEF12F009280A10D8A4D2EF12F0D4EF01
:1025A20012F0F6EF12F00BC005F00CC006F00DC0F1
:1025B20007F00EC008F0090ED89005360636073629
:1025C2000836E82EDDEF12F005500610071008104D
:1025D200D8B4EEEF12F0F1EF12F0010EF2EF12F0BA
:1025E200000E016E026AFAEF12F0000E026E040E85
:1025F200016E1200000E4014486E000E4114496E26
:10260200800E42144A6E7F0E43144B6E485049109E
:102612004A104B10D8A410EF13F012EF13F01AEF78
:1026220013F0000E406E000E416E000E426E000E60
:10263200436E000E4414486E000E4514496E800E1F
:1026420046144A6E7F0E47144B6E485049104A108A
:102652004B10D8A42FEF13F031EF13F039EF13F032
:10266200000E446E000E456E000E466E000E476E62
:1026720043AE3EEF13F040EF13F049EF13F0406C1E
:10268200411ED8B0412A421ED8B0422A800E43567B
:1026920047AE4EEF13F050EF13F059EF13F0446CC6
:1026A200451ED8B0452A461ED8B0462A800E475647
:1026B200000E401A000E411A000E421A800E431AF2
:1026C200000E441A000E451A000E461A800E471AD2
:1026D2004450405C45504158465042584750435838
:1026E200D8B076EF13F078EF13F07BEF13F0D890B9
:1026F2007CEF13F0D8801200033404340A6E0A50BF
:10270200D8A486EF13F088EF13F092EF13F0000EC7
:10271200016E000E026E000E036E000E046EFFEFDD
:1027220013F001C005F002C006F003C007F004C0B8
:1027320008F0200EA2EF13F0D890083207320632CA
:102742000532E82E9DEF13F00550096E038EFF0E41
:102752000116FF0E0216FF0E0316000E0416960E49
:102762000A5E0ABEB9EF13F0B7EF13F0CFEF13F022
:102772000A50800A970FD8B0C1EF13F0C3EF13F0DD
:10278200C5EF13F088EF13F0D8900432033202320F
:1027920001320A3EC5EF13F0E7EF13F01F0E0A6491
:1027A200D5EF13F0D7EF13F0DFEF13F088EF13F04C
:1027B200D89001360236033604360A060A50D8A4E7
:1027C200E5EF13F0E7EF13F0D9EF13F00950D8B4A7
:1027D200EDEF13F0EFEF13F0F7EF13F0041E031E0B
:1027E200021E016C000E02220322042201C001F02B
:1027F20002C002F003C003F004C004F01200000E95
:102802000001F86F000EF96F000EFA6F000EFB6FF9
:10281200FC6B010E02EC0EF001C0F6F002C0F7F004
:10282200F8C00FF0F9C010F0FAC011F0FBC012F0BE
:10283200000E446E000E456E800E466E440E476ECC
:10284200000E236E000E246EA00E256E400E266E24
:10285200F6C001F0F7C002F0036A046A000E3AEC17
:1028620016F001C01FF002C020F003C021F004C026
:1028720022F0BCEC20F01FC040F020C041F021C08B
:1028820042F022C043F005EC1DF040C013F041C0FD
:1028920014F042C015F043C016F0CFEC22F00FC086
:1028A200F8F010C0F9F011C0FAF012C0FBF0020EFD
:1028B2000001D76F040ED66FBA0EE82EFED7D62FC0
:1028C200FCD7D72FFAD700000001FC2B090EFC65BC
:1028D2006DEF14F06FEF14F00AEF14F0F8C040F04F
:1028E200F9C041F0FAC042F0FBC043F0000E446E62
:1028F200000E456E200E466E410E476E05EC1DF031
:1029020040C024F241C025F242C026F243C027F261
:10291200010E0101FE6FFD6B000E0201286F000E19
:10292200296F000E2A6F000E2B6F520E026E7F0E61
:10293200036E04EC0FF0D80E0001B46FB56BE50E18
:10294200B66F7F0EB76F24C2B8F025C2B9F026C2A7
:10295200BAF027C2BBF024EC0EF0D80E026E036A66
:1029620004EC0FF0120019BEB9EF14F0BCEF14F032
:10297200010EBDEF14F0000E206E0001FEBFC6EF87
:1029820014F0C4EF14F0CCEF14F0000E1F6E010E21
:102992001E6ED0EF14F0FDC01EF0FEC01FF032C25A
:1029A2001CF033C21DF02050D8B4DAEF14F0DCEF83
:1029B20014F0F3EF14F01C06D8A01D062050D8A482
:1029C200E5EF14F0E7EF14F0EDEF14F0000E1B6EDC
:1029D2002B0E1A6EF1EF14F0000E1B6E2D0E1A6EF6
:1029E2001AC020F0000E226E4F0E216E0201856B7E
:1029F2002BEF15F02106D8A02206360E2124D96E1F
:102A0200020E2220DA6E18C001F019C002F0000E88
:102A1200046E0A0E036E0EEC11F001C007F002C044
:102A220008F090EC0DF00750300FDF6E1E06D8A0B4
:102A32001F061C06D8A01D0618C001F019C002F01E
:102A4200000E046E0A0E036E1BEC12F001C018F0A9
:102A520002C019F022BE36EF15F0225008E121041F
:102A6200D8A036EF15F038EF15F04EEF15F01850EC
:102A72001910D8A43FEF15F041EF15F0FBEF14F059
:102A82001FBE4EEF15F01F5006E11E04D8B04CEFEA
:102A920015F04EEF15F0FBEF14F02050D8B454EFC0
:102AA20015F056EF15F061EF15F02106D8A02206B9
:102AB200360E2124D96E020E2220DA6E20C0DFFFEC
:102AC20017C00FF0360E2124106E020E2220116E56
:102AD2001CC012F01DC013F033EC0FF01200000EF8
:102AE2000101286F000E296F000E2A6F000E2B6F56
:102AF2002C6B020E02EC0EF001C022F102C023F197
:102B020022C101F023C102F0036A046A000E3AEC0A
:102B120016F001C01FF002C020F003C021F004C073
:102B220022F0000E236E000E246EA00E256E3B0EC8
:102B3200266EBCEC20F01FC024F120C025F121C07C
:102B420026F122C027F124C13CF025C13DF026C167
:102B52003EF027C13FF0000E386E000E396EA00E17
:102B62003A6E400E3B6E46EC0EF038C040F039C073
:102B720041F03AC042F03BC043F024C144F025C1C9
:102B820045F026C146F027C147F005EC1DF040C0D4
:102B92001EF141C01FF142C020F143C021F128C102
:102BA2000FF029C110F02AC111F02BC112F01EC181
:102BB20013F01FC114F020C115F021C116F0CFECA3
:102BC20022F00FC028F110C029F111C02AF112C061
:102BD2002BF1030E0001D76F080ED66F770EE82E89
:102BE200FED7D62FFCD7D72FFAD701012C2B310EC7
:102BF2002C65FEEF15F000EF16F07AEF15F028C104
:102C020040F029C141F02AC142F02BC143F0000E2D
:102C1200446E000E456E480E466E420E476E05EC3F
:102C22001DF040C091F241C092F242C093F243C003
:102C320094F2A80E026E7F0E036E04EC0FF0000EEB
:102C42000001B46F010EB56FEC0EB66F7F0EB76F59
:102C520091C2B8F092C2B9F093C2BAF094C2BBF07A
:102C620024EC0EF0000E026E010E036E04EC0FF067
:102C72001200096E0950D8B441EF16F043EF16F076
:102C820065EF16F004BE4AEF16F048EF16F065EF56
:102C920016F001C005F002C006F003C007F004C040
:102CA20008F0051E061E071E081E052A000E062233
:102CB2000722082205C00BF006C00CF007C00DF079
:102CC20008C00EF06DEF16F001C00BF002C00CF060
:102CD20003C00DF004C00EF00150021003100410E6
:102CE200D8A476EF16F078EF16F082EF16F0000E09
:102CF200016E000E026E000E036E000E046E13EFE4
:102D020017F0960E0A6E8CEF16F00A2AD8900E3241
:102D12000D320C320B32000E0B14056E000E0C1429
:102D2200066E000E0D14076EFE0E0E14086E055090
:102D3200061007100810D8A4A1EF16F0A3EF16F0A2
:102D420086EF16F0B1EF16F00A2A010E0B26000EDE
:102D52000C220D220E22D8900E320D320C320B3282
:102D6200000E0B14056E000E0C14066E000E0D14F0
:102D7200076EFF0E0E14086E05500610071008109D
:102D8200D8A4C6EF16F0C8EF16F0A5EF16F0D0EFF4
:102D920016F00A06D8900B360C360D360E360DBEDE
:102DA200D5EF16F0D7EF16F0DFEF16F0020E0A603D
:102DB200DDEF16F0DFEF16F0CAEF16F00AB0E4EF1F
:102DC20016F0E6EF16F0E7EF16F00D9ED8900A32F5
:102DD2000AC005F0066A076A086A05C008F0076AB1
:102DE200066A056A05500B1206500C1207500D12A6
:102DF20008500E120950D8B401EF17F003EF17F084
:102E02000BEF17F004BE0AEF17F008EF17F00BEF05
:102E120017F00E8E0BC001F00CC002F00DC003F0D3
:102E22000EC004F0120014C26CF015C26DF016C28E
:102E32006EF017C26FF059C06CF05AC06DF05BC0F3
:102E42006EF05CC06FF0810E0001606FFF0E616F6B
:102E52006CC062F06DC063F06EC064F06FC065F06C
:102E6200180E39EF17F0D890653364336333623349
:102E7200E82E34EF17F0625160256A6F000E61216F
:102E82006B6F6BBF4EEF17F06B5109E1170E6A5D66
:102E9200D8A04EEF17F050EF17F05AEF17F059C0C5
:102EA20059F05AC05AF05BC05BF05CC05CF01EEF98
:102EB20018F06BBF5FEF17F061EF17F0D2EF17F06A
:102EC2006AC060F0FF0E616FFF0E626F7F0E636F6C
:102ED200000E646F606770EF17F078EF17F06435DB
:102EE2006433633362336133602F6BEF17F061C079
:102EF20066F062C067F063C068F064C069F0000108
:102F020066516C15606F67516D15616F68516E1572
:102F1200626F69516F15636F6051611162116311C4
:102F2200D8A496EF17F098EF17F09AEF17F050EF3A
:102F320017F06CC060F06DC061F06EC062F06FC0DF
:102F420063F0200EAAEF17F0D89063336233613337
:102F52006033E82EA5EF17F0605161116211631121
:102F6200D8B4B6EF17F0B8EF17F0C0EF17F066510C
:102F72006C2767516D2368516E2369516F23661D5B
:102F8200606F671D616F681D626F691D636F6051BD
:102F92006C1761516D1762516E1763516F1716EFFF
:102FA20018F06CC060F06DC061F06EC062F06FC06E
:102FB20063F0200EE2EF17F0D8906333623361338F
:102FC2006033E82EDDEF17F0605161116211631179
:102FD200D8A4EEEF17F0F0EF17F0FAEF17F0000EAB
:102FE2006C6F000E6D6F000E6E6F000E6F6F16EF3E
:102FF20018F0D8906C35606F6D35616F6E35626F09
:103002006F35636F6051611162116311D8B40CEFB7
:1030120018F00EEF18F016EF18F0000E6C6F000E9D
:103022006D6F800E6E6FBF0E6F6F6CC059F06DC00A
:103032005AF06EC05BF06FC05CF0120038C046F010
:1030420039C047F03AC048F03BC049F03DBE33EFCB
:1030520018F03D5009E1800E3C5CD8A033EF18F027
:1030620035EF18F093EF18F046C01FF047C020F07C
:1030720048C021F049C022F0000E236E000E246EDB
:10308200000E256E7F0E266EBCEC20F01FC046F0AF
:1030920020C047F021C048F022C049F0810E3C26F2
:1030A200FF0E3D223DBE5FEF18F03D5009E1800E5C
:1030B2003C5CD8A05FEF18F061EF18F0FDEF18F05C
:1030C20046C01FF047C020F048C021F049C022F09E
:1030D200000E236E000E246E000E256E7F0E266EED
:1030E200BCEC20F01FC046F020C047F021C048F0E1
:1030F20022C049F0810E3C26FF0E3D223DBE8BEFE1
:1031020018F03D5009E1800E3C5CD8A08BEF18F01E
:103112008DEF18F0FDEF18F0000E3D6E7F0E3C6E45
:10312200FDEF18F03DAE9FEF18F0820E3C5CFF0EF3
:103132003D58D8B09FEF18F0A1EF18F0FDEF18F04E
:1031420046C01FF047C020F048C021F049C022F01D
:10315200000E236E000E246E800E256E0C0E266E5F
:10316200BCEC20F01FC046F020C047F021C048F060
:1031720022C049F0660E3C26000E3D223DAECBEF4A
:1031820018F0820E3C5CFF0E3D58D8B0CBEF18F021
:10319200CDEF18F0FDEF18F046C01FF047C020F049
:1031A20048C021F049C022F0000E236E000E246EAA
:1031B200800E256E0C0E266EBCEC20F01FC046F071
:1031C20020C047F021C048F022C049F0660E3C26DC
:1031D200000E3D223DAEF7EF18F0820E3C5CFF0E72
:1031E2003D58D8B0F7EF18F0F9EF18F0FDEF18F0EE
:1031F200FF0E3D6E820E3C6E7F0E3C243E6E000E34
:103202003D203F6E406A416A170ED8903E363F36E7
:1032120040364136E82E06EF19F03EC042F03FC07C
:1032220043F040C044F041C045F042C01FF043C0EB
:1032320020F044C021F045C022F046C023F047C030
:1032420024F048C025F049C026F0BCEC20F01FC095
:1032520038F020C039F021C03AF022C03BF038C02B
:1032620038F039C039F03AC03AF03BC03BF01200B6
:103272000101FE51D8A440EF19F042EF19F046EFD8
:1032820019F000EC14F055EF1AF0050E0E6E010E57
:10329200B7EC10F00EC004F10FC005F1000E236E62
:1032A200000E246EA00E256E400E266E04C101F0A3
:1032B20005C102F0036A046A000E3AEC16F001C07E
:1032C2001FF002C020F003C021F004C022F0BCECC9
:1032D20020F01FC040F020C041F021C042F022C0C7
:1032E20043F0000E446E000E456E800E466E440E94
:1032F200476E05EC1DF040C000F141C001F142C033
:1033020002F143C003F1000E236E000E246EC80EBC
:10331200256E420E266E00C13CF001C13DF002C195
:103322003EF003C13FF024C238F025C239F026C274
:103332003AF027C23BF046EC0EF038C01FF039C01D
:1033420020F03AC021F03BC022F0BCEC20F01FC0BC
:1033520040F020C041F021C042F022C043F024C21C
:1033620044F025C245F026C246F027C247F005ECDC
:103372001DF040C006F141C007F142C008F143C050
:1033820009F1010109BFCAEF19F0C8EF19F0D2EF34
:1033920019F0000E066F000E076F000E086F000E88
:1033A200096F000E406E000E416EC80E426E420E54
:1033B200436E06C144F007C145F008C146F009C199
:1033C20047F0FBEC12F0D8B0E9EF19F0EBEF19F08F
:1033D200F4EF19F0000E0101066F000E076FC80E20
:1033E200086F420E096F0101FC51D8A4FBEF19F0DE
:1033F200FDEF19F01DEF1AF006C140F007C141F0D0
:1034020008C142F009C143F0000E446E000E456E41
:10341200200E466E410E476EFBEC12F0D8A014EF60
:103422001AF016EF1AF039EF1AF0010E0101FD6FD2
:10343200010EFC6F39EF1AF0000E406E000E416E65
:10344200A00E426E400E436E06C144F007C145F025
:1034520008C146F009C147F0FBEC12F0D8A034EFE6
:103462001AF036EF1AF039EF1AF00101FD6BFC6B1E
:103472000101FD51D8B440EF1AF042EF1AF04CEFBF
:103482001AF006C128F207C129F208C12AF209C1BD
:103492002BF255EF1AF0000E0201286F000E296F71
:1034A200000E2A6F000E2B6F12000001A351D96E7D
:1034B200DA6ADECFF6FFDDCFF7FF0800F550250A06
:1034C200D8A466EF1AF068EF1AF086EF1BF0A3514A
:1034D200D96EDA6ADE2A000EDD22000E0201336F97
:1034E200000E326F32C2FAF10001FD69FE69A3518A
:1034F200D96EDA6ADECFF6FFDDCFF7FF0800F550AE
:103502002E0AD8A487EF1AF089EF1AF099EF1AF071
:10351200A351D96EDA6ADE2A000EDD22A3C001F0C1
:10352200A4C002F061EC10F001C0FDF002C0FEF098
:103532000001A351D96EDA6ADECFACF0DDCFADF077
:10354200ACC0F6FFADC0F7FF0800F550640AD8B46E
:10355200ADEF1AF0AFEF1AF0BDEF1AF0ACC0F6FF04
:10356200ADC0F7FF0800F550690AD8A4BBEF1AF006
:10357200BDEF1AF0E0EF1AF0A451D96EDA6A020E2A
:10358200DF26DF5CD96EDA6ADECFA7F0DECFA8F0E5
:10359200010EAC25A56F000EAD21A66FA351D96E09
:1035A200DA6AA5C0DEFFA6C0DDFFA2C017F0A7C081
:1035B20018F0A8C019F0B4EC14F097EF1BF0A35167
:1035C200D96EDA6ADECFACF0DDCFADF0ACC0F6FF7B
:1035D200ADC0F7FF0800F5CFABF0FBEF1AF0AC4B34
:1035E200AD2B0AEF1BF06C0EAB6F0AEF1BF0AB6B4F
:1035F2000AEF1BF0AB514C0AD8B4F0EF1AF02A0ACA
:10360200D8B4F4EF1AF00A0AD8B4F0EF1AF0F8EFCF
:103612001AF0ACC0F6FFADC0F7FF0800F550660A1D
:10362200D8A416EF1BF018EF1BF07DEF1BF042EF52
:103632001BF0A451D96EDA6ADFCFA5F0040EDF26A3
:10364200A551D96EDA6ADECFA7F0DECFA8F0DECFC1
:10365200A9F0DECFAAF04DEF1BF0A451D96EDA6AC1
:10366200DFCFA5F0040EDF26A551D96EDA6ADECFD0
:10367200A7F0DECFA8F0DECFA9F0DECFAAF04DEFA3
:103682001BF0AB514C0AD8B42EEF1BF0200AD8B471
:103692001AEF1BF04DEF1BF0010EAC25A56F000ECB
:1036A200AD21A66FA351D96EDA6AA5C0DEFFA6C00E
:1036B200DDFF71EF1BF0A2C070F0A7C071F0A8C0CF
:1036C20072F0A9C073F0AAC074F0ACC0F6FFADC02E
:1036D200F7FF0800F5CF75F0A9EC27F097EF1BF084
:1036E200ACC0F6FFADC0F7FF0800F550660AD8B4CB
:1036F2005CEF1BF07DEF1BF00001A351D96EDA6A7B
:10370200DE2A000EDD2297EF1BF0A351D96EDA6A92
:10371200DECFF6FFDDCFF7FF0800F550016E026A3B
:10372200A2C003F0BEEC11F07DEF1BF01200700E90
:10373200D36E936A816A818A8190C90E026E7F0E6E
:10374200036E04EC0FF0000E02018F6F000E8E6FFD
:103752000B0E0201876F260E866F5D0EE82EFED7D6
:10376200862FFCD7872FFAD700D02E0E79EC0DF0DA
:1037720002018E4B8F2B8FBFC8EF1BF08F5109E1D7
:103782001E0E8E5DD8A0C8EF1BF0CAEF1BF0A9EF8A
:103792001BF0E90E026E7E0E036E04EC0FF06FEC6E
:1037A2000DF05CEC0DF000EC14F070EC15F0210E55
:1037B200026E7F0E036E04EC0FF0000E02018B6F9F
:1037C200000E8A6F000E8D6F000E8C6F65EC0DF08F
:1037D2000009D8B4EFEF1BF0F1EF1BF027EF1CF05C
:1037E20084EC0DF00201906F310E9019D8A4FCEF19
:1037F2001BF0FEEF1BF006EF1CF0EC0E026E7E0ECD
:10380200036E04EC0FF027EF1CF0300E9019D8A4D1
:103812000DEF1CF00FEF1CF017EF1CF0B60E026E4E
:103822007E0E036E04EC0FF027EF1CF09051D8B41B
:103832001DEF1CF01FEF1CF027EF1CF07F0E026E35
:103842007F0E036E04EC0FF027EF1CF065EC11F015
:1038520039EC19F02AEC25F0010E0201896F010101
:10386200FD51D8A437EF1CF039EF1CF06DEF1CF0BE
:1038720020C240F021C241F022C242F023C243F0F2
:10388200000E446E000E456E480E466E420E476EA6
:10389200FBEC12F0D8B050EF1CF052EF1CF06DEFC1
:1038A2001CF02CC240F02DC241F02EC242F02FC2B9
:1038B20043F0000E446E000E456E200E466E420E20
:1038C200476EFBEC12F0D8B069EF1CF06BEF1CF006
:1038D2006DEF1CF00201896B89C288F202018851E6
:1038E200D8B476EF1CF078EF1CF0A2EF1CF08180C8
:1038F200010E356F8C4B8D2B8D5109E1020E8C5DC3
:10390200D8A086EF1CF088EF1CF09EEF1CF081AA75
:103912008DEF1CF091EF1CF0866B862B93EF1CF061
:103922000201866B863B864781508619DF0B86191A
:10393200816E000E8D6F000E8C6F010E346FAAEF38
:103942001CF08190356B818A346B000E8D6F000EF6
:103952008C6F8B5109E1040E8A5DD8A0B3EF1CF085
:10396200B5EF1CF0F1EF1CF0B8EC0FF0000E020105
:103972008B6F000E8A6FE80E1C27030E1D23000EAC
:103982001E23000E1F231F510DE1E00E1C5D930E3E
:103992001D59040E1E59D8A0D1EF1CF0D3EF1CF014
:1039A200E0EF1CF070EC15F0000E02011C6F000E2F
:1039B2001D6F000E1E6F000E1F6FF1EF1CF01F51E6
:1039C2000DE1C00E1C5D270E1D59090E1E59D8A00F
:1039D200EDEF1CF0EFEF1CF0F1EF1CF000EC14F037
:1039E20002018A4B8B2B030E0201876F8A0E866FB0
:1039F200550EE82EFED7862FFCD7872FFAD700D098
:103A0200E7EF1BF0FEEF3FF04350800B506E435048
:103A12004324576E42AE10EF1DF012EF1DF013EF6C
:103A22001DF057805750D8B419EF1DF01BEF1DF051
:103A32002FEF1DF05728D8A421EF1DF023EF1DF022
:103A42002BEF1DF0000E406E000E416E000E426E16
:103A5200000E436E428E436A37EF1DF0000E406E39
:103A6200000E416E000E426E000E436E4750800BF8
:103A7200501A47504724586E46AE42EF1DF044EFAD
:103A82001DF045EF1DF058805850D8B44BEF1DF093
:103A92004DEF1DF061EF1DF05828D8A453EF1DF033
:103AA20055EF1DF05DEF1DF0000E446E000E456EE9
:103AB200000E466E000E476E468E476A69EF1DF095
:103AC200000E446E000E456E000E466E000E476EEE
:103AD2004450451046104710D8A472EF1DF074EF01
:103AE2001DF08CEF1DF0000E406E000E416E000EB8
:103AF200426E000E436E800E42127F0E43125050F1
:103B0200431240C040F041C041F042C042F043C0C5
:103B120043F0CCEF1EF05750D8A492EF1DF094EF73
:103B22001DF09EEF1DF0000E406E000E416E000E65
:103B3200426E000E436ECCEF1EF0585057C048F054
:103B4200496A485E000E495A7F0E4824516E000EA3
:103B52004920526E40C04CF041C04DF042C04EF080
:103B620043C04FF0000E406E000E416E000E426EDA
:103B7200000E436E000E536E000E546E000E556E14
:103B8200000E566E586AFEEF1DF05850D8B4CCEFB6
:103B92001DF0CEEF1DF0E5EF1DF0D8904C364D36FE
:103BA2004E364F36D890403641364236433656AEC0
:103BB200DDEF1DF0DFEF1DF0E0EF1DF04080D8904B
:103BC200533654365536563644504C5C45504D5853
:103BD20046504E5847504F58D8A0F2EF1DF0F4EF20
:103BE2001DF0FDEF1DF0568C44504C5E45504D5A71
:103BF20046504E5A47504F5A582A190E586404EFED
:103C02001EF006EF1EF0C6EF1DF04C504D104E1088
:103C12004F10D8B40FEF1EF011EF1EF029EF1EF077
:103C2200538029EF1EF0D890403641364236433653
:103C320056AE1EEF1EF020EF1EF021EF1EF0408068
:103C4200D89053365436553656365106D8A05206B9
:103C520042AE2EEF1EF030EF1EF014EF1EF0586A47
:103C620056AE36EF1EF038EF1EF05CEF1EF0FF0E80
:103C72005314486EFF0E5414496EFF0E55144A6ECB
:103C82007F0E56144B6E485049104A104B10D8B450
:103C92004DEF1EF04FEF1EF053EF1EF0010E586E67
:103CA2005CEF1EF040A058EF1EF05AEF1EF05CEFE2
:103CB2001EF04FEF1EF05850D8B462EF1EF064EFC2
:103CC2001EF088EF1EF0010E4026000E4122422215
:103CD200432243A06FEF1EF071EF1EF088EF1EF03B
:103CE20040C048F041C049F042C04AF043C04BF0E6
:103CF2004B344B324A324932483248C040F049C014
:103D020041F04AC042F04BC043F0514A522A52BEDF
:103D120093EF1EF0525008E15128D8A093EF1EF005
:103D220095EF1EF0A0EF1EF0000E526E5168000ECD
:103D3200406E000E416E000E426E000E436E52BE89
:103D4200ADEF1EF0525006E15104D8B0ABEF1EF0B9
:103D5200ADEF1EF0BAEF1EF0000E526E000E516E65
:103D6200000E406E000E416E000E426E000E436E5B
:103D7200506A51C057F057A0C1EF1EF0C3EF1EF0BA
:103D8200C6EF1EF0428EC7EF1EF0429ED89057300B
:103D9200436E80EF1DF0120001C022F002C023F03A
:103DA20003C024F004C025F0000E2214056E000E9C
:103DB2002314066E800E2414076E7F0E2514086EDF
:103DC200800E071809E17F0E081805100610D8A406
:103DD200EDEF1EF0EFEF1EF01FEF1FF0FF0E2214AB
:103DE200056EFF0E2314066E7F0E2414076E000E5E
:103DF2002514086E0550061007100810D8A404EF09
:103E02001FF006EF1FF00DEF1FF025BE0DEF1FF0A4
:103E12000BEF1FF015EF1FF0FF0E2212FF0E231201
:103E22007F0E2412000E251222C001F023C002F0E0
:103E320024C003F025C004F0BBEF20F025BE2EEF16
:103E42001FF025502410231006E12204D8B02CEFD5
:103E52001FF02EEF1FF065EF1FF0FF0E2214056E0C
:103E6200FF0E2314066EFF0E2414076E7F0E251418
:103E7200086E0550061007100810D8A443EF1FF073
:103E820045EF1FF04FEF1FF0000E016E000E026EA5
:103E9200000E036E000E046EBBEF20F025BE56EF3F
:103EA2001FF054EF1FF065EF1FF0000E0201316F9B
:103EB200210E306FFF0E226EFF0E236EFF0E246E58
:103EC2007F0E256E15EF1FF0170E056E22C006F04D
:103ED20023C007F024C008F025C009F0056674EF7E
:103EE2001FF07CEF1FF00934093208320732063224
:103EF200052E6FEF1FF006C01AF007C01BF008C0B6
:103F02001CF009C01DF01A501B101C101D10D8A463
:103F12008DEF1FF08FEF1FF0BFEF1FF0000E0E6E40
:103F2200000E0F6E000E106E000E116EA4EF1FF049
:103F3200D8902236233624362536010E0E26000E60
:103F42000F221022112224AEA9EF1FF0ABEF1FF0B7
:103F520099EF1FF0FF0E0E24056EFF0E0F20066E66
:103F6200FF0E1020076EFF0E1120086E05501A5E1C
:103F720006501B5A07501C5A08501D5A810E1A2609
:103F8200FF0E1B22FF0E1C22FF0E1D22FF0E22140B
:103F9200056EFF0E2314066E7F0E2414076E000EAC
:103FA2002514086E000E0510226E000E0610236EF8
:103FB200800E0710246E000E0810256E1AA0E4EF82
:103FC2001FF0E6EF1FF0EEEF1FF0225022262350E3
:103FD200232224502422255025221D341D321C3236
:103FE2001B321A322250222623502322245024220A
:103FF20025502522000E0A6E000E0B6E000E0C6E6E
:10400200000E0D6E0AC012F00BC013F00CC014F0BB
:104012000DC015F0000E1E6E000E1F6E000E206EFB
:10402200010E216E5DEF20F00A501E24166E0B5019
:104032001F20176E0C502020186E0D502120196E73
:104042001650225C17502358185024582550800AC5
:10405200056E1950800A0558D8A032EF20F034EFCF
:1040620020F050EF20F016501E240A6E17501F2029
:104072000B6E185020200C6E195021200D6E165018
:10408200225E1750235A1850245A1950255A1E508E
:1040920012261F5013222050142221501522225082
:1040A2002226235023222450242225502522D89030
:1040B200213220321F321E321E501F1020102110BA
:1040C200D8A466EF20F068EF20F015EF20F0225020
:1040D200231024102510D8B471EF20F073EF20F0D4
:1040E20087EF20F0010E1214056E000E1314066EF7
:1040F200000E1414076E000E1514086E05501226D9
:1041020006501322075014220850152212C005F03F
:1041120013C006F014C007F015C008F008340832C6
:10412200073206320532000E0524226E000E0620EA
:10413200236E000E0720246E3F0E0820256E1AC043
:1041420005F01BC006F01CC007F01DC008F0170EDA
:10415200D8900536063607360836E82EA9EF20F045
:1041620005502226065023220750242208502522D9
:1041720015EF1FF012002250800B2B6E22502224CA
:10418200316E21AEC7EF20F0C9EF20F0CAEF20F068
:1041920031803150D8B4D0EF20F0D2EF20F0E5EFEB
:1041A20020F03128D8A4D8EF20F0DAEF20F0E2EFA7
:1041B20020F0000E1F6E000E206E000E216E000E0B
:1041C200226E218EEDEF20F0000E1F6E000E206E8B
:1041D200000E216E000E226E2650800B2B1A2650E6
:1041E20026242C6E25AEF8EF20F0FAEF20F0FBEF3C
:1041F20020F02C802C50D8B401EF21F003EF21F0F5
:1042020016EF21F02C28D8A409EF21F00BEF21F0B2
:1042120013EF21F0000E236E000E246E000E256EA9
:10422200000E266E258E1EEF21F0000E236E000E6C
:10423200246E000E256E000E266E2C50D8B424EF8C
:1042420021F026EF21F02EEF21F03150D8A42CEFEF
:1042520021F02EEF21F038EF21F0000E1F6E000E3C
:10426200206E000E216E000E226ECEEF22F025503F
:104272001F02F3CF36F0F4CF37F036502D6E2E6A90
:104282002F6A306A3750326E336A346A356A245084
:104292002002F3CF36F0F4CF37F036502D26000E41
:1042A2002E222F22302237503226000E3322342281
:1042B200352223502102F3CF36F0F4CF37F03650B7
:1042C2002D26000E2E222F22302237503226000EAB
:1042D2003322342235222FC030F02EC02FF02DC0D1
:1042E2002EF02D6A23502002F3CF36F0F4CF37F0B0
:1042F20036502D2637502E22000E2F22000E30224D
:1043020024501F02F3CF36F0F4CF37F036502D266B
:1043120037502E22000E2F22000E30222FC030F0F6
:104322002EC02FF02DC02EF02D6A23501F02F3CF86
:1043320036F0F4CF37F036502D2637502E22000EAD
:104342002F22000E302225502002F3CF36F0F4CF78
:1043520037F03650322637503322000E3422000E08
:10436200352224502102F3CF36F0F4CF37F0365005
:10437200322637503322000E3422000E35222550C9
:104382002102F3CF36F0F4CF37F03650276E375094
:10439200286E296A2A6A29C02AF028C029F027C073
:1043A20028F0276A275032262850332229503422F7
:1043B2002A5035222DC027F02EC028F02FC029F018
:1043C20030C02AF0190EEBEF21F0D8902A322932B0
:1043D20028322732E82EE6EF21F0275032262850E5
:1043E2003322295034222A5035222FC030F02EC0D9
:1043F2002FF02DC02EF02D6A2C5031C027F0286AE4
:104402002726000E2822820E2724366EFF0E282031
:10441200376E21EF22F0D8903236333634363536C5
:1044220030AE16EF22F018EF22F019EF22F03280B0
:10443200D8902D362E362F3630363606D8A037068F
:1044420034AE26EF22F028EF22F00CEF22F02C6A95
:1044520030AE2EEF22F030EF22F054EF22F0FF0EBA
:104462002D14276EFF0E2E14286EFF0E2F14296EA8
:104472007F0E30142A6E2750281029102A10D8B423
:1044820045EF22F047EF22F04BEF22F0010E2C6EA7
:1044920054EF22F032A050EF22F052EF22F054EF0C
:1044A20022F047EF22F02C50D8B45AEF22F05CEF02
:1044B20022F080EF22F0010E3226000E3322342247
:1044C200352235A067EF22F069EF22F080EF22F06B
:1044D20032C027F033C028F034C029F035C02AF0AA
:1044E2002A342A3229322832273227C032F028C011
:1044F20033F029C034F02AC035F0364A372A37BEA5
:104502008BEF22F0375008E13628D8A08BEF22F04B
:104512008DEF22F097EF22F0000E326E000E336E16
:10452200800E346E7F0E356EC4EF22F037BEA4EFDC
:1045320022F0375006E13604D8B0A2EF22F0A4EF01
:1045420022F0AFEF22F0000E326E000E336E000E3C
:10455200346E000E356E2B6AC4EF22F036C031F095
:10456200FF0E3216FF0E33167F0E3416000E35166E
:1045720031A0BEEF22F0C0EF22F0C1EF22F0348E64
:10458200D8903130356E2B50351232C01FF033C007
:1045920020F034C021F035C022F012001250800BFE
:1045A2001B6E125012241D6E11AEDAEF22F0DCEFF8
:1045B20022F0DDEF22F01D801D50D8B4E3EF22F08F
:1045C200E5EF22F0F9EF22F01D28D8A4EBEF22F05C
:1045D200EDEF22F0F5EF22F0000E0F6E000E106EDE
:1045E200000E116E000E126E118E126A01EF23F090
:1045F200000E0F6E000E106E000E116E000E126E87
:104602001650800B1C6E1B501C18D8B40BEF23F0F5
:104612000DEF23F00EEF23F01B8C165016241C6EA8
:1046220015AE16EF23F018EF23F019EF23F01C80DC
:104632001C50D8B41FEF23F021EF23F035EF23F005
:104642001C28D8A427EF23F029EF23F031EF23F021
:10465200000E136E000E146E000E156E000E166E16
:10466200158E166A3DEF23F0000E136E000E146EC7
:10467200000E156E000E166E1D501C5CD8B044EF75
:1046820023F046EF23F06DEF23F01BAC4BEF23F04A
:104692004DEF23F04FEF23F0800E1B1A1DC01EF0CA
:1046A2001CC01DF01EC01CF00FC01EF013C00FF086
:1046B2001EC013F010C01EF014C010F01EC014F083
:1046C20011C01EF015C011F01EC015F012C01EF070
:1046D20016C012F01EC016F01E6A1D501CC017F044
:1046E200186A175E000E185A18BE81EF23F0185090
:1046F20009E11A0E175CD8A081EF23F083EF23F0B3
:10470200BAEF23F00F50101011101210D8A48CEF32
:1047120023F08FEF23F0010E90EF23F0000E1E6EB8
:10472200000E0F6E000E106E000E116E000E126E55
:104732001CC01DF0C3EF23F01EA0A2EF23F0A4EFD4
:1047420023F0AAEF23F0D8901E3001091E6EACEFC1
:1047520023F0D8901E320FA0B1EF23F0B3EF23F075
:10476200B4EF23F01E8E12341232113210320F3295
:104772001D2A1C501D5CD8A0C1EF23F0C3EF23F00B
:104782009DEF23F01BBCC8EF23F0CAEF23F00AEF22
:1047920024F01D50D8A4D0EF23F0D2EF23F0DCEFA9
:1047A20023F0000E0F6E000E106E000E116E000E42
:1047B200126E29EF25F013500F26145010221550B7
:1047C20011221650122212A0E9EF23F0EBEF23F090
:1047D20097EF24F01EA0F0EF23F0F2EF23F0F8EFB2
:1047E20023F0D8901E3001091E6EFAEF23F0D89004
:1047F2001E320FA0FFEF23F001EF24F002EF24F0AE
:104802001E8E12341232113210320F321D2A97EFDD
:1048120024F013500F5C14501058155011581250B8
:10482200800A176E1650800A1758D8B01BEF24F072
:104832001DEF24F048EF24F00F50135C176E105058
:104842001458186E11501558196E125016581A6EC7
:10485200FF0E17240F6EFF0E1820106EFF0E192088
:10486200116EFF0E1A20126E800E1B1A1E6C1E5045
:10487200D8A43EEF24F040EF24F050EF24F0010ED4
:104882000F26000E10221122122250EF24F0135094
:104892000F5E1450105A1550115A1650125A0F50DA
:1048A200101011101210D8A459EF24F05BEF24F06D
:1048B20090EF24F01E50D8A461EF24F063EF24F0AF
:1048C20090EF24F0000E0F6E000E106E000E116EAF
:1048D200000E126E29EF25F0D8900F3610361136E1
:1048E20012361EAE77EF24F079EF24F07AEF24F03F
:1048F2000F801EA07FEF24F081EF24F085EF24F0DB
:10490200D8801E3687EF24F0D8901E361D50D8B4BA
:104912008DEF24F08FEF24F090EF24F01D0611AEFE
:1049220095EF24F097EF24F06DEF24F01C6A1EAE91
:104932009DEF24F09FEF24F0B7EF24F01EC017F094
:104942007F0E1716D8B4A8EF24F0AAEF24F0AEEF2A
:1049520024F0010E1C6EB7EF24F00FA0B3EF24F089
:10496200B5EF24F0B7EF24F0AAEF24F01C50D8B42E
:10497200BDEF24F0BFEF24F0EAEF24F0010E0F2682
:10498200000E10221122122212A0CAEF24F0CCEF44
:1049920024F0EAEF24F00FC017F010C018F011C095
:1049A20019F012C01AF01A341A32193218321732A8
:1049B20017C00FF018C010F019C011F01AC012F091
:1049C2001D28D8B4E7EF24F0E9EF24F0EAEF24F051
:1049D2001D2A1D28D8B4F0EF24F0F2EF24F0FAEFEC
:1049E20024F01D50D8A4F8EF24F0FAEF24F00BEFD6
:1049F20025F0000E0F6E000E106E000E116E000EEE
:104A0200126E1D50D8A408EF25F00AEF25F00BEF27
:104A120025F01B6A1DA010EF25F012EF25F015EF0F
:104A220025F0118E16EF25F0119ED8901D30126ED2
:104A32001BAE1EEF25F020EF25F021EF25F0128EA0
:104A42000FC00FF010C010F011C011F012C012F020
:104A520012000101FB51D8A431EF25F033EF25F00C
:104A620038EF25F070EC15F0010E0101FB6F050E19
:104A72000E6E020EB7EC10F00EC0C0F10FC0C1F105
:104A8200000E236E000E246EA00E256E400E266EC2
:104A9200C0C101F0C1C102F0036A046A000E3AEC1F
:104AA20016F001C01FF002C020F003C021F004C0C4
:104AB20022F0BCEC20F01FC040F020C041F021C029
:104AC20042F022C043F0000E446E000E456E800E8E
:104AD200466E440E476E05EC1DF040C0C2F141C067
:104AE200C3F142C0C4F143C0C5F1C2C13CF0C3C16D
:104AF2003DF0C4C13EF0C5C13FF0000E386E000E5D
:104B0200396EA00E3A6E400E3B6E46EC0EF038C087
:104B120040F039C041F03AC042F03BC043F0C2C15C
:104B220044F0C3C145F0C4C146F0C5C147F005EC2D
:104B32001DF040C0C6F141C0C7F142C0C8F143C038
:104B4200C9F10A0E236ED70E246EA30E256E3C0EFB
:104B5200266E000E136E000E146EA00E156EC10EA0
:104B6200166E2CC20FF02DC210F02EC211F02FC201
:104B720012F0CFEC22F00FC01FF010C020F011C0D5
:104B820021F012C022F0BCEC20F01FC0BCF120C00A
:104B9200BDF121C0BEF122C0BFF1BCC10FF0BDC149
:104BA20010F0BEC111F0BFC112F0000E136E000E64
:104BB200146E800E156E3F0E166ECFEC22F00FC0F3
:104BC200B8F110C0B9F111C0BAF112C0BBF1C6C13F
:104BD20040F0C7C141F0C8C142F0C9C143F0B8C1F9
:104BE20044F0B9C145F0BAC146F0BBC147F005EC8B
:104BF2001DF040C0C6F141C0C7F142C0C8F143C078
:104C0200C9F1C6C140F0C7C141F0C8C142F0C9C133
:104C120043F091C244F092C245F093C246F094C26E
:104C220047F005EC1DF040C0D8F141C0D9F142C0B7
:104C3200DAF143C0DBF1D8C140F0D9C141F0DAC1A9
:104C420042F0DBC143F0CD0E446ECC0E456ECC0E6D
:104C5200466E3D0E476EFBEC12F0D8B033EF26F0F5
:104C620035EF26F06CEF26F0000E0001646F000EA7
:104C7200656F800E666FBF0E676FD8C160F0D9C1D5
:104C820061F0DAC162F0DBC163F09FEC2CF060C02E
:104C9200D0F161C0D1F162C0D2F163C0D3F1D0C111
:104CA2001FF0D1C120F0D2C121F0D3C122F0000EF9
:104CB200236E400E246E9C0E256E450E266EBCECB5
:104CC20020F01FC0D4F120C0D5F121C0D6F122C0FE
:104CD200D7F1F1EF26F0D8C140F0D9C141F0DAC1E5
:104CE20042F0DBC143F0000E446E000E456E000E32
:104CF200466E3F0E476EFBEC12F0D8B083EF26F003
:104D020085EF26F0BCEF26F0000E0001646F000E66
:104D1200656FC00E666FBF0E676FD8C160F0D9C1F4
:104D220061F0DAC162F0DBC163F09FEC2CF060C08D
:104D3200D0F161C0D1F162C0D2F163C0D3F1D0C170
:104D42001FF0D1C120F0D2C121F0D3C122F0000E58
:104D5200236E000E246E7A0E256E440E266EBCEC77
:104D620020F01FC0D4F120C0D5F121C0D6F122C05D
:104D7200D7F1F1EF26F0000E0001646F000E656FAF
:104D8200000E666FC00E676FD8C160F0D9C161F0C6
:104D9200DAC162F0DBC163F09FEC2CF060C0D0F1AD
:104DA20061C0D1F162C0D2F163C0D3F1D0C11FF0B2
:104DB200D1C120F0D2C121F0D3C122F0000E236E66
:104DC200000E246EC80E256E420E266EBCEC20F03C
:104DD2001FC0D4F120C0D5F121C0D6F122C0D7F135
:104DE2000101D7BFF9EF26F0F7EF26F001EF27F028
:104DF200000ED46F000ED56F000ED66F000ED76F67
:104E0200000E406E400E416E1C0E426E460E436E08
:104E1200D4C144F0D5C145F0D6C146F0D7C147F060
:104E2200FBEC12F0D8B018EF27F01AEF27F023EFBF
:104E320027F0000E0101D46F400ED56F1C0ED66F05
:104E4200460ED76F0001FF51040D000EF324D96EF8
:104E5200020EF420DA6ED4C1DEFFD5C1DEFFD6C168
:104E6200DEFFD7C1DEFF010EFF25016E026A000ED2
:104E72000222000E046E050E036E0EEC11F00150BC
:104E82000001FF6F000E0101CA6F000ECB6F000E12
:104E9200CC6F000ECD6F000ECF6F000ECE6FCAC169
:104EA2000FF0CBC110F0CCC111F0CDC112F0000E49
:104EB2000001D86F020ED96FD8900101CE35D96E9C
:104EC200CF35DA6ED890D936DA360001D851D926E4
:104ED200D951DA22DECF13F0DECF14F0DECF15F097
:104EE200DECF16F0CFEC22F00FC0CAF110C0CBF12A
:104EF20011C0CCF112C0CDF10101CE4BCF2BCFBFEF
:104F02008CEF27F0CF5109E1050ECE5DD8A08CEFD2
:104F120027F08EEF27F050EF27F0CAC140F0CBC147
:104F220041F0CCC142F0CDC143F0000E446E000E00
:104F3200456EA00E466E400E476E05EC1DF040C059
:104F420020F241C021F242C022F243C023F21200F9
:104F52000001976B71C098F072C099F073C09AF01B
:104F620074C09BF09BBFBAEF27F0B8EF27F0CEEFEB
:104F720027F0010E976F98C001F099C002F09AC015
:104F820003F09BC004F0AAEC0DF001C098F002C03F
:104F920099F003C09AF004C09BF0000E00019D6FCF
:104FA200000E9C6F32C287F033C288F09751D8B49A
:104FB200DDEF27F0DFEF27F0F3EF27F09751D8A4CA
:104FC200E5EF27F0E7EF27F0EDEF27F0000E7D6F1A
:104FD2002B0E7C6FF1EF27F0000E7D6F2D0E7C6F94
:104FE2007CC097F098C001F099C002F09AC003F01B
:104FF2009BC004F07CEC12F001040210D8A404EF70
:1050020028F006EF28F037EF28F000019751D8B4C6
:105012000DEF28F00FEF28F018EF28F097C036F2C6
:105022008707D8A08807000E9D6F010E9C6F360E71
:105032009C25016E020E9D21026EF20E036E7F0E02
:10504200046EC6EC0DF00001FD0E8727FF0E8823CB
:1050520070C00FF0360E106E020E116E87C012F085
:1050620088C013F033EC0FF09EEF2CF098C001F0E3
:1050720099C002F09AC003F09BC004F07CEC12F0DD
:1050820001500210D8A448EF28F04AEF28F06AEF46
:1050920028F000019751D8B451EF28F053EF28F0CF
:1050A2005CEF28F097C036F28707D8A08807000E79
:1050B2009D6F010E9C6F360E9C25016E020E9D2186
:1050C200026EF60E036E7F0E046EC6EC0DF024EF38
:1050D20028F0000E00019E6F000E9F6F800EA06FE1
:1050E2003F0EA16F000E866F000E856F98C001F013
:1050F20099C002F09AC003F09BC004F0000E056E46
:10510200000E066E000E076E000E086E0CEC10F01C
:10511200D8B08EEF28F090EF28F06FEF29F09DEFD6
:1051220028F089C09EF08AC09FF08BC0A0F08CC08E
:10513200A1F00001854B862B9EC01FF09FC020F07E
:10514200A0C021F0A1C022F0000E236E000E246E3A
:10515200200E256E410E266EBCEC20F01FC089F099
:1051620020C08AF021C08BF022C08CF0000189514E
:10517200985D016E8A519959026E8B519A59036E4C
:105182008C519B59046ED9EC0EF004BED4EF28F07A
:1051920004500310021009E1020E015CD8A0D4EF02
:1051A20028F0D6EF28F092EF28F089C040F08AC0AC
:1051B20041F08BC042F08CC043F098C044F099C0DB
:1051C20045F09AC046F09BC047F0FBEC12F0D8A025
:1051D200EDEF28F0EFEF28F092EF28F000019E515A
:1051E200985D016E9F519959026EA0519A59036EB2
:1051F200A1519B59046ED9EC0EF004BE0EEF29F0BA
:1052020004500310021007E1020E015CD8B00CEF4B
:1052120029F00EEF29F056EF29F09EC098F09FC0BA
:1052220099F0A0C09AF0A1C09BF06FEF29F09EC048
:1052320040F09FC041F0A0C042F0A1C043F0000E78
:10524200446E000E456E200E466E410E476E05EC12
:105252001DF040C09EF041C09FF042C0A0F043C08C
:10526200A1F000018507D8A086079E51985D016EC6
:105272009F519959026EA0519A59036EA1519B599F
:10528200046ED9EC0EF004BE54EF29F00450031062
:10529200021007E1020E015CD8B052EF29F054EF80
:1052A20029F056EF29F00EEF29F098C040F099C08E
:1052B20041F09AC042F09BC043F09EC044F09FC0B0
:1052C20045F0A0C046F0A1C047F0FBEC12F0D8A018
:1052D2006DEF29F06FEF29F018EF29F075C07FF01C
:1052E2007FC080F00001FEBF79EF29F07BEF29F04B
:1052F20081EF29F0FDC078F0FEC079F085EF29F04A
:10530200000E796F060E786F78C083F079C084F052
:10531200834B842B660E8019D8A492EF29F094EF68
:1053220029F0B4EF29F086BF9BEF29F099EF29F01D
:10533200A7EF29F0000E9E6F000E9F6F800EA06FE8
:105342003F0EA16F000E866F000E856F670E7F19EC
:10535200D8B4AEEF29F0B0EF29F0B4EF29F08551BF
:10536200832786518423000E8E6F000E8D6F98C0A6
:105372008FF099C090F09AC091F09BC092F09EC0BD
:1053820089F09FC08AF0A0C08BF0A1C08CF045EFDD
:105392002AF08FC040F090C041F091C042F092C01C
:1053A20043F09EC044F09FC045F0A0C046F0A1C0AB
:1053B20047F005EC1DF040C059F041C05AF042C020
:1053C2005BF043C05CF014EC17F059C093F05AC084
:1053D20094F05BC095F05CC096F093C001F094C06D
:1053E20002F095C003F096C004F07DEC13F001C00A
:1053F20081F002C082F08FC038F090C039F091C0C5
:105402003AF092C03BF093C023F094C024F095C0D0
:1054120025F096C026F09EC01FF09FC020F0A0C0CD
:1054220021F0A1C022F0BCEC20F01FC03CF020C053
:105432003DF021C03EF022C03FF046EC0EF038C0F5
:105442008FF039C090F03AC091F03BC092F09EC00C
:1054520040F09FC041F0A0C042F0A1C043F0000E56
:10546200446E000E456E200E466E410E476E05ECF0
:105472001DF040C09EF041C09FF042C0A0F043C06A
:10548200A1F000018D4B8E2B83518D5D8E51800AD0
:105492005D6E8451800A5D58D8A052EF2AF054EF15
:1054A2002AF0CAEF29F09EC01FF09FC020F0A0C0D2
:1054B20021F0A1C022F0000E236E000E246EA00E79
:1054C200256E400E266EBCEC20F01FC093F020C06B
:1054D20094F021C095F022C096F08FC040F090C0A9
:1054E20041F091C042F092C043F093C044F094C0A6
:1054F20045F095C046F096C047F0FBEC12F0D8B0EC
:1055020085EF2AF087EF2AF092EF2AF0000E0001D1
:10551200936F000E946F000E956F000E966FBBEFA7
:105522002AF08FC001F090C002F091C003F092C047
:1055320004F093C005F094C006F095C007F096C041
:1055420008F00CEC10F0D8A0A9EF2AF0ABEF2AF08B
:10555200BBEF2AF0000181B1B1EF2AF0B3EF2AF0DC
:10556200BBEF2AF0000E936F000E946F000E956F42
:10557200000E966F98C00FF099C010F09AC011F00B
:105582009BC012F093C013F094C014F095C015F0B4
:1055920096C016F0CFEC22F00FC08FF010C090F042
:1055A20011C091F012C092F08FC040F090C041F053
:1055B20091C042F092C043F0000E236E000E246EA2
:1055C200200E256E410E266E89C01FF08AC020F083
:1055D2008BC021F08CC022F0BCEC20F01FC044F044
:1055E20020C045F021C046F022C047F0FBEC12F08B
:1055F200D8A0FEEF2AF000EF2BF029EF2BF00001EC
:10560200854B862B89C01FF08AC020F08BC021F009
:105612008CC022F0000E236E000E246E200E256E2A
:10562200410E266EBCEC20F01FC089F020C08AF02B
:1056320021C08BF022C08CF0660E00018019D8A424
:1056420025EF2BF027EF2BF029EF2BF0834B842B48
:1056520089C09EF08AC09FF08BC0A0F08CC0A1F0E0
:1056620085C076F086C077F000017E6B000E7B6FFE
:10567200000E7A6F000E8E6F000E8D6F26EF2CF0EB
:105682008FC040F090C041F091C042F092C043F010
:105692009EC044F09FC045F0A0C046F0A1C047F0B4
:1056A20005EC1DF040C059F041C05AF042C05BF019
:1056B20043C05CF014EC17F059C093F05AC094F058
:1056C2005BC095F05CC096F093C001F094C002F00C
:1056D20095C003F096C004F07DEC13F002BE7DEF9E
:1056E2002BF0025007E10A0E015CD8B07BEF2BF0E1
:1056F2007DEF2BF08DEF2BF093C001F094C002F000
:1057020095C003F096C004F07DEC13F001C081F067
:1057120002C082F092EF2BF0000E0001826F090EA0
:10572200816F00017E51D8A499EF2BF09BEF2BF0F3
:10573200C3EF2BF077BFA2EF2BF0A0EF2BF0C3EF5C
:105742002BF0360E9C25D96E020E9D21DA6E2E0E9E
:10575200DF6E9C4B9D2B8707D8A08807010E7E6FBA
:10576200C3EF2BF0360E9C25D96E020E9D21DA6E08
:10577200300EDF6E9C4B9D2B8707D8A088077A07D7
:10578200D8A07B077A517B11D8A4CAEF2BF0CCEFBB
:105792002BF0B3EF2BF0360E9C25D96E020E9D2115
:1057A200DA6E8151300FDF6E9C4B9D2B8707D8A09C
:1057B20088078FC038F090C039F091C03AF092C09B
:1057C2003BF093C023F094C024F095C025F096C01E
:1057D20026F09EC01FF09FC020F0A0C021F0A1C003
:1057E20022F0BCEC20F01FC03CF020C03DF021C0F4
:1057F2003EF022C03FF046EC0EF038C08FF039C0C8
:1058020090F03AC091F03BC092F09EC040F09FC031
:1058120041F0A0C042F0A1C043F0000E446E000E61
:10582200456E200E466E410E476E05EC1DF040C0DF
:105832009EF041C09FF042C0A0F043C0A1F0000121
:105842007607D8A077078D4B8E2B83518D5D8E51B5
:10585200800A5D6E8451800A5D58D8B033EF2CF017
:1058620035EF2CF043EF2CF09DBF41EF2CF09D5112
:1058720009E14B0E9C5DD8A041EF2CF043EF2CF0D8
:1058820041EF2BF0000E8E6F4F0E8D6F360E8D2571
:10589200D96E020E8E21DA6EDF6A360E5D6E020E50
:1058A2005E6E9C515D5E9D515E5A8D515D24016E0E
:1058B2008E515E20026E360E036E020E046E9CC086
:1058C20005F09DC006F0B1EC0EF000019C518D5D1B
:1058D2009C6F9D518E599D6F9751D8A473EF2CF0F8
:1058E20076EF2CF0010E77EF2CF0000E8D6F8E6BA1
:1058F2009751D8B47FEF2CF081EF2CF08CEF2CF085
:105902009C07D8A09D07360E9C25D96E020E9D21BC
:10591200DA6E97C0DFFF8D51875F8E51885B70C052
:105922000FF0360E9C25106E020E9D21116E87C05F
:1059320012F088C013F033EC0FF0120060C068F16F
:1059420061C069F162C06AF163C06BF164C084F145
:1059520065C085F166C086F167C087F1FF0E01015F
:105962006815AC6FFF0E6915AD6FFF0E6A15AE6F4D
:105972007F0E6B15AF6FFF0E8415946FFF0E8515AA
:10598200956FFF0E8615966F7F0E8715976F945150
:10599200951196119711D8A4D1EF2CF0D3EF2CF0DA
:1059A200DEEF2CF0000E0001606F000E616F800EC2
:1059B200626F3F0E636FF8EF3EF0800E6A1909E1E5
:1059C2003F0E6B1968116911D8A4EAEF2CF0ECEFC5
:1059D2002CF0F7EF2CF0000E0001606F000E616FEB
:1059E200800E626F3F0E636FF8EF3EF0AFBF08EFBD
:1059F2002DF0AC05000EAD59800EAE597F0EAF5999
:105A0200D8B006EF2DF008EF2DF019EF2DF097BF6B
:105A120017EF2DF09405000E9559800E96597F0EC2
:105A22009759D8A017EF2DF019EF2DF035EF2DF083
:105A320060C00FF061C010F062C011F063C012F0DC
:105A420064C013F065C014F066C015F067C016F0AC
:105A5200CFEC22F00FC060F010C061F011C062F014
:105A620012C063F0F8EF3EF0000E546F000E556F57
:105A7200000E566F000E576F6BBF44EF2DF042EFD2
:105A82002DF010EF2EF097BF50EF2DF0800E965DA7
:105A92004B0E9759D8A050EF2DF052EF2DF05CEF3E
:105AA2002DF0020E546F000E556F000E566F000E51
:105AB200576F10EF2EF097BF68EF2DF0800E965DB6
:105AC2003F0E9759D8A068EF2DF06AEF2DF010EF36
:105AD2002EF0170E0001686F94C169F095C16AF04B
:105AE20096C16BF097C16CF068677AEF2DF082EF88
:105AF2002DF06C356C336B336A336933682F75EF75
:105B02002DF0810E000169250101A46FFF0E000135
:105B12006A210101A56FFF0E00016B210101A66F31
:105B2200FF0E00016C210101A76FA45117080001AB
:105B3200686F94C169F095C16AF096C16BF097C124
:105B42006CF06867A7EF2DF0AFEF2DF06C356C337A
:105B52006B336A336933682FA2EF2DF069C0A8F165
:105B62006AC0A9F16BC0AAF16CC0ABF10101A451EA
:105B720017080001686FA8C169F0A9C16AF0AAC13B
:105B82006BF0ABC16CF0682BCCEF2DF0D89069377D
:105B92006A376B376C37682FC7EF2DF001019451CC
:105BA2000001691913E10101955100016A190EE121
:105BB2000101965100016B1909E1010197510001A0
:105BC2006C19D8A4E7EF2DF0E9EF2DF010EF2EF0CD
:105BD200010E0101A8150001686F000E0101A9154F
:105BE2000001696F000E0101AA1500016A6F000E23
:105BF2000101AB1500016B6F685102080101546F7E
:105C0200000E000169550101556F000E00016A5531
:105C12000101566F000E00016B550101576F800E96
:105C22000101961909E17F0E971994119511D8A4D3
:105C32001DEF2EF01FEF2EF08BEF2EF0800EAE191F
:105C420009E13F0EAF19AC11AD11D8A42BEF2EF024
:105C52002DEF2EF038EF2EF0000E0001606F000ED7
:105C6200616F800E626F3F0E636FF8EF3EF0AFBF61
:105C720047EF2EF0AC05000EAD59800EAE593F0E27
:105C8200AF59D8A047EF2EF049EF2EF065EF2EF076
:105C920087BF50EF2EF04EEF2EF05BEF2EF0000E8E
:105CA2000001606F000E616F000E626F000E636F85
:105CB200F8EF3EF064C060F065C061F066C062F06B
:105CC20067C063F0F8EF3EF087BF6CEF2EF06AEF2B
:105CD2002EF080EF2EF064C001F065C002F066C0C5
:105CE20003F067C004F0AAEC0DF001C060F002C03E
:105CF20061F003C062F004C063F0F8EF3EF0000E02
:105D02000001606F000E616F000E626F000E636F24
:105D1200F8EF3EF0800E961909E13F0E97199411A3
:105D22009511D8A497EF2EF099EF2EF0C6EF2EF032
:105D320087BFA0EF2EF09EEF2EF0BCEF2EF0000EEC
:105D4200406E000E416E800E426E3F0E436E60C08A
:105D520044F061C045F062C046F063C047F005EC14
:105D62001DF040C060F041C061F042C062F043C02B
:105D720063F0F8EF3EF060C060F061C061F062C0B5
:105D820062F063C063F0F8EF3EF0400E87198411B1
:105D920085118611D8A4D0EF2EF0D2EF2EF0EEEFBF
:105DA2002EF060C01FF061C020F062C021F063C01D
:105DB20022F060C023F061C024F062C025F063C00D
:105DC20026F0BCEC20F01FC060F020C061F021C0C2
:105DD20062F022C063F0F8EF3EF03F0E87198411A3
:105DE20085118611D8A4F8EF2EF0FAEF2EF015EFF8
:105DF2002FF06BBFFFEF2EF001EF2FF015EF2FF01A
:105E020060C001F061C002F062C003F063C004F040
:105E1200CDEC1EF001C060F002C061F003C062F080
:105E220004C063F0F8EF3EF0ACC178F1ADC179F196
:105E3200AEC17AF1AFC17BF1800EAE190BE17F0EDC
:105E4200AF19AC11AD11D8B429EF2FF02BEF2FF011
:105E520044EF2FF0AC51AD11AE11AF11D8B434EF05
:105E62002FF036EF2FF044EF2FF0800EAE1909E13C
:105E72003F0EAF19AC11AD11D8A442EF2FF044EF91
:105E82002FF0DFEF2FF078C1B4F179C1B5F17AC10B
:105E9200B6F17BC1B7F187BF53EF2FF051EF2FF06F
:105EA2006DEF2FF0000E406E000E416E800E426EBE
:105EB2003F0E436EB4C144F0B5C145F0B6C146F0E1
:105EC200B7C147F005EC1DF040C0B4F141C0B5F1D7
:105ED20042C0B6F143C0B7F101016BBF75EF2FF0BD
:105EE20073EF2FF0D5EF2FF0000EAC250001686F95
:105EF200000E0101AD210001696F800E0101AE218A
:105F020000016A6FC00E0101AF2100016B6F010138
:105F12005451000168116C6F010155510001691162
:105F22006D6F0101565100016A116E6F01015751E7
:105F320000016B116F6F6C516D116E116F11D8A44E
:105F4200A5EF2FF0A7EF2FF0B7EF2FF0000E020111
:105F5200316F210E306FFF0E0101B46FFF0EB56F6E
:105F6200FF0EB66F7F0EB76FD5EF2FF0010154050C
:105F7200551156115711D8A4C1EF2FF0C3EF2FF0CE
:105F8200D5EF2FF0B4C101F0B5C102F0B6C103F0F4
:105F9200B7C104F0AAEC0DF001C0B4F102C0B5F132
:105FA20003C0B6F104C0B7F1B4C160F0B5C161F08D
:105FB200B6C162F0B7C163F0F8EF3EF0000E646F55
:105FC200000E656F000E666F000E676F6BBFEEEF1F
:105FD2002FF0ECEF2FF00EEF30F054515511561117
:105FE2005711D8A4F7EF2FF0F9EF2FF0FBEF2FF0B6
:105FF200A7EF2FF05405551156115711D8A404EFED
:1060020030F006EF30F00EEF30F0000E646F000E4D
:10601200656F000E666F800E676F97BF1DEF30F0E1
:106022009405000E9559000E96594D0E9759D8A019
:106032001DEF30F01FEF30F0E3EF31F0AFBF31EF83
:1060420030F0F80EAC5DFF0EAD597F0EAE593F0E2B
:10605200AF59D8B02FEF30F031EF30F052EF30F0CF
:1060620087BF38EF30F036EF30F047EF30F0000EF8
:1060720001016411B46F000E6511B56F800E6611D7
:10608200B66F7F0E6711B76FD5EF2FF0000E0001CC
:10609200606F000E616F000E626F000E636FF8EFAB
:1060A2003EF0AFBF62EF30F0080EAC5D000EAD59AE
:1060B200800EAE593F0EAF59D8A062EF30F064EFB8
:1060C20030F080EF30F087BF71EF30F087518611EA
:1060D200851108E18405D8A071EF30F073EF30F03C
:1060E20075EF30F038EF30F0000E0001606F000EF7
:1060F200616F000E626F000E636FF8EF3EF078C1C1
:106102000FF079C110F07AC111F07BC112F0000ECC
:10611200136E000E146E800E156EBF0E166ECFEC4F
:1061220022F00FC0B0F110C0B1F111C0B2F112C033
:10613200B3F1000E236E000E246E800E256E3E0E0D
:10614200266EB0C11FF0B1C120F0B2C121F0B3C1BF
:1061520022F0BCEC20F01FC03CF020C03DF021C07A
:106162003EF022C03FF0AB0E386EAA0E396EAA0E78
:106172003A6E3E0E3B6E46EC0EF038C048F139C026
:1061820049F13AC04AF13BC04BF1B0C123F0B1C171
:1061920024F0B2C125F0B3C126F0B0C11FF0B1C1E5
:1061A20020F0B2C121F0B3C122F0BCEC20F01FC03C
:1061B20058F120C059F121C05AF122C05BF1B0C19F
:1061C20023F0B1C124F0B2C125F0B3C126F048C119
:1061D2001FF049C120F04AC121F04BC122F0BCECB2
:1061E20020F01FC03CF020C03DF021C03EF022C094
:1061F2003FF0000E386E000E396E000E3A6E3F0E02
:106202003B6E46EC0EF038C04CF139C04DF13AC04D
:106212004EF13BC04FF158C11FF059C120F05AC195
:1062220021F05BC122F04CC123F04DC124F04EC1DC
:1062320025F04FC126F0BCEC20F01FC044F120C075
:1062420045F121C046F122C047F1B0C11FF0B1C1F2
:1062520020F0B2C121F0B3C122F0000E236EAA0ECB
:10626200246EB80E256E3F0E266EBCEC20F01FC0C9
:106272007CF120C07DF121C07EF122C07FF1700E41
:10628200236EA50E246EEC0E256E360E266EB0C160
:106292001FF0B1C120F0B2C121F0B3C122F0BCECB9
:1062A20020F01FC038F020C039F021C03AF022C0DF
:1062B2003BF03B0E236EAA0E246EB80E256E3F0EE7
:1062C200266E44C11FF045C120F046C121F047C1EE
:1062D20022F0BCEC20F01FC03CF020C03DF021C0F9
:1062E2003EF022C03FF046EC0EF038C080F139C0DB
:1062F20081F13AC082F13BC083F17CC10FF07DC1D4
:1063020010F07EC111F07FC112F080C113F081C183
:1063120014F082C115F083C116F0CFEC22F00FC049
:106322008CF110C08DF111C08EF112C08FF18CC1B1
:1063320098F18DC199F18EC19AF18FC19BF1000E36
:10634200010198158C6FF00E99158D6FFF0E9A153D
:106352008E6FFF0E9B158F6F7CC13CF07DC13DF0AF
:106362007EC13EF07FC13FF08CC138F08DC139F063
:106372008EC13AF08FC13BF046EC0EF038C09CF172
:1063820039C09DF13AC09EF13BC09FF180C138F007
:1063920081C139F082C13AF083C13BF09CC13CF02B
:1063A2009DC13DF09EC13EF09FC13FF046EC0EF014
:1063B20038C01CF139C01DF13AC01EF13BC01FF1BB
:1063C200F1EF38F0000E886F000E896F000E8A6FB1
:1063D200000E8B6FAFBFF9EF31F0AF5107E1800EC6
:1063E200AE5DD8B0F7EF31F0F9EF31F024EF32F0D3
:1063F20078C11FF079C120F07AC121F07BC122F06F
:10640200000E236E000E246E800E256E4B0E266E3D
:10641200BCEC20F01FC078F120C079F121C07AF1E4
:1064220022C07BF1E80E01018827FF0E8923FF0EAF
:106432008A23FF0E8B2378C1ACF179C1ADF17AC109
:10644200AEF17BC1AFF1170E0001686FACC169F00C
:10645200ADC16AF0AEC16BF0AFC16CF0686734EFEA
:1064620032F03CEF32F06C356C336B336A336933A4
:10647200682F2FEF32F0810E000169256D6FFF0E3C
:106482006A216E6FFF0E6B216F6FFF0E6C21706FB2
:106492006D510101882700016E510101892300011C
:1064A2006F5101018A230001705101018B23FF0EFC
:1064B200AC15A86FFF0EAD15A96F7F0EAE15AA6FB2
:1064C200000EAF15AB6F000EA46F000EA56F000E8D
:1064D200A66F000EA76F000EA811AC6F000EA911D7
:1064E200AD6F800EAA11AE6F3F0EAB11AF6FABBF97
:1064F2008AEF32F0AB510BE1720EA85DC40EA959BE
:106502001C0EAA59D8B088EF32F08AEF32F08CEF25
:1065120032F0B6EF32F0ABBF9EEF32F0AB510BE18F
:10652200D70EA85DB30EA9595D0EAA59D8B09CEF3B
:1065320032F09EEF32F0A8EF32F0010EA46F000E9F
:10654200A56F000EA66F000EA76FB6EF32F0010E18
:106552008827000E89238A238B23000EAC27000E86
:10656200AD23800EAE23FF0EAF23ACC178F1ADC1D7
:1065720079F1AEC17AF1AFC17BF178C138F079C15E
:1065820039F07AC13AF07BC13BF0A4C168F0A5C1F1
:1065920069F00001D89068376937D8906837693751
:1065A200030E6825F66E7E0E6921F76E0900F5CF9F
:1065B2003CF00900F5CF3DF00900F5CF3EF00A00AE
:1065C200F5CF3FF046EC0EF038C07CF139C07DF1DA
:1065D2003AC07EF13BC07FF1000E406E000E416E6C
:1065E200800E426E3F0E436E78C113F079C114F0F3
:1065F2007AC115F07BC116F0A4C168F0A5C169F09B
:106602000001D89068376937D89068376937030E28
:106612006825F66E7E0E6921F76E0900F5CF0FF040
:106622000900F5CF10F00900F5CF11F00A00F5CFFF
:1066320012F0CFEC22F00FC044F010C045F011C0B0
:1066420046F012C047F005EC1DF040C080F141C099
:1066520081F142C082F143C083F17CC11FF07DC150
:1066620020F07EC121F07FC122F080C123F081C1E0
:1066720024F082C125F083C126F0BCEC20F01FC0BB
:1066820060F120C061F121C062F122C063F160C1FA
:1066920074F161C175F162C176F163C177F174C1C0
:1066A20098F175C199F176C19AF177C19BF1000E0B
:1066B20001019815746FF00E9915756FFF0E9A15FA
:1066C200766FFF0E9B15776FACC168F0ADC169F0B4
:1066D200AEC16AF0AFC16BF000016B356B336A3348
:1066E20069336833000E68156C6FF00E69156D6FB3
:1066F200FF0E6A156E6FFF0E6B156F6F000E6C1139
:106702000101986F000E00016D110101996F000ED9
:1067120000016E1101019A6F200E00016F1101013B
:106722009B6FA4C168F0A5C169F0A6C16AF0A7C1B8
:106732006BF0150ED8900001683769376A376B37EE
:10674200E82E9BEF33F001019851000168256C6F30
:1067520001019951000169216D6F01019A510001F6
:106762006A216E6F01019B5100016B216F6F000E58
:106772006C250101706F000E00016D210101716F26
:10678200400E00016E210101726F000E00016F21A7
:106792000101736FA4C168F0A5C169F00001D8902E
:1067A20068376937D89068376937030E6825F66EFF
:1067B2007E0E6921F76E0900F5CF3CF00900F5CF96
:1067C2003DF00900F5CF3EF00A00F5CF3FF070C171
:1067D20038F071C139F072C13AF073C13BF046EC46
:1067E2000EF038C09CF139C09DF13AC09EF13BC019
:1067F2009FF178C138F079C139F07AC13AF07BC1A2
:106802003BF09CC13CF09DC13DF09EC13EF09FC15A
:106812003FF046EC0EF038C034F139C035F13AC0E1
:1068220036F13BC037F170C123F071C124F072C15F
:1068320025F073C126F074C11FF075C120F076C136
:1068420021F077C122F0BCEC20F01FC03CF020C048
:106852003DF021C03EF022C03FF07CC138F07DC146
:1068620039F07EC13AF07FC13BF046EC0EF038C001
:106872009CF139C09DF13AC09EF13BC09FF134C1F9
:1068820023F035C124F036C125F037C126F074C19A
:106892001FF075C120F076C121F077C122F0BCEC67
:1068A20020F01FC03CF020C03DF021C03EF022C0CD
:1068B2003FF09CC138F09DC139F09EC13AF09FC1B2
:1068C2003BF046EC0EF038C058F139C059F13AC0ED
:1068D2005AF13BC05BF158C11FF059C120F05AC1B7
:1068E20021F05BC122F080C123F081C124F082C17A
:1068F20025F083C126F0BCEC20F01FC030F120C08F
:1069020031F121C032F122C033F160C11FF061C107
:1069120020F062C121F063C122F060C123F061C1A5
:1069220024F062C125F063C126F0BCEC20F01FC048
:1069320090F120C091F121C092F122C093F1550E45
:10694200136E320E146E6C0E156E3E0E166E420EE5
:10695200236EF10E246E530E256E3E0E266E90C1EE
:106962001FF091C120F092C121F093C122F0BCEC42
:1069720020F01FC00FF020C010F021C011F022C083
:1069820012F0CFEC22F00FC048F110C049F111C053
:106992004AF112C04BF1050E136EA30E146E8B0E4C
:1069A200156E3E0E166E90C123F091C124F092C175
:1069B20025F093C126F048C11FF049C120F04AC119
:1069C20021F04BC122F0BCEC20F01FC00FF020C020
:1069D20010F021C011F022C012F0CFEC22F00FC053
:1069E20058F110C059F111C05AF112C05BF1AB0E4F
:1069F200136EAA0E146EAA0E156E3E0E166E90C17E
:106A020023F091C124F092C125F093C126F058C120
:106A12001FF059C120F05AC121F05BC122F0BCEC39
:106A220020F01FC00FF020C010F021C011F022C0D2
:106A320012F0CFEC22F00FC04CF110C04DF111C09A
:106A42004EF112C04FF1B70E136E6D0E146EDB0EC7
:106A5200156E3E0E166E90C123F091C124F092C1C4
:106A620025F093C126F04CC11FF04DC120F04EC15C
:106A720021F04FC122F0BCEC20F01FC00FF020C06B
:106A820010F021C011F022C012F0CFEC22F00FC0A2
:106A920038F110C039F111C03AF112C03BF19A0E2F
:106AA200136E990E146E190E156E3F0E166E90C16E
:106AB20023F091C124F092C125F093C126F038C190
:106AC2001FF039C120F03AC121F03BC122F0BCECE9
:106AD20020F01FC00FF020C010F021C011F022C022
:106AE20012F0CFEC22F00FC000F110C001F111C082
:106AF20002F112C003F190C123F091C124F092C1BE
:106B020025F093C126F090C11FF091C120F092C1EF
:106B120021F093C122F0BCEC20F01FC004F120C090
:106B220005F121C006F122C007F100C11FF001C129
:106B320020F002C121F003C122F004C123F005C1FB
:106B420024F006C125F007C126F0BCEC20F01FC0DE
:106B520050F120C051F121C052F122C053F130C195
:106B620023F031C124F032C125F033C126F060C1D7
:106B720013F061C114F062C115F063C116F074C163
:106B82000FF075C110F076C111F077C112F0CFECA1
:106B920022F00FC01FF010C020F011C021F012C06F
:106BA20022F0BCEC20F01FC05CF120C05DF121C0DE
:106BB2005EF122C05FF150C10FF051C110F052C11D
:106BC20011F053C112F05CC113F05DC114F05EC14B
:106BD20015F05FC116F0CFEC22F00FC050F110C0DB
:106BE20051F111C052F112C053F174C11FF075C1BD
:106BF20020F076C121F077C122F074C123F075C173
:106C020024F076C125F077C126F0BCEC20F01FC03D
:106C120090F120C091F121C092F122C093F1000EB7
:106C2200136E000E146E400E156E400E166E90C15D
:106C32000FF091C110F092C111F093C112F0CFEC9C
:106C420022F00FC05CF110C05DF111C05EF112C004
:106C52005FF15CC10FF05DC110F05EC111F05FC168
:106C620012F050C113F051C114F052C115F053C1CA
:106C720016F0CFEC22F00FC070F110C071F111C00C
:106C820072F112C073F170C198F171C199F172C1C0
:106C92009AF173C19BF1000E01019815706FF00E0D
:106CA2009915716FFF0E9A15726FFF0E9B15736F18
:106CB200000E136E000E146E400E156EC00E166E90
:106CC20070C10FF071C110F072C111F073C112F0F6
:106CD200CFEC22F00FC03CF110C03DF111C03EF1EB
:106CE20012C03FF190C13CF091C13DF092C13EF023
:106CF20093C13FF03CC138F03DC139F03EC13AF09A
:106D02003FC13BF046EC0EF038C040F139C041F1D2
:106D12003AC042F13BC043F150C138F051C139F0A1
:106D220052C13AF053C13BF040C13CF041C13DF089
:106D320042C13EF043C13FF046EC0EF038C034F1A0
:106D420039C035F13AC036F13BC037F174C11FF09A
:106D520075C120F076C121F077C122F070C123F015
:106D620071C124F072C125F073C126F0BCEC20F091
:106D72001FC07CF120C07DF121C07EF122C07FF1D5
:106D820030C123F031C124F032C125F033C126F0E5
:106D920070C11FF071C120F072C121F073C122F0E5
:106DA200BCEC20F01FC00FF020C010F021C011F089
:106DB20022C012F060C123F061C124F062C125F04B
:106DC20063C126F034C11FF035C120F036C121F075
:106DD20037C122F0BCEC20F01FC013F020C014F029
:106DE20021C015F022C016F0CFEC22F00FC080F1C6
:106DF20010C081F111C082F112C083F17CC10FF089
:106E02007DC110F07EC111F07FC112F080C113F07C
:106E120081C114F082C115F083C116F0CFEC22F0CB
:106E22000FC0A0F110C0A1F111C0A2F112C0A3F1D4
:106E3200A0C198F1A1C199F1A2C19AF1A3C19BF19C
:106E4200000E01019815A06FF00E9915A16FFF0EAB
:106E52009A15A26FFF0E9B15A36F7CC13CF07DC1FA
:106E62003DF07EC13EF07FC13FF0A0C138F0A1C12C
:106E720039F0A2C13AF0A3C13BF046EC0EF038C0A3
:106E82009CF139C09DF13AC09EF13BC09FF180C197
:106E920038F081C139F082C13AF083C13BF09CC124
:106EA2003CF09DC13DF09EC13EF09FC13FF046ECDB
:106EB2000EF038C06CF139C06DF13AC06EF13BC0D2
:106EC2006FF1A0C11FF0A1C120F0A2C121F0A3C1A6
:106ED20022F0000E236E400E246E760E256E3F0EBB
:106EE200266EBCEC20F01FC020F120C021F121C091
:106EF20022F122C023F14F0E236E380E246E760E3D
:106F0200256E3F0E266E6CC11FF06DC120F06EC162
:106F120021F06FC122F0BCEC20F01FC013F020C0A2
:106F220014F021C015F022C016F0C60E236E230EF7
:106F3200246EF60E256EB80E266EA0C11FF0A1C1FA
:106F420020F0A2C121F0A3C122F0BCEC20F01FC0AE
:106F52000FF020C010F021C011F022C012F0CFECCF
:106F620022F00FC05CF110C05DF111C05EF112C0E1
:106F72005FF15CC10FF05DC110F05EC111F05FC145
:106F820012F0A4C168F0A5C169F00001D890683779
:106F92006937D89068376937F30E6825F66E7D0E2B
:106FA2006921F76E0900F5CF13F00900F5CF14F04F
:106FB2000900F5CF15F00A00F5CF16F0CFEC22F05C
:106FC2000FC024F110C025F111C026F112C027F123
:106FD20088C101F089C102F08AC103F08BC104F0BB
:106FE200010E3AEC16F001C0B0F102C0B1F103C0DB
:106FF200B2F104C0B3F124C113F025C114F026C1CB
:1070020015F027C116F020C10FF021C110F022C1E6
:1070120011F023C112F0CFEC22F00FC05CF110C0CE
:107022005DF111C05EF112C05FF1A4C168F0A5C1AB
:1070320069F00001D89068376937D89068376937A6
:10704200FB0E6825F66E7D0E6921F76E0900F5CFFD
:1070520013F00900F5CF14F00900F5CF15F00A007E
:10706200F5CF16F05CC10FF05DC110F05EC111F0FA
:107072005FC112F0CFEC22F00FC008F110C009F18D
:1070820011C00AF112C00BF108C10FF009C110F0D2
:107092000AC111F00BC112F0B0C113F0B1C114F06A
:1070A200B2C115F0B3C116F0CFEC22F00FC08CF1D3
:1070B20010C08DF111C08EF112C08FF18CC198F108
:1070C2008DC199F18EC19AF18FC19BF1000E010120
:1070D20098158C6FF00E99158D6FFF0E9A158E6FA5
:1070E200FF0E9B158F6FB0C13CF0B1C13DF0B2C134
:1070F2003EF0B3C13FF08CC138F08DC139F08EC182
:107102003AF08FC13BF046EC0EF038C09CF139C02A
:107112009DF13AC09EF13BC09FF1A4C168F0A5C1A8
:1071220069F00001D89068376937D89068376937B5
:10713200FB0E6825F66E7D0E6921F76E0900F5CF0C
:107142003CF00900F5CF3DF00900F5CF3EF00A0012
:10715200F5CF3FF09CC138F09DC139F09EC13AF0A5
:107162009FC13BF046EC0EF038C040F139C041F10E
:107172003AC042F13BC043F120C13CF021C13DF095
:1071820022C13EF023C13FF040C138F041C139F085
:1071920042C13AF043C13BF046EC0EF038C00CF16C
:1071A20039C00DF13AC00EF13BC00FF124C138F0E5
:1071B20025C139F026C13AF027C13BF00CC13CF0A1
:1071C2000DC13DF00EC13EF00FC13FF046EC0EF096
:1071D20038C01CF139C01DF13AC01EF13BC01FF18D
:1071E20064C098F165C099F166C09AF167C09BF1DD
:1071F200000E010198152C6FF00E99152D6FFF0EE0
:107202009A152E6FFF0E9B152F6F8CC123F08DC127
:1072120024F08EC125F08FC126F02CC13CF02DC187
:107222003DF02EC13EF02FC13FF064C038F065C082
:1072320039F066C03AF067C03BF046EC0EF038C059
:107242001FF039C020F03AC021F03BC022F0BCEC64
:1072520020F01FC010F120C011F121C012F122C094
:1072620013F110C10FF011C110F012C111F013C1CE
:1072720012F01CC123F01DC124F01EC125F01FC154
:1072820026F064C01FF065C020F066C021F067C020
:1072920022F0BCEC20F01FC013F020C014F021C07B
:1072A20015F022C016F0CFEC22F00FC06CF110C026
:1072B2006DF111C06EF112C06FF12CC11FF02DC122
:1072C20020F02EC121F02FC122F08CC123F08DC1FC
:1072D20024F08EC125F08FC126F0BCEC20F01FC037
:1072E200A0F120C0A1F121C0A2F122C0A3F1A0C14E
:1072F2000FF0A1C110F0A2C111F0A3C112F06CC134
:1073020013F06DC114F06EC115F06FC116F0CFEC21
:1073120022F00FC0B4F110C0B5F111C0B6F112C025
:10732200B7F1B4C1A8F1B5C1A9F1B6C1AAF1B7C10B
:10733200ABF10101ABBFAAEF39F0A805000EA959C4
:10734200000EAA59430EAB59D8A0AAEF39F0ACEF00
:1073520039F0AEEF39F038EF30F0430EAB19A81127
:10736200A911AA11D8A4B8EF39F0BAEF39F0F9EFA0
:1073720039F0A0C13CF0A1C13DF0A2C13EF0A3C1D1
:107382003FF0B4C138F0B5C139F0B6C13AF0B7C177
:107392003BF046EC0EF038C040F039C041F03AC044
:1073A20042F03BC043F03C0E136EAA0E146E380E30
:1073B200156E330E166E6CC10FF06DC110F06EC1FA
:1073C20011F06FC112F0CFEC22F00FC044F010C0E8
:1073D20045F011C046F012C047F0FBEC12F0D8B0F5
:1073E200F5EF39F0F7EF39F06CEF3AF038EF30F0B3
:1073F200FF0EA8150001686FFF0E0101A91500011B
:10740200696FFF0E0101AA1500016A6F7F0E01016B
:10741200AB1500016B6F6BBF1BEF3AF06805000EF6
:107422006959160E6A59430E6B59D8A01BEF3AF0F0
:107432001DEF3AF027EF3AF0000E606F000E616F19
:10744200000E626F000E636FF8EF3EF0160E010140
:10745200AA1909E1C30EAB19A811A911D8A434EFD6
:107462003AF036EF3AF06CEF3AF0A0C13CF0A1C12D
:107472003DF0A2C13EF0A3C13FF0B4C138F0B5C1A6
:1074820039F0B6C13AF0B7C13BF046EC0EF038C065
:1074920040F039C041F03AC042F03BC043F06CC109
:1074A20044F06DC145F06EC146F06FC147F0FBEC90
:1074B20012F0D8A05FEF3AF061EF3AF06CEF3AF0D9
:1074C200000E0001606F000E616F000E626F000E11
:1074D200636FF8EF3EF0FF0E0101A815286FFF0E53
:1074E200A915296FFF0EAA152A6F7F0EAB152B6FF8
:1074F200170E0001686F28C169F029C16AF02AC11C
:107502006BF02BC16CF0686789EF3AF091EF3AF0BB
:107512006C356C336B336A336933682F84EF3AF01E
:10752200810E000169250101A46FFF0E00016A218D
:107532000101A56FFF0E00016B210101A66FFF0E75
:1075420000016C210101A76F000E886F000E896F88
:10755200000E8A6F000E8B6F2BBFBCEF3AF028052E
:10756200000E2959000E2A593F0E2B59D8A0BCEF04
:107572003AF0BEEF3AF0BAEF3BF0A4C168F0010E68
:1075820000016827000E696F000E6A6F800E6B6F34
