:0400000007EF00F016
:100008005F82DCED36F090EF35F068C068F169C0CA
:1000180069F16AC06AF16BC06BF16CC084F16DC0A4
:1000280085F16EC086F16FC087F1FF0E010168157A
:10003800AC6FFF0E6915AD6FFF0E6A15AE6F7F0EC0
:100048006B15AF6FFF0E8415946FFF0E8515956FB6
:10005800FF0E8615966F7F0E8715976F9451951131
:1000680096119711D8A43BEF00F03DEF00F048EF50
:1000780000F0000E0001686F000E696F800E6A6F55
:100088003F0E6B6F63EF12F0800E6A1909E13F0EA5
:100098006B1968116911D8A454EF00F056EF00F0FD
:1000A80061EF00F0000E0001686F000E696F800EAE
:1000B8006A6F3F0E6B6F63EF12F0AFBF72EF00F025
:1000C800AC05000EAD59800EAE597F0EAF59D8B0B1
:1000D80070EF00F072EF00F083EF00F097BF81EF50
:1000E80000F09405000E9559800E96597F0E975989
:1000F800D8A081EF00F083EF00F09FEF00F068C018
:1001080041F069C042F06AC043F06BC044F06CC073
:1001180045F06DC046F06EC047F06FC048F067EC20
:100128001DF041C068F042C069F043C06AF044C0A5
:100138006BF063EF12F0000E546F000E556F000E57
:10014800566F000E576F6BBFAEEF00F0ACEF00F0CC
:100158007AEF01F097BFBAEF00F0800E965D4B0E74
:100168009759D8A0BAEF00F0BCEF00F0C6EF00F046
:10017800020E546F000E556F000E566F000E576F2B
:100188007AEF01F097BFD2EF00F0800E965D3F0E38
:100198009759D8A0D2EF00F0D4EF00F07AEF01F031
:1001A800170E0001706F94C171F095C172F096C17D
:1001B80073F097C174F07067E4EF00F0ECEF00F0B3
:1001C80074357433733372337133702FDFEF00F08B
:1001D800810E000171250101A46FFF0E000172213B
:1001E8000101A56FFF0E000173210101A66FFF0E2B
:1001F800000174210101A76FA45117080001706F55
:1002080094C171F095C172F096C173F097C174F002
:10021800706711EF01F019EF01F07435743373331F
:1002280072337133702F0CEF01F071C0A8F172C0F6
:10023800A9F173C0AAF174C0ABF10101A451170868
:100248000001706FA8C171F0A9C172F0AAC173F062
:10025800ABC174F0702B36EF01F0D890713772375C
:1002680073377437702F31EF01F001019451000199
:10027800711913E101019551000172190EE1010193
:1002880096510001731909E1010197510001741990
:10029800D8A451EF01F053EF01F07AEF01F0010E0D
:1002A8000101A8150001706F000E0101A9150001D8
:1002B800716F000E0101AA150001726F000E010195
:1002C800AB150001736F705102080101546F000EE5
:1002D800000171550101556F000E000172550101B1
:1002E800566F000E000173550101576F800E010112
:1002F800961909E17F0E971994119511D8A487EFE3
:1003080001F089EF01F0F5EF01F0800EAE1909E177
:100318003F0EAF19AC11AD11D8A495EF01F097EFCE
:1003280001F0A2EF01F0000E0001686F000E696F86
:10033800800E6A6F3F0E6B6F63EF12F0AFBFB1EFC5
:1003480001F0AC05000EAD59800EAE593F0EAF5905
:10035800D8A0B1EF01F0B3EF01F0CFEF01F087BF04
:10036800BAEF01F0B8EF01F0C5EF01F0000E00019F
:10037800686F000E696F000E6A6F000E6B6F63EF97
:1003880012F06CC068F06DC069F06EC06AF06FC0A2
:100398006BF063EF12F087BFD6EF01F0D4EF01F0F6
:1003A800EAEF01F06CC001F06DC002F06EC003F01E
:1003B8006FC004F0A6EC36F001C068F002C069F026
:1003C80003C06AF004C06BF063EF12F0000E000186
:1003D800686F000E696F000E6A6F000E6B6F63EF37
:1003E80012F0800E961909E13F0E97199411951194
:1003F800D8A401EF02F003EF02F030EF02F087BF5C
:100408000AEF02F008EF02F026EF02F0000E286E65
:10041800000E296E800E2A6E3F0E2B6E68C02CF0DF
:1004280069C02DF06AC02EF06BC02FF0C4EC23F029
:1004380028C068F029C069F02AC06AF02BC06BF0A8
:1004480063EF12F068C068F069C069F06AC06AF0CA
:100458006BC06BF063EF12F0400E871984118511A1
:100468008611D8A43AEF02F03CEF02F058EF02F000
:1004780068C00FF069C010F06AC011F06BC012F0CC
:1004880068C013F069C014F06AC015F06BC016F0AC
:10049800C2EC1FF00FC068F010C069F011C06AF01C
:1004A80012C06BF063EF12F03F0E871984118511AB
:1004B8008611D8A462EF02F064EF02F07FEF02F039
:1004C8006BBF69EF02F06BEF02F07FEF02F068C0DC
:1004D80001F069C002F06AC003F06BC004F0D5EC0B
:1004E80021F001C068F002C069F003C06AF004C0DE
:1004F8006BF063EF12F0ACC178F1ADC179F1AEC128
:100508007AF1AFC17BF1800EAE190BE17F0EAF1906
:10051800AC11AD11D8B493EF02F095EF02F0AEEF45
:1005280002F0AC51AD11AE11AF11D8B49EEF02F08C
:10053800A0EF02F0AEEF02F0800EAE1909E13F0E17
:10054800AF19AC11AD11D8A4ACEF02F0AEEF02F0C8
:1005580049EF03F078C1B4F179C1B5F17AC1B6F1C8
:100568007BC1B7F187BFBDEF02F0BBEF02F0D7EF59
:1005780002F0000E286E000E296E800E2A6E3F0EC5
:100588002B6EB4C12CF0B5C12DF0B6C12EF0B7C199
:100598002FF0C4EC23F028C0B4F129C0B5F12AC06B
:1005A800B6F12BC0B7F101016BBFDFEF02F0DDEF51
:1005B80002F03FEF03F0000EAC250001706F000E53
:1005C8000101AD210001716F800E0101AE21000112
:1005D800726FC00E0101AF210001736F0101545108
:1005E80000017011746F0101555100017111756F8F
:1005F8000101565100017211766F01015751000136
:100608007311776F7451751176117711D8A40FEFA4
:1006180003F011EF03F021EF03F0000E0301496F1F
:10062800210E486FFF0E0101B46FFF0EB56FFF0E6C
:10063800B66F7F0EB76F3FEF03F0010154055511F8
:1006480056115711D8A42BEF03F02DEF03F03FEF0D
:1006580003F0B4C101F0B5C102F0B6C103F0B7C1EF
:1006680004F0A6EC36F001C0B4F102C0B5F103C045
:10067800B6F104C0B7F1B4C168F0B5C169F0B6C14C
:100688006AF0B7C16BF063EF12F0000E646F000EF2
:10069800656F000E666F000E676F6BBF58EF03F053
:1006A80056EF03F078EF03F05451551156115711D6
:1006B800D8A461EF03F063EF03F065EF03F011EFE7
:1006C80003F05405551156115711D8A46EEF03F0D5
:1006D80070EF03F078EF03F0000E646F000E656FA3
:1006E800000E666F800E676F97BF87EF03F0940563
:1006F800000E9559000E96594D0E9759D8A087EFC0
:1007080003F089EF03F04DEF05F0AFBF9BEF03F067
:10071800F80EAC5DFF0EAD597F0EAE593F0EAF59C6
:10072800D8B099EF03F09BEF03F0BCEF03F087BF5D
:10073800A2EF03F0A0EF03F0B1EF03F0000E010108
:100748006411B46F000E6511B56F800E6611B66F37
:100758007F0E6711B76F3FEF03F0000E0001686F5F
:10076800000E696F000E6A6F000E6B6F63EF12F078
:10077800AFBFCCEF03F0080EAC5D000EAD59800E94
:10078800AE593F0EAF59D8A0CCEF03F0CEEF03F02F
:10079800EAEF03F087BFDBEF03F08751861185117D
:1007A80008E18405D8A0DBEF03F0DDEF03F0DFEF0D
:1007B80003F0A2EF03F0000E0001686F000E696FEE
:1007C800000E6A6F000E6B6F63EF12F078C141F094
:1007D80079C142F07AC143F07BC144F0000E456E06
:1007E800000E466E800E476EBF0E486E67EC1DF019
:1007F80041C0B0F142C0B1F143C0B2F144C0B3F15D
:10080800000E136E000E146E800E156E3E0E166EE0
:10081800B0C10FF0B1C110F0B2C111F0B3C112F004
:10082800C2EC1FF00FC055F010C056F011C057F0C1
:1008380012C058F0AB0E516EAA0E526EAA0E536E2D
:100848003E0E546E04EC36F051C048F152C049F1E6
:1008580053C04AF154C04BF1B0C113F0B1C114F008
:10086800B2C115F0B3C116F0B0C10FF0B1C110F0AC
:10087800B2C111F0B3C112F0C2EC1FF00FC058F1B1
:1008880010C059F111C05AF112C05BF1B0C113F098
:10089800B1C114F0B2C115F0B3C116F048C10FF0E0
:1008A80049C110F04AC111F04BC112F0C2EC1FF05F
:1008B8000FC055F010C056F011C057F012C058F0D4
:1008C800000E516E000E526E000E536E3F0E546EA7
:1008D80004EC36F051C04CF152C04DF153C04EF10A
:1008E80054C04FF158C10FF059C110F05AC111F05E
:1008F8005BC112F04CC113F04DC114F04EC115F09C
:100908004FC116F0C2EC1FF00FC044F110C045F102
:1009180011C046F112C047F1B0C10FF0B1C110F0DB
:10092800B2C111F0B3C112F0000E136EAA0E146E0C
:10093800B80E156E3F0E166EC2EC1FF00FC07CF19C
:1009480010C07DF111C07EF112C07FF1700E136EE0
:10095800A50E146EEC0E156E360E166EB0C10FF0A5
:10096800B1C110F0B2C111F0B3C112F0C2EC1FF066
:100978000FC051F010C052F011C053F012C054F023
:100988003B0E136EAA0E146EB80E156E3F0E166E41
:1009980044C10FF045C110F046C111F047C112F033
:1009A800C2EC1FF00FC055F010C056F011C057F040
:1009B80012C058F004EC36F051C080F152C081F1F9
:1009C80053C082F154C083F17CC141F07DC142F033
:1009D8007EC143F07FC144F080C145F081C146F03B
:1009E80082C147F083C148F067EC1DF041C08CF12B
:1009F80042C08DF143C08EF144C08FF18CC198F193
:100A08008DC199F18EC19AF18FC19BF1000E010140
:100A180098158C6FF00E99158D6FFF0E9A158E6FC5
:100A2800FF0E9B158F6F7CC155F07DC156F07EC1BE
:100A380057F07FC158F08CC151F08DC152F08EC172
:100A480053F08FC154F004EC36F051C09CF152C001
:100A58009DF153C09EF154C09FF180C151F081C1F6
:100A680052F082C153F083C154F09CC155F09DC12E
:100A780056F09EC157F09FC158F004EC36F051C0B3
:100A88001CF152C01DF153C01EF154C01FF15BEFA1
:100A98000CF0000E886F000E896F000E8A6F000E32
:100AA8008B6FAFBF63EF05F0AF5107E1800EAE5D0E
:100AB800D8B061EF05F063EF05F08EEF05F078C16F
:100AC8000FF079C110F07AC111F07BC112F0000E5D
:100AD800136E000E146E800E156E4B0E166EC2EC61
:100AE8001FF00FC078F110C079F111C07AF112C06F
:100AF8007BF1E80E01018827FF0E8923FF0E8A2368
:100B0800FF0E8B2378C1ACF179C1ADF17AC1AEF19A
:100B18007BC1AFF1170E0001706FACC171F0ADC1B0
:100B280072F0AEC173F0AFC174F070679EEF05F05C
:100B3800A6EF05F074357433733372337133702F45
:100B480099EF05F0810E00017125756FFF0E722176
:100B5800766FFF0E7321776FFF0E7421786F7551D2
:100B6800010188270001765101018923000177518D
:100B780001018A230001785101018B23FF0EAC1576
:100B8800A86FFF0EAD15A96F7F0EAE15AA6F000EE8
:100B9800AF15AB6F000EA46F000EA56F000EA66F09
:100BA800000EA76F000EA811AC6F000EA911AD6F53
:100BB800800EAA11AE6F3F0EAB11AF6FABBFF4EF53
:100BC80005F0AB510BE1720EA85DC40EA9591C0EBD
:100BD800AA59D8B0F2EF05F0F4EF05F0F6EF05F0FA
:100BE80020EF06F0ABBF08EF06F0AB510BE1D70ED4
:100BF800A85DB30EA9595D0EAA59D8B006EF06F044
:100C080008EF06F012EF06F0010EA46F000EA56FB4
:100C1800000EA66F000EA76F20EF06F0010E8827C2
:100C2800000E89238A238B23000EAC27000EAD23E8
:100C3800800EAE23FF0EAF23ACC178F1ADC179F1C0
:100C4800AEC17AF1AFC17BF178C151F079C152F0F0
:100C58007AC153F07BC154F0A4C170F0A5C171F002
:100C68000001D89070377137D89070377137750E8A
:100C78007025F66E7E0E7121F76E0900F5CF55F0DE
:100C88000900F5CF56F00900F5CF57F00A00F5CF67
:100C980058F004EC36F051C07CF152C07DF153C0DD
:100CA8007EF154C07FF1000E286E000E296E800E72
:100CB8002A6E3F0E2B6E78C145F079C146F07AC195
:100CC80047F07BC148F0A4C170F0A5C171F00001E4
:100CD800D89070377137D89070377137750E702586
:100CE800F66E7E0E7121F76E0900F5CF41F009000E
:100CF800F5CF42F00900F5CF43F00A00F5CF44F0F4
:100D080067EC1DF041C02CF042C02DF043C02EF01E
:100D180044C02FF0C4EC23F028C080F129C081F131
:100D28002AC082F12BC083F17CC10FF07DC110F085
:100D38007EC111F07FC112F080C113F081C114F09F
:100D480082C115F083C116F0C2EC1FF00FC060F12C
:100D580010C061F111C062F112C063F160C174F199
:100D680061C175F162C176F163C177F174C198F11F
:100D780075C199F176C19AF177C19BF1000E010115
:100D88009815746FF00E9915756FFF0E9A15766F9A
:100D9800FF0E9B15776FACC170F0ADC171F0AEC19D
:100DA80072F0AFC173F0000173357333723371336E
:100DB8007033000E7015746FF00E7115756FFF0E9D
:100DC8007215766FFF0E7315776F000E741101019F
:100DD800986F000E000175110101996F000E000156
:100DE800761101019A6F200E0001771101019B6FA6
:100DF800A4C170F0A5C171F0A6C172F0A7C173F0CB
:100E0800150ED89000017037713772377337E82E96
:100E180005EF07F00101985100017025746F010179
:100E2800995100017121756F01019A5100017221D8
:100E3800766F01019B5100017321776F000E7425B5
:100E48000101706F000E000175210101716F400EE4
:100E5800000176210101726F000E00017721010166
:100E6800736FA4C170F0A5C171F00001D8907037FC
:100E78007137D89070377137750E7025F66E7E0E03
:100E88007121F76E0900F5CF55F00900F5CF56F03E
:100E98000900F5CF57F00A00F5CF58F070C151F0AE
:100EA80071C152F072C153F073C154F004EC36F0C2
:100EB80051C09CF152C09DF153C09EF154C09FF1A6
:100EC80078C151F079C152F07AC153F07BC154F026
:100ED8009CC155F09DC156F09EC157F09FC158F076
:100EE80004EC36F051C034F152C035F153C036F13C
:100EF80054C037F170C113F071C114F072C115F00C
:100F080073C116F074C10FF075C110F076C111F0FD
:100F180077C112F0C2EC1FF00FC055F010C056F0A8
:100F280011C057F012C058F07CC151F07DC152F089
:100F38007EC153F07FC154F004EC36F051C09CF1EF
:100F480052C09DF153C09EF154C09FF134C113F0BB
:100F580035C114F036C115F037C116F074C10FF061
:100F680075C110F076C111F077C112F0C2EC1FF014
:100F78000FC055F010C056F011C057F012C058F00D
:100F88009CC151F09DC152F09EC153F09FC154F0D5
:100F980004EC36F051C058F152C059F153C05AF11F
:100FA80054C05BF158C10FF059C110F05AC111F08B
:100FB8005BC112F080C113F081C114F082C115F039
:100FC80083C116F0C2EC1FF00FC030F110C031F130
:100FD80011C032F112C033F160C10FF061C110F0DD
:100FE80062C111F063C112F060C113F061C114F065
:100FF80062C115F063C116F0C2EC1FF00FC090F18A
:1010080010C091F111C092F112C093F1550E456EC6
:10101800320E466E6C0E476E3E0E486E420E136ED2
:10102800F10E146E530E156E3E0E166E90C10FF033
:1010380091C110F092C111F093C112F0C2EC1FF0EF
:101048000FC041F010C042F011C043F012C044F08C
:1010580067EC1DF041C048F142C049F143C04AF174
:1010680044C04BF1050E456EA30E466E8B0E476EBF
:101078003E0E486E90C113F091C114F092C115F064
:1010880093C116F048C10FF049C110F04AC111F0E0
:101098004BC112F0C2EC1FF00FC041F010C042F07B
:1010A80011C043F012C044F067EC1DF041C058F184
:1010B80042C059F143C05AF144C05BF1AB0E456ED2
:1010C800AA0E466EAA0E476E3E0E486E90C113F0E9
:1010D80091C114F092C115F093C116F058C10FF0E8
:1010E80059C110F05AC111F05BC112F0C2EC1FF0E7
:1010F8000FC041F010C042F011C043F012C044F0DC
:1011080067EC1DF041C04CF142C04DF143C04EF1B7
:1011180044C04FF1B70E456E6D0E466EDB0E476E3E
:101128003E0E486E90C113F091C114F092C115F0B3
:1011380093C116F04CC10FF04DC110F04EC111F023
:101148004FC112F0C2EC1FF00FC041F010C042F0C6
:1011580011C043F012C044F067EC1DF041C038F1F3
:1011680042C039F143C03AF144C03BF19A0E456E92
:10117800990E466E190E476E3F0E486E90C113F0D9
:1011880091C114F092C115F093C116F038C10FF057
:1011980039C110F03AC111F03BC112F0C2EC1FF096
:1011A8000FC041F010C042F011C043F012C044F02B
:1011B80067EC1DF041C000F142C001F143C002F1EB
:1011C80044C003F190C113F091C114F092C115F01D
:1011D80093C116F090C10FF091C110F092C111F0B7
:1011E80093C112F0C2EC1FF00FC004F110C005F15A
:1011F80011C006F112C007F100C10FF001C110F0D3
:1012080002C111F003C112F004C113F005C114F0BA
:1012180006C115F007C116F0C2EC1FF00FC050F15F
:1012280010C051F111C052F112C053F130C113F086
:1012380031C114F032C115F033C116F060C145F068
:1012480061C146F062C147F063C148F074C141F022
:1012580075C142F076C143F077C144F067EC1DF0E8
:1012680041C00FF042C010F043C011F044C012F06A
:10127800C2EC1FF00FC05CF110C05DF111C05EF14F
:1012880012C05FF150C141F051C142F052C143F068
:1012980053C144F05CC145F05DC146F05EC147F002
:1012A8005FC148F067EC1DF041C050F142C051F1F8
:1012B80043C052F144C053F174C10FF075C110F02E
:1012C80076C111F077C112F074C113F075C114F032
:1012D80076C115F077C116F0C2EC1FF00FC090F17F
:1012E80010C091F111C092F112C093F1000E456E39
:1012F800000E466E400E476E400E486E90C141F09B
:1013080091C142F092C143F093C144F067EC1DF0E3
:1013180041C05CF142C05DF143C05EF144C05FF181
:101328005CC141F05DC142F05EC143F05FC144F071
:1013380050C145F051C146F052C147F053C148F081
:1013480067EC1DF041C070F142C071F143C072F109
:1013580044C073F170C198F171C199F172C19AF1E9
:1013680073C19BF1000E01019815706FF00E99156D
:10137800716FFF0E9A15726FFF0E9B15736F000E3B
:10138800456E000E466E400E476EC00E486E70C128
:1013980041F071C142F072C143F073C144F067EC8F
:1013A8001DF041C03CF142C03DF143C03EF144C094
:1013B8003FF190C155F091C156F092C157F093C1D9
:1013C80058F03CC151F03DC152F03EC153F03FC10D
:1013D80054F004EC36F051C040F152C041F153C012
:1013E80042F154C043F150C151F051C152F052C1C1
:1013F80053F053C154F040C155F041C156F042C1B9
:1014080057F043C158F004EC36F051C034F152C0E3
:1014180035F153C036F154C037F174C10FF075C1BE
:1014280010F076C111F077C112F070C113F071C1DC
:1014380014F072C115F073C116F0C2EC1FF00FC0A2
:101448007CF110C07DF111C07EF112C07FF130C176
:1014580013F031C114F032C115F033C116F070C168
:101468000FF071C110F072C111F073C112F0C2EC2B
:101478001FF00FC041F010C042F011C043F012C07D
:1014880044F060C113F061C114F062C115F063C18A
:1014980016F034C10FF035C110F036C111F037C164
:1014A80012F0C2EC1FF00FC045F010C046F011C09A
:1014B80047F012C048F067EC1DF041C080F142C00F
:1014C80081F143C082F144C083F17CC141F07DC108
:1014D80042F07EC143F07FC144F080C145F081C134
:1014E80046F082C147F083C148F067EC1DF041C067
:1014F800A0F142C0A1F143C0A2F144C0A3F1A0C130
:1015080098F1A1C199F1A2C19AF1A3C19BF1000E72
:1015180001019815A06FF00E9915A16FFF0E9A158D
:10152800A26FFF0E9B15A36F7CC155F07DC156F0CD
:101538007EC157F07FC158F0A0C151F0A1C152F04F
:10154800A2C153F0A3C154F004EC36F051C09CF191
:1015580052C09DF153C09EF154C09FF180C151F01B
:1015680081C152F082C153F083C154F09CC155F03F
:101578009DC156F09EC157F09FC158F004EC36F05B
:1015880051C06CF152C06DF153C06EF154C06FF18F
:10159800A0C10FF0A1C110F0A2C111F0A3C112F0B7
:1015A800000E136E400E146E760E156E3F0E166EFC
:1015B800C2EC1FF00FC020F110C021F111C022F1C0
:1015C80012C023F14F0E136E380E146E760E156E80
:1015D8003F0E166E6CC10FF06DC110F06EC111F0A8
:1015E8006FC112F0C2EC1FF00FC045F010C046F0FA
:1015F80011C047F012C048F0C60E136E230E146EC9
:10160800F60E156EB80E166EA0C10FF0A1C110F03F
:10161800A2C111F0A3C112F0C2EC1FF00FC041F03B
:1016280010C042F011C043F012C044F067EC1DF046
:1016380041C05CF142C05DF143C05EF144C05FF15E
:101648005CC141F05DC142F05EC143F05FC144F04E
:10165800A4C170F0A5C171F00001D890703771373E
:10166800D89070377137650E7025F66E7E0E712131
:10167800F76E0900F5CF45F00900F5CF46F00900EF
:10168800F5CF47F00A00F5CF48F067EC1DF041C0F0
:1016980024F142C025F143C026F144C027F188C196
:1016A80001F089C102F08AC103F08BC104F0010E78
:1016B800B7EC2AF001C0B0F102C0B1F103C0B2F139
:1016C80004C0B3F124C145F025C146F026C147F056
:1016D80027C148F020C141F021C142F022C143F0A6
:1016E80023C144F067EC1DF041C05CF142C05DF1DC
:1016F80043C05EF144C05FF1A4C170F0A5C171F0B0
:101708000001D89070377137D890703771376D0EE7
:101718007025F66E7E0E7121F76E0900F5CF45F043
:101728000900F5CF46F00900F5CF47F00A00F5CFDC
:1017380048F05CC141F05DC142F05EC143F05FC159
:1017480044F067EC1DF041C008F142C009F143C004
:101758000AF144C00BF108C141F009C142F00AC1C5
:1017680043F00BC144F0B0C145F0B1C146F0B2C17D
:1017780047F0B3C148F067EC1DF041C08CF142C09E
:101788008DF143C08EF144C08FF18CC198F18DC1A9
:1017980099F18EC19AF18FC19BF1000E0101981544
:1017A8008C6FF00E99158D6FFF0E9A158E6FFF0EC8
:1017B8009B158F6FB0C155F0B1C156F0B2C157F04B
:1017C800B3C158F08CC151F08DC152F08EC153F0A5
:1017D8008FC154F004EC36F051C09CF152C09DF119
:1017E80053C09EF154C09FF1A4C170F0A5C171F01F
:1017F8000001D89070377137D890703771376D0EF7
:101808007025F66E7E0E7121F76E0900F5CF55F042
:101818000900F5CF56F00900F5CF57F00A00F5CFCB
:1018280058F09CC151F09DC152F09EC153F09FC128
:1018380054F004EC36F051C040F152C041F153C0AD
:1018480042F154C043F120C155F021C156F022C1E4
:1018580057F023C158F040C151F041C152F042C184
:1018680053F043C154F004EC36F051C00CF152C0AF
:101878000DF153C00EF154C00FF124C151F025C130
:1018880052F026C153F027C154F00CC155F00DC1D8
:1018980056F00EC157F00FC158F004EC36F051C0A5
:1018A8001CF152C01DF153C01EF154C01FF16CC091
:1018B80098F16DC099F16EC09AF16FC09BF1000E5E
:1018C800010198152C6FF00E99152D6FFF0E9A15C2
:1018D8002E6FFF0E9B152F6F8CC113F08DC114F066
:1018E8008EC115F08FC116F02CC155F02DC156F0E0
:1018F8002EC157F02FC158F06CC051F06DC052F096
:101908006EC053F06FC054F004EC36F051C00FF0C5
:1019180052C010F053C011F054C012F0C2EC1FF0C6
:101928000FC010F110C011F111C012F112C013F163
:1019380010C141F011C142F012C143F013C144F08B
:101948001CC113F01DC114F01EC115F01FC116F003
:101958006CC00FF06DC010F06EC011F06FC012F0C7
:10196800C2EC1FF00FC045F010C046F011C047F0A0
:1019780012C048F067EC1DF041C06CF142C06DF137
:1019880043C06EF144C06FF12CC10FF02DC110F0AF
:101998002EC111F02FC112F08CC113F08DC114F0BB
:1019A8008EC115F08FC116F0C2EC1FF00FC0A0F168
:1019B80010C0A1F111C0A2F112C0A3F1A0C141F061
:1019C800A1C142F0A2C143F0A3C144F06CC145F0EB
:1019D8006DC146F06EC147F06FC148F067EC1DF06D
:1019E80041C0B4F142C0B5F143C0B6F144C0B7F14B
:1019F800B4C1A8F1B5C1A9F1B6C1AAF1B7C1ABF19B
:101A08000101ABBF14EF0DF0A805000EA959000E97
:101A1800AA59430EAB59D8A014EF0DF016EF0DF0EC
:101A280018EF0DF0A2EF03F0430EAB19A811A9119E
:101A3800AA11D8A422EF0DF024EF0DF064EF0DF0F9
:101A4800A0C155F0A1C156F0A2C157F0A3C158F0EA
:101A5800B4C151F0B5C152F0B6C153F0B7C154F09A
:101A680004EC36F051C060F052C061F053C062F02F
:101A780054C063F03C0E456EAA0E466E380E476E93
:101A8800330E486E6CC141F06DC142F06EC143F037
:101A98006FC144F067EC1DF041C064F042C065F0CE
:101AA80043C066F044C067F057EC2FF00001D8B08F
:101AB80060EF0DF062EF0DF0D7EF0DF0A2EF03F03D
:101AC800FF0EA8150001706FFF0E0101A915000196
:101AD800716FFF0E0101AA150001726F7F0E0101DF
:101AE800AB150001736F73BF86EF0DF07005000E24
:101AF8007159160E7259430E7359D8A086EF0DF01E
:101B080088EF0DF092EF0DF0000E686F000E696F10
:101B1800000E6A6F000E6B6F63EF12F0160E010174
:101B2800AA1909E1C30EAB19A811A911D8A49FEFEE
:101B38000DF0A1EF0DF0D7EF0DF0A0C155F0A1C148
:101B480056F0A2C157F0A3C158F0B4C151F0B5C1C5
:101B580052F0B6C153F0B7C154F004EC36F051C09E
:101B680060F052C061F053C062F054C063F06CC1C1
:101B780064F06DC165F06EC166F06FC167F057EC37
:101B88002FF00001D8A0CBEF0DF0CDEF0DF0D7EF7F
:101B98000DF0000E686F000E696F000E6A6F000E80
:101BA8006B6F63EF12F0FF0E0101A815286FFF0E8F
:101BB800A915296FFF0EAA152A6F7F0EAB152B6F7B
:101BC800170E0001706F28C171F029C172F02AC187
:101BD80073F02BC174F07067F4EF0DF0FCEF0DF0AB
:101BE80074357433733372337133702FEFEF0DF034
:101BF800810E000171250101A46FFF0E0001722101
:101C08000101A56FFF0E000173210101A66FFF0EF0
:101C1800000174210101A76F000E886F000E896F03
:101C2800000E8A6F000E8B6F2BBF27EF0EF0280572
:101C3800000E2959000E2A593F0E2B59D8A027EF1C
:101C48000EF029EF0EF025EF0FF0A4C170F0010E91
:101C580000017027000E716F000E726F800E736F97
:101C6800000E746F70673BEF0EF043EF0EF07435A3
:101C78007433733372337133702F36EF0EF0010102
:101C8800A851000171250101886FA9510001722135
:101C98000101896FAA510001732101018A6FAB51BB
:101CA8000001742101018B6F810E0001706FFF0E1E
:101CB800716FFF0E726FFF0E736F170E746F88C10E
:101CC80075F089C176F08AC177F08BC178F07467B6
:101CD80070EF0EF078EF0EF078357833773376338F
:101CE8007533742F6BEF0EF00001755170250101EB
:101CF800A46F000E000171210101A56F000E000103
:101D080072210101A66F000E000173210101A76F66
:101D1800A4C170F0FF0E0001716FFF0E726F7F0E8D
:101D2800736F000E746F70679CEF0EF0A4EF0EF0E7
:101D380074357433733372337133702F97EF0EF039
:101D48000001711D756F721D766F731D776F741D9D
:101D5800786F01018851000175150101B06F895133
:101D6800000176150101B16F8A5100017715010153
:101D7800B26F8B51000178150101B36FA451170898
:101D88000001706FFF0E010188150001716FFF0ED1
:101D9800010189150001726F7F0E01018A1500018A
:101DA800736F000E01018B150001746F000E711125
:101DB800756F000E7211766F800E7311776F000EBB
:101DC8007411786F7067EBEF0EF0F3EF0EF0783563
:101DD8007833773376337533702FE6EF0EF075C0AE
:101DE80088F176C089F177C08AF178C08BF101015A
:101DF800ABBF03EF0FF001EF0FF00BEF0FF08B1FEE
:101E08008A1F891F886D000E89238A238B23A0C10E
:101E180051F0A1C152F0A2C153F0A3C154F0B0C116
:101E280055F0B1C156F0B2C157F0B3C158F004EC47
:101E380036F051C0A0F152C0A1F153C0A2F154C074
:101E4800A3F1A0C141F0A1C142F0A2C143F0A3C1D6
:101E580044F06CC145F06DC146F06EC147F06FC1EA
:101E680048F067EC1DF041C0B0F142C0B1F143C089
:101E7800B2F144C0B3F1B0C198F1B1C199F1B2C1A6
:101E88009AF1B3C19BF1000E01019815B06F800E55
:101E98009915B16FFF0E9A15B26FFF0E9B15B36FB0
:101EA800B0C10FF0B1C110F0B2C111F0B3C112F05E
:101EB800000E136E720E146E310E156E3F0E166EF6
:101EC800C2EC1FF00FC07CF110C07DF111C07EF193
:101ED80012C07FF1A0C155F0A1C156F0A2C157F0C0
:101EE800A3C158F0B0C151F0B1C152F0B2C153F022
:101EF800B3C154F004EC36F051C09CF152C09DF1CE
:101F080053C09EF154C09FF1180E136E720E146EDA
:101F1800310E156E3F0E166E9CC155F09DC156F0E0
:101F28009EC157F09FC158F06CC151F06DC152F07D
:101F38006EC153F06FC154F004EC36F051C00FF08D
:101F480052C010F053C011F054C012F0C2EC1FF090
:101F58000FC014F110C015F111C016F112C017F11D
:101F680014C141F015C142F016C143F017C144F045
:101F78008C0E136EBE0E146EBF0E156E350E166ED9
:101F8800B0C10FF0B1C110F0B2C111F0B3C112F07D
:101F9800C2EC1FF00FC045F010C046F011C047F06A
:101FA80012C048F067EC1DF041C080F142C081F1D9
:101FB80043C082F144C083F17CC141F07DC142F04D
:101FC8007EC143F07FC144F080C145F081C146F035
:101FD80082C147F083C148F067EC1DF041C0B4F1FD
:101FE80042C0B5F143C0B6F144C0B7F17CC155F069
:101FF8007DC156F07EC157F07FC158F0B4C151F091
:10200800B5C152F0B6C153F0B7C154F004EC36F084
:1020180051C09CF152C09DF153C09EF154C09FF134
:1020280080C151F081C152F082C153F083C154F094
:102038009CC155F09DC156F09EC157F09FC158F004
:1020480004EC36F051C044F152C045F153C046F19A
:1020580054C047F1B4C10FF0B5C110F0B6C111F0CA
:10206800B7C112F0B4C113F0B5C114F0B6C115F080
:10207800B7C116F0C2EC1FF00FC0B0F110C0B1F13B
:1020880011C0B2F112C0B3F10E0E456EEA0E466EE3
:10209800DD0E476EB50E486E4C0E136EBB0E146EF9
:1020A800310E156E330E166EB0C10FF0B1C110F0BF
:1020B800B2C111F0B3C112F0C2EC1FF00FC041F071
:1020C80010C042F011C043F012C044F067EC1DF09C
:1020D80041C048F142C049F143C04AF144C04BF104
:1020E800550E456EB30E466E8A0E476E380E486E14
:1020F800B0C113F0B1C114F0B2C115F0B3C116F0FC
:1021080048C10FF049C110F04AC111F04BC112F09B
:10211800C2EC1FF00FC041F010C042F011C043F0F4
:1021280012C044F067EC1DF041C058F142C059F1AB
:1021380043C05AF144C05BF1610E456E0B0E466E0A
:10214800360E476EBB0E486EB0C113F0B1C114F025
:10215800B2C115F0B3C116F058C10FF059C110F053
:102168005AC111F05BC112F0C2EC1FF00FC041F070
:1021780010C042F011C043F012C044F067EC1DF0EB
:1021880041C04CF142C04DF143C04EF144C04FF143
:10219800AB0E456EAA0E466E2A0E476E3E0E486E70
:1021A800B0C113F0B1C114F0B2C115F0B3C116F04B
:1021B8004CC10FF04DC110F04EC111F04FC112F0DB
:1021C800C2EC1FF00FC041F010C042F011C043F044
:1021D80012C044F067EC1DF041C038F142C039F13B
:1021E80043C03AF144C03BF1B4C151F0B5C152F01B
:1021F800B6C153F0B7C154F0B0C113F0B1C114F077
:10220800B2C115F0B3C116F038C10FF039C110F0E2
:102218003AC111F03BC112F0C2EC1FF00FC055F0EB
:1022280010C056F011C057F012C058F004EC36F048
:1022380051C08CF152C08DF153C08EF154C08FF152
:10224800000E456E000E466E000E476EC00E486EBC
:102258008CC141F08DC142F08EC143F08FC144F072
:1022680067EC1DF041C02CF042C02DF043C02EF0A9
:1022780044C02FF08CC113F08DC114F08EC115F03D
:102288008FC116F0B4C10FF0B5C110F0B6C111F08E
:10229800B7C112F0C2EC1FF00FC028F010C029F02F
:1022A80011C02AF012C02BF0C4EC23F028C03CF176
:1022B80029C03DF12AC03EF12BC03FF144C145F091
:1022C80045C146F046C147F047C148F044C113F044
:1022D80045C114F046C115F047C116F0B4C10FF05E
:1022E800B5C110F0B6C111F0B7C112F0C2EC1FF0C1
:1022F8000FC041F010C042F011C043F012C044F0CA
:1023080067EC1DF041C018F142C019F143C01AF141
:1023180044C01BF13CC151F03DC152F03EC153F0E5
:102328003FC154F018C155F019C156F01AC157F001
:102338001BC158F004EC36F051C050F152C051F1B5
:1023480053C052F154C053F1B4C155F0B5C156F061
:10235800B6C157F0B7C158F050C151F051C152F051
:1023680052C153F053C154F004EC36F051C09CF103
:1023780052C09DF153C09EF154C09FF1000E516EA2
:10238800000E526E800E536E3F0E546E9CC155F077
:102398009DC156F09EC157F09FC158F004EC36F02D
:1023A80051C0B4F152C0B5F153C0B6F154C0B7F141
:1023B800B4C1A8F1B5C1A9F1B6C1AAF1B7C1ABF1D1
:1023C80088C170F089C171F08AC172F08BC173F055
:1023D800170ED89000017037713772377337E82EAF
:1023E800EDEF11F070510101A827000171510101B1
:1023F800A923000172510101AA23000173510101AF
:10240800AB23170E0001706FA8C171F0A9C172F05B
:10241800AAC173F0ABC174F0706715EF12F01DEF2D
:1024280012F074357433733372337133702F10EFC5
:1024380012F0000174BF2DEF12F074517311721174
:1024480006E17105D8B02BEF12F02DEF12F045EF31
:1024580012F0B4C128F0B5C129F0B6C12AF0B7C14D
:102468002BF088C12CF089C12DF094EC28F028C0FD
:10247800B4F129C0B5F12AC0B6F12BC0B7F14DEFC0
:1024880012F0A8C1B4F1A9C1B5F1AAC1B6F1ABC1A6
:10249800B7F10101B451B511B611B711D8B457EF5E
:1024A80012F059EF12F03FEF03F06451B41B65517D
:1024B800B51B6651B61B6751B71B3FEF03F01200FF
:1024C8000001916B69C092F06AC093F06BC094F000
:1024D8006CC095F095BF75EF12F073EF12F089EFAD
:1024E80012F0010E916F92C001F093C002F094C0F7
:1024F80003F095C004F0A6EC36F001C092F002C0DB
:1025080093F003C094F004C095F0000E0001976F9B
:10251800000E966F4AC381F04BC382F09151D8B434
:1025280098EF12F09AEF12F0AEEF12F09151D8A492
:10253800A0EF12F0A2EF12F0A8EF12F0000E776FE2
:102548002B0E766FACEF12F0000E776F2D0E766FB4
:1025580076C091F092C001F093C002F094C003F0ED
:1025680095C004F0DDEC30F001040210D8A4BFEFF0
:1025780012F0C1EF12F0F2EF12F000019151D8B44D
:10258800C8EF12F0CAEF12F0D3EF12F091C058F36F
:102598008107D8A08207000E976F010E966F580E1C
:1025A8009625016E030E9721026EF70E036E7F0EBD
:1025B800046E8AEC36F00001FD0E8127FF0E82239F
:1025C80068C00FF0580E106E030E116E81C012F025
:1025D80082C013F032EC35F05BEF17F092C001F0D7
:1025E80093C002F094C003F095C004F0DDEC30F025
:1025F80001500210D8A403EF13F005EF13F025EFF4
:1026080013F000019151D8B40CEF13F00EEF13F052
:1026180017EF13F091C058F38107D8A08207000E76
:10262800976F010E966F580E9625016E030E97212F
:10263800026EFB0E036E7F0E046E8AEC36F0DFEF3F
:1026480012F0000E0001986F000E996F800E9A6FBD
:102658003F0E9B6F000E806F000E7F6F92C001F0DF
:1026680093C002F094C003F095C004F0000E056E0C
:10267800000E066E000E076E000E086EC0EC33F0FA
:10268800D8B049EF13F04BEF13F02BEF14F058EFDD
:1026980013F083C098F084C099F085C09AF086C082
:1026A8009BF000017F4B802B98C00FF099C010F071
:1026B8009AC011F09BC012F0000E136E000E146E3B
:1026C800200E156E410E166EC2EC1FF00FC083F07F
:1026D80010C084F011C085F012C086F0000183514B
:1026E800925D016E84519359026E85519459036E1F
:1026F80086519559046E65EC35F004BE8FEF13F0E2
:1027080004500310021009E1020E015CD8A08FEFFB
:1027180013F091EF13F04DEF13F083C060F084C015
:1027280061F085C062F086C063F092C064F093C027
:1027380065F094C066F095C067F057EC2FF0000183
:10274800D8A0A9EF13F0ABEF13F04DEF13F09851A9
:10275800925D016E99519359026E9A519459036E84
:102768009B519559046E65EC35F004BEC9EF13F022
:1027780004500310021007E1020E015CD8B0C7EF45
:1027880013F0C9EF13F011EF14F098C092F099C04C
:1027980093F09AC094F09BC095F02BEF14F098C07A
:1027A80028F099C029F09AC02AF09BC02BF0000E9F
:1027B8002C6E000E2D6E200E2E6E410E2F6EC4EC68
:1027C80023F028C098F029C099F02AC09AF02BC0AD
:1027D8009BF000017F07D8A080079851925D016E99
:1027E80099519359026E9A519459036E9B51955978
:1027F800046E65EC35F004BE0FEF14F004500310BE
:10280800021007E1020E015CD8B00DEF14F00FEFD3
:1028180014F011EF14F0C9EF13F092C060F093C0F8
:1028280061F094C062F095C063F098C064F099C0FC
:1028380065F09AC066F09BC067F057EC2FF0000176
:10284800D8A029EF14F02BEF14F0D3EF13F06DC0DC
:1028580079F079C07AF00201FFBF35EF14F037EF55
:1028680014F03DEF14F0FEC272F0FFC273F042EFB5
:1028780014F0000E0001736F060E726F72C07DF0C7
:1028880073C07EF000017D4B7E2B660E7A19D8A4AA
:1028980050EF14F052EF14F072EF14F080BF59EFBC
:1028A80014F057EF14F065EF14F0000E986F000E57
:1028B800996F800E9A6F3F0E9B6F000E806F000E0F
:1028C8007F6F670E7919D8B46CEF14F06EEF14F0BF
:1028D80072EF14F07F517D2780517E23000E886FA0
:1028E800000E876F92C089F093C08AF094C08BF075
:1028F80095C08CF098C083F099C084F09AC085F098
:102908009BC086F003EF15F089C028F08AC029F033
:102918008BC02AF08CC02BF098C02CF099C02DF0F9
:102928009AC02EF09BC02FF0C4EC23F028C041F0D1
:1029380029C042F02AC043F02BC044F0AEEC29F085
:1029480041C08DF042C08EF043C08FF044C090F07B
:102958008DC001F08EC002F08FC003F090C004F06B
:10296800DAEC2FF001C07BF002C07CF089C051F096
:102978008AC052F08BC053F08CC054F08DC013F055
:102988008EC014F08FC015F090C016F098C00FF0EC
:1029980099C010F09AC011F09BC012F0C2EC1FF061
:1029A8000FC055F010C056F011C057F012C058F0C3
:1029B80004EC36F051C089F052C08AF053C08BF055
:1029C80054C08CF098C028F099C029F09AC02AF019
:1029D8009BC02BF0000E2C6E000E2D6E200E2E6E5E
:1029E800410E2F6EC4EC23F028C098F029C099F04E
:1029F8002AC09AF02BC09BF00001874B882B7D5191
:102A0800875D8851800A6E6F7E51800A6E59D8A002
:102A180010EF15F012EF15F088EF14F098C00FF0D2
:102A280099C010F09AC011F09BC012F0000E136EFE
:102A3800000E146EA00E156E400E166EC2EC1FF03E
:102A48000FC08DF010C08EF011C08FF012C090F042
:102A580089C060F08AC061F08BC062F08CC063F0FE
:102A68008DC064F08EC065F08FC066F090C067F0CE
:102A780057EC2FF00001D8B044EF15F046EF15F0F1
:102A880050EF15F0000E8D6F000E8E6F000E8F6FD9
:102A9800000E906F79EF15F089C001F08AC002F03E
:102AA8008BC003F08CC004F08DC005F08EC006F01A
:102AB8008FC007F090C008F0C0EC33F0D8A067EFE3
:102AC80015F069EF15F079EF15F000017BB16FEFA4
:102AD80015F071EF15F079EF15F0000E8D6F000EFF
:102AE8008E6F000E8F6F000E906F92C041F093C0F2
:102AF80042F094C043F095C044F08DC045F08EC0BC
:102B080046F08FC047F090C048F067EC1DF041C018
:102B180089F042C08AF043C08BF044C08CF089C071
:102B280060F08AC061F08BC062F08CC063F0000E68
:102B3800136E000E146E200E156E410E166E83C0B5
:102B48000FF084C010F085C011F086C012F0C2ECFE
:102B58001FF00FC064F010C065F011C066F012C01D
:102B680067F057EC2FF00001D8A0BDEF15F0BFEFCC
:102B780015F0E7EF15F07F4B802B83C00FF084C072
:102B880010F085C011F086C012F0000E136E000E12
:102B9800146E200E156E410E166EC2EC1FF00FC09B
:102BA80083F010C084F011C085F012C086F0660E64
:102BB80000017A19D8A4E3EF15F0E5EF15F0E7EF77
:102BC80015F07D4B7E2B83C098F084C099F085C0AA
:102BD8009AF086C09BF07FC070F080C071F0786B6F
:102BE800000E756F000E746F000E886F000E876FF1
:102BF800E3EF16F089C028F08AC029F08BC02AF0CC
:102C08008CC02BF098C02CF099C02DF09AC02EF0F3
:102C18009BC02FF0C4EC23F028C041F029C042F03B
:102C28002AC043F02BC044F0AEEC29F041C08DF02F
:102C380042C08EF043C08FF044C090F08DC001F0C8
:102C48008EC002F08FC003F090C004F0DAEC2FF0D1
:102C580002BE3AEF16F0025007E10A0E015CD8B046
:102C680038EF16F03AEF16F04AEF16F08DC001F083
:102C78008EC002F08FC003F090C004F0DAEC2FF0A1
:102C880001C07BF002C07CF04FEF16F0000E00018F
:102C98007C6F090E7B6F00017851D8A456EF16F0AF
:102CA80058EF16F080EF16F071BF5FEF16F05DEF8A
:102CB80016F080EF16F0580E9625D96E030E972160
:102CC800DA6E2E0EDF6E964B972B8107D8A08207FF
:102CD800010E786F80EF16F0580E9625D96E030E08
:102CE8009721DA6E300EDF6E964B972B8107D8A0AE
:102CF80082077407D8A0750774517511D8A487EF97
:102D080016F089EF16F070EF16F0580E9625D96E6A
:102D1800030E9721DA6E7B51300FDF6E964B972B9F
:102D28008107D8A0820789C051F08AC052F08BC0B1
:102D380053F08CC054F08DC013F08EC014F08FC0C7
:102D480015F090C016F098C00FF099C010F09AC016
:102D580011F09BC012F0C2EC1FF00FC055F010C06C
:102D680056F011C057F012C058F004EC36F051C0BC
:102D780089F052C08AF053C08BF054C08CF098C0D0
:102D880028F099C029F09AC02AF09BC02BF0000EB9
:102D98002C6E000E2D6E200E2E6E410E2F6EC4EC82
:102DA80023F028C098F029C099F02AC09AF02BC0C7
:102DB8009BF000017007D8A07107874B882B7D51C5
:102DC800875D8851800A6E6F7E51800A6E59D8B02F
:102DD800F0EF16F0F2EF16F000EF17F097BFFEEFE6
:102DE80016F0975109E14B0E965DD8A0FEEF16F04C
:102DF80000EF17F0FEEF15F0000E886F4F0E876F8B
:102E0800580E8725D96E030E8821DA6EDF6A580EB0
:102E18006E6F030E6F6F96516E5F97516F5B8751A0
:102E28006E25016E88516F21026E580E036E030ED7
:102E3800046E96C005F097C006F0B8EC35F00001B6
:102E48009651875D966F97518859976F9151D8A47D
:102E580030EF17F033EF17F0010E34EF17F0000ED4
:102E6800876F886B9151D8B43CEF17F03EEF17F09D
:102E780049EF17F09607D8A09707580E9625D96EF0
:102E8800030E9721DA6E91C0DFFF8751815F885169
:102E9800825B68C00FF0580E9625106E030E9721BE
:102EA800116E81C012F082C013F032EC35F01200BE
:102EB800000E49EC36F001C095F002C096F0000E05
:102EC8002C6E000E2D6E800E2E6E440E2F6E000E90
:102ED800136E000E146EA00E156E400E166E95C081
:102EE80001F096C002F0036A046A000EB7EC2AF0FB
:102EF80001C00FF002C010F003C011F004C012F0BE
:102F0800C2EC1FF00FC028F010C029F011C02AF041
:102F180012C02BF0C4EC23F028C089F029C08AF035
:102F28002AC08BF02BC08CF089C028F08AC029F009
:102F38008BC02AF08CC02BF00A0E2C6ED70E2D6E8B
:102F4800230E2E6E3C0E2F6EC4EC23F028C07DF0AD
:102F580029C07EF02AC07FF02BC080F07DC051F0E0
:102F68007EC052F07FC053F080C054F0D40E556E2E
:102F7800030E566ED1EC31F051C044F352C045F304
:102F880053C046F354C047F3010E49EC36F001C074
:102F980097F002C098F0000E136E000E146EA00E8B
:102FA800156E400E166E97C001F098C002F0036AC5
:102FB800046A000EB7EC2AF001C00FF002C010F04E
:102FC80003C011F004C012F0C2EC1FF00FC028F0CB
:102FD80010C029F011C02AF012C02BF0000E2C6E80
:102FE800000E2D6E800E2E6E440E2F6EC4EC23F054
:102FF80028C081F029C082F02AC083F02BC084F059
:10300800000E136E000E146EC80E156E420E166E6C
:1030180081C055F082C056F083C057F084C058F084
:103028003CC351F03DC352F03EC353F03FC354F08C
:1030380004EC36F051C00FF052C010F053C011F03C
:1030480054C012F0C2EC1FF00FC028F010C029F0D5
:1030580011C02AF012C02BF03CC32CF03DC32DF058
:103068003EC32EF03FC32FF0C4EC23F028C040F33A
:1030780029C041F32AC042F32BC043F3030143BFE5
:103088004AEF18F048EF18F052EF18F0000E406FB2
:10309800000E416F000E426F000E436F000E0001DC
:1030A800606F000E616FC80E626F420E636F40C39F
:1030B80064F041C365F042C366F043C367F057EC60
:1030C8002FF00001D8B06BEF18F06DEF18F076EF25
:1030D80018F0000E0301406F000E416FC80E426FDA
:1030E800420E436F5E50D8A47CEF18F07EEF18F0C4
:1030F8009DEF18F040C360F041C361F042C362F035
:1031080043C363F0000E0001646F000E656F700E1C
:10311800666F410E676F57EC2FF00001D8A097EF4C
:1031280018F099EF18F09DEF18F0010E5E6EC1EFE0
:1031380018F05E50D8B4A3EF18F0A5EF18F0C1EF5F
:1031480018F0000E0001606F000E616F400E626F94
:10315800410E636F40C364F041C365F042C366F03B
:1031680043C367F057EC2FF00001D8A0BEEF18F06A
:10317800C0EF18F0C1EF18F05E6A020E49EC36F0A5
:1031880001C099F002C09AF0000E136E000E146E82
:10319800A00E156E400E166E99C001F09AC002F08E
:1031A800036A046A000EB7EC2AF001C00FF002C0EF
:1031B80010F003C011F004C012F0C2EC1FF00FC0F1
:1031C80028F010C029F011C02AF012C02BF0000E10
:1031D8002C6E000E2D6E800E2E6E440E2F6EC4ECDB
:1031E80023F028C09DF029C09EF02AC09FF02BC074
:1031F800A0F09DC055F09EC056F09FC057F0A0C0EB
:1032080058F0000E516E000E526EA00E536E400E16
:10321800546E04EC36F051C028F052C029F053C067
:103228002AF054C02BF09DC02CF09EC02DF09FC0FA
:103238002EF0A0C02FF0C4EC23F028C0A5F029C0C0
:10324800A6F02AC0A7F02BC0A8F00A0E136ED70E5E
:10325800146EA30E156E3C0E166E000E456E000E13
:10326800466EC80E476EC10E486E44C341F045C352
:1032780042F046C343F047C344F067EC1DF041C039
:103288000FF042C010F043C011F044C012F0C2EC7D
:103298001FF00FC08DF010C08EF011C08FF012C05B
:1032A80090F08DC041F08EC042F08FC043F090C0C6
:1032B80044F0000E456E000E466E800E476E3F0EBF
:1032C800486E67EC1DF041C085F042C086F043C0EF
:1032D80087F044C088F0A5C028F0A6C029F0A7C090
:1032E8002AF0A8C02BF085C02CF086C02DF087C02E
:1032F8002EF088C02FF0C4EC23F028C0A5F029C018
:10330800A6F02AC0A7F02BC0A8F0A5C028F0A6C038
:1033180029F0A7C02AF0A8C02BF0D0C32CF0D1C345
:103328002DF0D2C32EF0D3C32FF0C4EC23F028C065
:10333800A1F029C0A2F02AC0A3F02BC0A4F0000E6F
:103348000001A96F000EAA6F000EAB6F000EAC6FE4
:10335800CD0E606FCC0E616FCC0E626F3D0E636F49
:10336800A1C064F0A2C065F0A3C066F0A4C067F075
:1033780057EC2FF00001D8B0C4EF19F0C6EF19F0E0
:10338800FAEF19F0000E6C6F000E6D6FC00E6E6FC5
:10339800BF0E6F6FA1C068F0A2C069F0A3C06AF049
:1033A800A4C06BF009EC00F068C091F069C092F01D
:1033B8006AC093F06BC094F091C00FF092C010F007
:1033C80093C011F094C012F0000E136E000E146E2C
:1033D800700E156E410E166EC2EC1FF00FC0A9F0EC
:1033E80010C0AAF011C0ABF012C0ACF00001ACBF25
:1033F80002EF1AF000EF1AF00AEF1AF0000EA96FA8
:10340800000EAA6F000EAB6F000EAC6F000E606F5F
:10341800000E616F7A0E626F440E636FA9C064F08C
:10342800AAC065F0ABC066F0ACC067F057EC2FF0EF
:103438000001D8B022EF1AF024EF1AF02CEF1AF09E
:10344800000EA96F000EAA6F7A0EAB6F440EAC6F18
:10345800A9C051F0AAC052F0ABC053F0ACC054F0B0
:10346800BC0E556E030E566ED1EC31F051C038F3D8
:1034780052C039F353C03AF354C03BF303010C5123
:103488000201FA5D0001796F03010D510201FB5938
:1034980000017A6F03010E510201FC5900017B6F94
:1034A80003010F510201FD5900017C6F7C517B1112
:1034B8000BE1E80E795D030E7A59D8A066EF1AF091
:1034C80068EF1AF0DFEF1AF003014C514E5D00016E
:1034D8009B6F03014D514F5900019C6F000E2C6EDC
:1034E800000E2D6EE10E2E6E430E2F6E9BC001F066
:1034F8009CC002F0036A046A000EB7EC2AF001C00F
:1035080028F002C029F003C02AF004C02BF0C4EC54
:1035180023F028C00FF029C010F02AC011F02BC0EA
:1035280012F0000E136E000E146E700E156E420E21
:10353800166EC2EC1FF00FC034F310C035F311C083
:1035480036F312C037F330C341F031C342F032C30F
:1035580043F033C344F0000E2C6E000E2D6E700E37
:103568002E6E420E2F6E34C328F035C329F036C3B1
:103578002AF037C32BF0C4EC23F028C045F029C04B
:1035880046F02AC047F02BC048F067EC1DF041C058
:1035980030F342C031F343C032F344C033F34EC377
:1035A8004CF34FC34DF3FAC20CF3FBC20DF3FCC24C
:1035B8000EF3FDC20FF3120000019D51D96EDA6AB5
:1035C800DECFF6FFDDCFF7FF0800F550250AD8A4B7
:1035D800F0EF1AF0F2EF1AF055EF1DF09D51D96E89
:1035E800DA6ADE2A000EDD22000E03014B6F000EA0
:1035F8004A6F4AC350F30201FE69FF6900019D51F9
:10360800D96EDA6ADECFF6FFDDCFF7FF0800F55096
:103618002E0AD8A412EF1BF014EF1BF024EF1BF0B6
:103628009D51D96EDA6ADE2A000EDD229DC001F0B6
:103638009EC002F06AEC33F001C0FEF202C0FFF255
:1036480000019D51D96EDA6ADECFA8F0DDCFA9F06E
:10365800A8C0F6FFA9C0F7FF0800F5CFA7F040EF14
:103668001BF0A84BA92B53EF1BF0690EA76F53EF64
:103678001BF0A76B53EF1BF0A751640AD8B439EFBE
:103688001BF00D0AD8B439EF1BF0050AD8B435EF92
:103698001BF0190AD8B439EF1BF03DEF1BF0A8C096
:1036A800F6FFA9C0F7FF0800F550640AD8B45FEF29
:1036B8001BF061EF1BF098EF1BF0A8C0F6FFA9C044
:1036C800F7FF0800F550690AD8A46DEF1BF06FEFFB
:1036D8001BF0BEEF1BF098EF1BF09EC0D9FF9FC0F8
:1036E800DAFFDF50DF2ADF2AD96EDA6ADECFA3F0ED
:1036F800DDCFA4F0000EA4BFFF0EA56FA66FA3EF49
:103708001BF09EC0D9FF9FC0DAFF040EDF26DF5CE6
:10371800D96EDA6ADECFA3F0DECFA4F0DECFA5F053
:10372800DECFA6F0A3EF1BF0A751690AD8B471EF5A
:103738001BF0050AD8B485EF1BF0A3EF1BF0010EB0
:10374800A825A06F000EA921A16F9D51D96EDA6A34
:10375800A0C0DEFFA1C0DDFF9CC017F0A3C018F019
:10376800A4C019F0A5C01AF0A6C01BF091EC2BF06C
:1037780066EF1DF0A8C0F6FFA9C0F7FF0800F550D6
:10378800750AD8A4CAEF1BF0CCEF1BF02AEF1CF087
:10379800F6EF1BF09EC0D9FF9FC0DAFFDF50DF2A8B
:1037A800DF2AD96EDA6ADECFA0F0DDCFA1F0A0C0A3
:1037B800A3F0A1C0A4F0A56BA66B01EF1CF09EC0FE
:1037C800D9FF9FC0DAFF040EDF26DF5CD96EDA6A04
:1037D800DECFA3F0DECFA4F0DECFA5F0DECFA6F0DB
:1037E80001EF1CF0A751690AD8B4CEEF1BF0050A07
:1037F800D8B4E3EF1BF001EF1CF0010EA825A06F71
:10380800000EA921A16F9D51D96EDA6AA0C0DEFF12
:10381800A1C0DDFF1EEF1CF09CC017F0A3C018F07C
:10382800A4C019F0A5C01AF0A6C01BF046EC2EF0F3
:1038380066EF1DF0A8C0F6FFA9C0F7FF0800F55015
:10384800750AD8B410EF1CF02AEF1CF0A26B9D513A
:10385800D96EDA6ADECFF6FFDDCFF7FF0800F55044
:10386800730AD8A43AEF1CF03CEF1CF046EF1CF0AA
:103878009D51D96EDA6ADE2A000EDD22010EA26F92
:1038880092EF1CF09D51D96EDA6ADECFF6FFDDCFDC
:10389800F7FF0800F5506C0AD8A455EF1CF057EF55
:1038A8001CF092EF1CF09D51D96EDA6ADECFA0F0C1
:1038B800DDCFA1F0010EA027000EA123A0C0F6FFC6
:1038C800A1C0F7FF0800F5506C0AD8A46EEF1CF0F1
:1038D80070EF1CF092EF1CF09D51D96EDA6ADECFC2
:1038E800A0F0DDCFA1F0020EA027000EA123A0C0FA
:1038F800F6FFA1C0F7FF0800F550730AD8A487EFB8
:103908001CF089EF1CF092EF1CF09D51D96EDA6A19
:10391800030EDE26000EDD2242EF1CF0A251D8B4C1
:1039280098EF1CF09AEF1CF0ADEF1CF09CC009F06A
:103938009EC0D9FF9FC0DAFF020EDF26DF5CD96E7A
:10394800DA6ADECF0AF0DECF0BF05DEC30F066EF1E
:103958001DF09D51D96EDA6ADECFA8F0DDCFA9F04F
:10396800A8C0F6FFA9C0F7FF0800F5CFA7F0C8EF79
:103978001CF0A84BA92BD7EF1CF06C0EA76FD7EF44
:103988001CF0A76BD7EF1CF0A7514C0AD8B4BDEFB9
:103998001CF02A0AD8B4C1EF1CF00A0AD8B4BDEF4B
:1039A8001CF0C5EF1CF0A8C0F6FFA9C0F7FF08007F
:1039B800F550660AD8A4E3EF1CF0E5EF1CF04CEFD5
:1039C8001DF011EF1DF09EC0D9FF9FC0DAFFDFCFB9
:1039D800A0F0040EDF26A051D96EDA6ADECFA3F07C
:1039E800DECFA4F0DECFA5F0DECFA6F01CEF1DF0F1
:1039F8009EC0D9FF9FC0DAFFDFCFA0F0040EDF26FC
:103A0800A051D96EDA6ADECFA3F0DECFA4F0DECF04
:103A1800A5F0DECFA6F01CEF1DF0A7514C0AD8B4D4
:103A2800FCEF1CF0200AD8B4E7EF1CF01CEF1DF0E7
:103A3800010EA825A06F000EA921A16F9D51D96E76
:103A4800DA6AA0C0DEFFA1C0DDFF40EF1DF09CC018
:103A580068F0A3C069F0A4C06AF0A5C06BF0A6C066
:103A68006CF0A8C0F6FFA9C0F7FF0800F5CF6DF00D
:103A780064EC12F066EF1DF0A8C0F6FFA9C0F7FFCE
:103A88000800F550660AD8B42BEF1DF04CEF1DF076
:103A980000019D51D96EDA6ADE2A000EDD2266EF3A
:103AA8001DF09D51D96EDA6ADECFF6FFDDCFF7FF44
:103AB8000800F550016E026A9CC003F0B6EC32F0C3
:103AC8004CEF1DF012004450800B4D6E44504424BE
:103AD8004F6E43AE72EF1DF074EF1DF075EF1DF0E1
:103AE8004F804F50D8B47BEF1DF07DEF1DF091EF64
:103AF8001DF04F28D8A483EF1DF085EF1DF08DEF42
:103B08001DF0000E416E000E426E000E436E000E58
:103B1800446E438E446A99EF1DF0000E416E000E0C
:103B2800426E000E436E000E446E4850800B4E6E7F
:103B38004D504E18D8B4A3EF1DF0A5EF1DF0A6EF19
:103B48001DF04D8C485048244E6E47AEAEEF1DF028
:103B5800B0EF1DF0B1EF1DF04E804E50D8B4B7EF66
:103B68001DF0B9EF1DF0CDEF1DF04E28D8A4BFEF22
:103B78001DF0C1EF1DF0C9EF1DF0000E456E000EDF
:103B8800466E000E476E000E486E478E486AD5EFA7
:103B98001DF0000E456E000E466E000E476E000EBC
:103BA800486E4F504E5CD8B0DCEF1DF0DEEF1DF0D4
:103BB80005EF1EF04DACE3EF1DF0E5EF1DF0E7EF6C
:103BC8001DF0800E4D1A4FC050F04EC04FF050C03F
:103BD8004EF041C050F045C041F050C045F042C0E1
:103BE80050F046C042F050C046F043C050F047C0C5
:103BF80043F050C047F044C050F048C044F050C0B3
:103C080048F0506A4F504EC049F04A6A495E000E6B
:103C18004A5A4ABE19EF1EF04A5009E11A0E495C89
:103C2800D8A019EF1EF01BEF1EF052EF1EF0415006
:103C3800421043104410D8A424EF1EF027EF1EF0C2
:103C4800010E28EF1EF0000E506E000E416E000EA1
:103C5800426E000E436E000E446E4EC04FF05BEF96
:103C68001EF050A03AEF1EF03CEF1EF042EF1EF09F
:103C7800D89050300109506E44EF1EF0D890503261
:103C880041A049EF1EF04BEF1EF04CEF1EF0508E96
:103C9800443444324332423241324F2A4E504F5C10
:103CA800D8A059EF1EF05BEF1EF035EF1EF04DBCAB
:103CB80060EF1EF062EF1EF0A2EF1EF04F50D8A486
:103CC80068EF1EF06AEF1EF074EF1EF0000E416EF2
:103CD800000E426E000E436E000E446EC1EF1FF0E0
:103CE80045504126465042224750432248504422DC
:103CF80044A081EF1EF083EF1EF02FEF1FF050A0BD
:103D080088EF1EF08AEF1EF090EF1EF0D89050302A
:103D18000109506E92EF1EF0D890503241A097EFF3
:103D28001EF099EF1EF09AEF1EF0508E4434443284
:103D38004332423241324F2A2FEF1FF04550415C47
:103D480046504258475043584450800A496E48509C
:103D5800800A4958D8B0B3EF1EF0B5EF1EF0E0EF77
:103D68001EF04150455C496E425046584A6E4350D9
:103D780047584B6E445048584C6EFF0E4924416ECC
:103D8800FF0E4A20426EFF0E4B20436EFF0E4C2062
:103D9800446E800E4D1A506C5050D8A4D6EF1EF0C9
:103DA800D8EF1EF0E8EF1EF0010E4126000E422269
:103DB80043224422E8EF1EF04550415E4650425AE5
:103DC8004750435A4850445A4150421043104410F7
:103DD800D8A4F1EF1EF0F3EF1EF028EF1FF05050BB
:103DE800D8A4F9EF1EF0FBEF1EF028EF1FF0000E2D
:103DF800416E000E426E000E436E000E446EC1EF1F
:103E08001FF0D890413642364336443650AE0FEF55
:103E18001FF011EF1FF012EF1FF0418050A017EFB5
:103E28001FF019EF1FF01DEF1FF0D88050361FEF5D
:103E38001FF0D89050364F50D8B425EF1FF027EF19
:103E48001FF028EF1FF04F0643AE2DEF1FF02FEFA6
:103E58001FF005EF1FF04E6A50AE35EF1FF037EF39
:103E68001FF04FEF1FF050C049F07F0E4916D8B42D
:103E780040EF1FF042EF1FF046EF1FF0010E4E6EAD
:103E88004FEF1FF041A04BEF1FF04DEF1FF04FEF2A
:103E98001FF042EF1FF04E50D8B455EF1FF057EF08
:103EA8001FF082EF1FF0010E4126000E422243222E
:103EB800442244A062EF1FF064EF1FF082EF1FF06E
:103EC80041C049F042C04AF043C04BF044C04CF0F6
:103ED8004C344C324B324A32493249C041F04AC024
:103EE80042F04BC043F04CC044F04F28D8B47FEFA9
:103EF8001FF081EF1FF082EF1FF04F2A4F28D8B430
:103F080088EF1FF08AEF1FF092EF1FF04F50D8A4F0
:103F180090EF1FF092EF1FF0A3EF1FF0000E416E1D
:103F2800000E426E000E436E000E446E4F50D8A431
:103F3800A0EF1FF0A2EF1FF0A3EF1FF04D6A4FA0F4
:103F4800A8EF1FF0AAEF1FF0ADEF1FF0438EAEEF02
:103F58001FF0439ED8904F30446E4DAEB6EF1FF021
:103F6800B8EF1FF0B9EF1FF0448E41C041F042C0D6
:103F780042F043C043F044C044F012001250800B9A
:103F88001B6E12501224216E11AECDEF1FF0CFEF31
:103F98001FF0D0EF1FF021802150D8B4D6EF1FF0CA
:103FA800D8EF1FF0EBEF1FF02128D8A4DEEF1FF0A9
:103FB800E0EF1FF0E8EF1FF0000E0F6E000E106E1E
:103FC800000E116E000E126E118EF3EF1FF0000E30
:103FD8000F6E000E106E000E116E000E126E16504F
:103FE800800B1B1A165016241C6E15AEFEEF1FF020
:103FF80000EF20F001EF20F01C801C50D8B407EF30
:1040080020F009EF20F01CEF20F01C28D8A40FEFB7
:1040180020F011EF20F019EF20F0000E136E000EC3
:10402800146E000E156E000E166E158E24EF20F01D
:10403800000E136E000E146E000E156E000E166E36
:104048001C50D8B42AEF20F02CEF20F034EF20F0E9
:104058002150D8A432EF20F034EF20F03EEF20F0CA
:10406800000E0F6E000E106E000E116E000E126E16
:10407800D4EF21F015500F02F3CF26F0F4CF27F03C
:1040880026501D6E1E6A1F6A206A2750226E236AF8
:10409800246A256A14501002F3CF26F0F4CF27F0D3
:1040A80026501D26000E1E221F22202227502226BF
:1040B800000E23222422252213501102F3CF26F0CA
:1040C800F4CF27F026501D26000E1E221F22202284
:1040D80027502226000E2322242225221FC020F04A
:1040E8001EC01FF01DC01EF01D6A13501002F3CF32
:1040F80026F0F4CF27F026501D2627501E22000E4A
:104108001F22000E202214500F02F3CF26F0F4CF06
:1041180027F026501D2627501E22000E1F22000EB3
:1041280020221FC020F01EC01FF01DC01EF01D6AF7
:1041380013500F02F3CF26F0F4CF27F026501D2698
:1041480027501E22000E1F22000E2022155010029A
:10415800F3CF26F0F4CF27F026502226275023222B
:10416800000E2422000E252214501102F3CF26F04F
:10417800F4CF27F02650222627502322000E24228F
:10418800000E252215501102F3CF26F0F4CF27F0A8
:104198002650176E2750186E196A1A6A19C01AF035
:1041A80018C019F017C018F0176A175022261850AF
:1041B8002322195024221A5025221DC017F01EC090
:1041C80018F01FC019F020C01AF0190EF1EF20F0F6
:1041D800D8901A32193218321732E82EECEF20F044
:1041E8001750222618502322195024221A5025220B
:1041F8001FC020F01EC01FF01DC01EF01D6A1C50FD
:1042080021C017F0186A1726000E1822820E1724EC
:10421800266EFF0E1820276E27EF21F0D890223641
:1042280023362436253620AE1CEF21F01EEF21F070
:104238001FEF21F02280D8901D361E361F362036FB
:104248002606D8A0270624AE2CEF21F02EEF21F069
:1042580012EF21F01C6A20AE34EF21F036EF21F086
:104268005AEF21F0FF0E1D14176EFF0E1E14186E64
:10427800FF0E1F14196E7F0E20141A6E1750181097
:1042880019101A10D8B44BEF21F04DEF21F051EF6F
:1042980021F0010E1C6E5AEF21F022A056EF21F0FA
:1042A80058EF21F05AEF21F04DEF21F01C50D8B40F
:1042B80060EF21F062EF21F086EF21F0010E222657
:1042C800000E23222422252225A06DEF21F06FEF76
:1042D80021F086EF21F022C017F023C018F024C087
:1042E80019F025C01AF01A341A3219321832173256
:1042F80017C022F018C023F019C024F01AC025F006
:10430800264A272A27BE91EF21F0275008E12628C0
:10431800D8A091EF21F093EF21F09DEF21F0000E4E
:10432800226E000E236E800E246E7F0E256ECAEF5D
:1043380021F027BEAAEF21F0275006E12604D8B0C5
:10434800A8EF21F0AAEF21F0B5EF21F0000E226EC0
:10435800000E236E000E246E000E256E1B6ACAEF37
:1043680021F026C021F0FF0E2216FF0E23167F0E25
:104378002416000E251621A0C4EF21F0C6EF21F067
:10438800C7EF21F0248ED8902130256E1B502512BE
:1043980022C00FF023C010F024C011F025C012F085
:1043A800120001C022F002C023F003C024F004C0B0
:1043B80025F0000E2214056E000E2314066E800EE2
:1043C8002414076E7F0E2514086E800E071809E165
:1043D8007F0E081805100610D8A4F5EF21F0F7EFA6
:1043E80021F027EF22F0FF0E2214056EFF0E231492
:1043F800066E7F0E2414076E000E2514086E0550F5
:10440800061007100810D8A40CEF22F00EEF22F0C7
:1044180015EF22F025BE15EF22F013EF22F01DEF65
:1044280022F0FF0E2212FF0E23127F0E2412000E1E
:10443800251222C001F023C002F024C003F025C0D9
:1044480004F0C3EF23F025BE36EF22F025502410E8
:10445800231006E12204D8B034EF22F036EF22F020
:104468006DEF22F0FF0E2214056EFF0E2314066E68
:10447800FF0E2414076E7F0E2514086E05500610D3
:1044880007100810D8A44BEF22F04DEF22F057EF99
:1044980022F0000E016E000E026E000E036E000E7A
:1044A800046EC3EF23F025BE5EEF22F05CEF22F02E
:1044B8006DEF22F0000E0301496F210E486FFF0EC9
:1044C800226EFF0E236EFF0E246E7F0E256E1DEFEB
:1044D80022F0170E056E22C006F023C007F024C094
:1044E80008F025C009F005667CEF22F084EF22F081
:1044F80009340932083207320632052E77EF22F0E6
:1045080006C01AF007C01BF008C01CF009C01DF057
:104518001A501B101C101D10D8A495EF22F097EF0D
:1045280022F0C7EF22F0000E0E6E000E0F6E000E86
:10453800106E000E116EACEF22F0D89022362336A2
:1045480024362536010E0E26000E0F2210221122C7
:1045580024AEB1EF22F0B3EF22F0A1EF22F0FF0E6C
:104568000E24056EFF0E0F20066EFF0E1020076E3C
:10457800FF0E1120086E05501A5E06501B5A075090
:104588001C5A08501D5A810E1A26FF0E1B22FF0EB8
:104598001C22FF0E1D22FF0E2214056EFF0E23148F
:1045A800066E7F0E2414076E000E2514086E000E8A
:1045B8000510226E000E0610236E800E0710246E62
:1045C800000E0810256E1AA0ECEF22F0EEEF22F094
:1045D800F6EF22F0225022262350232224502422B0
:1045E800255025221D341D321C321B321A3222500E
:1045F8002226235023222450242225502522000E2F
:104608000A6E000E0B6E000E0C6E000E0D6E0AC0C8
:1046180012F00BC013F00CC014F00DC015F0000E12
:104628001E6E000E1F6E000E206E010E216E65EFCD
:1046380023F00A501E24166E0B501F20176E0C50C4
:104648002020186E0D502120196E1650225C17502C
:104658002358185024582550800A056E1950800A8E
:104668000558D8A03AEF23F03CEF23F058EF23F099
:1046780016501E240A6E17501F200B6E185020204B
:104688000C6E195021200D6E1650225E1750235AB9
:104698001850245A1950255A1E5012261F501322FA
:1046A8002050142221501522225022262350232242
:1046B8002450242225502522D890213220321F321E
:1046C8001E321E501F1020102110D8A46EEF23F0A8
:1046D80070EF23F01DEF23F0225023102410251033
:1046E800D8B479EF23F07BEF23F08FEF23F0010E9E
:1046F8001214056E000E1314066E000E1414076EC5
:10470800000E1514086E0550122606501322075085
:1047180014220850152212C005F013C006F014C068
:1047280007F015C008F0083408320732063205329F
:10473800000E0524226E000E0620236E000E0720B0
:10474800246E3F0E0820256E1AC005F01BC006F027
:104758001CC007F01DC008F0170ED89005360636A5
:1047680007360836E82EB1EF23F00550222606500A
:10477800232207502422085025221DEF22F0120080
:104788002B50800B386E2B502B243F6E2AAECFEF68
:1047980023F0D1EF23F0D2EF23F03F803F50D8B47D
:1047A800D8EF23F0DAEF23F0EEEF23F03F28D8A478
:1047B800E0EF23F0E2EF23F0EAEF23F0000E286E9B
:1047C800000E296E000E2A6E000E2B6E2A8E2B6AA2
:1047D800F6EF23F0000E286E000E296E000E2A6EEA
:1047E800000E2B6E2F50800B381A2F502F24406E3E
:1047F8002EAE01EF24F003EF24F004EF24F0408004
:104808004050D8B40AEF24F00CEF24F020EF24F045
:104818004028D8A412EF24F014EF24F01CEF24F061
:10482800000E2C6E000E2D6E000E2E6E000E2F6EDA
:104838002E8E2F6A28EF24F0000E2C6E000E2D6E9F
:10484800000E2E6E000E2F6E2C502D102E102F10D5
:10485800D8A431EF24F033EF24F04BEF24F0000E0E
:10486800286E000E296E000E2A6E000E2B6E800E2A
:104878002A127F0E2B1238502B1228C028F029C07C
:1048880029F02AC02AF02BC02BF08BEF25F03F50DF
:10489800D8A451EF24F053EF24F05DEF24F0000E7C
:1048A800286E000E296E000E2A6E000E2B6E8BEFFE
:1048B80025F040503FC030F0316A305E000E315A6A
:1048C8007F0E3024396E000E31203A6E28C034F045
:1048D80029C035F02AC036F02BC037F0000E286EFC
:1048E800000E296E000E2A6E000E2B6E000E3B6E17
:1048F800000E3C6E000E3D6E000E3E6E406ABDEF2F
:1049080024F04050D8B48BEF24F08DEF24F0A4EFBE
:1049180024F0D8903436353636363736D89028369F
:1049280029362A362B363EAE9CEF24F09EEF24F033
:104938009FEF24F02880D8903B363C363D363E36F3
:104948002C50345C2D5035582E5036582F5037582F
:10495800D8A0B1EF24F0B3EF24F0BCEF24F03E8CE4
:104968002C50345E2D50355A2E50365A2F50375A07
:10497800402A190E4064C3EF24F0C5EF24F085EFF8
:1049880024F03450351036103710D8B4CEEF24F058
:10499800D0EF24F0E8EF24F03B80E8EF24F0D89043
:1049A800283629362A362B363EAEDDEF24F0DFEFE7
:1049B80024F0E0EF24F02880D8903B363C363D3692
:1049C8003E363906D8A03A062AAEEDEF24F0EFEFCE
:1049D80024F0D3EF24F0406A3EAEF5EF24F0F7EF71
:1049E80024F01BEF25F0FF0E3B14306EFF0E3C1435
:1049F800316EFF0E3D14326E7F0E3E14336E305012
:104A0800311032103310D8B40CEF25F00EEF25F02A
:104A180012EF25F0010E406E1BEF25F028A017EFCE
:104A280025F019EF25F01BEF25F00EEF25F040508B
:104A3800D8B421EF25F023EF25F047EF25F0010E3C
:104A48002826000E29222A222B222BA02EEF25F021
:104A580030EF25F047EF25F028C030F029C031F0BD
:104A68002AC032F02BC033F0333433323232313291
:104A7800303230C028F031C029F032C02AF033C0BB
:104A88002BF0394A3A2A3ABE52EF25F03A5008E15B
:104A98003928D8A052EF25F054EF25F05FEF25F024
:104AA800000E3A6E3968000E286E000E296E000E50
:104AB8002A6E000E2B6E3ABE6CEF25F03A5006E1D6
:104AC8003904D8B06AEF25F06CEF25F079EF25F0BE
:104AD800000E3A6E000E396E000E286E000E296E1A
:104AE800000E2A6E000E2B6E386A39C03FF03FA0C8
:104AF80080EF25F082EF25F085EF25F02A8E86EFEE
:104B080025F02A9ED8903F302B6E3FEF24F01200FC
:104B1800700ED36E020E936E816A818A8190150E93
:104B28000001ED6F4B0EEC6FBE0EE82EFED7EC2F9A
:104B3800FCD7ED2FFAD70000F6EC36F000EC37F092
:104B480009EC37F0000E0301F76F000EF66F010E47
:104B580049EC36F001C0ECF302C0EDF33CC341F080
:104B68003DC342F03EC343F03FC344F0000E2C6EF9
:104B7800000E2D6E800E2E6E440E2F6E000E136EDC
:104B8800000E146EA00E156E400E166EECC301F0EA
:104B9800EDC302F0036A046A000EB7EC2AF001C004
:104BA8000FF002C010F003C011F004C012F0C2EC04
:104BB8001FF00FC028F010C029F011C02AF012C051
:104BC8002BF0C4EC23F028C045F029C046F02AC0D9
:104BD80047F02BC048F067EC1DF041C03CF342C0E1
:104BE8003DF343C03EF344C03FF3020E0001ED6FB6
:104BF800040EEC6FBA0EE82EFED7EC2FFCD7ED2F83
:104C0800FAD700000301F64BF72BF7BF15EF26F094
:104C1800F75109E1320EF65DD8A015EF26F017EF2F
:104C280026F0ABEF25F03CC328F03DC329F03EC386
:104C38002AF03FC32BF0000E2C6E000E2D6E480E8E
:104C48002E6E420E2F6EC4EC23F028C03CF329C010
:104C58003DF32AC03EF32BC03FF3000E0301F96F6A
:104C6800000EF86F020E49EC36F001C0EEF302C0F8
:104C7800EFF3000E136E000E146EA00E156E400EAC
:104C8800166EEEC301F0EFC302F0036A046A000E69
:104C9800B7EC2AF001C00FF002C010F003C011F009
:104CA80004C012F0C2EC1FF00FC028F010C029F0A9
:104CB80011C02AF012C02BF0000E2C6E000E2D6EC3
:104CC800800E2E6E440E2F6EC4EC23F028C0F2F333
:104CD80029C0F3F32AC0F4F32BC0F5F3F2C32CF088
:104CE800F3C32DF0F4C32EF0F5C32FF0F2C355F043
:104CF800F3C356F0F4C357F0F5C358F0000E516EE5
:104D0800000E526EA00E536E400E546E04EC36F038
:104D180051C028F052C029F053C02AF054C02BF0DB
:104D2800C4EC23F028C0E8F329C0E9F32AC0EAF369
:104D38002BC0EBF3D0C341F0D1C342F0D2C343F050
:104D4800D3C344F0E8C345F0E9C346F0EAC347F0EB
:104D5800EBC348F067EC1DF041C0D0F342C0D1F37B
:104D680043C0D2F344C0D3F3020E0001ED6F040E2A
:104D7800EC6FBA0EE82EFED7EC2FFCD7ED2FFAD742
:104D880000000301F84BF92BF9BFD4EF26F0F951D5
:104D980009E1320EF85DD8A0D4EF26F0D6EF26F060
:104DA80036EF26F0D0C328F0D1C329F0D2C32AF0B9
:104DB800D3C32BF0000E2C6E000E2D6E480E2E6EF7
:104DC800420E2F6EC4EC23F028C0D0F329C0D1F3D3
:104DD8002AC0D2F32BC0D3F3000E0301F16F000EEB
:104DE800F06FFA0E0201FA27000EFB23FC23FD23C5
:104DF80063EC2CF00001EF51D8A405EF27F007EF82
:104E080027F014EF27F05CEC17F00001EE51D8A45E
:104E180010EF27F012EF27F014EF27F020EC2DF019
:104E28004FEC27F0B7EC2DF0F5EC34F00301F1511D
:104E380009E1040EF05DD8A024EF27F026EF27F053
:104E48002DEF27F045EC32F0000E0301F16F000E54
:104E5800F06FF04BF12B010E5325016E026A000E24
:104E68000222000E046E050E036E13EC33F001509F
:104E78000301536F030E0001ED6F8A0EEC6F550EA0
:104E8800E82EFED7EC2FFCD7ED2FFAD700D0F5EFA0
:104E980026F007EF00F003015551D8B456EF27F07C
:104EA80058EF27F001EF28F05451D8A45EEF27F00F
:104EB80060EF27F001EF28F0FAC228F3FBC229F3CC
:104EC800FCC22AF3FDC22BF344C324F345C325F3E4
:104ED80046C326F347C327F340C320F341C321F356
:104EE80042C322F343C323F338C31CF339C31DF36E
:104EF8003AC31EF33BC31FF330C318F331C319F38E
:104F080032C31AF333C31BF35E50D8B48EEF27F0C5
:104F180090EF27F09CEF27F0A80E016E030E026EAB
:104F2800A10E036E7F0E046E8AEC36F0E7EF27F0D1
:104F380044C360F045C361F046C362F047C363F001
:104F4800000E0001646F000E656F200E666F420E42
:104F5800676F57EC2FF00001D8A0B5EF27F0B7EF37
:104F680027F0C3EF27F0A80E016E030E026E7F0E26
:104F7800036E7F0E046E8AEC36F0E7EF27F038C335
:104F880060F039C361F03AC362F03BC363F0000ECE
:104F9800646F000E656F480E666F420E676F57ECC0
:104FA8002FF00001D8A0DBEF27F0DDEF27F0E7EFC7
:104FB80027F0A80E016E030E026EC40E036E7F0E5C
:104FC800046E8AEC36F0960E0001B06F020EB16FD7
:104FD800920EB26F7F0EB36FA80EB46F030EB56F4B
:104FE80027EC36F0AE0E0001DE6F7F0EDF6F960EF7
:104FF800E06F020EE16F67EC34F003015551D8A45D
:1050080008EF28F00AEF28F091EF28F05451D8B4AF
:1050180010EF28F012EF28F091EF28F02851020144
:10502800FA5D016E030129510201FB59026E030169
:105038002A510201FC59036E03012B510201FD594B
:10504800046EE80E056E030E066E000E076E000E67
:10505800086E15EC34F001C0E4F002C0E5F003C0BE
:10506800E6F004C0E7F030C351F031C352F032C368
:1050780053F033C354F018C355F019C356F01AC38C
:1050880057F01BC358F004EC36F051C0E8F052C09A
:10509800E9F053C0EAF054C0EBF0000E0001B06F25
:1050A800020EB16F620EB26F7F0EB36FE4C0B4F040
:1050B800E5C0B5F0E6C0B6F0E7C0B7F0E8C0B8F0B4
:1050C800E9C0B9F0EAC0BAF0EBC0BBF027EC36F0A3
:1050D800CE0E0001DE6F7F0EDF6F000EE06F020E56
:1050E800E16F67EC34F0330E0001E36FBB0EE26F43
:1050F800DF0EE82EFED7E22FFCD7E32FFAD700D039
:10510800000E0301306F000E316F000E326F000E7B
:10511800336F000E4F6F000E4E6F55C354F31200DD
:1051280028C036F029C037F02AC038F02BC039F033
:105138002DBEA8EF28F02D5009E1800E2C5CD8A0D8
:10514800A8EF28F0AAEF28F008EF29F036C00FF0F2
:1051580037C010F038C011F039C012F0000E136ECD
:10516800000E146E000E156E7F0E166EC2EC1FF048
:105178000FC036F010C037F011C038F012C039F047
:10518800810E2C26FF0E2D222DBED4EF28F02D5097
:1051980009E1800E2C5CD8A0D4EF28F0D6EF28F0D7
:1051A80072EF29F036C00FF037C010F038C011F098
:1051B80039C012F0000E136E000E146E000E156E3C
:1051C8007F0E166EC2EC1FF00FC036F010C037F01D
:1051D80011C038F012C039F0810E2C26FF0E2D2296
:1051E8002DBE00EF29F02D5009E1800E2C5CD8A0CF
:1051F80000EF29F002EF29F072EF29F0000E2D6E72
:105208007F0E2C6E72EF29F02DAE14EF29F0820E6E
:105218002C5CFF0E2D58D8B014EF29F016EF29F0AA
:1052280072EF29F036C00FF037C010F038C011F017
:1052380039C012F0000E136E000E146E800E156E3B
:105248000C0E166EC2EC1FF00FC036F010C037F00F
:1052580011C038F012C039F0660E2C26000E2D222F
:105268002DAE40EF29F0820E2C5CFF0E2D58D8B0E1
:1052780040EF29F042EF29F072EF29F036C00FF025
:1052880037C010F038C011F039C012F0000E136E9C
:10529800000E146E800E156E0C0E166EC2EC1FF00A
:1052A8000FC036F010C037F011C038F012C039F016
:1052B800660E2C26000E2D222DAE6CEF29F0820EE4
:1052C8002C5CFF0E2D58D8B06CEF29F06EEF29F04A
:1052D80072EF29F0FF0E2D6E820E2C6E7F0E2C249D
:1052E8002E6E000E2D202F6E306A316A170ED89060
:1052F8002E362F3630363136E82E7BEF29F02EC089
:1053080032F02FC033F030C034F031C035F032C045
:105318000FF033C010F034C011F035C012F036C0B1
:1053280013F037C014F038C015F039C016F0C2ECCD
:105338001FF00FC028F010C029F011C02AF012C0C9
:105348002BF028C028F029C029F02AC02AF02BC049
:105358002BF0120000C351F001C352F002C353F006
:1053680003C354F041C051F042C052F043C053F05F
:1053780044C054F0810E456EFF0E466E51C047F092
:1053880052C048F053C049F054C04AF0180ED2EF4A
:1053980029F0D8904A32493248324732E82ECDEFC8
:1053A80029F0475045244F6E000E4620506E50BEDF
:1053B800E7EF29F0505009E1170E4F5CD8A0E7EF4E
:1053C80029F0E9EF29F0F3EF29F041C041F042C09C
:1053D80042F043C043F044C044F0B6EF2AF050BE58
:1053E800F8EF29F0FAEF29F06AEF2AF04FC045F0FC
:1053F800FF0E466EFF0E476E7F0E486E000E496E1A
:10540800456609EF2AF011EF2AF04934493248324B
:1054180047324632452E04EF2AF046C04BF047C0CB
:105428004CF048C04DF049C04EF04B505114456EF9
:105438004C505214466E4D505314476E4E505414EF
:10544800486E4550461047104810D8A42EEF2AF051
:1054580030EF2AF032EF2AF0E9EF29F051C045F099
:1054680052C046F053C047F054C048F0200E42EFF7
:105478002AF0D8904832473246324532E82E3DEF7E
:105488002AF04550461047104810D8B44EEF2AF07D
:1054980050EF2AF058EF2AF04B5051264C50522228
:1054A8004D5053224E5054224B1C456E4C1C466E98
:1054B8004D1C476E4E1C486E4550511646505216AC
:1054C8004750531648505416AEEF2AF051C045F0D5
:1054D80052C046F053C047F054C048F0200E7AEF4F
:1054E8002AF0D8904832473246324532E82E75EFD6
:1054F8002AF04550461047104810D8A486EF2AF0E5
:1055080088EF2AF092EF2AF0000E516E000E526ECC
:10551800000E536E000E546EAEEF2AF0D890513440
:10552800456E5234466E5334476E5434486E455077
:10553800461047104810D8B4A4EF2AF0A6EF2AF076
:10554800AEEF2AF0000E516E000E526E800E536EB2
:10555800BF0E546E51C041F052C042F053C043F0E8
:1055680054C044F01200096E0950D8B4BEEF2AF0B6
:10557800C0EF2AF0E2EF2AF004BEC7EF2AF0C5EF29
:105588002AF0E2EF2AF001C005F002C006F003C0DD
:1055980007F004C008F0051E061E071E081E052A8F
:1055A800000E06220722082205C00BF006C00CF0E8
:1055B80007C00DF008C00EF0EAEF2AF001C00BF0AA
:1055C80002C00CF003C00DF004C00EF00150021030
:1055D80003100410D8A4F3EF2AF0F5EF2AF0FFEF38
:1055E8002AF0000E016E000E026E000E036E000E11
:1055F800046E90EF2BF0960E0A6E09EF2BF00A2A34
:10560800D8900E320D320C320B32000E0B14056E90
:10561800000E0C14066E000E0D14076EFE0E0E140E
:10562800086E0550061007100810D8A41EEF2BF0BE
:1056380020EF2BF003EF2BF02EEF2BF00A2A010EB0
:105648000B26000E0C220D220E22D8900E320D329F
:105658000C320B32000E0B14056E000E0C14066E85
:10566800000E0D14076EFF0E0E14086E055006107E
:1056780007100810D8A443EF2BF045EF2BF022EFCA
:105688002BF04DEF2BF00A06D8900B360C360D3662
:105698000E360DBE52EF2BF054EF2BF05CEF2BF0D3
:1056A800020E0A605AEF2BF05CEF2BF047EF2BF05D
:1056B8000AB061EF2BF063EF2BF064EF2BF00D9E37
:1056C800D8900A320AC005F0066A076A086A05C057
:1056D80008F0076A066A056A05500B1206500C1294
:1056E80007500D1208500E120950D8B47EEF2BF057
:1056F80080EF2BF088EF2BF004BE87EF2BF085EFBF
:105708002BF088EF2BF00E8E0BC001F00CC002F0CE
:105718000DC003F00EC004F012001BBE96EF2BF074
:1057280099EF2BF0010E9AEF2BF0000E226E02017A
:10573800FFBFA3EF2BF0A1EF2BF0A9EF2BF0000E8A
:10574800216E010E206EADEF2BF0FEC220F0FFC2DD
:1057580021F04AC31EF04BC31FF02250D8B4B7EF54
:105768002BF0B9EF2BF0D0EF2BF01E06D8A01F06B8
:105778002250D8A4C2EF2BF0C4EF2BF0CAEF2BF0C5
:10578800000E1D6E2B0E1C6ECEEF2BF0000E1D6E44
:105798002D0E1C6E1CC022F0000E246E4F0E236EC0
:1057A8000301A76B1CEF2CF02306D8A02406580E83
:1057B8002324D96E030E2420DA6E18C001F019C014
:1057C80002F01AC003F01BC004F00A0E056E000EAA
:1057D800066E000E076E000E086E5CEC31F001C01C
:1057E8000BF002C00CF0C2EC36F00B50300FDF6E3D
:1057F8002006D8A021061E06D8A01F0618C001F052
:1058080019C002F01AC003F01BC004F00A0E056E9E
:10581800000E066E000E076E000E086ED2EC2EF01B
:1058280001C018F002C019F003C01AF004C01BF040
:1058380024BE27EF2CF0245008E12304D8A027EF3A
:105848002CF029EF2CF041EF2CF0185019101A10F9
:105858001B10D8A432EF2CF034EF2CF0D8EF2BF03B
:1058680021BE41EF2CF0215006E12004D8B03FEFD3
:105878002CF041EF2CF0D8EF2BF02250D8B447EFA2
:105888002CF049EF2CF054EF2CF02306D8A0240676
:10589800580E2324D96E030E2420DA6E22C0DFFFAF
:1058A80017C00FF0580E2324106E030E2420116E1B
:1058B8001EC012F01FC013F032EC35F012009EAA81
:1058C80068EF2CF06AEF2CF0ADEF2CF0AECF0FF0B4
:1058D8009EEF2CF00001EE51D8A475EF2CF077EF75
:1058E8002CF0ADEF2CF0010EEE6FFAC22CF3FBC2D8
:1058F8002DF3FCC22EF3FDC22FF330C301F031C3E8
:1059080002F032C303F033C304F0DAEC2FF001C025
:1059180014F302C015F303C016F304C017F3ADEF78
:105928002CF0010E0001EF6FADEF2CF00001EF6BD2
:10593800ADEF2CF00F50520AD8B49AEF2CF0010AB0
:10594800D8B495EF2CF0070AD8B46EEF2CF0ADEF71
:105958002CF00001EE51D8B4B4EF2CF0B6EF2CF0D7
:105968001FEF2DF08180010E0301576F10510201C6
:10597800FA5D0B6E030111510201FB590C6E030114
:1059880012510201FC590D6E030113510201FD5918
:105998000E6E0E500D100BE1F40E0B5C010E0C5840
:1059A800D8A0D9EF2CF0DBEF2CF0F4EF2CF081AA83
:1059B800E0EF2CF0E4EF2CF00B6A0B2AE5EF2CF06B
:1059C8000B6A0B3A0B4681500B18DF0B0B18816ED4
:1059D800FAC210F3FBC211F3FCC212F3FDC213F3B7
:1059E800010E0301566F2C510201FA5D0B6E030183
:1059F8002D510201FB590C6E03012E510201FC5975
:105A08000D6E03012F510201FD590E6E0E500D103F
:105A18000BE1100E0B5C270E0C58D8A016EF2DF0DA
:105A280018EF2DF01FEF2DF00001EE6B8190818AA9
:105A38000301576B566B1200010E5D6E5E50D8A4C1
:105A480028EF2DF02AEF2DF060EF2DF044C360F021
:105A580045C361F046C362F047C363F0000E00011E
:105A6800646F000E656F200E666F420E676F57EC0D
:105A78002FF00001D8B043EF2DF045EF2DF060EF87
:105A88002DF038C360F039C361F03AC362F03BC30C
:105A980063F0000E646F000E656F480E666F420E6D
:105AA800676F57EC2FF00001D8B05DEF2DF05FEF76
:105AB8002DF060EF2DF05D6A5DC055F3030155517F
:105AC800D8B469EF2DF06BEF2DF0B2EF2DF0818097
:105AD800010E576F08510201FA5D0001686F03015A
