:0400000007EF00F016
:100008005F82DAED38F08DEF37F060C068F161C0DB
:1000180069F162C06AF163C06BF164C084F165C0C4
:1000280085F166C086F167C087F1FF0E010168158A
:10003800AC6FFF0E6915AD6FFF0E6A15AE6F7F0EC0
:100048006B15AF6FFF0E8415946FFF0E8515956FB6
:10005800FF0E8615966F7F0E8715976F9451951131
:1000680096119711D8A43BEF00F03DEF00F048EF50
:1000780000F0000E0001606F000E616F800E626F6D
:100088003F0E636F61EF12F0800E6A1909E13F0EAF
:100098006B1968116911D8A454EF00F056EF00F0FD
:1000A80061EF00F0000E0001606F000E616F800EBE
:1000B800626F3F0E636F61EF12F0AFBF72EF00F037
:1000C800AC05000EAD59800EAE597F0EAF59D8B0B1
:1000D80070EF00F072EF00F083EF00F097BF81EF50
:1000E80000F09405000E9559800E96597F0E975989
:1000F800D8A081EF00F083EF00F09FEF00F060C020
:100108000FF061C010F062C011F063C012F064C05B
:1001180013F065C014F066C015F067C016F047EC20
:100128001CF00FC060F010C061F011C062F012C086
:1001380063F061EF12F0000E546F000E556F000E61
:10014800566F000E576F6BBFAEEF00F0ACEF00F0CC
:100158007AEF01F097BFBAEF00F0800E965D4B0E74
:100168009759D8A0BAEF00F0BCEF00F0C6EF00F046
:10017800020E546F000E556F000E566F000E576F2B
:100188007AEF01F097BFD2EF00F0800E965D3F0E38
:100198009759D8A0D2EF00F0D4EF00F07AEF01F031
:1001A800170E0001686F94C169F095C16AF096C195
:1001B8006BF097C16CF06867E4EF00F0ECEF00F0CB
:1001C8006C356C336B336A336933682FDFEF00F0BB
:1001D800810E000169250101A46FFF0E00016A214B
:1001E8000101A56FFF0E00016B210101A66FFF0E33
:1001F80000016C210101A76FA45117080001686F65
:1002080094C169F095C16AF096C16BF097C16CF022
:10021800686711EF01F019EF01F06C356C336B333F
:100228006A336933682F0CEF01F069C0A8F16AC01E
:10023800A9F16BC0AAF16CC0ABF10101A451170878
:100248000001686FA8C169F0A9C16AF0AAC16BF082
:10025800ABC16CF0682B36EF01F0D89069376A377C
:100268006B376C37682F31EF01F0010194510001B1
:10027800691913E10101955100016A190EE10101A3
:10028800965100016B1909E10101975100016C19A0
:10029800D8A451EF01F053EF01F07AEF01F0010E0D
:1002A8000101A8150001686F000E0101A9150001E0
:1002B800696F000E0101AA1500016A6F000E0101A5
:1002C800AB1500016B6F685102080101546F000EF5
:1002D800000169550101556F000E00016A550101C1
:1002E800566F000E00016B550101576F800E01011A
:1002F800961909E17F0E971994119511D8A487EFE3
:1003080001F089EF01F0F5EF01F0800EAE1909E177
:100318003F0EAF19AC11AD11D8A495EF01F097EFCE
:1003280001F0A2EF01F0000E0001606F000E616F96
:10033800800E626F3F0E636F61EF12F0AFBFB1EFD7
:1003480001F0AC05000EAD59800EAE593F0EAF5905
:10035800D8A0B1EF01F0B3EF01F0CFEF01F087BF04
:10036800BAEF01F0B8EF01F0C5EF01F0000E00019F
:10037800606F000E616F000E626F000E636F61EFB9
:1003880012F064C060F065C061F066C062F067C0DA
:1003980063F061EF12F087BFD6EF01F0D4EF01F000
:1003A800EAEF01F064C001F065C002F066C003F036
:1003B80067C004F0A4EC38F001C060F002C061F03E
:1003C80003C062F004C063F061EF12F0000E000198
:1003D800606F000E616F000E626F000E636F61EF59
:1003E80012F0800E961909E13F0E97199411951194
:1003F800D8A401EF02F003EF02F030EF02F087BF5C
:100408000AEF02F008EF02F026EF02F0000E406E4D
:10041800000E416E800E426E3F0E436E60C044F087
:1004280061C045F062C046F063C047F0A4EC22F01A
:1004380040C060F041C061F042C062F043C063F068
:1004480061EF12F060C060F061C061F062C062F0FC
:1004580063C063F061EF12F0400E871984118511B3
:100468008611D8A43AEF02F03CEF02F058EF02F000
:1004780060C01FF061C020F062C021F063C022F0AC
:1004880060C023F061C024F062C025F063C026F08C
:10049800A2EC1EF01FC060F020C061F021C062F025
:1004A80022C063F061EF12F03F0E871984118511A5
:1004B8008611D8A462EF02F064EF02F07FEF02F039
:1004C8006BBF69EF02F06BEF02F07FEF02F060C0E4
:1004D80001F061C002F062C003F063C004F0B5EC43
:1004E80020F001C060F002C061F003C062F004C0F7
:1004F80063F061EF12F0ACC178F1ADC179F1AEC132
:100508007AF1AFC17BF1800EAE190BE17F0EAF1906
:10051800AC11AD11D8B493EF02F095EF02F0AEEF45
:1005280002F0AC51AD11AE11AF11D8B49EEF02F08C
:10053800A0EF02F0AEEF02F0800EAE1909E13F0E17
:10054800AF19AC11AD11D8A4ACEF02F0AEEF02F0C8
:1005580048EF03F078C1B4F179C1B5F17AC1B6F1C9
:100568007BC1B7F187BFBDEF02F0BBEF02F0D7EF59
:1005780002F0000E406E000E416E800E426E3F0E7D
:10058800436EB4C144F0B5C145F0B6C146F0B7C139
:1005980047F0A4EC22F040C0B4F141C0B5F142C02C
:1005A800B6F143C0B7F101016BBFDFEF02F0DDEF39
:1005B80002F03EEF03F0000EAC250001686F000E5C
:1005C8000101AD210001696F800E0101AE2100011A
:1005D8006A6FC00E0101AF2100016B6F0101545118
:1005E800000168116C6F01015551000169116D6FAF
:1005F8000101565100016A116E6F01015751000146
:100608006B116F6F6C516D116E116F11D8A40FEFD4
:1006180003F011EF03F020EF03F0000E0101ED6F7E
:10062800210EEC6FFF0EB46FFF0EB56FFF0EB66FA5
:100638007F0EB76F3EEF03F00101540555115611B7
:100648005711D8A42AEF03F02CEF03F03EEF03F084
:10065800B4C101F0B5C102F0B6C103F0B7C104F0EE
:10066800A4EC38F001C0B4F102C0B5F103C0B6F192
:1006780004C0B7F1B4C160F0B5C161F0B6C162F0B1
:10068800B7C163F061EF12F0000E646F000E656F82
:10069800000E666F000E676F6BBF57EF03F055EFE4
:1006A80003F077EF03F05451551156115711D8A4A0
:1006B80060EF03F062EF03F064EF03F011EF03F073
:1006C8005405551156115711D8A46DEF03F06FEF6B
:1006D80003F077EF03F0000E646F000E656F000EF5
:1006E800666F800E676F97BF86EF03F09405000E64
:1006F8009559000E96594D0E9759D8A086EF03F0DC
:1007080088EF03F04CEF05F0AFBF9AEF03F0F80E57
:10071800AC5DFF0EAD597F0EAE593F0EAF59D8B044
:1007280098EF03F09AEF03F0BBEF03F087BFA1EF58
:1007380003F09FEF03F0B0EF03F0000E0101641126
:10074800B46F000E6511B56F800E6611B66F7F0E1F
:100758006711B76F3EEF03F0000E0001606F000EE7
:10076800616F000E626F000E636F61EF12F0AFBF32
:10077800CBEF03F0080EAC5D000EAD59800EAE59FC
:100788003F0EAF59D8A0CBEF03F0CDEF03F0E9EF60
:1007980003F087BFDAEF03F087518611851108E16E
:1007A8008405D8A0DAEF03F0DCEF03F0DEEF03F006
:1007B800A1EF03F0000E0001606F000E616F000EE4
:1007C800626F000E636F61EF12F078C10FF079C1AC
:1007D80010F07AC111F07BC112F0000E136E000EFA
:1007E800146E800E156EBF0E166E47EC1CF00FC00F
:1007F800B0F110C0B1F111C0B2F112C0B3F1000EE6
:10080800236E000E246E800E256E3E0E266EB0C13D
:100818001FF0B1C120F0B2C121F0B3C122F0A2ECA7
:100828001EF01FC03CF020C03DF021C03EF022C0A9
:100838003FF0AB0E386EAA0E396EAA0E3A6E3E0E17
:100848003B6E02EC38F038C048F139C049F13AC083
:100858004AF13BC04BF1B0C123F0B1C124F0B2C1A1
:1008680025F0B3C126F0B0C11FF0B1C120F0B2C16C
:1008780021F0B3C122F0A2EC1EF01FC058F120C035
:1008880059F121C05AF122C05BF1B0C123F0B1C1C6
:1008980024F0B2C125F0B3C126F048C11FF049C108
:1008A80020F04AC121F04BC122F0A2EC1EF01FC07B
:1008B8003CF020C03DF021C03EF022C03FF0000EC9
:1008C800386E000E396E000E3A6E3F0E3B6E02EC2B
:1008D80038F038C04CF139C04DF13AC04EF13BC048
:1008E8004FF158C11FF059C120F05AC121F05BC126
:1008F80022F04CC123F04DC124F04EC125F04FC168
:1009080026F0A2EC1EF01FC044F120C045F121C022
:1009180046F122C047F1B0C11FF0B1C120F0B2C109
:1009280021F0B3C122F0000E236EAA0E246EB80E79
:10093800256E3F0E266EA2EC1EF01FC07CF120C073
:100948007DF121C07EF122C07FF1700E236EA50ECD
:10095800246EEC0E256E360E266EB0C11FF0B1C1A6
:1009680020F0B2C121F0B3C122F0A2EC1EF01FC0EA
:1009780038F020C039F021C03AF022C03BF03B0EDD
:10098800236EAA0E246EB80E256E3F0E266E44C145
:100998001FF045C120F046C121F047C122F0A2EC6A
:1009A8001EF01FC03CF020C03DF021C03EF022C028
:1009B8003FF002EC38F038C080F139C081F13AC01C
:1009C80082F13BC083F17CC10FF07DC110F07EC184
:1009D80011F07FC112F080C113F081C114F082C1FF
:1009E80015F083C116F047EC1CF00FC08CF110C055
:1009F8008DF111C08EF112C08FF18CC198F18DC1AB
:100A080099F18EC19AF18FC19BF1000E01019815E1
:100A18008C6FF00E99158D6FFF0E9A158E6FFF0E65
:100A28009B158F6F7CC13CF07DC13DF07EC13EF0CF
:100A38007FC13FF08CC138F08DC139F08EC13AF0DA
:100A48008FC13BF002EC38F038C09CF139C09DF101
:100A58003AC09EF13BC09FF180C138F081C139F0A6
:100A680082C13AF083C13BF09CC13CF09DC13DF08E
:100A78009EC13EF09FC13FF002EC38F038C01CF137
:100A880039C01DF13AC01EF13BC01FF15AEF0CF0FE
:100A9800000E886F000E896F000E8A6F000E8B6F34
:100AA800AFBF62EF05F0AF5107E1800EAE5DD8B081
:100AB80060EF05F062EF05F08DEF05F078C11FF0EB
:100AC80079C120F07AC121F07BC122F0000E236E9B
:100AD800000E246E800E256E4B0E266EA2EC1EF0C4
:100AE8001FC078F120C079F121C07AF122C07BF1D2
:100AF800E80E01018827FF0E8923FF0E8A23FF0EC7
:100B08008B2378C1ACF179C1ADF17AC1AEF17BC16B
:100B1800AFF1170E0001686FACC169F0ADC16AF0A2
:100B2800AEC16BF0AFC16CF068679DEF05F0A5EF43
:100B380005F06C356C336B336A336933682F98EF83
:100B480005F0810E000169256D6FFF0E6A216E6F39
:100B5800FF0E6B216F6FFF0E6C21706F6D510101DD
:100B6800882700016E510101892300016F5101019D
:100B78008A230001705101018B23FF0EAC15A86F69
:100B8800FF0EAD15A96F7F0EAE15AA6F000EAF153B
:100B9800AB6F000EA46F000EA56F000EA66F000EBF
:100BA800A76F000EA811AC6F000EA911AD6F800ED3
:100BB800AA11AE6F3F0EAB11AF6FABBFF3EF05F0ED
:100BC800AB510BE1720EA85DC40EA9591C0EAA59AF
:100BD800D8B0F1EF05F0F3EF05F0F5EF05F01FEFF2
:100BE80006F0ABBF07EF06F0AB510BE1D70EA85DDF
:100BF800B30EA9595D0EAA59D8B005EF06F007EF54
:100C080006F011EF06F0010EA46F000EA56F000E9E
:100C1800A66F000EA76F1FEF06F0010E8827000EC3
:100C280089238A238B23000EAC27000EAD23800E68
:100C3800AE23FF0EAF23ACC178F1ADC179F1AEC1DF
:100C48007AF1AFC17BF178C138F079C139F07AC156
:100C58003AF07BC13BF0A4C168F0A5C169F000017E
:100C6800D89068376937D890683769376B0E682528
:100C7800F66E7E0E6921F76E0900F5CF3CF009008B
:100C8800F5CF3DF00900F5CF3EF00A00F5CF3FF073
:100C980002EC38F038C07CF139C07DF13AC07EF101
:100CA8003BC07FF1000E406E000E416E800E426E1A
:100CB8003F0E436E78C113F079C114F07AC115F074
:100CC8007BC116F0A4C168F0A5C169F00001D890F5
:100CD80068376937D890683769376B0E6825F66EBC
:100CE8007E0E6921F76E0900F5CF0FF00900F5CFE8
:100CF80010F00900F5CF11F00A00F5CF12F047EC1B
:100D08001CF00FC044F010C045F011C046F012C0EE
:100D180047F0A4EC22F040C080F141C081F142C00C
:100D280082F143C083F17CC11FF07DC120F07EC1F8
:100D380021F07FC122F080C123F081C124F082C15B
:100D480025F083C126F0A2EC1EF01FC060F120C080
:100D580061F121C062F122C063F160C174F161C127
:100D680075F162C176F163C177F174C198F175C10B
:100D780099F176C19AF177C19BF1000E010198159E
:100D8800746FF00E9915756FFF0E9A15766FFF0E3A
:100D98009B15776FACC168F0ADC169F0AEC16AF060
:100DA800AFC16BF000016B356B336A33693368335D
:100DB800000E68156C6FF00E69156D6FFF0E6A15E1
:100DC8006E6FFF0E6B156F6F000E6C110101986F3F
:100DD800000E00016D110101996F000E00016E11E6
:100DE80001019A6F200E00016F1101019B6FA4C1D0
:100DF80068F0A5C169F0A6C16AF0A7C16BF0150E2D
:100E0800D8900001683769376A376B37E82E04EFE6
:100E180007F001019851000168256C6F0101995193
:100E2800000169216D6F01019A5100016A216E6FFD
:100E380001019B5100016B216F6F000E6C250101B0
:100E4800706F000E00016D210101716F400E0001ED
:100E58006E210101726F000E00016F210101736F95
:100E6800A4C168F0A5C169F00001D8906837693756
:100E7800D890683769376B0E6825F66E7E0E692143
:100E8800F76E0900F5CF3CF00900F5CF3DF00900F9
:100E9800F5CF3EF00A00F5CF3FF070C138F071C1D0
:100EA80039F072C13AF073C13BF002EC38F038C047
:100EB8009CF139C09DF13AC09EF13BC09FF178C1C9
:100EC80038F079C139F07AC13AF07BC13BF09CC166
:100ED8003CF09DC13DF09EC13EF09FC13FF002EC49
:100EE80038F038C034F139C035F13AC036F13BC07A
:100EF80037F170C123F071C124F072C125F073C1BC
:100F080026F074C11FF075C120F076C121F077C1B9
:100F180022F0A2EC1EF01FC03CF020C03DF021C022
:100F28003EF022C03FF07CC138F07DC139F07EC16F
:100F38003AF07FC13BF002EC38F038C09CF139C080
:100F48009DF13AC09EF13BC09FF134C123F035C1F9
:100F580024F036C125F037C126F074C11FF075C1E1
:100F680020F076C121F077C122F0A2EC1EF01FC05C
:100F78003CF020C03DF021C03EF022C03FF09CC1B3
:100F880038F09DC139F09EC13AF09FC13BF002ECA8
:100F980038F038C058F139C059F13AC05AF13BC05D
:100FA8005BF158C11FF059C120F05AC121F05BC153
:100FB80022F080C123F081C124F082C125F083C1D1
:100FC80026F0A2EC1EF01FC030F120C031F121C084
:100FD80032F122C033F160C11FF061C120F062C15B
:100FE80021F063C122F060C123F061C124F062C125
:100FF80025F063C126F0A2EC1EF01FC090F120C0BE
:1010080091F121C092F122C093F1550E136E320E68
:10101800146E6C0E156E3E0E166E420E236EF10E99
:10102800246E530E256E3E0E266E90C11FF091C1A0
:1010380020F092C121F093C122F0A2EC1EF01FC053
:101048000FF020C010F021C011F022C012F047ECC0
:101058001CF00FC048F110C049F111C04AF112C08C
:101068004BF1050E136EA30E146E8B0E156E3E0E0D
:10107800166E90C123F091C124F092C125F093C15E
:1010880026F048C11FF049C120F04AC121F04BC1E8
:1010980022F0A2EC1EF01FC00FF020C010F021C0FB
:1010A80011F022C012F047EC1CF00FC058F110C02C
:1010B80059F111C05AF112C05BF1AB0E136EAA0EB2
:1010C800146EAA0E156E3E0E166E90C123F091C1D5
:1010D80024F092C125F093C126F058C11FF059C1E0
:1010E80020F05AC121F05BC122F0A2EC1EF01FC013
:1010F8000FF020C010F021C011F022C012F047EC10
:101108001CF00FC04CF110C04DF111C04EF112C0CF
:101118004FF1B70E136E6D0E146EDB0E156E3E0E8C
:10112800166E90C123F091C124F092C125F093C1AD
:1011380026F04CC11FF04DC120F04EC121F04FC127
:1011480022F0A2EC1EF01FC00FF020C010F021C04A
:1011580011F022C012F047EC1CF00FC038F110C09B
:1011680039F111C03AF112C03BF19A0E136E990E83
:10117800146E190E156E3F0E166E90C123F091C1B4
:1011880024F092C125F093C126F038C11FF039C16F
:1011980020F03AC121F03BC122F0A2EC1EF01FC0A2
:1011A8000FF020C010F021C011F022C012F047EC5F
:1011B8001CF00FC000F110C001F111C002F112C003
:1011C80003F190C123F091C124F092C125F093C19D
:1011D80026F090C11FF091C120F092C121F093C177
:1011E80022F0A2EC1EF01FC004F120C005F121C0BE
:1011F80006F122C007F100C11FF001C120F002C1B1
:1012080021F003C122F004C123F005C124F006C176
:1012180025F007C126F0A2EC1EF01FC050F120C037
:1012280051F121C052F122C053F130C123F031C134
:1012380024F032C125F033C126F060C113F061C13A
:1012480014F062C115F063C116F074C10FF075C1D6
:1012580010F076C111F077C112F047EC1CF00FC006
:101268001FF010C020F011C021F012C022F0A2EC33
:101278001EF01FC05CF120C05DF121C05EF122C0EC
:101288005FF150C10FF051C110F052C111F053C1BC
:1012980012F05CC113F05DC114F05EC115F05FC1BE
:1012A80016F047EC1CF00FC050F110C051F111C0FE
:1012B80052F112C053F174C11FF075C120F076C10C
:1012C80021F077C122F074C123F075C124F076C1F2
:1012D80025F077C126F0A2EC1EF01FC090F120C0C7
:1012E80091F121C092F122C093F1000E136E000E0D
:1012F800146E400E156E400E166E90C10FF091C11F
:1013080010F092C111F093C112F047EC1CF00FC01D
:101318005CF110C05DF111C05EF112C05FF15CC1FB
:101328000FF05DC110F05EC111F05FC112F050C145
:1013380013F051C114F052C115F053C116F047EC27
:101348001CF00FC070F110C071F111C072F112C021
:1013580073F170C198F171C199F172C19AF173C1B9
:101368009BF1000E01019815706FF00E9915716FC1
:10137800FF0E9A15726FFF0E9B15736F000E136E9A
:10138800000E146E400E156EC00E166E70C10FF072
:1013980071C110F072C111F073C112F047EC1CF06A
:1013A8000FC03CF110C03DF111C03EF112C03FF139
:1013B80090C13CF091C13DF092C13EF093C13FF025
:1013C8003CC138F03DC139F03EC13AF03FC13BF075
:1013D80002EC38F038C040F139C041F13AC042F16E
:1013E8003BC043F150C138F051C139F052C13AF015
:1013F80053C13BF040C13CF041C13DF042C13EF019
:1014080043C13FF002EC38F038C034F139C035F14F
:101418003AC036F13BC037F174C11FF075C120F0F6
:1014280076C121F077C122F070C123F071C124F098
:1014380072C125F073C126F0A2EC1EF01FC07CF12A
:1014480020C07DF121C07EF122C07FF130C123F0A0
:1014580031C124F032C125F033C126F070C11FF02C
:1014680071C120F072C121F073C122F0A2EC1EF00C
:101478001FC00FF020C010F021C011F022C012F0E0
:1014880060C123F061C124F062C125F063C126F078
:1014980034C11FF035C120F036C121F037C122F028
:1014A800A2EC1EF01FC013F020C014F021C015F0EC
:1014B80022C016F047EC1CF00FC080F110C081F17B
:1014C80011C082F112C083F17CC10FF07DC110F010
:1014D8007EC111F07FC112F080C113F081C114F0F8
:1014E80082C115F083C116F047EC1CF00FC0A0F1C3
:1014F80010C0A1F111C0A2F112C0A3F1A0C198F1CE
:10150800A1C199F1A2C19AF1A3C19BF1000E0101F9
:101518009815A06FF00E9915A16FFF0E9A15A26F7E
:10152800FF0E9B15A36F7CC13CF07DC13DF07EC1D1
:101538003EF07FC13FF0A0C138F0A1C139F0A2C18F
:101548003AF0A3C13BF002EC38F038C09CF139C046
:101558009DF13AC09EF13BC09FF180C138F081C136
:1015680039F082C13AF083C13BF09CC13CF09DC187
:101578003DF09EC13EF09FC13FF002EC38F038C00C
:101588006CF139C06DF13AC06EF13BC06FF1A0C18A
:101598001FF0A1C120F0A2C121F0A3C122F0000ECA
:1015A800236E400E246E760E256E3F0E266EA2EC3C
:1015B8001EF01FC020F120C021F121C022F122C05D
:1015C80023F14F0E236E380E246E760E256E3F0ED5
:1015D800266E6CC11FF06DC120F06EC121F06FC185
:1015E80022F0A2EC1EF01FC013F020C014F021C09E
:1015F80015F022C016F0C60E236E230E246EF60ECA
:10160800256EB80E266EA0C11FF0A1C120F0A2C1A0
:1016180021F0A3C122F0A2EC1EF01FC00FF020C0E1
:1016280010F021C011F022C012F047EC1CF00FC0DE
:101638005CF110C05DF111C05EF112C05FF15CC1D8
:101648000FF05DC110F05EC111F05FC112F0A4C1CE
:1016580068F0A5C169F00001D89068376937D8905B
:10166800683769375B0E6825F66E7E0E6921F76E5E
:101678000900F5CF13F00900F5CF14F00900F5CFF4
:1016880015F00A00F5CF16F047EC1CF00FC024F156
:1016980010C025F111C026F112C027F188C101F050
:1016A80089C102F08AC103F08BC104F0010E66EC17
:1016B8002AF001C0B0F102C0B1F103C0B2F104C018
:1016C800B3F124C113F025C114F026C115F027C1C8
:1016D80016F020C10FF021C110F022C111F023C172
:1016E80012F047EC1CF00FC05CF110C05DF111C0A6
:1016F8005EF112C05FF1A4C168F0A5C169F00001F4
:10170800D89068376937D89068376937630E682585
:10171800F66E7E0E6921F76E0900F5CF13F0090009
:10172800F5CF14F00900F5CF15F00A00F5CF16F043
:101738005CC10FF05DC110F05EC111F05FC112F025
:1017480047EC1CF00FC008F110C009F111C00AF1F4
:1017580012C00BF108C10FF009C110F00AC111F055
:101768000BC112F0B0C113F0B1C114F0B2C115F041
:10177800B3C116F047EC1CF00FC08CF110C08DF10E
:1017880011C08EF112C08FF18CC198F18DC199F101
:101798008EC19AF18FC19BF1000E010198158C6FD3
:1017A800F00E99158D6FFF0E9A158E6FFF0E9B1513
:1017B8008F6FB0C13CF0B1C13DF0B2C13EF0B3C1D2
:1017C8003FF08CC138F08DC139F08EC13AF08FC12D
:1017D8003BF002EC38F038C09CF139C09DF13AC0BA
:1017E8009EF13BC09FF1A4C168F0A5C169F000015A
:1017F800D89068376937D89068376937630E682595
:10180800F66E7E0E6921F76E0900F5CF3CF00900EF
:10181800F5CF3DF00900F5CF3EF00A00F5CF3FF0D7
:101828009CC138F09DC139F09EC13AF09FC13BF090
:1018380002EC38F038C040F139C041F13AC042F109
:101848003BC043F120C13CF021C13DF022C13EF034
:1018580023C13FF040C138F041C139F042C13AF0EC
:1018680043C13BF002EC38F038C00CF139C00DF13F
:101878003AC00EF13BC00FF124C138F025C139F050
:1018880026C13AF027C13BF00CC13CF00DC13DF038
:101898000EC13EF00FC13FF002EC38F038C01CF129
:1018A80039C01DF13AC01EF13BC01FF164C098F168
:1018B80065C099F166C09AF167C09BF1000E0101FD
:1018C80098152C6FF00E99152D6FFF0E9A152E6F27
:1018D800FF0E9B152F6F8CC123F08DC124F08EC194
:1018E80025F08FC126F02CC13CF02DC13DF02EC152
:1018F8003EF02FC13FF064C038F065C039F066C0D3
:101908003AF067C03BF002EC38F038C01FF039C03D
:1019180020F03AC021F03BC022F0A2EC1EF01FC01C
:1019280010F120C011F121C012F122C013F110C131
:101938000FF011C110F012C111F013C112F01CC147
:1019480023F01DC124F01EC125F01FC126F064C07C
:101958001FF065C020F066C021F067C022F0A2EC3D
:101968001EF01FC013F020C014F021C015F022C0D3
:1019780016F047EC1CF00FC06CF110C06DF111C0EF
:101988006EF112C06FF12CC11FF02DC120F02EC1D5
:1019980021F02FC122F08CC123F08DC124F08EC11B
:1019A80025F08FC126F0A2EC1EF01FC0A0F120C0C8
:1019B800A1F121C0A2F122C0A3F1A0C10FF0A1C1E1
:1019C80010F0A2C111F0A3C112F06CC113F06DC1E7
:1019D80014F06EC115F06FC116F047EC1CF00FC083
:1019E800B4F110C0B5F111C0B6F112C0B7F1B4C16D
:1019F800A8F1B5C1A9F1B6C1AAF1B7C1ABF101010E
:101A0800ABBF13EF0DF0A805000EA959000EAA5997
:101A1800430EAB59D8A013EF0DF015EF0DF017EFEB
:101A28000DF0A1EF03F0430EAB19A811A911AA11EB
:101A3800D8A421EF0DF023EF0DF062EF0DF0A0C157
:101A48003CF0A1C13DF0A2C13EF0A3C13FF0B4C13A
:101A580038F0B5C139F0B6C13AF0B7C13BF002EC85
:101A680038F038C040F039C041F03AC042F03BC0CD
:101A780043F03C0E136EAA0E146E380E156E330E1C
:101A8800166E6CC10FF06DC110F06EC111F06FC110
:101A980012F047EC1CF00FC044F010C045F011C024
:101AA80046F012C047F0BAEC31F0D8B05EEF0DF056
:101AB80060EF0DF0D5EF0DF0A1EF03F0FF0EA815C4
:101AC8000001686FFF0E0101A9150001696FFF0E83
:101AD8000101AA1500016A6F7F0E0101AB15000113
:101AE8006B6F6BBF84EF0DF06805000E6959160E19
:101AF8006A59430E6B59D8A084EF0DF086EF0DF0AC
:101B080090EF0DF0000E606F000E616F000E626FB7
:101B1800000E636F61EF12F0160E0101AA1909E1B8
:101B2800C30EAB19A811A911D8A49DEF0DF09FEF12
:101B38000DF0D5EF0DF0A0C13CF0A1C13DF0A2C160
:101B48003EF0A3C13FF0B4C138F0B5C139F0B6C119
:101B58003AF0B7C13BF002EC38F038C040F039C079
:101B680041F03AC042F03BC043F06CC144F06DC153
:101B780045F06EC146F06FC147F0BAEC31F0D8A01D
:101B8800C8EF0DF0CAEF0DF0D5EF0DF0000E000113
:101B9800606F000E616F000E626F000E636F61EF81
:101BA80012F0FF0E0101A815286FFF0EA915296F65
:101BB800FF0EAA152A6F7F0EAB152B6F170E0001AB
:101BC800686F28C169F029C16AF02AC16BF02BC17E
:101BD8006CF06867F2EF0DF0FAEF0DF06C356C33CE
:101BE8006B336A336933682FEDEF0DF0810E000116
:101BF80069250101A46FFF0E00016A210101A56F8B
:101C0800FF0E00016B210101A66FFF0E00016C2180
:101C18000101A76F000E886F000E896F000E8A6F92
:101C2800000E8B6F2BBF25EF0EF02805000E2959EB
:101C3800000E2A593F0E2B59D8A025EF0EF027EF9A
:101C48000EF023EF0FF0A4C168F0010E0001682721
:101C5800000E696F000E6A6F800E6B6F000E6C6F5E
:101C6800686739EF0EF041EF0EF06C356C336B336B
:101C78006A336933682F34EF0EF00101A85100016F
:101C880069250101886FA95100016A210101896F45
:101C9800AA5100016B2101018A6FAB5100016C212F
:101CA80001018B6F810E0001686FFF0E696FFF0ED7
:101CB8006A6FFF0E6B6F170E6C6F88C16DF089C16C
:101CC8006EF08AC16FF08BC170F06C676EEF0EF02A
:101CD80076EF0EF0703570336F336E336D336C2FD3
:101CE80069EF0EF000016D5168250101A46F000E27
:101CF800000169210101A56F000E00016A2101019F
:101D0800A66F000E00016B210101A76FA4C168F046
:101D1800FF0E0001696FFF0E6A6F7F0E6B6F000E7A
:101D28006C6F68679AEF0EF0A2EF0EF06C356C33AB
:101D38006B336A336933682F95EF0EF00001691D24
:101D48006D6F6A1D6E6F6B1D6F6F6C1D706F01017B
:101D5800885100016D150101B06F895100016E15A0
:101D68000101B16F8A5100016F150101B26F8B51EA
:101D7800000170150101B36FA45117080001686FC5
:101D8800FF0E010188150001696FFF0E0101891519
:101D980000016A6F7F0E01018A1500016B6F000E4A
:101DA80001018B1500016C6F000E69116D6F000E3B
:101DB8006A116E6F800E6B116F6F000E6C11706F71
:101DC8006867E9EF0EF0F1EF0EF0703570336F339E
:101DD8006E336D33682FE4EF0EF06DC088F16EC07E
:101DE80089F16FC08AF170C08BF10101ABBF01EFBF
:101DF8000FF0FFEF0EF009EF0FF08B1F8A1F891FFE
:101E0800886D000E89238A238B23A0C138F0A1C1D5
:101E180039F0A2C13AF0A3C13BF0B0C13CF0B1C166
:101E28003DF0B2C13EF0B3C13FF002EC38F038C02B
:101E3800A0F139C0A1F13AC0A2F13BC0A3F1A0C101
:101E48000FF0A1C110F0A2C111F0A3C112F06CC132
:101E580013F06DC114F06EC115F06FC116F047ECA8
:101E68001CF00FC0B0F110C0B1F111C0B2F112C036
:101E7800B3F1B0C198F1B1C199F1B2C19AF1B3C14E
:101E88009BF1000E01019815B06F800E9915B16F86
:101E9800FF0E9A15B26FFF0E9B15B36FB0C11FF0FE
:101EA800B1C120F0B2C121F0B3C122F0000E236EFF
:101EB800720E246E310E256E3F0E266EA2EC1EF0B9
:101EC8001FC07CF120C07DF121C07EF122C07FF1CE
:101ED800A0C13CF0A1C13DF0A2C13EF0A3C13FF0BA
:101EE800B0C138F0B1C139F0B2C13AF0B3C13BF07A
:101EF80002EC38F038C09CF139C09DF13AC09EF12F
:101F08003BC09FF1180E236E720E246E310E256EA3
:101F18003F0E266E9CC13CF09DC13DF09EC13EF037
:101F28009FC13FF06CC138F06DC139F06EC13AF015
:101F38006FC13BF002EC38F038C01FF039C020F018
:101F48003AC021F03BC022F0A2EC1EF01FC014F1F1
:101F580020C015F121C016F122C017F114C10FF0ED
:101F680015C110F016C111F017C112F08C0E236EB6
:101F7800BE0E246EBF0E256E350E266EB0C11FF044
:101F8800B1C120F0B2C121F0B3C122F0A2EC1EF021
:101F98001FC013F020C014F021C015F022C016F0A5
:101FA80047EC1CF00FC080F110C081F111C082F124
:101FB80012C083F17CC10FF07DC110F07EC111F019
:101FC8007FC112F080C113F081C114F082C115F0F5
:101FD80083C116F047EC1CF00FC0B4F110C0B5F186
:101FE80011C0B6F112C0B7F17CC13CF07DC13DF023
:101FF8007EC13EF07FC13FF0B4C138F0B5C139F0C1
:10200800B6C13AF0B7C13BF002EC38F038C09CF1E9
:1020180039C09DF13AC09EF13BC09FF180C138F0B4
:1020280081C139F082C13AF083C13BF09CC13CF0D8
:102038009DC13DF09EC13EF09FC13FF002EC38F0DB
:1020480038C044F139C045F13AC046F13BC047F1C8
:10205800B4C11FF0B5C120F0B6C121F0B7C122F05C
:10206800B4C123F0B5C124F0B6C125F0B7C126F03C
:10207800A2EC1EF01FC0B0F120C0B1F121C0B2F136
:1020880022C0B3F10E0E136EEA0E146EDD0E156E3D
:10209800B50E166E4C0E236EBB0E246E310E256ED9
:1020A800330E266EB0C11FF0B1C120F0B2C121F0CD
:1020B800B3C122F0A2EC1EF01FC00FF020C010F038
:1020C80021C011F022C012F047EC1CF00FC048F1FB
:1020D80010C049F111C04AF112C04BF1550E136EF0
:1020E800B30E146E8A0E156E380E166EB0C123F03C
:1020F800B1C124F0B2C125F0B3C126F048C11FF028
:1021080049C120F04AC121F04BC122F0A2EC1EF0D7
:102118001FC00FF020C010F021C011F022C012F033
:1021280047EC1CF00FC058F110C059F111C05AF11A
:1021380012C05BF1610E136E0B0E146E360E156E27
:10214800BB0E166EB0C123F0B1C124F0B2C125F0A8
:10215800B3C126F058C11FF059C120F05AC121F06F
:102168005BC122F0A2EC1EF01FC00FF020C010F0DF
:1021780021C011F022C012F047EC1CF00FC04CF146
:1021880010C04DF111C04EF112C04FF1AB0E136EDD
:10219800AA0E146E2A0E156E3E0E166EB0C123F0EE
:1021A800B1C124F0B2C125F0B3C126F04CC11FF073
:1021B8004DC120F04EC121F04FC122F0A2EC1EF01B
:1021C8001FC00FF020C010F021C011F022C012F083
:1021D80047EC1CF00FC038F110C039F111C03AF1CA
:1021E80012C03BF1B4C138F0B5C139F0B6C13AF00C
:1021F800B7C13BF0B0C123F0B1C124F0B2C125F0A2
:10220800B3C126F038C11FF039C120F03AC121F01E
:102218003BC122F0A2EC1EF01FC03CF020C03DF0F4
:1022280021C03EF022C03FF002EC38F038C08CF1FB
:1022380039C08DF13AC08EF13BC08FF1000E136E9C
:10224800000E146E000E156EC00E166E8CC10FF0C7
:102258008DC110F08EC111F08FC112F047EC1CF047
:102268000FC044F010C045F011C046F012C047F04E
:102278008CC123F08DC124F08EC125F08FC126F0CA
:10228800B4C11FF0B5C120F0B6C121F0B7C122F02A
:10229800A2EC1EF01FC040F020C041F021C042F067
:1022A80022C043F0A4EC22F040C03CF141C03DF113
:1022B80042C03EF143C03FF144C113F045C114F0A0
:1022C80046C115F047C116F044C123F045C124F0BA
:1022D80046C125F047C126F0B4C11FF0B5C120F0B2
:1022E800B6C121F0B7C122F0A2EC1EF01FC00FF05A
:1022F80020C010F021C011F022C012F047EC1CF0F1
:102308000FC018F110C019F111C01AF112C01BF159
:102318003CC138F03DC139F03EC13AF03FC13BF015
:1023280018C13CF019C13DF01AC13EF01BC13FF085
:1023380002EC38F038C050F139C051F13AC052F1CE
:102348003BC053F1B4C13CF0B5C13DF0B6C13EF05D
:10235800B7C13FF050C138F051C139F052C13AF01D
:1023680053C13BF002EC38F038C09CF139C09DF104
:102378003AC09EF13BC09FF1000E386E000E396ED8
:10238800800E3A6E3F0E3B6E9CC13CF09DC13DF005
:102398009EC13EF09FC13FF002EC38F038C0B4F166
:1023A80039C0B5F13AC0B6F13BC0B7F1B4C1A8F134
:1023B800B5C1A9F1B6C1AAF1B7C1ABF188C168F03E
:1023C80089C169F08AC16AF08BC16BF0170ED89089
:1023D8000001683769376A376B37E82EEBEF11F081
:1023E80068510101A827000169510101A9230001D1
:1023F8006A510101AA2300016B510101AB23170E99
:102408000001686FA8C169F0A9C16AF0AAC16BF0A0
:10241800ABC16CF0686713EF12F01BEF12F06C356C
:102428006C336B336A336933682F0EEF12F0000197
:102438006CBF2BEF12F06C516B116A1106E1690544
:10244800D8B029EF12F02BEF12F043EF12F0B4C11D
:1024580038F0B5C139F0B6C13AF0B7C13BF088C120
:102468003CF089C13DF059EC27F038C0B4F139C0CF
:10247800B5F13AC0B6F13BC0B7F14BEF12F0A8C1C5
:10248800B4F1A9C1B5F1AAC1B6F1ABC1B7F1010167
:10249800B451B511B611B711D8B455EF12F057EFC2
:1024A80012F03EEF03F06451B41B6551B51B665141
:1024B800B61B6751B71B3EEF03F012000001976B84
:1024C80071C098F072C099F073C09AF074C09BF014
:1024D8009BBF73EF12F071EF12F087EF12F0010E4D
:1024E800976F98C001F099C002F09AC003F09BC0A2
:1024F80004F0A4EC38F001C098F002C099F003C0D1
:102508009AF004C09BF0000E00019D6F000E9C6FB6
:10251800EEC187F0EFC188F09751D8B496EF12F06A
:1025280098EF12F0ACEF12F09751D8A49EEF12F08A
:10253800A0EF12F0A6EF12F0000E7D6F2B0E7C6F4D
:10254800AAEF12F0000E7D6F2D0E7C6F7CC097F005
:1025580098C001F099C002F09AC003F09BC004F043
:10256800BCEC32F001040210D8A4BDEF12F0BFEFAA
:1025780012F0F0EF12F000019751D8B4C6EF12F044
:10258800C8EF12F0D1EF12F097C065F28707D8A014
:102598008807000E9D6F010E9C6F650E9C25016ECD
:1025A800020E9D21026EF70E036E7F0E046E88ECFC
:1025B80038F00001FD0E8727FF0E882370C00FF04A
:1025C800650E106E020E116E87C012F088C013F0EF
:1025D8002FEC37F057EF17F098C001F099C002F0D0
:1025E8009AC003F09BC004F0BCEC32F0015002101A
:1025F800D8A401EF13F003EF13F023EF13F0000159
:102608009751D8B40AEF13F00CEF13F015EF13F04D
:1026180097C065F28707D8A08807000E9D6F010E46
:102628009C6F650E9C25016E020E9D21026EFB0EAD
:10263800036E7F0E046E88EC38F0DDEF12F0000EAA
:1026480000019E6F000E9F6F800EA06F3F0EA16F5E
:10265800000E866F000E856F98C001F099C002F0D9
:102668009AC003F09BC004F0000E056E000E066EC3
:10267800000E076E000E086E92EC35F0D8B047EFEA
:1026880013F049EF13F028EF14F056EF13F089C058
:102698009EF08AC09FF08BC0A0F08CC0A1F0000112
:1026A800854B862B9EC01FF09FC020F0A0C021F054
:1026B800A1C022F0000E236E000E246E200E256E9F
:1026C800410E266EA2EC1EF01FC089F020C08AF0D1
:1026D80021C08BF022C08CF000018951985D016EF9
:1026E8008A519959026E8B519A59036E8C519B5994
:1026F800046E62EC37F004BE8DEF13F00450031043
:10270800021009E1020E015CD8A08DEF13F08FEFE3
:1027180013F04BEF13F089C040F08AC041F08BC032
:1027280042F08CC043F098C044F099C045F09AC07C
:1027380046F09BC047F0BAEC31F0D8A0A6EF13F0F2
:10274800A8EF13F04BEF13F000019E51985D016E56
:102758009F519959026EA0519A59036EA1519B59E4
:10276800046E62EC37F004BEC7EF13F00450031098
:10277800021007E1020E015CD8B0C5EF13F0C7EFF5
:1027880013F00FEF14F09EC098F09FC099F0A0C00E
:102798009AF0A1C09BF028EF14F09EC040F09FC0B3
:1027A80041F0A0C042F0A1C043F0000E446E000EFC
:1027B800456E200E466E410E476EA4EC22F040C0D6
:1027C8009EF041C09FF042C0A0F043C0A1F00001BC
:1027D8008507D8A086079E51985D016E9F5199592B
:1027E800026EA0519A59036EA1519B59046E62EC76
:1027F80037F004BE0DEF14F004500310021007E187
:10280800020E015CD8B00BEF14F00DEF14F00FEFCF
:1028180014F0C7EF13F098C040F099C041F09AC087
:1028280042F09BC043F09EC044F09FC045F0A0C05A
:1028380046F0A1C047F0BAEC31F0D8A026EF14F06A
:1028480028EF14F0D1EF13F075C07FF07FC080F04F
:102858000001F4BF32EF14F034EF14F03AEF14F043
:10286800F3C078F0F4C079F03EEF14F0000E796F01
:10287800060E786F78C083F079C084F0834B842B80
:10288800660E8019D8A44BEF14F04DEF14F06DEFDD
:1028980014F086BF54EF14F052EF14F060EF14F008
:1028A800000E9E6F000E9F6F800EA06F3F0EA16FEF
:1028B800000E866F000E856F670E7F19D8B467EF1C
:1028C80014F069EF14F06DEF14F0855183278651E9
:1028D8008423000E8E6F000E8D6F98C08FF099C004
:1028E80090F09AC091F09BC092F09EC089F09FC072
:1028F8008AF0A0C08BF0A1C08CF0FEEF14F08FC05E
:1029080040F090C041F091C042F092C043F09EC0A8
:1029180044F09FC045F0A0C046F0A1C047F0A4EC29
:1029280022F040C059F041C05AF042C05BF043C0A9
:102938005CF073EC28F059C093F05AC094F05BC077
:1029480095F05CC096F093C001F094C002F095C079
:1029580003F096C004F037EC31F001C081F002C0FA
:1029680082F08FC038F090C039F091C03AF092C030
:102978003BF093C023F094C024F095C025F096C096
:1029880026F09EC01FF09FC020F0A0C021F0A1C07B
:1029980022F0A2EC1EF01FC03CF020C03DF021C088
:1029A8003EF022C03FF002EC38F038C08FF039C05A
:1029B80090F03AC091F03BC092F09EC040F09FC0AA
:1029C80041F0A0C042F0A1C043F0000E446E000EDA
:1029D800456E200E466E410E476EA4EC22F040C0B4
:1029E8009EF041C09FF042C0A0F043C0A1F000019A
:1029F8008D4B8E2B83518D5D8E51800A5D6E845177
:102A0800800A5D58D8A00BEF15F00DEF15F083EF95
:102A180014F09EC01FF09FC020F0A0C021F0A1C0FC
:102A280022F0000E236E000E246EA00E256E400EBE
:102A3800266EA2EC1EF01FC093F020C094F021C0B7
:102A480095F022C096F08FC040F090C041F091C040
:102A580042F092C043F093C044F094C045F095C052
:102A680046F096C047F0BAEC31F0D8B03EEF15F01A
:102A780040EF15F04BEF15F0000E0001936F000EBC
:102A8800946F000E956F000E966F74EF15F08FC05F
:102A980001F090C002F091C003F092C004F093C01E
:102AA80005F094C006F095C007F096C008F092ECC7
:102AB80035F0D8A062EF15F064EF15F074EF15F05B
:102AC800000181B16AEF15F06CEF15F074EF15F0A5
:102AD800000E936F000E946F000E956F000E966FA8
:102AE80098C00FF099C010F09AC011F09BC012F076
:102AF80093C013F094C014F095C015F096C016F06A
:102B080047EC1CF00FC08FF010C090F011C091F08E
:102B180012C092F08FC040F090C041F091C042F0D6
:102B280092C043F0000E236E000E246E200E256E18
:102B3800410E266E89C01FF08AC020F08BC021F09C
:102B48008CC022F0A2EC1EF01FC044F020C045F05B
:102B580021C046F022C047F0BAEC31F0D8A0B7EF58
:102B680015F0B9EF15F0E2EF15F00001854B862B53
:102B780089C01FF08AC020F08BC021F08CC022F0E1
:102B8800000E236E000E246E200E256E410E266E5A
:102B9800A2EC1EF01FC089F020C08AF021C08BF083
:102BA80022C08CF0660E00018019D8A4DEEF15F063
:102BB800E0EF15F0E2EF15F0834B842B89C09EF00F
:102BC8008AC09FF08BC0A0F08CC0A1F085C076F0C1
:102BD80086C077F000017E6B000E7B6F000E7A6F67
:102BE800000E8E6F000E8D6FDFEF16F08FC040F075
:102BF80090C041F091C042F092C043F09EC044F0B2
:102C08009FC045F0A0C046F0A1C047F0A4EC22F058
:102C180040C059F041C05AF042C05BF043C05CF07C
:102C280073EC28F059C093F05AC094F05BC095F04B
:102C38005CC096F093C001F094C002F095C003F018
:102C480096C004F037EC31F002BE36EF16F00250B1
:102C580007E10A0E015CD8B034EF16F036EF16F033
:102C680046EF16F093C001F094C002F095C003F04F
:102C780096C004F037EC31F001C081F002C082F058
:102C88004BEF16F0000E0001826F090E816F0001F4
:102C98007E51D8A452EF16F054EF16F07CEF16F0E0
:102CA80077BF5BEF16F059EF16F07CEF16F0650E64
:102CB8009C25D96E020E9D21DA6E2E0EDF6E9C4B7E
:102CC8009D2B8707D8A08807010E7E6F7CEF16F032
:102CD800650E9C25D96E020E9D21DA6E300EDF6ED0
:102CE8009C4B9D2B8707D8A088077A07D8A07B071D
:102CF8007A517B11D8A483EF16F085EF16F06CEFAC
:102D080016F0650E9C25D96E020E9D21DA6E815152
:102D1800300FDF6E9C4B9D2B8707D8A088078FC08C
:102D280038F090C039F091C03AF092C03BF093C0AF
:102D380023F094C024F095C025F096C026F09EC0DC
:102D48001FF09FC020F0A0C021F0A1C022F0A2EC8B
:102D58001EF01FC03CF020C03DF021C03EF022C054
:102D68003FF002EC38F038C08FF039C090F03AC02C
:102D780091F03BC092F09EC040F09FC041F0A0C0CF
:102D880042F0A1C043F0000E446E000E456E200EC6
:102D9800466E410E476EA4EC22F040C09EF041C042
:102DA8009FF042C0A0F043C0A1F000017607D8A070
:102DB80077078D4B8E2B83518D5D8E51800A5D6E0A
:102DC8008451800A5D58D8B0ECEF16F0EEEF16F09B
:102DD800FCEF16F09DBFFAEF16F09D5109E14B0E7E
:102DE8009C5DD8A0FAEF16F0FCEF16F0FAEF15F09C
:102DF800000E8E6F4F0E8D6F650E8D25D96E020EEB
:102E08008E21DA6EDF6A650E5D6E020E5E6E9C5173
:102E18005D5E9D515E5A8D515D24016E8E515E201E
:102E2800026E650E036E020E046E9CC005F09DC016
:102E380006F0B6EC37F000019C518D5D9C6F9D51FA
:102E48008E599D6F9751D8A42CEF17F02FEF17F0DC
:102E5800010E30EF17F0000E8D6F8E6B9751D8B4BE
:102E680038EF17F03AEF17F045EF17F09C07D8A0A6
:102E78009D07650E9C25D96E020E9D21DA6E97C0BE
:102E8800DFFF8D51875F8E51885B70C00FF0650E34
:102E98009C25106E020E9D21116E87C012F088C00D
:102EA80013F02FEC37F012000001A351D96EDA6A43
:102EB800DECFF6FFDDCFF7FF0800F550250AD8A4CE
:102EC80068EF17F06AEF17F0CCEF19F0A351D96E3D
:102ED800DA6ADE2A000EDD22000E0101EF6F000E15
:102EE800EE6FEEC1F2F10001F369F469A351D96EF6
:102EF800DA6ADECFF6FFDDCFF7FF0800F5502E0ABD
:102F0800D8A489EF17F08BEF17F09BEF17F0A351B8
:102F1800D96EDA6ADE2A000EDD22A3C001F0A4C051
:102F280002F03CEC35F001C0F3F002C0F4F000010F
:102F3800A351D96EDA6ADECFAEF0DDCFAFF0AEC006
:102F4800F6FFAFC0F7FF0800F5CFADF0B7EF17F009
:102F5800AE4BAF2BCAEF17F0690EAD6FCAEF17F083
:102F6800AD6BCAEF17F0AD51640AD8B4B0EF17F0E3
:102F78000D0AD8B4B0EF17F0050AD8B4ACEF17F0C3
:102F8800190AD8B4B0EF17F0B4EF17F0AEC0F6FFD7
:102F9800AFC0F7FF0800F550640AD8B4D6EF17F0B1
:102FA800D8EF17F00FEF18F0AEC0F6FFAFC0F7FF7D
:102FB8000800F550690AD8A4E4EF17F0E6EF17F017
:102FC80035EF18F00FEF18F0A4C0D9FFA5C0DAFF4D
:102FD800DF50DF2ADF2AD96EDA6ADECFA9F0DDCF2B
:102FE800AAF0000EAABFFF0EAB6FAC6F1AEF18F075
:102FF800A4C0D9FFA5C0DAFF040EDF26DF5CD96EB6
:10300800DA6ADECFA9F0DECFAAF0DECFABF0DECFF2
:10301800ACF01AEF18F0AD51690AD8B4E8EF17F020
:10302800050AD8B4FCEF17F01AEF18F0010EAE2518
:10303800A66F000EAF21A76FA351D96EDA6AA6C09A
:10304800DEFFA7C0DDFFA2C017F0A9C018F0AAC014
:1030580019F0ABC01AF0ACC01BF040EC2BF0DDEF60
:1030680019F0AEC0F6FFAFC0F7FF0800F550750ABB
:10307800D8A441EF18F043EF18F0A1EF18F06DEF66
:1030880018F0A4C0D9FFA5C0DAFFDF50DF2ADF2A75
:10309800D96EDA6ADECFA6F0DDCFA7F0A6C0A9F018
:1030A800A7C0AAF0AB6BAC6B78EF18F0A4C0D9FF3F
:1030B800A5C0DAFF040EDF26DF5CD96EDA6ADECF40
:1030C800A9F0DECFAAF0DECFABF0DECFACF078EF20
:1030D80018F0AD51690AD8B445EF18F0050AD8B40C
:1030E8005AEF18F078EF18F0010EAE25A66F000E13
:1030F800AF21A76FA351D96EDA6AA6C0DEFFA7C0B9
:10310800DDFF95EF18F0A2C017F0A9C018F0AAC00B
:1031180019F0ABC01AF0ACC01BF026EC30F0DDEFB4
:1031280019F0AEC0F6FFAFC0F7FF0800F550750AFA
:10313800D8B487EF18F0A1EF18F0A86BA351D96E97
:10314800DA6ADECFF6FFDDCFF7FF0800F550730A25
:10315800D8A4B1EF18F0B3EF18F0BDEF18F0A351F1
:10316800D96EDA6ADE2A000EDD22010EA86F09EF99
:1031780019F0A351D96EDA6ADECFF6FFDDCFF7FF7B
:103188000800F5506C0AD8A4CCEF18F0CEEF18F070
:1031980009EF19F0A351D96EDA6ADECFA6F0DDCFB8
:1031A800A7F0010EA627000EA723A6C0F6FFA7C00A
:1031B800F7FF0800F5506C0AD8A4E5EF18F0E7EF20
:1031C80018F009EF19F0A351D96EDA6ADECFA6F02C
:1031D800DDCFA7F0020EA627000EA723A6C0F6FF94
:1031E800A7C0F7FF0800F550730AD8A4FEEF18F03F
:1031F80000EF19F009EF19F0A351D96EDA6A030E3E
:10320800DE26000EDD22B9EF18F0A851D8B40FEF72
:1032180019F011EF19F024EF19F0A2C009F0A4C0B9
:10322800D9FFA5C0DAFF020EDF26DF5CD96EDA6AA5
:10323800DECF0AF0DECF0BF03CEC32F0DDEF19F018
:10324800A351D96EDA6ADECFAEF0DDCFAFF0AEC0F3
:10325800F6FFAFC0F7FF0800F5CFADF03FEF19F06C
:10326800AE4BAF2B4EEF19F06C0EAD6F4EEF19F061
:10327800AD6B4EEF19F0AD514C0AD8B434EF19F0DC
:103288002A0AD8B438EF19F00A0AD8B434EF19F07A
:103298003CEF19F0AEC0F6FFAFC0F7FF0800F550DD
:1032A800660AD8A45AEF19F05CEF19F0C3EF19F0C9
:1032B80088EF19F0A4C0D9FFA5C0DAFFDFCFA6F0C8
:1032C800040EDF26A651D96EDA6ADECFA9F0DECF6A
:1032D800AAF0DECFABF0DECFACF093EF19F0A4C0CC
:1032E800D9FFA5C0DAFFDFCFA6F0040EDF26A6516E
:1032F800D96EDA6ADECFA9F0DECFAAF0DECFABF066
:10330800DECFACF093EF19F0AD514C0AD8B473EF9F
:1033180019F0200AD8B45EEF19F093EF19F0010EF6
:10332800AE25A66F000EAF21A76FA351D96EDA6A3A
:10333800A6C0DEFFA7C0DDFFB7EF19F0A2C070F08E
:10334800A9C071F0AAC072F0ABC073F0ACC074F041
:10335800AEC0F6FFAFC0F7FF0800F5CF75F062EC1E
:1033680012F0DDEF19F0AEC0F6FFAFC0F7FF0800AE
:10337800F550660AD8B4A2EF19F0C3EF19F00001AE
:10338800A351D96EDA6ADE2A000EDD22DDEF19F0CC
:10339800A351D96EDA6ADECFF6FFDDCFF7FF08005A
:1033A800F550016E026AA2C003F088EC34F0C3EF56
:1033B80019F012000101F351D8A4E5EF19F0E7EF75
:1033C80019F0ECEF19F0ADEC2DF0010E0101F36FDF
:1033D8000A0E0E6E020EF6EC36F00EC079F00FC033
:1033E8007AF0000E236E000E246EA00E256E400E9D
:1033F800266E79C001F07AC002F0036A046A000EF2
:1034080066EC2AF001C01FF002C020F003C021F0D2
:1034180004C022F0A2EC1EF01FC040F020C041F012
:1034280021C042F022C043F0000E446E000E456EEB
:10343800800E466E440E476EA4EC22F040C07FF02A
:1034480041C080F042C081F043C082F07FC03CF0B0
:1034580080C03DF081C03EF082C03FF0000E386E63
:10346800000E396EA00E3A6E400E3B6E02EC38F03C
:1034780038C040F039C041F03AC042F03BC043F098
:103488007FC044F080C045F081C046F082C047F05C
:10349800A4EC22F040C083F041C084F042C085F023
:1034A80043C086F0CD0E236ECC0E246ECC0E256E56
:1034B8003C0E266E000E136E000E146EC80E156EAE
:1034C800C10E166EEFC00FF0F0C010F0F1C011F091
:1034D800F2C012F047EC1CF00FC01FF010C020F033
:1034E80011C021F012C022F0A2EC1EF01FC075F02E
:1034F80020C076F021C077F022C078F075C00FF0B8
:1035080076C010F077C011F078C012F0000E136E7C
:10351800000E146E800E156E3F0E166E47EC1CF0F2
:103528000FC071F010C072F011C073F012C074F0C7
:1035380083C040F084C041F085C042F086C043F0AB
:1035480071C044F072C045F073C046F074C047F0D3
:10355800A4EC22F040C083F041C084F042C085F062
:1035680043C086F083C040F084C041F085C042F07B
:1035780086C043F0F9C144F0FAC145F0FBC146F0FA
:10358800FCC147F0A4EC22F040C08DF041C08EF0A1
:1035980042C08FF043C090F0000E0001916F000E02
:1035A800926F000E936F000E946F9A0E406E990EF4
:1035B800416E190E426E3E0E436E8DC044F08EC0B1
:1035C80045F08FC046F090C047F0BAEC31F0D8B063
:1035D800F0EF1AF0F2EF1AF027EF1BF0660E000179
:1035E800646F660E656FE60E666FBF0E676F8DC0FF
:1035F80060F08EC061F08FC062F090C063F009EC9B
:1036080000F060C087F061C088F062C089F063C0D4
:103618008AF087C01FF088C020F089C021F08AC0D6
:1036280022F0000E236E000E246E400E256E410E11
:10363800266EA2EC1EF01FC091F020C092F021C0AF
:1036480093F022C094F0CD0E406ECC0E416E4C0E1D
:10365800426E3D0E436E8DC044F08EC045F08FC063
:1036680046F090C047F0BAEC31F0D8B03EEF1BF00E
:1036780040EF1BF08EEF1BF09A0E406E990E416ED4
:10368800190E426E3E0E436E8DC044F08EC045F05A
:103698008FC046F090C047F0BAEC31F0D8A057EF91
:1036A8001BF059EF1BF08EEF1BF0CD0E0001646F7D
:1036B800CC0E656F4C0E666FC00E676F8DC060F0E4
:1036C8008EC061F08FC062F090C063F009EC00F02A
:1036D80060C087F061C088F062C089F063C08AF07A
:1036E80087C01FF088C020F089C021F08AC022F06E
:1036F800000E236E000E246EA00E256E420E266E5E
:10370800A2EC1EF01FC091F020C092F021C093F0EF
:1037180022C094F0000194BF94EF1BF096EF1BF0C9
:10372800CCEF1BF0000E406E400E416E1C0E426E38
:10373800460E436E91C044F092C045F093C046F0E7
:1037480094C047F0BAEC31F0D8A0ADEF1BF0AFEF62
:103758001BF0B9EF1BF091C07BF092C07CF093C0D6
:103768007DF094C07EF0C2EF1BF0000E00017B6F6D
:10377800400E7C6F1C0E7D6F460E7E6F7BC091F0F5
:103788007CC092F07DC093F07EC094F0D4EF1BF023
:10379800000E916F000E926F000E936F000E946FE3
:1037A8000001FB51040D000EF324D96E020EF42023
:1037B800DA6E91C0DEFF92C0DEFF93C0DEFF94C0D8
:1037C800DEFF000EEB6F000EEC6F000EED6F000ECB
:1037D800EE6F000E8C6F000E8B6FEBC00FF0ECC01D
:1037E80010F0EDC011F0EEC012F0000E5B6E020E8C
:1037F8005C6ED8908B35D96E8C35DA6ED890D93608
:10380800DA365B50D9265C50DA22DECF13F0DECFF1
:1038180014F0DECF15F0DECF16F047EC1CF00FC029
:10382800EBF010C0ECF011C0EDF012C0EEF00001AA
:103838008B4B8C2B8CBF2AEF1CF08C5109E1070EA7
:103848008B5DD8A02AEF1CF02CEF1CF0F1EF1BF0D9
:10385800EBC040F0ECC041F0EDC042F0EEC043F0E8
:10386800000E446E000E456EE00E466E400E476E2A
:10387800A4EC22F040C0EBF041C0ECF042C0EDF007
:1038880043C0EEF012001250800B1B6E125012242F
:103898001D6E11AE52EF1CF054EF1CF055EF1CF0EA
:1038A8001D801D50D8B45BEF1CF05DEF1CF071EF6C
:1038B8001CF01D28D8A463EF1CF065EF1CF06DEF19
:1038C8001CF0000E0F6E000E106E000E116E000E32
:1038D800126E118E126A79EF1CF0000E0F6E000E38
:1038E800106E000E116E000E126E1650800B1C6EBC
:1038F8001B501C18D8B483EF1CF085EF1CF086EF22
:103908001CF01B8C165016241C6E15AE8EEF1CF086
:1039180090EF1CF091EF1CF01C801C50D8B497EF6E
:103928001CF099EF1CF0ADEF1CF01C28D8A49FEFF9
:103938001CF0A1EF1CF0A9EF1CF0000E136E000E96
:10394800146E000E156E000E166E158E166AB5EF03
:103958001CF0000E136E000E146E000E156E000E95
:10396800166E1D501C5CD8B0BCEF1CF0BEEF1CF0EE
:10397800E5EF1CF01BACC3EF1CF0C5EF1CF0C7EF64
:103988001CF0800E1B1A1DC01EF01CC01DF01EC0AE
:103998001CF00FC01EF013C00FF01EC013F010C0B3
:1039A8001EF014C010F01EC014F011C01EF015C097
:1039B80011F01EC015F012C01EF016C012F01EC085
:1039C80016F01E6A1D501CC017F0186A175E000E0C
:1039D800185A18BEF9EF1CF0185009E11A0E175CB6
:1039E800D8A0F9EF1CF0FBEF1CF032EF1DF00F50E0
:1039F800101011101210D8A404EF1DF007EF1DF0DD
:103A0800010E08EF1DF0000E1E6E000E0F6E000E68
:103A1800106E000E116E000E126E1CC01DF03BEFF2
:103A28001DF01EA01AEF1DF01CEF1DF022EF1DF077
:103A3800D8901E3001091E6E24EF1DF0D8901E325A
:103A48000FA029EF1DF02BEF1DF02CEF1DF01E8E9F
:103A580012341232113210320F321D2A1C501D5CE2
:103A6800D8A039EF1DF03BEF1DF015EF1DF01BBC82
:103A780040EF1DF042EF1DF082EF1DF01D50D8A45D
:103A880048EF1DF04AEF1DF054EF1DF0000E0F6EC9
:103A9800000E106E000E116E000E126EA1EF1EF0D9
:103AA80013500F26145010221550112216501222AE
:103AB80012A061EF1DF063EF1DF00FEF1EF01EA0C6
:103AC80068EF1DF06AEF1DF070EF1DF0D8901E3002
:103AD80001091E6E72EF1DF0D8901E320FA077EF0D
:103AE8001DF079EF1DF07AEF1DF01E8E12341232A0
:103AF800113210320F321D2A0FEF1EF013500F5CD7
:103B080014501058155011581250800A176E16503C
:103B1800800A1758D8B093EF1DF095EF1DF0C0EF4D
:103B28001DF00F50135C176E10501458186E11507A
:103B38001558196E125016581A6EFF0E17240F6E6C
:103B4800FF0E1820106EFF0E1920116EFF0E1A209E
:103B5800126E800E1B1A1E6C1E50D8A4B6EF1DF0F4
:103B6800B8EF1DF0C8EF1DF0010E0F26000E102251
:103B780011221222C8EF1DF013500F5E1450105A74
:103B88001550115A1650125A0F50101011101210C9
:103B9800D8A4D1EF1DF0D3EF1DF008EF1EF01E5092
:103BA800D8A4D9EF1DF0DBEF1DF008EF1EF0000ED2
:103BB8000F6E000E106E000E116E000E126EA1EF49
:103BC8001EF0D8900F361036113612361EAEEFEFB3
:103BD8001DF0F1EF1DF0F2EF1DF00F801EA0F7EFC2
:103BE8001DF0F9EF1DF0FDEF1DF0D8801E36FFEF38
:103BF8001DF0D8901E361D50D8B405EF1EF007EF03
:103C08001EF008EF1EF01D0611AE0DEF1EF00FEFAF
:103C18001EF0E5EF1DF01C6A1EAE15EF1EF017EF43
:103C28001EF02FEF1EF01EC017F07F0E1716D8B427
:103C380020EF1EF022EF1EF026EF1EF0010E1C6E84
:103C48002FEF1EF00FA02BEF1EF02DEF1EF02FEF21
:103C58001EF022EF1EF01C50D8B435EF1EF037EFDF
:103C68001EF062EF1EF0010E0F26000E1022112228
:103C7800122212A042EF1EF044EF1EF062EF1EF077
:103C88000FC017F010C018F011C019F012C01AF0C8
:103C98001A341A3219321832173217C00FF018C0F6
:103CA80010F019C011F01AC012F01D28D8B45FEF37
:103CB8001EF061EF1EF062EF1EF01D2A1D28D8B419
:103CC80068EF1EF06AEF1EF072EF1EF01D50D8A4C8
:103CD80070EF1EF072EF1EF083EF1EF0000E0F6EF5
:103CE800000E106E000E116E000E126E1D50D8A43C
:103CF80080EF1EF082EF1EF083EF1EF01B6A1DA0FE
:103D080088EF1EF08AEF1EF08DEF1EF0118E8EEFF9
:103D18001EF0119ED8901D30126E1BAE96EF1EF04D
:103D280098EF1EF099EF1EF0128E0FC00FF010C022
:103D380010F011C011F012C012F012002250800BC6
:103D48002B6E22502224316E21AEADEF1EF0AFEF64
:103D58001EF0B0EF1EF031803150D8B4B6EF1EF02F
:103D6800B8EF1EF0CBEF1EF03128D8A4BEEF1EF03E
:103D7800C0EF1EF0C8EF1EF0000E1F6E000E206E82
:103D8800000E216E000E226E218ED3EF1EF0000E63
:103D98001F6E000E206E000E216E000E226E265041
:103DA800800B2B1A265026242C6E25AEDEEF1EF033
:103DB800E0EF1EF0E1EF1EF02C802C50D8B4E7EFB6
:103DC8001EF0E9EF1EF0FCEF1EF02C28D8A4EFEF50
:103DD8001EF0F1EF1EF0F9EF1EF0000E236E000E3C
:103DE800246E000E256E000E266E258E04EF1FF041
:103DF800000E236E000E246E000E256E000E266E39
:103E08002C50D8B40AEF1FF00CEF1FF014EF1FF07E
:103E18003150D8A412EF1FF014EF1FF01EEF1FF05F
:103E2800000E1F6E000E206E000E216E000E226E18
:103E3800B4EF20F025501F02F3CF36F0F4CF37F05F
:103E480036502D6E2E6A2F6A306A3750326E336ABA
:103E5800346A356A24502002F3CF36F0F4CF37F0B5
:103E680036502D26000E2E222F2230223750322691
:103E7800000E33223422352223502102F3CF36F0AC
:103E8800F4CF37F036502D26000E2E222F22302266
:103E980037503226000E3322342235222FC030F01C
:103EA8002EC02FF02DC02EF02D6A23502002F3CF04
:103EB80036F0F4CF37F036502D2637502E22000E2C
:103EC8002F22000E302224501F02F3CF36F0F4CFF9
:103ED80037F036502D2637502E22000E2F22000E96
:103EE80030222FC030F02EC02FF02DC02EF02D6ABA
:103EF80023501F02F3CF36F0F4CF37F036502D267B
:103F080037502E22000E2F22000E3022255020027C
:103F1800F3CF36F0F4CF37F036503226375033220D
:103F2800000E3422000E352224502102F3CF36F041
:103F3800F4CF37F03650322637503322000E342271
:103F4800000E352225502102F3CF36F0F4CF37F09A
:103F58003650276E3750286E296A2A6A29C02AF0F7
:103F680028C029F027C028F0276A27503226285071
:103F78003322295034222A5035222DC027F02EC052
:103F880028F02FC029F030C02AF0190ED1EF1FF009
:103F9800D8902A32293228322732E82ECCEF1FF067
:103FA8002750322628503322295034222A503522CD
:103FB8002FC030F02EC02FF02DC02EF02D6A2C50BF
:103FC80031C027F0286A2726000E2822820E2724CF
:103FD800366EFF0E2820376E07EF20F0D890323665
:103FE80033363436353630AEFCEF1FF0FEEF1FF0B7
:103FF800FFEF1FF03280D8902D362E362F36303610
:104008003606D8A0370634AE0CEF20F00EEF20F0BD
:10401800F2EF1FF02C6A30AE14EF20F016EF20F00C
:104028003AEF20F0FF0E2D14276EFF0E2E14286E87
:10403800FF0E2F14296E7F0E30142A6E2750281079
:1040480029102A10D8B42BEF20F02DEF20F031EFF3
:1040580020F0010E2C6E3AEF20F032A036EF20F05F
:1040680038EF20F03AEF20F02DEF20F02C50D8B4A4
:1040780040EF20F042EF20F066EF20F0010E3226EC
:10408800000E33223422352235A04DEF20F04FEFB9
:1040980020F066EF20F032C027F033C028F034C09B
:1040A80029F035C02AF02A342A3229322832273218
:1040B80027C032F028C033F029C034F02AC035F0C8
:1040C800364A372A37BE71EF20F0375008E13628D4
:1040D800D8A071EF20F073EF20F07DEF20F0000EF4
:1040E800326E000E336E800E346E7F0E356EAAEF80
:1040F80020F037BE8AEF20F0375006E13604D8B0FA
:1041080088EF20F08AEF20F095EF20F0000E326E55
:10411800000E336E000E346E000E356E2B6AAAEF59
:1041280020F036C031F0FF0E3216FF0E33167F0E28
:104138003416000E351631A0A4EF20F0A6EF20F0BB
:10414800A7EF20F0348ED8903130356E2B503512D1
:1041580032C01FF033C020F034C021F035C022F047
:10416800120001C022F002C023F003C024F004C0F2
:1041780025F0000E2214056E000E2314066E800E24
:104188002414076E7F0E2514086E800E071809E1A7
:104198007F0E081805100610D8A4D5EF20F0D7EF29
:1041A80020F007EF21F0FF0E2214056EFF0E2314F6
:1041B800066E7F0E2414076E000E2514086E055037
:1041C800061007100810D8A4ECEF20F0EEEF20F04E
:1041D800F5EF20F025BEF5EF20F0F3EF20F0FDEF2E
:1041E80020F0FF0E2212FF0E23127F0E2412000E63
:1041F800251222C001F023C002F024C003F025C01C
:1042080004F0A3EF22F025BE16EF21F0255024106C
:10421800231006E12204D8B014EF21F016EF21F0A4
:104228004DEF21F0FF0E2214056EFF0E2314066ECB
:10423800FF0E2414076E7F0E2514086E0550061015
:1042480007100810D8A42BEF21F02DEF21F037EF3D
:1042580021F0000E016E000E026E000E036E000EBD
:10426800046EA3EF22F025BE3EEF21F03CEF21F0D3
:104278004DEF21F0000E0101ED6F210EEC6FFF0EE6
:10428800226EFF0E236EFF0E246E7F0E256EFDEF4D
:1042980020F0170E056E22C006F023C007F024C0D8
:1042A80008F025C009F005665CEF21F064EF21F005
:1042B80009340932083207320632052E57EF21F049
:1042C80006C01AF007C01BF008C01CF009C01DF09A
:1042D8001A501B101C101D10D8A475EF21F077EF91
:1042E80021F0A7EF21F0000E0E6E000E0F6E000EEB
:1042F800106E000E116E8CEF21F0D8902236233606
:1043080024362536010E0E26000E0F221022112209
:1043180024AE91EF21F093EF21F081EF21F0FF0E11
:104328000E24056EFF0E0F20066EFF0E1020076E7E
:10433800FF0E1120086E05501A5E06501B5A0750D2
:104348001C5A08501D5A810E1A26FF0E1B22FF0EFA
:104358001C22FF0E1D22FF0E2214056EFF0E2314D1
:10436800066E7F0E2414076E000E2514086E000ECC
:104378000510226E000E0610236E800E0710246EA4
:10438800000E0810256E1AA0CCEF21F0CEEF21F018
:10439800D6EF21F022502226235023222450242213
:1043A800255025221D341D321C321B321A32225050
:1043B8002226235023222450242225502522000E71
:1043C8000A6E000E0B6E000E0C6E000E0D6E0AC00B
:1043D80012F00BC013F00CC014F00DC015F0000E55
:1043E8001E6E000E1F6E000E206E010E216E45EF30
:1043F80022F00A501E24166E0B501F20176E0C5008
:104408002020186E0D502120196E1650225C17506E
:104418002358185024582550800A056E1950800AD0
:104428000558D8A01AEF22F01CEF22F038EF22F03E
:1044380016501E240A6E17501F200B6E185020208D
:104448000C6E195021200D6E1650225E1750235AFB
:104458001850245A1950255A1E5012261F5013223C
:104468002050142221501522225022262350232284
:104478002450242225502522D890213220321F3260
:104488001E321E501F1020102110D8A44EEF22F00B
:1044980050EF22F0FDEF21F02250231024102510B8
:1044A800D8B459EF22F05BEF22F06FEF22F0010E43
:1044B8001214056E000E1314066E000E1414076E07
:1044C800000E1514086E05501226065013220750C8
:1044D80014220850152212C005F013C006F014C0AB
:1044E80007F015C008F008340832073206320532E2
:1044F800000E0524226E000E0620236E000E0720F3
:10450800246E3F0E0820256E1AC005F01BC006F069
:104518001CC007F01DC008F0170ED89005360636E7
:1045280007360836E82E91EF22F00550222606506D
:1045380023220750242208502522FDEF20F01200E4
:104548004350800B506E43504324576E42AEAFEF3A
:1045580022F0B1EF22F0B2EF22F057805750D8B4D2
:10456800B8EF22F0BAEF22F0CEEF22F05728D8A405
:10457800C0EF22F0C2EF22F0CAEF22F0000E406E28
:10458800000E416E000E426E000E436E428E436A6C
:10459800D6EF22F0000E406E000E416E000E426E05
:1045A800000E436E4750800B501A47504724586EF0
:1045B80046AEE1EF22F0E3EF22F0E4EF22F058807C
:1045C8005850D8B4EAEF22F0ECEF22F000EF23F0D5
:1045D8005828D8A4F2EF22F0F4EF22F0FCEF22F0F2
:1045E800000E446E000E456E000E466E000E476EBD
:1045F800468E476A08EF23F0000E446E000E456EA3
:10460800000E466E000E476E445045104610471087
:10461800D8A411EF23F013EF23F02BEF23F0000EB3
:10462800406E000E416E000E426E000E436E800E0C
:1046380042127F0E43125050431240C040F041C016
:1046480041F042C042F043C043F06BEF24F05750B2
:10465800D8A431EF23F033EF23F03DEF23F0000E21
:10466800406E000E416E000E426E000E436E6BEF00
:1046780024F0585057C048F0496A485E000E495A1D
:104688007F0E4824516E000E4920526E40C04CF0F7
:1046980041C04DF042C04EF043C04FF0000E406E96
:1046A800000E416E000E426E000E436E000E536EF9
:1046B800000E546E000E556E000E566E586A9DEF31
:1046C80023F05850D8B46BEF23F06DEF23F084EF4C
:1046D80023F0D8904C364D364E364F36D89040366B
:1046E80041364236433656AE7CEF23F07EEF23F058
:1046F8007FEF23F04080D8905336543655365636DF
:1047080044504C5C45504D5846504E5847504F58B1
:10471800D8A091EF23F093EF23F09CEF23F0568C71
:1047280044504C5E45504D5A46504E5A47504F5A89
:10473800582A190E5864A3EF23F0A5EF23F065EF6C
:1047480023F04C504D104E104F10D8B4AEEF23F05C
:10475800B0EF23F0C8EF23F05380C8EF23F0D890D0
:10476800403641364236433656AEBDEF23F0BFEFF2
:1047780023F0C0EF23F04080D89053365436553696
:1047880056365106D8A0520642AECDEF23F0CFEFF1
:1047980023F0B3EF23F0586A56AED5EF23F0D7EFE6
:1047A80023F0FBEF23F0FF0E5314486EFF0E541452
:1047B800496EFF0E55144A6E7F0E56144B6E4850C4
:1047C80049104A104B10D8B4ECEF23F0EEEF23F069
:1047D800F2EF23F0010E586EFBEF23F040A0F7EF45
:1047E80023F0F9EF23F0FBEF23F0EEEF23F058501E
:1047F800D8B401EF24F003EF24F027EF24F0010EE2
:104808004026000E41224222432243A00EEF24F00C
:1048180010EF24F027EF24F040C048F041C049F0E1
:1048280042C04AF043C04BF04B344B324A32493213
:10483800483248C040F049C041F04AC042F04BC03D
:1048480043F0514A522A52BE32EF24F0525008E146
:104858005128D8A032EF24F034EF24F03FEF24F0B1
:10486800000E526E5168000E406E000E416E000E32
:10487800426E000E436E52BE4CEF24F0525006E1D9
:104888005104D8B04AEF24F04CEF24F059EF24F04B
:10489800000E526E000E516E000E406E000E416EFC
:1048A800000E426E000E436E506A51C057F057A07A
:1048B80060EF24F062EF24F065EF24F0428E66EF9B
:1048C80024F0429ED8905730436E1FEF23F0120019
:1048D800700ED36E020E936E816A818A8190000EEB
:1048E8000201B96F000EB86F000E0001E76F020EEB
:1048F800E86FD8900201B835D96EB935DA6ED8901C
:10490800D936DA360001E751D926E851DA22000E05
:10491800DE6E000EDE6EC80EDE6E410EDD6EDD52FE
:10492800DD521C0EE96F020EEA6FD8900201B8350D
:10493800E16EB935E26ED890E136E2360001E95110
:10494800E126EA51E222DECFE6FFDECFE6FFDECF48
:10495800E6FFDECFE6FF0201B84BB92BB9BFBEEFC9
:1049680024F0B95109E1070EB85DD8A0BEEF24F0D4
:10497800C0EF24F078EF24F0150E0001E86F4B0E1D
:10498800E76FBE0EE82EFED7E72FFCD7E82FFAD741
:104998000000F4EC38F008EC39F011EC39F0040EB2
:1049A8009AEC2FF0010E0101F46F03EC2FF0ADEC3F
:1049B8002DF0000E0201B76F000EB66F000E000159
:1049C800F66F000EF56FFA0E0101D027000ED12305
:1049D800D223D323FEEC38F00009D8B4F6EF24F044
:1049E800F8EF24F033EF25F0E8EC38F00201B56F6A
:1049F80024EF25F00001F951D8A405EF25F007EFC1
:104A080025F033EF25F0010EF96FD0C1D4F1D1C1F3
:104A1800D5F1D2C1D6F1D3C1D7F1D0C161F2D1C19C
:104A280062F2D2C163F2D3C164F233EF25F0010E12
:104A38000001FA6F33EF25F00001FA6B33EF25F030
:104A4800B551520AD8B420EF25F0010AD8B41BEFAB
:104A580025F0070AD8B4FEEF24F033EF25F0000163
:104A6800F951D8B43AEF25F03CEF25F03EEF25F0A8
:104A780021EC34F00001FA51D8A445EF25F047EFB6
:104A880025F05AEF25F0E2EC2CF02CEC26F0DEECC9
:104A980019F06AEC2EF00001F951D8A456EF25F070
:104AA80058EF25F05AEF25F07EEC29F00001FC5173
:104AB800D8B461EF25F063EF25F070EF25F0F851D9
:104AC800D8A469EF25F06BEF25F070EF25F0010E03
:104AD800BAEC36F0BEEF25F0F951D8B476EF25F0F0
:104AE80078EF25F085EF25F0F851D8A47EEF25F072
:104AF80080EF25F085EF25F0020EBAEC36F0BEEF18
:104B080025F0FA51D8B48BEF25F08DEF25F09AEF08
:104B180025F0F851D8A493EF25F095EF25F09AEFFA
:104B280025F0030EBAEC36F0BEEF25F0FC51D8A400
:104B3800A0EF25F0A2EF25F0BEEF25F0F951D8A49B
:104B4800A8EF25F0AAEF25F0BEEF25F0FA51D8A47A
:104B5800B0EF25F0B2EF25F0BEEF25F0F851D8B44C
:104B6800B8EF25F0BAEF25F0BEEF25F012EC2CF0E7
:104B7800BEEF25F07DEC36F0010E0001FB25016E3D
:104B8800026A000E0222000E046E070E036EE5ECA8
:104B980034F001500001FB6F0201B75109E1040E26
:104BA800B65DD8A0DAEF25F0DCEF25F018EF26F097
:104BB800B0EC33F0000E0201B76F000EB66FE80ECE
:104BC8000101D827030ED923000EDA23000EDB23B8
:104BD800DB510DE1E00ED85D930ED959040EDA5978
:104BE800D8A0F9EF25F0FBEF25F0FDEF25F0ADECAF
:104BF8002DF00101DB510DE1C00ED85D270ED9590A
:104C0800090EDA59D8A00BEF26F00DEF26F018EFB1
:104C180026F003EC2FF0000E0101D86F000ED96FBB
:104C2800000EDA6F000EDB6F0201B64BB72B030ED6
:104C38000001E86F8A0EE76F550EE82EFED7E72FC2
:104C4800FCD7E82FFAD700D0E7EF24F007EF00F001
:104C58000101F851D8A433EF26F035EF26F039EFEB
:104C680026F003EC2FF058EF27F00A0E0E6E010E17
:104C7800F6EC36F00EC06BF00FC06CF0000E236E31
:104C8800000E246EA00E256E400E266E6BC001F03D
:104C98006CC002F0036A046A000E66EC2AF001C0D8
:104CA8001FF002C020F003C021F004C022F0A2ECE3
:104CB8001EF01FC040F020C041F021C042F022C0C9
:104CC80043F0000E446E000E456E800E466E440E94
:104CD800476EA4EC22F040C067F041C068F042C0C3
:104CE80069F043C06AF0000E236E000E246EC80EF1
:104CF800256E420E266E67C03CF068C03DF069C064
:104D08003EF06AC03FF0E4C138F0E5C139F0E6C1D1
:104D18003AF0E7C13BF002EC38F038C01FF039C078
:104D280020F03AC021F03BC022F0A2EC1EF01FC0D8
:104D380040F020C041F021C042F022C043F0E4C15D
:104D480044F0E5C145F0E6C146F0E7C147F0A4EC00
:104D580022F040C071F041C072F042C073F043C00D
:104D680074F0000174BFBDEF26F0BBEF26F0C5EF6D
:104D780026F0000E716F000E726F000E736F000E3A
:104D8800746F000E406E000E416EC80E426E420EE9
:104D9800436E71C044F072C045F073C046F074C0F1
:104DA80047F0BAEC31F0D8B0DCEF26F0DEEF26F0B1
:104DB800E7EF26F0000E0001716F000E726FC80E4B
:104DC800736F420E746F0001F751D8A4EEEF26F00E
:104DD800F0EF26F010EF27F071C040F072C041F0FC
:104DE80073C042F074C043F0000E446E000E456E6E
:104DF800900E466E410E476EBAEC31F0D8A007EF20
:104E080027F009EF27F010EF27F0010E0001FD6FE2
:104E1800010EF76F35EF27F00001F751D8B417EFFF
:104E280027F019EF27F035EF27F0000E406E000E3F
:104E3800416E400E426E410E436E71C044F072C026
:104E480045F073C046F074C047F0BAEC31F0D8A012
:104E580030EF27F032EF27F035EF27F00001FD6B38
:104E6800F76B0001FD51D8A43CEF27F03EEF27F087
:104E780048EF27F0000E6D6F000E6E6F000E6F6F1B
:104E8800000E706F50EF27F071C06DF072C06EF0B9
:104E980073C06FF074C070F06DC0E8F16EC0E9F1D6
:104EA8006FC0EAF170C0EBF1120038C046F039C0AB
:104EB80047F03AC048F03BC049F03DBE6DEF27F0DF
:104EC8003D5009E1800E3C5CD8A06DEF27F06FEFF4
:104ED80027F0CDEF27F046C01FF047C020F048C0AC
:104EE80021F049C022F0000E236E000E246E000E41
:104EF800256E7F0E266EA2EC1EF01FC046F020C065
:104F080047F021C048F022C049F0810E3C26FF0E30
:104F18003D223DBE99EF27F03D5009E1800E3C5CF3
:104F2800D8A099EF27F09BEF27F037EF28F046C07D
:104F38001FF047C020F048C021F049C022F0000E01
:104F4800236E000E246E000E256E7F0E266EA2ECD8
:104F58001EF01FC046F020C047F021C048F022C014
:104F680049F0810E3C26FF0E3D223DBEC5EF27F0DD
:104F78003D5009E1800E3C5CD8A0C5EF27F0C7EF93
:104F880027F037EF28F0000E3D6E7F0E3C6E37EFAE
:104F980028F03DAED9EF27F0820E3C5CFF0E3D585D
:104FA800D8B0D9EF27F0DBEF27F037EF28F046C06D
:104FB8001FF047C020F048C021F049C022F0000E81
:104FC800236E000E246E800E256E0C0E266EA2EC4B
:104FD8001EF01FC046F020C047F021C048F022C094
:104FE80049F0660E3C26000E3D223DAE05EF28F046
:104FF800820E3C5CFF0E3D58D8B005EF28F007EF55
:1050080028F037EF28F046C01FF047C020F048C00E
:1050180021F049C022F0000E236E000E246E800E8F
:10502800256E0C0E266EA2EC1EF01FC046F020C0A6
:1050380047F021C048F022C049F0660E3C26000E19
:105048003D223DAE31EF28F0820E3C5CFF0E3D580C
:10505800D8B031EF28F033EF28F037EF28F0FF0E03
:105068003D6E820E3C6E7F0E3C243E6E000E3D204F
:105078003F6E406A416A170ED8903E363F3640363A
:105088004136E82E40EF28F03EC042F03FC043F0E2
:1050980040C044F041C045F042C01FF043C020F07A
:1050A80044C021F045C022F046C023F047C024F098
:1050B80048C025F049C026F0A2EC1EF01FC038F009
:1050C80020C039F021C03AF022C03BF038C038F097
:1050D80039C039F03AC03AF03BC03BF0120051C237
:1050E8006CF052C26DF053C26EF054C26FF059C0EA
:1050F8006CF05AC06DF05BC06EF05CC06FF0810E52
:105108000001606FFF0E616F6CC062F06DC063F0EC
:105118006EC064F06FC065F0180E98EF28F0D89054
:105128006533643363336233E82E93EF28F06251BA
:1051380060256A6F000E61216B6F6BBFADEF28F0C1
:105148006B5109E1170E6A5DD8A0ADEF28F0AFEFFB
:1051580028F0B9EF28F059C059F05AC05AF05BC08E
:105168005BF05CC05CF07DEF29F06BBFBEEF28F010
:10517800C0EF28F031EF29F06AC060F0FF0E616FD0
:10518800FF0E626F7F0E636F000E646F6067CFEF74
:1051980028F0D7EF28F06435643363336233613322
:1051A800602FCAEF28F061C066F062C067F063C084
:1051B80068F064C069F0000166516C15606F675152
:1051C8006D15616F68516E15626F69516F15636F68
:1051D8006051611162116311D8A4F5EF28F0F7EF5F
:1051E80028F0F9EF28F0AFEF28F06CC060F06DC040
:1051F80061F06EC062F06FC063F0200E09EF29F015
:10520800D8906333623361336033E82E04EF29F0BA
:105218006051611162116311D8B415EF29F017EFCD
:1052280029F01FEF29F066516C2767516D236851EB
:105238006E2369516F23661D606F671D616F681D5E
:10524800626F691D636F60516C1761516D17625110
:105258006E1763516F1775EF29F06CC060F06DC061
:1052680061F06EC062F06FC063F0200E41EF29F06C
:10527800D8906333623361336033E82E3CEF29F012
:105288006051611162116311D8A44DEF29F04FEFFD
:1052980029F059EF29F0000E6C6F000E6D6F000EAB
:1052A8006E6F000E6F6F75EF29F0D8906C35606FD8
:1052B8006D35616F6E35626F6F35636F6051611167
:1052C80062116311D8B46BEF29F06DEF29F075EF17
:1052D80029F0000E6C6F000E6D6F800E6E6FBF0EA2
:1052E8006F6F6CC059F06DC05AF06EC05BF06FC044
:1052F8005CF01200FCC0F5F1EFC040F0F0C041F0E6
:10530800F1C042F0F2C043F0000E446E000E456E4C
:10531800280E466E420E476EBAEC31F0D8B097EFC1
:1053280029F09AEF29F0010E9BEF29F0000E506E3C
:10533800EBC040F0ECC041F0EDC042F0EEC043F0ED
:10534800000E446E000E456E5C0E466E420E476EB1
:10535800BAEC31F0D8B0B3EF29F0B6EF29F0010E6E
:10536800B7EF29F0000E516E010E526E0001FD518B
:10537800D8A4C1EF29F0C3EF29F0D4EF29F0505099
:10538800D8A4C9EF29F0CBEF29F0D4EF29F0515078
:10539800D8A4D1EF29F0D3EF29F0D4EF29F0526A3D
:1053A80052C0FCF0FC51D8A4DCEF29F0DEEF29F064
:1053B80013EF2AF0000E406E000E416E180E426E7A
:1053C800420E436EEFC044F0F0C045F0F1C046F025
:1053D800F2C047F0BAEC31F0D8A0F5EF29F0F7EFBA
:1053E80029F010EF2AF0000E406E000E416E340EC8
:1053F800426E420E436EEBC044F0ECC045F0EDC087
:1054080046F0EEC047F0BAEC31F0D8B00EEF2AF013
:1054180010EF2AF013EF2AF0010E0001FC6F0001D3
:10542800FC51D8B41AEF2AF01CEF2AF060EF2AF0EA
:105438008180010E0101F76F020159510101D05D10
:105448004C6E02015A510101D1594D6E02015B5156
:105458000101D2594E6E02015C510101D3594F6EC0
:105468004F504E100BE1F40E4C5C010E4D58D8A075
:1054780040EF2AF042EF2AF05BEF2AF081AA47EFCB
:105488002AF04BEF2AF04C6A4C2A4CEF2AF04C6A6F
:105498004C3A4C4681504C18DF0B4C18816ED0C1E9
:1054A80059F2D1C15AF2D2C15BF2D3C15CF2010EFA
:1054B8000101F66F65EF2AF081900101F76B818A8F
:1054C800F66B1200096E0950D8B46DEF2AF06FEF31
:1054D8002AF091EF2AF004BE76EF2AF074EF2AF052
:1054E80091EF2AF001C005F002C006F003C007F0F2
:1054F80004C008F0051E061E071E081E052A000E19
:1055080006220722082205C00BF006C00CF007C0CF
:105518000DF008C00EF099EF2AF001C00BF002C0A0
:105528000CF003C00DF004C00EF00150021003107F
:105538000410D8A4A2EF2AF0A4EF2AF0AEEF2AF0C4
:10554800000E016E000E026E000E036E000E046E59
:105558003FEF2BF0960E0A6EB8EF2AF00A2AD89081
:105568000E320D320C320B32000E0B14056E000E8B
:105578000C14066E000E0D14076EFE0E0E14086E47
:105588000550061007100810D8A4CDEF2AF0CFEF69
:105598002AF0B2EF2AF0DDEF2AF00A2A010E0B26D4
:1055A800000E0C220D220E22D8900E320D320C3233
:1055B8000B32000E0B14056E000E0C14066E000E56
:1055C8000D14076EFF0E0E14086E05500610071016
:1055D8000810D8A4F2EF2AF0F4EF2AF0D1EF2AF05D
:1055E800FCEF2AF00A06D8900B360C360D360E362C
:1055F8000DBE01EF2BF003EF2BF00BEF2BF0020E9B
:105608000A6009EF2BF00BEF2BF0F6EF2AF00AB047
:1056180010EF2BF012EF2BF013EF2BF00D9ED8901C
:105628000A320AC005F0066A076A086A05C008F067
:10563800076A066A056A05500B1206500C120750D5
:105648000D1208500E120950D8B42DEF2BF02FEF81
:105658002BF037EF2BF004BE36EF2BF034EF2BF0A6
:1056680037EF2BF00E8E0BC001F00CC002F00DC00E
:1056780003F00EC004F012001BBE45EF2BF048EFFC
:105688002BF0010E49EF2BF0000E226E0001F4BF43
:1056980052EF2BF050EF2BF058EF2BF0000E216E4D
:1056A800010E206E5CEF2BF0F3C020F0F4C021F067
:1056B800EEC11EF0EFC11FF02250D8B466EF2BF0F8
:1056C80068EF2BF07FEF2BF01E06D8A01F062250A4
:1056D800D8A471EF2BF073EF2BF079EF2BF0000EBD
:1056E8001D6E2B0E1C6E7DEF2BF0000E1D6E2D0E09
:1056F8001C6E1CC022F0000E246E4F0E236E020199
:10570800B46BCBEF2BF02306D8A02406650E232418
:10571800D96E020E2420DA6E18C001F019C002F00A
:105728001AC003F01BC004F00A0E056E000E066EC8
:10573800000E076E000E086E3BEC33F001C00BF054
:1057480002C00CF0C0EC38F00B50300FDF6E2006B2
:10575800D8A021061E06D8A01F0618C001F019C03F
:1057680002F01AC003F01BC004F00A0E056E000E0A
:10577800066E000E076E000E086EB2EC30F001C027
:1057880018F002C019F003C01AF004C01BF024BEC0
:10579800D6EF2BF0245008E12304D8A0D6EF2BF045
:1057A800D8EF2BF0F0EF2BF0185019101A101B102F
:1057B800D8A4E1EF2BF0E3EF2BF087EF2BF021BE1D
:1057C800F0EF2BF0215006E12004D8B0EEEF2BF0DB
:1057D800F0EF2BF087EF2BF02250D8B4F6EF2BF038
:1057E800F8EF2BF003EF2CF02306D8A02406650E63
:1057F8002324D96E020E2420DA6E22C0DFFF17C0E0
:105808000FF0650E2324106E020E2420116E1EC0A8
:1058180012F01FC013F02FEC37F012000001F851FE
:10582800D8A419EF2CF01BEF2CF01DEF2CF0E1EFB2
:105838002CF0DCC138F0DDC139F0DEC13AF0DFC14F
:105848003BF049C23CF04AC23DF04BC23EF04CC26C
:105858003FF002EC38F038C04DF239C04EF23AC091
:105868004FF23BC050F255EF2CF0C30E0101C86F48
:105878007F0EC96F70EF2CF0CC0E0101C86F7F0E40
:10588800C96F70EF2CF0A90E0101C86F7F0EC96FA8
:1058980070EF2CF0DE0E0101C86F7F0EC96F70EF3C
:1058A8002CF0020138510001E46FE56BE551000A64
:1058B800D8B461EF2CF04EEF2CF0E451010AD8B4C3
:1058C80039EF2CF0030AD8B440EF2CF0010AD8B411
:1058D80047EF2CF04EEF2CF0000E0001B66F010ED2
:1058E800B76F3E0EB86F7F0EB96FC8C1BAF0C9C1A5
:1058F800BBF039C2BCF03AC2BDF03BC2BEF03CC2FC
:10590800BFF03DC2C0F03EC2C1F03FC2C2F040C2CB
:10591800C3F041C2C4F042C2C5F043C2C6F044C29B
:10592800C7F045C2C8F046C2C9F047C2CAF048C26B
:10593800CBF04DC2CCF04EC2CDF04FC2CEF050C22B
:10594800CFF025EC38F0ACA2ACEF2CF0AEEF2CF099
:10595800A7EF2CF0000E0101CB6F000ECA6FC7EF46
:105968002CF0000ECA25D96E010ECB21DA6EDF505D
:10597800AD6EACA2C2EF2CF0C4EF2CF0BDEF2CF052
:105988000101CA4BCB2B000ECA25D96E010ECB21C3
:10599800DA6EDF50D8A4D3EF2CF0D5EF2CF0B5EFAA
:1059A8002CF00001F86B0201386BD0C1CCF1D1C1E9
:1059B800CDF1D2C1CEF1D3C1CFF112000A0E0E6ED5
:1059C800000EF6EC36F00EC068F00FC069F0000E5D
:1059D800446E000E456E800E466E440E476E000EF5
:1059E800236E000E246EA00E256E400E266E68C033
:1059F80001F069C002F0036A046A000E66EC2AF03E
:105A080001C01FF002C020F003C021F004C022F042
:105A1800A2EC1EF01FC040F020C041F021C042F0AF
:105A280022C043F0A4EC22F040C064F041C065F00D
:105A380042C066F043C067F064C040F065C041F002
:105A480066C042F067C043F00A0E446ED70E456E3A
:105A5800230E466E3C0E476EA4EC22F040C060F068
:105A680041C061F042C062F043C063F00001FB51E5
:105A7800040D1C0EF324D96E020EF420DA6E60C0F9
:105A8800DEFF61C0DEFF62C0DEFF63C0DEFF000E26
:105A9800EF6F000EF06F000EF16F000EF26F000E48
:105AA8006B6F000E6A6FEFC00FF0F0C010F0F1C01E
:105AB80011F0F2C012F01C0E596E020E5A6ED890F8
:105AC8006A35D96E6B35DA6ED890D936DA365950D0
:105AD800D9265A50DA22DECF13F0DECF14F0DECF0B
